{
	"compilerInput": "{\"language\":\"Solidity\",\"sources\":{\"contracts/BITKWANZA.sol\":{\"content\":\"// SPDX-License-Identifier: MIT\\npragma solidity ^0.8.20;\\n\\n/* ---------------- OPENZEPPELIN DEPENDENCIES ---------------- */\\n\\n/**\\n * @dev Interface of the ERC20 standard as defined in the EIP.\\n */\\ninterface IERC20 {\\n    function totalSupply() external view returns (uint256);\\n    function balanceOf(address account) external view returns (uint256);\\n    function transfer(address to, uint256 amount) external returns (bool);\\n    function allowance(address owner, address spender) external view returns (uint256);\\n    function approve(address spender, uint256 amount) external returns (bool);\\n    function transferFrom(\\n        address from,\\n        address to,\\n        uint256 amount\\n    ) external returns (bool);\\n    event Transfer(address indexed from, address indexed to, uint256 value);\\n    event Approval(address indexed owner, address indexed spender, uint256 value);\\n}\\n\\n/**\\n * @dev Provides information about the current execution context.\\n */\\nabstract contract Context {\\n    function _msgSender() internal view virtual returns (address) {\\n        return msg.sender;\\n    }\\n    function _msgData() internal view virtual returns (bytes calldata) {\\n        return msg.data;\\n    }\\n}\\n\\n/**\\n * @dev Implementation of the {IERC20} interface.\\n */\\ncontract ERC20 is Context, IERC20 {\\n    mapping(address => uint256) private _balances;\\n    mapping(address => mapping(address => uint256)) private _allowances;\\n\\n    uint256 private _totalSupply;\\n    string private _name;\\n    string private _symbol;\\n\\n    constructor(string memory name_, string memory symbol_) {\\n        _name = name_;\\n        _symbol = symbol_;\\n    }\\n\\n    function name() public view virtual returns (string memory) {\\n        return _name;\\n    }\\n\\n    function symbol() public view virtual returns (string memory) {\\n        return _symbol;\\n    }\\n\\n    function decimals() public view virtual returns (uint8) {\\n        return 18;\\n    }\\n\\n    function totalSupply() public view virtual override returns (uint256) {\\n        return _totalSupply;\\n    }\\n\\n    function balanceOf(address account) public view virtual override returns (uint256) {\\n        return _balances[account];\\n    }\\n\\n    function transfer(address to, uint256 amount) public virtual override returns (bool) {\\n        _transfer(_msgSender(), to, amount);\\n        return true;\\n    }\\n\\n    function allowance(address owner, address spender) public view virtual override returns (uint256) {\\n        return _allowances[owner][spender];\\n    }\\n\\n    function approve(address spender, uint256 amount) public virtual override returns (bool) {\\n        _approve(_msgSender(), spender, amount);\\n        return true;\\n    }\\n\\n    function transferFrom(\\n        address from,\\n        address to,\\n        uint256 amount\\n    ) public virtual override returns (bool) {\\n        _spendAllowance(from, _msgSender(), amount);\\n        _transfer(from, to, amount);\\n        return true;\\n    }\\n\\n    function _transfer(address from, address to, uint256 amount) internal virtual {\\n        _beforeTokenTransfer(from, to, amount);\\n\\n        uint256 fromBalance = _balances[from];\\n        require(fromBalance >= amount, \\\"ERC20: transfer amount exceeds balance\\\");\\n        unchecked {\\n            _balances[from] = fromBalance - amount;\\n            _balances[to] += amount;\\n        }\\n\\n        emit Transfer(from, to, amount);\\n\\n        _afterTokenTransfer(from, to, amount);\\n    }\\n\\n    function _mint(address account, uint256 amount) internal virtual {\\n        _beforeTokenTransfer(address(0), account, amount);\\n\\n        _totalSupply += amount;\\n        _balances[account] += amount;\\n        emit Transfer(address(0), account, amount);\\n\\n        _afterTokenTransfer(address(0), account, amount);\\n    }\\n\\n    function _burn(address account, uint256 amount) internal virtual {\\n        _beforeTokenTransfer(account, address(0), amount);\\n\\n        uint256 accountBalance = _balances[account];\\n        require(accountBalance >= amount, \\\"ERC20: burn amount exceeds balance\\\");\\n        unchecked {\\n            _balances[account] = accountBalance - amount;\\n            _totalSupply -= amount;\\n        }\\n\\n        emit Transfer(account, address(0), amount);\\n\\n        _afterTokenTransfer(account, address(0), amount);\\n    }\\n\\n    function _approve(\\n        address owner,\\n        address spender,\\n        uint256 amount\\n    ) internal virtual {\\n        require(owner != address(0), \\\"ERC20: approve from zero address\\\");\\n        require(spender != address(0), \\\"ERC20: approve to zero address\\\");\\n\\n        _allowances[owner][spender] = amount;\\n        emit Approval(owner, spender, amount);\\n    }\\n\\n    function _spendAllowance(\\n        address owner,\\n        address spender,\\n        uint256 amount\\n    ) internal virtual {\\n        uint256 currentAllowance = allowance(owner, spender);\\n        if (currentAllowance != type(uint256).max) {\\n            require(currentAllowance >= amount, \\\"ERC20: insufficient allowance\\\");\\n            unchecked {\\n                _approve(owner, spender, currentAllowance - amount);\\n            }\\n        }\\n    }\\n\\n    function _beforeTokenTransfer(address from, address to, uint256 amount) internal virtual {}\\n    function _afterTokenTransfer(address from, address to, uint256 amount) internal virtual {}\\n}\\n\\n/**\\n * @dev Contract module which provides a basic access control mechanism, where\\n * there is an account (an owner) that can be granted exclusive access to\\n * specific functions.\\n */\\nabstract contract Ownable is Context {\\n    address private _owner;\\n\\n    event OwnershipTransferred(address indexed previousOwner, address indexed newOwner);\\n\\n    constructor(address initialOwner) {\\n        _transferOwnership(initialOwner);\\n    }\\n\\n    function owner() public view virtual returns (address) {\\n        return _owner;\\n    }\\n\\n    modifier onlyOwner() {\\n        require(owner() == _msgSender(), \\\"Ownable: caller is not the owner\\\");\\n        _;\\n    }\\n\\n    function renounceOwnership() public virtual onlyOwner {\\n        _transferOwnership(address(0));\\n    }\\n\\n    function transferOwnership(address newOwner) public virtual onlyOwner {\\n        require(newOwner != address(0), \\\"Ownable: new owner is zero address\\\");\\n        _transferOwnership(newOwner);\\n    }\\n\\n    function _transferOwnership(address newOwner) internal virtual {\\n        address oldOwner = _owner;\\n        _owner = newOwner;\\n        emit OwnershipTransferred(oldOwner, newOwner);\\n    }\\n}\\n\\n/* ---------------- INTERFACES -------------------- */\\ninterface IERC20Extended {\\n    function transfer(address to, uint256 amount) external returns (bool);\\n    function balanceOf(address account) external view returns (uint256);\\n}\\n\\n/* ---------------- BITKWANZA --------------------- */\\ncontract BITKWANZA is ERC20, Ownable {\\n    uint256 public constant MAX_SUPPLY = 1_000_000_000 * 10**18;\\n    uint256 public constant MAX_FEE_BP = 250; // 2.5%\\n    uint256 public foundingFeeBP = 5;        // 0.005%\\n    uint256 public rewardFeeBP = 1;          // 0.00005%\\n    uint256 public treasuryFeeBP = 100;      // 1%\\n    bool public feesEnabled = true;\\n\\n    address public foundingWallet;\\n    address public treasuryWallet;\\n    DividendVault public vault;\\n    mapping(address => bool) public isFeeExempt;\\n\\n    constructor(\\n        address _foundingWallet,\\n        address _treasuryWallet\\n    ) ERC20(\\\"BITKWANZA\\\", \\\"BKZ\\\") Ownable(msg.sender) {\\n        foundingWallet = _foundingWallet;\\n        treasuryWallet = _treasuryWallet;\\n        vault = new DividendVault(address(this), _treasuryWallet);\\n        _mint(msg.sender, MAX_SUPPLY);\\n        isFeeExempt[msg.sender] = true;\\n        isFeeExempt[address(this)] = true;\\n    }\\n\\n    /* ---------------- ADMIN ---------------- */\\n    function setFeesEnabled(bool enabled) external onlyOwner {\\n        feesEnabled = enabled;\\n    }\\n\\n    function setFeeExempt(address account, bool exempt) external onlyOwner {\\n        isFeeExempt[account] = exempt;\\n    }\\n\\n    function setFoundingWallet(address wallet) external onlyOwner {\\n        foundingWallet = wallet;\\n    }\\n\\n    function setTreasuryWallet(address wallet) external onlyOwner {\\n        treasuryWallet = wallet;\\n    }\\n\\n    /* ---------------- TRANSFER LOGIC ---------------- */\\n    function _update(\\n        address from,\\n        address to,\\n        uint256 amount\\n    ) internal virtual {\\n        // mint / burn bypass\\n        if (from == address(0) || to == address(0)) {\\n            _transfer(from, to, amount);\\n            return;\\n        }\\n\\n        if (!feesEnabled || isFeeExempt[from] || isFeeExempt[to]) {\\n            _transfer(from, to, amount);\\n            return;\\n        }\\n\\n        uint256 totalFeeBP = foundingFeeBP + rewardFeeBP + treasuryFeeBP;\\n        require(totalFeeBP <= MAX_FEE_BP, \\\"Fee cap exceeded\\\");\\n\\n        uint256 feeFounding = (amount * foundingFeeBP) / 10_000;\\n        uint256 feeReward = (amount * rewardFeeBP) / 10_000;\\n        uint256 feeTreasury = (amount * treasuryFeeBP) / 10_000;\\n        uint256 netAmount = amount - feeFounding - feeReward - feeTreasury;\\n\\n        _transfer(from, to, netAmount);\\n        _transfer(from, foundingWallet, feeFounding);\\n        _transfer(from, treasuryWallet, feeTreasury);\\n        _transfer(from, address(vault), feeReward);\\n\\n        vault.updateHolderShare(from, to);\\n    }\\n}\\n\\n/* ---------------- DIVIDEND VAULT ---------------- */\\ncontract DividendVault is Ownable {\\n    ERC20 public immutable token;\\n    address public treasury;\\n\\n    struct Holder {\\n        uint256 lastClaim;\\n        uint256 totalClaimed;\\n    }\\n\\n    mapping(address => Holder) public holders;\\n    address[] public holderList;\\n    uint256 public rewardPool;\\n    IERC20Extended public payoutToken;\\n\\n    event Claim(address indexed user, uint256 amount);\\n\\n    constructor(\\n        address tokenAddress,\\n        address treasuryAddress\\n    ) Ownable(msg.sender) {\\n        token = ERC20(tokenAddress);\\n        treasury = treasuryAddress;\\n        payoutToken = IERC20Extended(tokenAddress);\\n    }\\n\\n    /* ---------------- HOLDER TRACKING ---------------- */\\n    function updateHolderShare(address from, address to) external {\\n        require(msg.sender == address(token), \\\"Only token\\\");\\n\\n        if (from != address(0) && holders[from].lastClaim == 0) {\\n            holderList.push(from);\\n        }\\n        if (to != address(0) && holders[to].lastClaim == 0) {\\n            holderList.push(to);\\n        }\\n\\n        rewardPool = token.balanceOf(address(this));\\n    }\\n\\n    /* ---------------- CLAIM LOGIC ---------------- */\\n    function claim() external {\\n        _claim(msg.sender);\\n    }\\n\\n    function autoClaimAll(uint256 batchSize) external {\\n        uint256 len = holderList.length;\\n        uint256 processed;\\n        for (uint256 i; i < len && processed < batchSize; i++) {\\n            _claim(holderList[i]);\\n            processed++;\\n        }\\n    }\\n\\n    function _claim(address user) internal {\\n        uint256 balance = token.balanceOf(user);\\n        if (balance == 0 || rewardPool == 0) return;\\n\\n        uint256 share = (rewardPool * balance) / token.totalSupply();\\n        if (share == 0) return;\\n\\n        holders[user].totalClaimed += share;\\n        holders[user].lastClaim = block.timestamp;\\n        rewardPool -= share;\\n\\n        payoutToken.transfer(user, share);\\n        emit Claim(user, share);\\n    }\\n\\n    /* ---------------- TREASURY STRATEGY ---------------- */\\n    function executeBuyback(uint256 amount) external onlyOwner {\\n        require(amount <= token.balanceOf(treasury), \\\"Insufficient treasury\\\");\\n        token.transferFrom(treasury, address(this), amount);\\n        token.transfer(address(0), amount); // burn\\n    }\\n\\n    function setPayoutToken(address tokenAddress) external onlyOwner {\\n        payoutToken = IERC20Extended(tokenAddress);\\n    }\\n\\n    /* ---------------- VIEW ---------------- */\\n    function holdersCount() external view returns (uint256) {\\n        return holderList.length;\\n    }\\n}\\n\"}},\"settings\":{\"optimizer\":{\"enabled\":false,\"runs\":200},\"outputSelection\":{\"*\":{\"\":[\"ast\"],\"*\":[\"abi\",\"metadata\",\"devdoc\",\"userdoc\",\"storageLayout\",\"evm.legacyAssembly\",\"evm.bytecode\",\"evm.deployedBytecode\",\"evm.methodIdentifiers\",\"evm.gasEstimates\",\"evm.assembly\"]}},\"remappings\":[],\"evmVersion\":\"paris\"}}",
	"name": "BITKWANZA",
	"bytecode": {
		"linkReferences": {},
		"object": "60806040526005600655600160075560646008556001600960006101000a81548160ff0219169083151502179055503480156200003b57600080fd5b5060405162003d2c38038062003d2c833981810160405281019062000061919062000527565b336040518060400160405280600981526020017f4249544b57414e5a4100000000000000000000000000000000000000000000008152506040518060400160405280600381526020017f424b5a00000000000000000000000000000000000000000000000000000000008152508160039081620000df9190620007e8565b508060049081620000f19190620007e8565b5050506200010581620002d960201b60201c565b5081600960016101000a81548173ffffffffffffffffffffffffffffffffffffffff021916908373ffffffffffffffffffffffffffffffffffffffff16021790555080600a60006101000a81548173ffffffffffffffffffffffffffffffffffffffff021916908373ffffffffffffffffffffffffffffffffffffffff16021790555030816040516200019890620004af565b620001a5929190620008e0565b604051809103906000f080158015620001c2573d6000803e3d6000fd5b50600b60006101000a81548173ffffffffffffffffffffffffffffffffffffffff021916908373ffffffffffffffffffffffffffffffffffffffff16021790555062000221336b033b2e3c9fd0803ce80000006200039f60201b60201c565b6001600c60003373ffffffffffffffffffffffffffffffffffffffff1673ffffffffffffffffffffffffffffffffffffffff16815260200190815260200160002060006101000a81548160ff0219169083151502179055506001600c60003073ffffffffffffffffffffffffffffffffffffffff1673ffffffffffffffffffffffffffffffffffffffff16815260200190815260200160002060006101000a81548160ff0219169083151502179055505050620009a5565b6000600560009054906101000a900473ffffffffffffffffffffffffffffffffffffffff16905081600560006101000a81548173ffffffffffffffffffffffffffffffffffffffff021916908373ffffffffffffffffffffffffffffffffffffffff1602179055508173ffffffffffffffffffffffffffffffffffffffff168173ffffffffffffffffffffffffffffffffffffffff167f8be0079c531659141344cd1fd0a4f28419497f9722a3daafe3b4186f6b6457e060405160405180910390a35050565b620003b360008383620004a560201b60201c565b8060026000828254620003c791906200093c565b92505081905550806000808473ffffffffffffffffffffffffffffffffffffffff1673ffffffffffffffffffffffffffffffffffffffff16815260200190815260200160002060008282546200041e91906200093c565b925050819055508173ffffffffffffffffffffffffffffffffffffffff16600073ffffffffffffffffffffffffffffffffffffffff167fddf252ad1be2c89b69c2b068fc378daa952ba7f163c4a11628f55a4df523b3ef8360405162000485919062000988565b60405180910390a3620004a160008383620004aa60201b60201c565b5050565b505050565b505050565b611a6b80620022c183390190565b600080fd5b600073ffffffffffffffffffffffffffffffffffffffff82169050919050565b6000620004ef82620004c2565b9050919050565b6200050181620004e2565b81146200050d57600080fd5b50565b6000815190506200052181620004f6565b92915050565b60008060408385031215620005415762000540620004bd565b5b6000620005518582860162000510565b9250506020620005648582860162000510565b9150509250929050565b600081519050919050565b7f4e487b7100000000000000000000000000000000000000000000000000000000600052604160045260246000fd5b7f4e487b7100000000000000000000000000000000000000000000000000000000600052602260045260246000fd5b60006002820490506001821680620005f057607f821691505b602082108103620006065762000605620005a8565b5b50919050565b60008190508160005260206000209050919050565b60006020601f8301049050919050565b600082821b905092915050565b600060088302620006707fffffffffffffffffffffffffffffffffffffffffffffffffffffffffffffffff8262000631565b6200067c868362000631565b95508019841693508086168417925050509392505050565b6000819050919050565b6000819050919050565b6000620006c9620006c3620006bd8462000694565b6200069e565b62000694565b9050919050565b6000819050919050565b620006e583620006a8565b620006fd620006f482620006d0565b8484546200063e565b825550505050565b600090565b6200071462000705565b62000721818484620006da565b505050565b5b8181101562000749576200073d6000826200070a565b60018101905062000727565b5050565b601f821115620007985762000762816200060c565b6200076d8462000621565b810160208510156200077d578190505b620007956200078c8562000621565b83018262000726565b50505b505050565b600082821c905092915050565b6000620007bd600019846008026200079d565b1980831691505092915050565b6000620007d88383620007aa565b9150826002028217905092915050565b620007f3826200056e565b67ffffffffffffffff8111156200080f576200080e62000579565b5b6200081b8254620005d7565b620008288282856200074d565b600060209050601f8311600181146200086057600084156200084b578287015190505b620008578582620007ca565b865550620008c7565b601f19841662000870866200060c565b60005b828110156200089a5784890151825560018201915060208501945060208101905062000873565b86831015620008ba5784890151620008b6601f891682620007aa565b8355505b6001600288020188555050505b505050505050565b620008da81620004e2565b82525050565b6000604082019050620008f76000830185620008cf565b620009066020830184620008cf565b9392505050565b7f4e487b7100000000000000000000000000000000000000000000000000000000600052601160045260246000fd5b6000620009498262000694565b9150620009568362000694565b92508282019050808211156200097157620009706200090d565b5b92915050565b620009828162000694565b82525050565b60006020820190506200099f600083018462000977565b92915050565b61190c80620009b56000396000f3fe608060405234801561001057600080fd5b506004361061018e5760003560e01c8063715018a6116100de578063a8602fea11610097578063dd62ed3e11610071578063dd62ed3e14610465578063f2a4259d14610495578063f2fde38b146104b3578063fbfa77cf146104cf5761018e565b8063a8602fea146103fd578063a901dd9214610419578063a9059cbb146104355761018e565b8063715018a61461035f578063773ec8ac146103695780638da5cb5b146103875780638ebfc796146103a557806395d89b41146103c1578063a64e4f8a146103df5761018e565b80632c1597e41161014b5780633f4218e0116101255780633f4218e0146102c35780634626402b146102f35780636eb3abe01461031157806370a082311461032f5761018e565b80632c1597e414610269578063313ce5671461028757806332cb6b0c146102a55761018e565b806306fdde0314610193578063095ea7b3146101b15780630d7fcd1a146101e157806315ce462d146101ff57806318160ddd1461021b57806323b872dd14610239575b600080fd5b61019b6104ed565b6040516101a89190611213565b60405180910390f35b6101cb60048036038101906101c691906112ce565b61057f565b6040516101d89190611329565b60405180910390f35b6101e961059d565b6040516101f69190611353565b60405180910390f35b6102196004803603810190610214919061136e565b6105a3565b005b610223610663565b6040516102309190611353565b60405180910390f35b610253600480360381019061024e919061139b565b61066d565b6040516102609190611329565b60405180910390f35b610271610697565b60405161027e9190611353565b60405180910390f35b61028f61069d565b60405161029c919061140a565b60405180910390f35b6102ad6106a6565b6040516102ba9190611353565b60405180910390f35b6102dd60048036038101906102d8919061136e565b6106b6565b6040516102ea9190611329565b60405180910390f35b6102fb6106d6565b6040516103089190611434565b60405180910390f35b6103196106fc565b6040516103269190611353565b60405180910390f35b6103496004803603810190610344919061136e565b610701565b6040516103569190611353565b60405180910390f35b610367610749565b005b6103716107d1565b60405161037e9190611434565b60405180910390f35b61038f6107f7565b60405161039c9190611434565b60405180910390f35b6103bf60048036038101906103ba919061147b565b610821565b005b6103c96108f8565b6040516103d69190611213565b60405180910390f35b6103e761098a565b6040516103f49190611329565b60405180910390f35b6104176004803603810190610412919061136e565b61099d565b005b610433600480360381019061042e91906114bb565b610a5d565b005b61044f600480360381019061044a91906112ce565b610af6565b60405161045c9190611329565b60405180910390f35b61047f600480360381019061047a91906114e8565b610b14565b60405161048c9190611353565b60405180910390f35b61049d610b9b565b6040516104aa9190611353565b60405180910390f35b6104cd60048036038101906104c8919061136e565b610ba1565b005b6104d7610c98565b6040516104e49190611587565b60405180910390f35b6060600380546104fc906115d1565b80601f0160208091040260200160405190810160405280929190818152602001828054610528906115d1565b80156105755780601f1061054a57610100808354040283529160200191610575565b820191906000526020600020905b81548152906001019060200180831161055857829003601f168201915b5050505050905090565b600061059361058c610cbe565b8484610cc6565b6001905092915050565b60085481565b6105ab610cbe565b73ffffffffffffffffffffffffffffffffffffffff166105c96107f7565b73ffffffffffffffffffffffffffffffffffffffff161461061f576040517f08c379a00000000000000000000000000000000000000000000000000000000081526004016106169061164e565b60405180910390fd5b80600960016101000a81548173ffffffffffffffffffffffffffffffffffffffff021916908373ffffffffffffffffffffffffffffffffffffffff16021790555050565b6000600254905090565b60006106818461067b610cbe565b84610e8f565b61068c848484610f1b565b600190509392505050565b60065481565b60006012905090565b6b033b2e3c9fd0803ce800000081565b600c6020528060005260406000206000915054906101000a900460ff1681565b600a60009054906101000a900473ffffffffffffffffffffffffffffffffffffffff1681565b60fa81565b60008060008373ffffffffffffffffffffffffffffffffffffffff1673ffffffffffffffffffffffffffffffffffffffff168152602001908152602001600020549050919050565b610751610cbe565b73ffffffffffffffffffffffffffffffffffffffff1661076f6107f7565b73ffffffffffffffffffffffffffffffffffffffff16146107c5576040517f08c379a00000000000000000000000000000000000000000000000000000000081526004016107bc9061164e565b60405180910390fd5b6107cf60006110b3565b565b600960019054906101000a900473ffffffffffffffffffffffffffffffffffffffff1681565b6000600560009054906101000a900473ffffffffffffffffffffffffffffffffffffffff16905090565b610829610cbe565b73ffffffffffffffffffffffffffffffffffffffff166108476107f7565b73ffffffffffffffffffffffffffffffffffffffff161461089d576040517f08c379a00000000000000000000000000000000000000000000000000000000081526004016108949061164e565b60405180910390fd5b80600c60008473ffffffffffffffffffffffffffffffffffffffff1673ffffffffffffffffffffffffffffffffffffffff16815260200190815260200160002060006101000a81548160ff0219169083151502179055505050565b606060048054610907906115d1565b80601f0160208091040260200160405190810160405280929190818152602001828054610933906115d1565b80156109805780601f1061095557610100808354040283529160200191610980565b820191906000526020600020905b81548152906001019060200180831161096357829003601f168201915b5050505050905090565b600960009054906101000a900460ff1681565b6109a5610cbe565b73ffffffffffffffffffffffffffffffffffffffff166109c36107f7565b73ffffffffffffffffffffffffffffffffffffffff1614610a19576040517f08c379a0000000000000000000000000000000000000000000000000000000008152600401610a109061164e565b60405180910390fd5b80600a60006101000a81548173ffffffffffffffffffffffffffffffffffffffff021916908373ffffffffffffffffffffffffffffffffffffffff16021790555050565b610a65610cbe565b73ffffffffffffffffffffffffffffffffffffffff16610a836107f7565b73ffffffffffffffffffffffffffffffffffffffff1614610ad9576040517f08c379a0000000000000000000000000000000000000000000000000000000008152600401610ad09061164e565b60405180910390fd5b80600960006101000a81548160ff02191690831515021790555050565b6000610b0a610b03610cbe565b8484610f1b565b6001905092915050565b6000600160008473ffffffffffffffffffffffffffffffffffffffff1673ffffffffffffffffffffffffffffffffffffffff16815260200190815260200160002060008373ffffffffffffffffffffffffffffffffffffffff1673ffffffffffffffffffffffffffffffffffffffff16815260200190815260200160002054905092915050565b60075481565b610ba9610cbe565b73ffffffffffffffffffffffffffffffffffffffff16610bc76107f7565b73ffffffffffffffffffffffffffffffffffffffff1614610c1d576040517f08c379a0000000000000000000000000000000000000000000000000000000008152600401610c149061164e565b60405180910390fd5b600073ffffffffffffffffffffffffffffffffffffffff168173ffffffffffffffffffffffffffffffffffffffff1603610c8c576040517f08c379a0000000000000000000000000000000000000000000000000000000008152600401610c83906116e0565b60405180910390fd5b610c95816110b3565b50565b600b60009054906101000a900473ffffffffffffffffffffffffffffffffffffffff1681565b600033905090565b600073ffffffffffffffffffffffffffffffffffffffff168373ffffffffffffffffffffffffffffffffffffffff1603610d35576040517f08c379a0000000000000000000000000000000000000000000000000000000008152600401610d2c9061174c565b60405180910390fd5b600073ffffffffffffffffffffffffffffffffffffffff168273ffffffffffffffffffffffffffffffffffffffff1603610da4576040517f08c379a0000000000000000000000000000000000000000000000000000000008152600401610d9b906117b8565b60405180910390fd5b80600160008573ffffffffffffffffffffffffffffffffffffffff1673ffffffffffffffffffffffffffffffffffffffff16815260200190815260200160002060008473ffffffffffffffffffffffffffffffffffffffff1673ffffffffffffffffffffffffffffffffffffffff168152602001908152602001600020819055508173ffffffffffffffffffffffffffffffffffffffff168373ffffffffffffffffffffffffffffffffffffffff167f8c5be1e5ebec7d5bd14f71427d1e84f3dd0314c0f7b2291e5b200ac8c7c3b92583604051610e829190611353565b60405180910390a3505050565b6000610e9b8484610b14565b90507fffffffffffffffffffffffffffffffffffffffffffffffffffffffffffffffff8114610f155781811015610f07576040517f08c379a0000000000000000000000000000000000000000000000000000000008152600401610efe90611824565b60405180910390fd5b610f148484848403610cc6565b5b50505050565b610f26838383611179565b60008060008573ffffffffffffffffffffffffffffffffffffffff1673ffffffffffffffffffffffffffffffffffffffff16815260200190815260200160002054905081811015610fac576040517f08c379a0000000000000000000000000000000000000000000000000000000008152600401610fa3906118b6565b60405180910390fd5b8181036000808673ffffffffffffffffffffffffffffffffffffffff1673ffffffffffffffffffffffffffffffffffffffff16815260200190815260200160002081905550816000808573ffffffffffffffffffffffffffffffffffffffff1673ffffffffffffffffffffffffffffffffffffffff168152602001908152602001600020600082825401925050819055508273ffffffffffffffffffffffffffffffffffffffff168473ffffffffffffffffffffffffffffffffffffffff167fddf252ad1be2c89b69c2b068fc378daa952ba7f163c4a11628f55a4df523b3ef8460405161109a9190611353565b60405180910390a36110ad84848461117e565b50505050565b6000600560009054906101000a900473ffffffffffffffffffffffffffffffffffffffff16905081600560006101000a81548173ffffffffffffffffffffffffffffffffffffffff021916908373ffffffffffffffffffffffffffffffffffffffff1602179055508173ffffffffffffffffffffffffffffffffffffffff168173ffffffffffffffffffffffffffffffffffffffff167f8be0079c531659141344cd1fd0a4f28419497f9722a3daafe3b4186f6b6457e060405160405180910390a35050565b505050565b505050565b600081519050919050565b600082825260208201905092915050565b60005b838110156111bd5780820151818401526020810190506111a2565b60008484015250505050565b6000601f19601f8301169050919050565b60006111e582611183565b6111ef818561118e565b93506111ff81856020860161119f565b611208816111c9565b840191505092915050565b6000602082019050818103600083015261122d81846111da565b905092915050565b600080fd5b600073ffffffffffffffffffffffffffffffffffffffff82169050919050565b60006112658261123a565b9050919050565b6112758161125a565b811461128057600080fd5b50565b6000813590506112928161126c565b92915050565b6000819050919050565b6112ab81611298565b81146112b657600080fd5b50565b6000813590506112c8816112a2565b92915050565b600080604083850312156112e5576112e4611235565b5b60006112f385828601611283565b9250506020611304858286016112b9565b9150509250929050565b60008115159050919050565b6113238161130e565b82525050565b600060208201905061133e600083018461131a565b92915050565b61134d81611298565b82525050565b60006020820190506113686000830184611344565b92915050565b60006020828403121561138457611383611235565b5b600061139284828501611283565b91505092915050565b6000806000606084860312156113b4576113b3611235565b5b60006113c286828701611283565b93505060206113d386828701611283565b92505060406113e4868287016112b9565b9150509250925092565b600060ff82169050919050565b611404816113ee565b82525050565b600060208201905061141f60008301846113fb565b92915050565b61142e8161125a565b82525050565b60006020820190506114496000830184611425565b92915050565b6114588161130e565b811461146357600080fd5b50565b6000813590506114758161144f565b92915050565b6000806040838503121561149257611491611235565b5b60006114a085828601611283565b92505060206114b185828601611466565b9150509250929050565b6000602082840312156114d1576114d0611235565b5b60006114df84828501611466565b91505092915050565b600080604083850312156114ff576114fe611235565b5b600061150d85828601611283565b925050602061151e85828601611283565b9150509250929050565b6000819050919050565b600061154d6115486115438461123a565b611528565b61123a565b9050919050565b600061155f82611532565b9050919050565b600061157182611554565b9050919050565b61158181611566565b82525050565b600060208201905061159c6000830184611578565b92915050565b7f4e487b7100000000000000000000000000000000000000000000000000000000600052602260045260246000fd5b600060028204905060018216806115e957607f821691505b6020821081036115fc576115fb6115a2565b5b50919050565b7f4f776e61626c653a2063616c6c6572206973206e6f7420746865206f776e6572600082015250565b600061163860208361118e565b915061164382611602565b602082019050919050565b600060208201905081810360008301526116678161162b565b9050919050565b7f4f776e61626c653a206e6577206f776e6572206973207a65726f20616464726560008201527f7373000000000000000000000000000000000000000000000000000000000000602082015250565b60006116ca60228361118e565b91506116d58261166e565b604082019050919050565b600060208201905081810360008301526116f9816116bd565b9050919050565b7f45524332303a20617070726f76652066726f6d207a65726f2061646472657373600082015250565b600061173660208361118e565b915061174182611700565b602082019050919050565b6000602082019050818103600083015261176581611729565b9050919050565b7f45524332303a20617070726f766520746f207a65726f20616464726573730000600082015250565b60006117a2601e8361118e565b91506117ad8261176c565b602082019050919050565b600060208201905081810360008301526117d181611795565b9050919050565b7f45524332303a20696e73756666696369656e7420616c6c6f77616e6365000000600082015250565b600061180e601d8361118e565b9150611819826117d8565b602082019050919050565b6000602082019050818103600083015261183d81611801565b9050919050565b7f45524332303a207472616e7366657220616d6f756e742065786365656473206260008201527f616c616e63650000000000000000000000000000000000000000000000000000602082015250565b60006118a060268361118e565b91506118ab82611844565b604082019050919050565b600060208201905081810360008301526118cf81611893565b905091905056fea26469706673582212202ddeed8d2a94e127023a8c981853d246d8155ac6ee81356d8efe4e0efa4e461a64736f6c6343000814003360a06040523480156200001157600080fd5b5060405162001a6b38038062001a6b833981810160405281019062000037919062000236565b3362000049816200010860201b60201c565b508173ffffffffffffffffffffffffffffffffffffffff1660808173ffffffffffffffffffffffffffffffffffffffff168152505080600160006101000a81548173ffffffffffffffffffffffffffffffffffffffff021916908373ffffffffffffffffffffffffffffffffffffffff16021790555081600560006101000a81548173ffffffffffffffffffffffffffffffffffffffff021916908373ffffffffffffffffffffffffffffffffffffffff16021790555050506200027d565b60008060009054906101000a900473ffffffffffffffffffffffffffffffffffffffff169050816000806101000a81548173ffffffffffffffffffffffffffffffffffffffff021916908373ffffffffffffffffffffffffffffffffffffffff1602179055508173ffffffffffffffffffffffffffffffffffffffff168173ffffffffffffffffffffffffffffffffffffffff167f8be0079c531659141344cd1fd0a4f28419497f9722a3daafe3b4186f6b6457e060405160405180910390a35050565b600080fd5b600073ffffffffffffffffffffffffffffffffffffffff82169050919050565b6000620001fe82620001d1565b9050919050565b6200021081620001f1565b81146200021c57600080fd5b50565b600081519050620002308162000205565b92915050565b6000806040838503121562000250576200024f620001cc565b5b600062000260858286016200021f565b925050602062000273858286016200021f565b9150509250929050565b6080516117a1620002ca6000396000818161047c0152818161057a0152818161063d0152818161079e015281816109fc01528181610c5701528181610c7d0152610d3701526117a16000f3fe608060405234801561001057600080fd5b50600436106100f55760003560e01c80636869c67311610097578063a9aa22a011610066578063a9aa22a01461023d578063f02ae48f14610259578063f2fde38b14610275578063fc0c546a14610291576100f5565b80636869c673146101db5780636b4ed21b146101f7578063715018a6146102155780638da5cb5b1461021f576100f5565b80634e71d92d116100d35780634e71d92d146101775780634efa82b61461018157806361d027b31461019f57806366666aa9146101bd576100f5565b806316ad42ad146100fa57806318a5bbdc1461012a57806319c2dfec1461015b575b600080fd5b610114600480360381019061010f91906110a2565b6102af565b6040516101219190611110565b60405180910390f35b610144600480360381019061013f9190611157565b6102ee565b604051610152929190611193565b60405180910390f35b610175600480360381019061017091906110a2565b610312565b005b61017f6103a1565b005b6101896103ac565b604051610196919061121b565b60405180910390f35b6101a76103d2565b6040516101b49190611110565b60405180910390f35b6101c56103f8565b6040516101d29190611236565b60405180910390f35b6101f560048036038101906101f091906110a2565b6103fe565b005b6101ff6106de565b60405161020c9190611236565b60405180910390f35b61021d6106eb565b005b610227610773565b6040516102349190611110565b60405180910390f35b61025760048036038101906102529190611251565b61079c565b005b610273600480360381019061026e9190611157565b610a9e565b005b61028f600480360381019061028a9190611157565b610b5e565b005b610299610c55565b6040516102a691906112b2565b60405180910390f35b600381815481106102bf57600080fd5b906000526020600020016000915054906101000a900473ffffffffffffffffffffffffffffffffffffffff1681565b60026020528060005260406000206000915090508060000154908060010154905082565b600060038054905090506000805b828110801561032e57508382105b1561039b5761037a6003828154811061034a576103496112cd565b5b9060005260206000200160009054906101000a900473ffffffffffffffffffffffffffffffffffffffff16610c79565b81806103859061132b565b92505080806103939061132b565b915050610320565b50505050565b6103aa33610c79565b565b600560009054906101000a900473ffffffffffffffffffffffffffffffffffffffff1681565b600160009054906101000a900473ffffffffffffffffffffffffffffffffffffffff1681565b60045481565b610406610f9b565b73ffffffffffffffffffffffffffffffffffffffff16610424610773565b73ffffffffffffffffffffffffffffffffffffffff161461047a576040517f08c379a0000000000000000000000000000000000000000000000000000000008152600401610471906113d0565b60405180910390fd5b7f000000000000000000000000000000000000000000000000000000000000000073ffffffffffffffffffffffffffffffffffffffff166370a08231600160009054906101000a900473ffffffffffffffffffffffffffffffffffffffff166040518263ffffffff1660e01b81526004016104f59190611110565b602060405180830381865afa158015610512573d6000803e3d6000fd5b505050506040513d601f19601f820116820180604052508101906105369190611405565b811115610578576040517f08c379a000000000000000000000000000000000000000000000000000000000815260040161056f9061147e565b60405180910390fd5b7f000000000000000000000000000000000000000000000000000000000000000073ffffffffffffffffffffffffffffffffffffffff166323b872dd600160009054906101000a900473ffffffffffffffffffffffffffffffffffffffff1630846040518463ffffffff1660e01b81526004016105f79392919061149e565b6020604051808303816000875af1158015610616573d6000803e3d6000fd5b505050506040513d601f19601f8201168201806040525081019061063a919061150d565b507f000000000000000000000000000000000000000000000000000000000000000073ffffffffffffffffffffffffffffffffffffffff1663a9059cbb6000836040518363ffffffff1660e01b815260040161069792919061153a565b6020604051808303816000875af11580156106b6573d6000803e3d6000fd5b505050506040513d601f19601f820116820180604052508101906106da919061150d565b5050565b6000600380549050905090565b6106f3610f9b565b73ffffffffffffffffffffffffffffffffffffffff16610711610773565b73ffffffffffffffffffffffffffffffffffffffff1614610767576040517f08c379a000000000000000000000000000000000000000000000000000000000815260040161075e906113d0565b60405180910390fd5b6107716000610fa3565b565b60008060009054906101000a900473ffffffffffffffffffffffffffffffffffffffff16905090565b7f000000000000000000000000000000000000000000000000000000000000000073ffffffffffffffffffffffffffffffffffffffff163373ffffffffffffffffffffffffffffffffffffffff161461082a576040517f08c379a0000000000000000000000000000000000000000000000000000000008152600401610821906115af565b60405180910390fd5b600073ffffffffffffffffffffffffffffffffffffffff168273ffffffffffffffffffffffffffffffffffffffff16141580156108a957506000600260008473ffffffffffffffffffffffffffffffffffffffff1673ffffffffffffffffffffffffffffffffffffffff16815260200190815260200160002060000154145b15610912576003829080600181540180825580915050600190039060005260206000200160009091909190916101000a81548173ffffffffffffffffffffffffffffffffffffffff021916908373ffffffffffffffffffffffffffffffffffffffff1602179055505b600073ffffffffffffffffffffffffffffffffffffffff168173ffffffffffffffffffffffffffffffffffffffff161415801561099157506000600260008373ffffffffffffffffffffffffffffffffffffffff1673ffffffffffffffffffffffffffffffffffffffff16815260200190815260200160002060000154145b156109fa576003819080600181540180825580915050600190039060005260206000200160009091909190916101000a81548173ffffffffffffffffffffffffffffffffffffffff021916908373ffffffffffffffffffffffffffffffffffffffff1602179055505b7f000000000000000000000000000000000000000000000000000000000000000073ffffffffffffffffffffffffffffffffffffffff166370a08231306040518263ffffffff1660e01b8152600401610a539190611110565b602060405180830381865afa158015610a70573d6000803e3d6000fd5b505050506040513d601f19601f82011682018060405250810190610a949190611405565b6004819055505050565b610aa6610f9b565b73ffffffffffffffffffffffffffffffffffffffff16610ac4610773565b73ffffffffffffffffffffffffffffffffffffffff1614610b1a576040517f08c379a0000000000000000000000000000000000000000000000000000000008152600401610b11906113d0565b60405180910390fd5b80600560006101000a81548173ffffffffffffffffffffffffffffffffffffffff021916908373ffffffffffffffffffffffffffffffffffffffff16021790555050565b610b66610f9b565b73ffffffffffffffffffffffffffffffffffffffff16610b84610773565b73ffffffffffffffffffffffffffffffffffffffff1614610bda576040517f08c379a0000000000000000000000000000000000000000000000000000000008152600401610bd1906113d0565b60405180910390fd5b600073ffffffffffffffffffffffffffffffffffffffff168173ffffffffffffffffffffffffffffffffffffffff1603610c49576040517f08c379a0000000000000000000000000000000000000000000000000000000008152600401610c4090611641565b60405180910390fd5b610c5281610fa3565b50565b7f000000000000000000000000000000000000000000000000000000000000000081565b60007f000000000000000000000000000000000000000000000000000000000000000073ffffffffffffffffffffffffffffffffffffffff166370a08231836040518263ffffffff1660e01b8152600401610cd49190611110565b602060405180830381865afa158015610cf1573d6000803e3d6000fd5b505050506040513d601f19601f82011682018060405250810190610d159190611405565b90506000811480610d2857506000600454145b15610d335750610f98565b60007f000000000000000000000000000000000000000000000000000000000000000073ffffffffffffffffffffffffffffffffffffffff166318160ddd6040518163ffffffff1660e01b8152600401602060405180830381865afa158015610da0573d6000803e3d6000fd5b505050506040513d601f19601f82011682018060405250810190610dc49190611405565b82600454610dd29190611661565b610ddc91906116d2565b905060008103610ded575050610f98565b80600260008573ffffffffffffffffffffffffffffffffffffffff1673ffffffffffffffffffffffffffffffffffffffff1681526020019081526020016000206001016000828254610e3f9190611703565b9250508190555042600260008573ffffffffffffffffffffffffffffffffffffffff1673ffffffffffffffffffffffffffffffffffffffff168152602001908152602001600020600001819055508060046000828254610e9f9190611737565b92505081905550600560009054906101000a900473ffffffffffffffffffffffffffffffffffffffff1673ffffffffffffffffffffffffffffffffffffffff1663a9059cbb84836040518363ffffffff1660e01b8152600401610f0392919061153a565b6020604051808303816000875af1158015610f22573d6000803e3d6000fd5b505050506040513d601f19601f82011682018060405250810190610f46919061150d565b508273ffffffffffffffffffffffffffffffffffffffff167f47cee97cb7acd717b3c0aa1435d004cd5b3c8c57d70dbceb4e4458bbd60e39d482604051610f8d9190611236565b60405180910390a250505b50565b600033905090565b60008060009054906101000a900473ffffffffffffffffffffffffffffffffffffffff169050816000806101000a81548173ffffffffffffffffffffffffffffffffffffffff021916908373ffffffffffffffffffffffffffffffffffffffff1602179055508173ffffffffffffffffffffffffffffffffffffffff168173ffffffffffffffffffffffffffffffffffffffff167f8be0079c531659141344cd1fd0a4f28419497f9722a3daafe3b4186f6b6457e060405160405180910390a35050565b600080fd5b6000819050919050565b61107f8161106c565b811461108a57600080fd5b50565b60008135905061109c81611076565b92915050565b6000602082840312156110b8576110b7611067565b5b60006110c68482850161108d565b91505092915050565b600073ffffffffffffffffffffffffffffffffffffffff82169050919050565b60006110fa826110cf565b9050919050565b61110a816110ef565b82525050565b60006020820190506111256000830184611101565b92915050565b611134816110ef565b811461113f57600080fd5b50565b6000813590506111518161112b565b92915050565b60006020828403121561116d5761116c611067565b5b600061117b84828501611142565b91505092915050565b61118d8161106c565b82525050565b60006040820190506111a86000830185611184565b6111b56020830184611184565b9392505050565b6000819050919050565b60006111e16111dc6111d7846110cf565b6111bc565b6110cf565b9050919050565b60006111f3826111c6565b9050919050565b6000611205826111e8565b9050919050565b611215816111fa565b82525050565b6000602082019050611230600083018461120c565b92915050565b600060208201905061124b6000830184611184565b92915050565b6000806040838503121561126857611267611067565b5b600061127685828601611142565b925050602061128785828601611142565b9150509250929050565b600061129c826111e8565b9050919050565b6112ac81611291565b82525050565b60006020820190506112c760008301846112a3565b92915050565b7f4e487b7100000000000000000000000000000000000000000000000000000000600052603260045260246000fd5b7f4e487b7100000000000000000000000000000000000000000000000000000000600052601160045260246000fd5b60006113368261106c565b91507fffffffffffffffffffffffffffffffffffffffffffffffffffffffffffffffff8203611368576113676112fc565b5b600182019050919050565b600082825260208201905092915050565b7f4f776e61626c653a2063616c6c6572206973206e6f7420746865206f776e6572600082015250565b60006113ba602083611373565b91506113c582611384565b602082019050919050565b600060208201905081810360008301526113e9816113ad565b9050919050565b6000815190506113ff81611076565b92915050565b60006020828403121561141b5761141a611067565b5b6000611429848285016113f0565b91505092915050565b7f496e73756666696369656e742074726561737572790000000000000000000000600082015250565b6000611468601583611373565b915061147382611432565b602082019050919050565b600060208201905081810360008301526114978161145b565b9050919050565b60006060820190506114b36000830186611101565b6114c06020830185611101565b6114cd6040830184611184565b949350505050565b60008115159050919050565b6114ea816114d5565b81146114f557600080fd5b50565b600081519050611507816114e1565b92915050565b60006020828403121561152357611522611067565b5b6000611531848285016114f8565b91505092915050565b600060408201905061154f6000830185611101565b61155c6020830184611184565b9392505050565b7f4f6e6c7920746f6b656e00000000000000000000000000000000000000000000600082015250565b6000611599600a83611373565b91506115a482611563565b602082019050919050565b600060208201905081810360008301526115c88161158c565b9050919050565b7f4f776e61626c653a206e6577206f776e6572206973207a65726f20616464726560008201527f7373000000000000000000000000000000000000000000000000000000000000602082015250565b600061162b602283611373565b9150611636826115cf565b604082019050919050565b6000602082019050818103600083015261165a8161161e565b9050919050565b600061166c8261106c565b91506116778361106c565b92508282026116858161106c565b9150828204841483151761169c5761169b6112fc565b5b5092915050565b7f4e487b7100000000000000000000000000000000000000000000000000000000600052601260045260246000fd5b60006116dd8261106c565b91506116e88361106c565b9250826116f8576116f76116a3565b5b828204905092915050565b600061170e8261106c565b91506117198361106c565b9250828201905080821115611731576117306112fc565b5b92915050565b60006117428261106c565b915061174d8361106c565b9250828203905081811115611765576117646112fc565b5b9291505056fea26469706673582212202ba905e790e7947e20132cfcfe966f57bb99380fcf4c4885e2ae09bfcf38999c64736f6c63430008140033",
		"opcodes": "PUSH1 0x80 PUSH1 0x40 MSTORE PUSH1 0x5 PUSH1 0x6 SSTORE PUSH1 0x1 PUSH1 0x7 SSTORE PUSH1 0x64 PUSH1 0x8 SSTORE PUSH1 0x1 PUSH1 0x9 PUSH1 0x0 PUSH2 0x100 EXP DUP2 SLOAD DUP2 PUSH1 0xFF MUL NOT AND SWAP1 DUP4 ISZERO ISZERO MUL OR SWAP1 SSTORE POP CALLVALUE DUP1 ISZERO PUSH3 0x3B JUMPI PUSH1 0x0 DUP1 REVERT JUMPDEST POP PUSH1 0x40 MLOAD PUSH3 0x3D2C CODESIZE SUB DUP1 PUSH3 0x3D2C DUP4 CODECOPY DUP2 DUP2 ADD PUSH1 0x40 MSTORE DUP2 ADD SWAP1 PUSH3 0x61 SWAP2 SWAP1 PUSH3 0x527 JUMP JUMPDEST CALLER PUSH1 0x40 MLOAD DUP1 PUSH1 0x40 ADD PUSH1 0x40 MSTORE DUP1 PUSH1 0x9 DUP2 MSTORE PUSH1 0x20 ADD PUSH32 0x4249544B57414E5A410000000000000000000000000000000000000000000000 DUP2 MSTORE POP PUSH1 0x40 MLOAD DUP1 PUSH1 0x40 ADD PUSH1 0x40 MSTORE DUP1 PUSH1 0x3 DUP2 MSTORE PUSH1 0x20 ADD PUSH32 0x424B5A0000000000000000000000000000000000000000000000000000000000 DUP2 MSTORE POP DUP2 PUSH1 0x3 SWAP1 DUP2 PUSH3 0xDF SWAP2 SWAP1 PUSH3 0x7E8 JUMP JUMPDEST POP DUP1 PUSH1 0x4 SWAP1 DUP2 PUSH3 0xF1 SWAP2 SWAP1 PUSH3 0x7E8 JUMP JUMPDEST POP POP POP PUSH3 0x105 DUP2 PUSH3 0x2D9 PUSH1 0x20 SHL PUSH1 0x20 SHR JUMP JUMPDEST POP DUP2 PUSH1 0x9 PUSH1 0x1 PUSH2 0x100 EXP DUP2 SLOAD DUP2 PUSH20 0xFFFFFFFFFFFFFFFFFFFFFFFFFFFFFFFFFFFFFFFF MUL NOT AND SWAP1 DUP4 PUSH20 0xFFFFFFFFFFFFFFFFFFFFFFFFFFFFFFFFFFFFFFFF AND MUL OR SWAP1 SSTORE POP DUP1 PUSH1 0xA PUSH1 0x0 PUSH2 0x100 EXP DUP2 SLOAD DUP2 PUSH20 0xFFFFFFFFFFFFFFFFFFFFFFFFFFFFFFFFFFFFFFFF MUL NOT AND SWAP1 DUP4 PUSH20 0xFFFFFFFFFFFFFFFFFFFFFFFFFFFFFFFFFFFFFFFF AND MUL OR SWAP1 SSTORE POP ADDRESS DUP2 PUSH1 0x40 MLOAD PUSH3 0x198 SWAP1 PUSH3 0x4AF JUMP JUMPDEST PUSH3 0x1A5 SWAP3 SWAP2 SWAP1 PUSH3 0x8E0 JUMP JUMPDEST PUSH1 0x40 MLOAD DUP1 SWAP2 SUB SWAP1 PUSH1 0x0 CREATE DUP1 ISZERO DUP1 ISZERO PUSH3 0x1C2 JUMPI RETURNDATASIZE PUSH1 0x0 DUP1 RETURNDATACOPY RETURNDATASIZE PUSH1 0x0 REVERT JUMPDEST POP PUSH1 0xB PUSH1 0x0 PUSH2 0x100 EXP DUP2 SLOAD DUP2 PUSH20 0xFFFFFFFFFFFFFFFFFFFFFFFFFFFFFFFFFFFFFFFF MUL NOT AND SWAP1 DUP4 PUSH20 0xFFFFFFFFFFFFFFFFFFFFFFFFFFFFFFFFFFFFFFFF AND MUL OR SWAP1 SSTORE POP PUSH3 0x221 CALLER PUSH12 0x33B2E3C9FD0803CE8000000 PUSH3 0x39F PUSH1 0x20 SHL PUSH1 0x20 SHR JUMP JUMPDEST PUSH1 0x1 PUSH1 0xC PUSH1 0x0 CALLER PUSH20 0xFFFFFFFFFFFFFFFFFFFFFFFFFFFFFFFFFFFFFFFF AND PUSH20 0xFFFFFFFFFFFFFFFFFFFFFFFFFFFFFFFFFFFFFFFF AND DUP2 MSTORE PUSH1 0x20 ADD SWAP1 DUP2 MSTORE PUSH1 0x20 ADD PUSH1 0x0 KECCAK256 PUSH1 0x0 PUSH2 0x100 EXP DUP2 SLOAD DUP2 PUSH1 0xFF MUL NOT AND SWAP1 DUP4 ISZERO ISZERO MUL OR SWAP1 SSTORE POP PUSH1 0x1 PUSH1 0xC PUSH1 0x0 ADDRESS PUSH20 0xFFFFFFFFFFFFFFFFFFFFFFFFFFFFFFFFFFFFFFFF AND PUSH20 0xFFFFFFFFFFFFFFFFFFFFFFFFFFFFFFFFFFFFFFFF AND DUP2 MSTORE PUSH1 0x20 ADD SWAP1 DUP2 MSTORE PUSH1 0x20 ADD PUSH1 0x0 KECCAK256 PUSH1 0x0 PUSH2 0x100 EXP DUP2 SLOAD DUP2 PUSH1 0xFF MUL NOT AND SWAP1 DUP4 ISZERO ISZERO MUL OR SWAP1 SSTORE POP POP POP PUSH3 0x9A5 JUMP JUMPDEST PUSH1 0x0 PUSH1 0x5 PUSH1 0x0 SWAP1 SLOAD SWAP1 PUSH2 0x100 EXP SWAP1 DIV PUSH20 0xFFFFFFFFFFFFFFFFFFFFFFFFFFFFFFFFFFFFFFFF AND SWAP1 POP DUP2 PUSH1 0x5 PUSH1 0x0 PUSH2 0x100 EXP DUP2 SLOAD DUP2 PUSH20 0xFFFFFFFFFFFFFFFFFFFFFFFFFFFFFFFFFFFFFFFF MUL NOT AND SWAP1 DUP4 PUSH20 0xFFFFFFFFFFFFFFFFFFFFFFFFFFFFFFFFFFFFFFFF AND MUL OR SWAP1 SSTORE POP DUP2 PUSH20 0xFFFFFFFFFFFFFFFFFFFFFFFFFFFFFFFFFFFFFFFF AND DUP2 PUSH20 0xFFFFFFFFFFFFFFFFFFFFFFFFFFFFFFFFFFFFFFFF AND PUSH32 0x8BE0079C531659141344CD1FD0A4F28419497F9722A3DAAFE3B4186F6B6457E0 PUSH1 0x40 MLOAD PUSH1 0x40 MLOAD DUP1 SWAP2 SUB SWAP1 LOG3 POP POP JUMP JUMPDEST PUSH3 0x3B3 PUSH1 0x0 DUP4 DUP4 PUSH3 0x4A5 PUSH1 0x20 SHL PUSH1 0x20 SHR JUMP JUMPDEST DUP1 PUSH1 0x2 PUSH1 0x0 DUP3 DUP3 SLOAD PUSH3 0x3C7 SWAP2 SWAP1 PUSH3 0x93C JUMP JUMPDEST SWAP3 POP POP DUP2 SWAP1 SSTORE POP DUP1 PUSH1 0x0 DUP1 DUP5 PUSH20 0xFFFFFFFFFFFFFFFFFFFFFFFFFFFFFFFFFFFFFFFF AND PUSH20 0xFFFFFFFFFFFFFFFFFFFFFFFFFFFFFFFFFFFFFFFF AND DUP2 MSTORE PUSH1 0x20 ADD SWAP1 DUP2 MSTORE PUSH1 0x20 ADD PUSH1 0x0 KECCAK256 PUSH1 0x0 DUP3 DUP3 SLOAD PUSH3 0x41E SWAP2 SWAP1 PUSH3 0x93C JUMP JUMPDEST SWAP3 POP POP DUP2 SWAP1 SSTORE POP DUP2 PUSH20 0xFFFFFFFFFFFFFFFFFFFFFFFFFFFFFFFFFFFFFFFF AND PUSH1 0x0 PUSH20 0xFFFFFFFFFFFFFFFFFFFFFFFFFFFFFFFFFFFFFFFF AND PUSH32 0xDDF252AD1BE2C89B69C2B068FC378DAA952BA7F163C4A11628F55A4DF523B3EF DUP4 PUSH1 0x40 MLOAD PUSH3 0x485 SWAP2 SWAP1 PUSH3 0x988 JUMP JUMPDEST PUSH1 0x40 MLOAD DUP1 SWAP2 SUB SWAP1 LOG3 PUSH3 0x4A1 PUSH1 0x0 DUP4 DUP4 PUSH3 0x4AA PUSH1 0x20 SHL PUSH1 0x20 SHR JUMP JUMPDEST POP POP JUMP JUMPDEST POP POP POP JUMP JUMPDEST POP POP POP JUMP JUMPDEST PUSH2 0x1A6B DUP1 PUSH3 0x22C1 DUP4 CODECOPY ADD SWAP1 JUMP JUMPDEST PUSH1 0x0 DUP1 REVERT JUMPDEST PUSH1 0x0 PUSH20 0xFFFFFFFFFFFFFFFFFFFFFFFFFFFFFFFFFFFFFFFF DUP3 AND SWAP1 POP SWAP2 SWAP1 POP JUMP JUMPDEST PUSH1 0x0 PUSH3 0x4EF DUP3 PUSH3 0x4C2 JUMP JUMPDEST SWAP1 POP SWAP2 SWAP1 POP JUMP JUMPDEST PUSH3 0x501 DUP2 PUSH3 0x4E2 JUMP JUMPDEST DUP2 EQ PUSH3 0x50D JUMPI PUSH1 0x0 DUP1 REVERT JUMPDEST POP JUMP JUMPDEST PUSH1 0x0 DUP2 MLOAD SWAP1 POP PUSH3 0x521 DUP2 PUSH3 0x4F6 JUMP JUMPDEST SWAP3 SWAP2 POP POP JUMP JUMPDEST PUSH1 0x0 DUP1 PUSH1 0x40 DUP4 DUP6 SUB SLT ISZERO PUSH3 0x541 JUMPI PUSH3 0x540 PUSH3 0x4BD JUMP JUMPDEST JUMPDEST PUSH1 0x0 PUSH3 0x551 DUP6 DUP3 DUP7 ADD PUSH3 0x510 JUMP JUMPDEST SWAP3 POP POP PUSH1 0x20 PUSH3 0x564 DUP6 DUP3 DUP7 ADD PUSH3 0x510 JUMP JUMPDEST SWAP2 POP POP SWAP3 POP SWAP3 SWAP1 POP JUMP JUMPDEST PUSH1 0x0 DUP2 MLOAD SWAP1 POP SWAP2 SWAP1 POP JUMP JUMPDEST PUSH32 0x4E487B7100000000000000000000000000000000000000000000000000000000 PUSH1 0x0 MSTORE PUSH1 0x41 PUSH1 0x4 MSTORE PUSH1 0x24 PUSH1 0x0 REVERT JUMPDEST PUSH32 0x4E487B7100000000000000000000000000000000000000000000000000000000 PUSH1 0x0 MSTORE PUSH1 0x22 PUSH1 0x4 MSTORE PUSH1 0x24 PUSH1 0x0 REVERT JUMPDEST PUSH1 0x0 PUSH1 0x2 DUP3 DIV SWAP1 POP PUSH1 0x1 DUP3 AND DUP1 PUSH3 0x5F0 JUMPI PUSH1 0x7F DUP3 AND SWAP2 POP JUMPDEST PUSH1 0x20 DUP3 LT DUP2 SUB PUSH3 0x606 JUMPI PUSH3 0x605 PUSH3 0x5A8 JUMP JUMPDEST JUMPDEST POP SWAP2 SWAP1 POP JUMP JUMPDEST PUSH1 0x0 DUP2 SWAP1 POP DUP2 PUSH1 0x0 MSTORE PUSH1 0x20 PUSH1 0x0 KECCAK256 SWAP1 POP SWAP2 SWAP1 POP JUMP JUMPDEST PUSH1 0x0 PUSH1 0x20 PUSH1 0x1F DUP4 ADD DIV SWAP1 POP SWAP2 SWAP1 POP JUMP JUMPDEST PUSH1 0x0 DUP3 DUP3 SHL SWAP1 POP SWAP3 SWAP2 POP POP JUMP JUMPDEST PUSH1 0x0 PUSH1 0x8 DUP4 MUL PUSH3 0x670 PUSH32 0xFFFFFFFFFFFFFFFFFFFFFFFFFFFFFFFFFFFFFFFFFFFFFFFFFFFFFFFFFFFFFFFF DUP3 PUSH3 0x631 JUMP JUMPDEST PUSH3 0x67C DUP7 DUP4 PUSH3 0x631 JUMP JUMPDEST SWAP6 POP DUP1 NOT DUP5 AND SWAP4 POP DUP1 DUP7 AND DUP5 OR SWAP3 POP POP POP SWAP4 SWAP3 POP POP POP JUMP JUMPDEST PUSH1 0x0 DUP2 SWAP1 POP SWAP2 SWAP1 POP JUMP JUMPDEST PUSH1 0x0 DUP2 SWAP1 POP SWAP2 SWAP1 POP JUMP JUMPDEST PUSH1 0x0 PUSH3 0x6C9 PUSH3 0x6C3 PUSH3 0x6BD DUP5 PUSH3 0x694 JUMP JUMPDEST PUSH3 0x69E JUMP JUMPDEST PUSH3 0x694 JUMP JUMPDEST SWAP1 POP SWAP2 SWAP1 POP JUMP JUMPDEST PUSH1 0x0 DUP2 SWAP1 POP SWAP2 SWAP1 POP JUMP JUMPDEST PUSH3 0x6E5 DUP4 PUSH3 0x6A8 JUMP JUMPDEST PUSH3 0x6FD PUSH3 0x6F4 DUP3 PUSH3 0x6D0 JUMP JUMPDEST DUP5 DUP5 SLOAD PUSH3 0x63E JUMP JUMPDEST DUP3 SSTORE POP POP POP POP JUMP JUMPDEST PUSH1 0x0 SWAP1 JUMP JUMPDEST PUSH3 0x714 PUSH3 0x705 JUMP JUMPDEST PUSH3 0x721 DUP2 DUP5 DUP5 PUSH3 0x6DA JUMP JUMPDEST POP POP POP JUMP JUMPDEST JUMPDEST DUP2 DUP2 LT ISZERO PUSH3 0x749 JUMPI PUSH3 0x73D PUSH1 0x0 DUP3 PUSH3 0x70A JUMP JUMPDEST PUSH1 0x1 DUP2 ADD SWAP1 POP PUSH3 0x727 JUMP JUMPDEST POP POP JUMP JUMPDEST PUSH1 0x1F DUP3 GT ISZERO PUSH3 0x798 JUMPI PUSH3 0x762 DUP2 PUSH3 0x60C JUMP JUMPDEST PUSH3 0x76D DUP5 PUSH3 0x621 JUMP JUMPDEST DUP2 ADD PUSH1 0x20 DUP6 LT ISZERO PUSH3 0x77D JUMPI DUP2 SWAP1 POP JUMPDEST PUSH3 0x795 PUSH3 0x78C DUP6 PUSH3 0x621 JUMP JUMPDEST DUP4 ADD DUP3 PUSH3 0x726 JUMP JUMPDEST POP POP JUMPDEST POP POP POP JUMP JUMPDEST PUSH1 0x0 DUP3 DUP3 SHR SWAP1 POP SWAP3 SWAP2 POP POP JUMP JUMPDEST PUSH1 0x0 PUSH3 0x7BD PUSH1 0x0 NOT DUP5 PUSH1 0x8 MUL PUSH3 0x79D JUMP JUMPDEST NOT DUP1 DUP4 AND SWAP2 POP POP SWAP3 SWAP2 POP POP JUMP JUMPDEST PUSH1 0x0 PUSH3 0x7D8 DUP4 DUP4 PUSH3 0x7AA JUMP JUMPDEST SWAP2 POP DUP3 PUSH1 0x2 MUL DUP3 OR SWAP1 POP SWAP3 SWAP2 POP POP JUMP JUMPDEST PUSH3 0x7F3 DUP3 PUSH3 0x56E JUMP JUMPDEST PUSH8 0xFFFFFFFFFFFFFFFF DUP2 GT ISZERO PUSH3 0x80F JUMPI PUSH3 0x80E PUSH3 0x579 JUMP JUMPDEST JUMPDEST PUSH3 0x81B DUP3 SLOAD PUSH3 0x5D7 JUMP JUMPDEST PUSH3 0x828 DUP3 DUP3 DUP6 PUSH3 0x74D JUMP JUMPDEST PUSH1 0x0 PUSH1 0x20 SWAP1 POP PUSH1 0x1F DUP4 GT PUSH1 0x1 DUP2 EQ PUSH3 0x860 JUMPI PUSH1 0x0 DUP5 ISZERO PUSH3 0x84B JUMPI DUP3 DUP8 ADD MLOAD SWAP1 POP JUMPDEST PUSH3 0x857 DUP6 DUP3 PUSH3 0x7CA JUMP JUMPDEST DUP7 SSTORE POP PUSH3 0x8C7 JUMP JUMPDEST PUSH1 0x1F NOT DUP5 AND PUSH3 0x870 DUP7 PUSH3 0x60C JUMP JUMPDEST PUSH1 0x0 JUMPDEST DUP3 DUP2 LT ISZERO PUSH3 0x89A JUMPI DUP5 DUP10 ADD MLOAD DUP3 SSTORE PUSH1 0x1 DUP3 ADD SWAP2 POP PUSH1 0x20 DUP6 ADD SWAP5 POP PUSH1 0x20 DUP2 ADD SWAP1 POP PUSH3 0x873 JUMP JUMPDEST DUP7 DUP4 LT ISZERO PUSH3 0x8BA JUMPI DUP5 DUP10 ADD MLOAD PUSH3 0x8B6 PUSH1 0x1F DUP10 AND DUP3 PUSH3 0x7AA JUMP JUMPDEST DUP4 SSTORE POP JUMPDEST PUSH1 0x1 PUSH1 0x2 DUP9 MUL ADD DUP9 SSTORE POP POP POP JUMPDEST POP POP POP POP POP POP JUMP JUMPDEST PUSH3 0x8DA DUP2 PUSH3 0x4E2 JUMP JUMPDEST DUP3 MSTORE POP POP JUMP JUMPDEST PUSH1 0x0 PUSH1 0x40 DUP3 ADD SWAP1 POP PUSH3 0x8F7 PUSH1 0x0 DUP4 ADD DUP6 PUSH3 0x8CF JUMP JUMPDEST PUSH3 0x906 PUSH1 0x20 DUP4 ADD DUP5 PUSH3 0x8CF JUMP JUMPDEST SWAP4 SWAP3 POP POP POP JUMP JUMPDEST PUSH32 0x4E487B7100000000000000000000000000000000000000000000000000000000 PUSH1 0x0 MSTORE PUSH1 0x11 PUSH1 0x4 MSTORE PUSH1 0x24 PUSH1 0x0 REVERT JUMPDEST PUSH1 0x0 PUSH3 0x949 DUP3 PUSH3 0x694 JUMP JUMPDEST SWAP2 POP PUSH3 0x956 DUP4 PUSH3 0x694 JUMP JUMPDEST SWAP3 POP DUP3 DUP3 ADD SWAP1 POP DUP1 DUP3 GT ISZERO PUSH3 0x971 JUMPI PUSH3 0x970 PUSH3 0x90D JUMP JUMPDEST JUMPDEST SWAP3 SWAP2 POP POP JUMP JUMPDEST PUSH3 0x982 DUP2 PUSH3 0x694 JUMP JUMPDEST DUP3 MSTORE POP POP JUMP JUMPDEST PUSH1 0x0 PUSH1 0x20 DUP3 ADD SWAP1 POP PUSH3 0x99F PUSH1 0x0 DUP4 ADD DUP5 PUSH3 0x977 JUMP JUMPDEST SWAP3 SWAP2 POP POP JUMP JUMPDEST PUSH2 0x190C DUP1 PUSH3 0x9B5 PUSH1 0x0 CODECOPY PUSH1 0x0 RETURN INVALID PUSH1 0x80 PUSH1 0x40 MSTORE CALLVALUE DUP1 ISZERO PUSH2 0x10 JUMPI PUSH1 0x0 DUP1 REVERT JUMPDEST POP PUSH1 0x4 CALLDATASIZE LT PUSH2 0x18E JUMPI PUSH1 0x0 CALLDATALOAD PUSH1 0xE0 SHR DUP1 PUSH4 0x715018A6 GT PUSH2 0xDE JUMPI DUP1 PUSH4 0xA8602FEA GT PUSH2 0x97 JUMPI DUP1 PUSH4 0xDD62ED3E GT PUSH2 0x71 JUMPI DUP1 PUSH4 0xDD62ED3E EQ PUSH2 0x465 JUMPI DUP1 PUSH4 0xF2A4259D EQ PUSH2 0x495 JUMPI DUP1 PUSH4 0xF2FDE38B EQ PUSH2 0x4B3 JUMPI DUP1 PUSH4 0xFBFA77CF EQ PUSH2 0x4CF JUMPI PUSH2 0x18E JUMP JUMPDEST DUP1 PUSH4 0xA8602FEA EQ PUSH2 0x3FD JUMPI DUP1 PUSH4 0xA901DD92 EQ PUSH2 0x419 JUMPI DUP1 PUSH4 0xA9059CBB EQ PUSH2 0x435 JUMPI PUSH2 0x18E JUMP JUMPDEST DUP1 PUSH4 0x715018A6 EQ PUSH2 0x35F JUMPI DUP1 PUSH4 0x773EC8AC EQ PUSH2 0x369 JUMPI DUP1 PUSH4 0x8DA5CB5B EQ PUSH2 0x387 JUMPI DUP1 PUSH4 0x8EBFC796 EQ PUSH2 0x3A5 JUMPI DUP1 PUSH4 0x95D89B41 EQ PUSH2 0x3C1 JUMPI DUP1 PUSH4 0xA64E4F8A EQ PUSH2 0x3DF JUMPI PUSH2 0x18E JUMP JUMPDEST DUP1 PUSH4 0x2C1597E4 GT PUSH2 0x14B JUMPI DUP1 PUSH4 0x3F4218E0 GT PUSH2 0x125 JUMPI DUP1 PUSH4 0x3F4218E0 EQ PUSH2 0x2C3 JUMPI DUP1 PUSH4 0x4626402B EQ PUSH2 0x2F3 JUMPI DUP1 PUSH4 0x6EB3ABE0 EQ PUSH2 0x311 JUMPI DUP1 PUSH4 0x70A08231 EQ PUSH2 0x32F JUMPI PUSH2 0x18E JUMP JUMPDEST DUP1 PUSH4 0x2C1597E4 EQ PUSH2 0x269 JUMPI DUP1 PUSH4 0x313CE567 EQ PUSH2 0x287 JUMPI DUP1 PUSH4 0x32CB6B0C EQ PUSH2 0x2A5 JUMPI PUSH2 0x18E JUMP JUMPDEST DUP1 PUSH4 0x6FDDE03 EQ PUSH2 0x193 JUMPI DUP1 PUSH4 0x95EA7B3 EQ PUSH2 0x1B1 JUMPI DUP1 PUSH4 0xD7FCD1A EQ PUSH2 0x1E1 JUMPI DUP1 PUSH4 0x15CE462D EQ PUSH2 0x1FF JUMPI DUP1 PUSH4 0x18160DDD EQ PUSH2 0x21B JUMPI DUP1 PUSH4 0x23B872DD EQ PUSH2 0x239 JUMPI JUMPDEST PUSH1 0x0 DUP1 REVERT JUMPDEST PUSH2 0x19B PUSH2 0x4ED JUMP JUMPDEST PUSH1 0x40 MLOAD PUSH2 0x1A8 SWAP2 SWAP1 PUSH2 0x1213 JUMP JUMPDEST PUSH1 0x40 MLOAD DUP1 SWAP2 SUB SWAP1 RETURN JUMPDEST PUSH2 0x1CB PUSH1 0x4 DUP1 CALLDATASIZE SUB DUP2 ADD SWAP1 PUSH2 0x1C6 SWAP2 SWAP1 PUSH2 0x12CE JUMP JUMPDEST PUSH2 0x57F JUMP JUMPDEST PUSH1 0x40 MLOAD PUSH2 0x1D8 SWAP2 SWAP1 PUSH2 0x1329 JUMP JUMPDEST PUSH1 0x40 MLOAD DUP1 SWAP2 SUB SWAP1 RETURN JUMPDEST PUSH2 0x1E9 PUSH2 0x59D JUMP JUMPDEST PUSH1 0x40 MLOAD PUSH2 0x1F6 SWAP2 SWAP1 PUSH2 0x1353 JUMP JUMPDEST PUSH1 0x40 MLOAD DUP1 SWAP2 SUB SWAP1 RETURN JUMPDEST PUSH2 0x219 PUSH1 0x4 DUP1 CALLDATASIZE SUB DUP2 ADD SWAP1 PUSH2 0x214 SWAP2 SWAP1 PUSH2 0x136E JUMP JUMPDEST PUSH2 0x5A3 JUMP JUMPDEST STOP JUMPDEST PUSH2 0x223 PUSH2 0x663 JUMP JUMPDEST PUSH1 0x40 MLOAD PUSH2 0x230 SWAP2 SWAP1 PUSH2 0x1353 JUMP JUMPDEST PUSH1 0x40 MLOAD DUP1 SWAP2 SUB SWAP1 RETURN JUMPDEST PUSH2 0x253 PUSH1 0x4 DUP1 CALLDATASIZE SUB DUP2 ADD SWAP1 PUSH2 0x24E SWAP2 SWAP1 PUSH2 0x139B JUMP JUMPDEST PUSH2 0x66D JUMP JUMPDEST PUSH1 0x40 MLOAD PUSH2 0x260 SWAP2 SWAP1 PUSH2 0x1329 JUMP JUMPDEST PUSH1 0x40 MLOAD DUP1 SWAP2 SUB SWAP1 RETURN JUMPDEST PUSH2 0x271 PUSH2 0x697 JUMP JUMPDEST PUSH1 0x40 MLOAD PUSH2 0x27E SWAP2 SWAP1 PUSH2 0x1353 JUMP JUMPDEST PUSH1 0x40 MLOAD DUP1 SWAP2 SUB SWAP1 RETURN JUMPDEST PUSH2 0x28F PUSH2 0x69D JUMP JUMPDEST PUSH1 0x40 MLOAD PUSH2 0x29C SWAP2 SWAP1 PUSH2 0x140A JUMP JUMPDEST PUSH1 0x40 MLOAD DUP1 SWAP2 SUB SWAP1 RETURN JUMPDEST PUSH2 0x2AD PUSH2 0x6A6 JUMP JUMPDEST PUSH1 0x40 MLOAD PUSH2 0x2BA SWAP2 SWAP1 PUSH2 0x1353 JUMP JUMPDEST PUSH1 0x40 MLOAD DUP1 SWAP2 SUB SWAP1 RETURN JUMPDEST PUSH2 0x2DD PUSH1 0x4 DUP1 CALLDATASIZE SUB DUP2 ADD SWAP1 PUSH2 0x2D8 SWAP2 SWAP1 PUSH2 0x136E JUMP JUMPDEST PUSH2 0x6B6 JUMP JUMPDEST PUSH1 0x40 MLOAD PUSH2 0x2EA SWAP2 SWAP1 PUSH2 0x1329 JUMP JUMPDEST PUSH1 0x40 MLOAD DUP1 SWAP2 SUB SWAP1 RETURN JUMPDEST PUSH2 0x2FB PUSH2 0x6D6 JUMP JUMPDEST PUSH1 0x40 MLOAD PUSH2 0x308 SWAP2 SWAP1 PUSH2 0x1434 JUMP JUMPDEST PUSH1 0x40 MLOAD DUP1 SWAP2 SUB SWAP1 RETURN JUMPDEST PUSH2 0x319 PUSH2 0x6FC JUMP JUMPDEST PUSH1 0x40 MLOAD PUSH2 0x326 SWAP2 SWAP1 PUSH2 0x1353 JUMP JUMPDEST PUSH1 0x40 MLOAD DUP1 SWAP2 SUB SWAP1 RETURN JUMPDEST PUSH2 0x349 PUSH1 0x4 DUP1 CALLDATASIZE SUB DUP2 ADD SWAP1 PUSH2 0x344 SWAP2 SWAP1 PUSH2 0x136E JUMP JUMPDEST PUSH2 0x701 JUMP JUMPDEST PUSH1 0x40 MLOAD PUSH2 0x356 SWAP2 SWAP1 PUSH2 0x1353 JUMP JUMPDEST PUSH1 0x40 MLOAD DUP1 SWAP2 SUB SWAP1 RETURN JUMPDEST PUSH2 0x367 PUSH2 0x749 JUMP JUMPDEST STOP JUMPDEST PUSH2 0x371 PUSH2 0x7D1 JUMP JUMPDEST PUSH1 0x40 MLOAD PUSH2 0x37E SWAP2 SWAP1 PUSH2 0x1434 JUMP JUMPDEST PUSH1 0x40 MLOAD DUP1 SWAP2 SUB SWAP1 RETURN JUMPDEST PUSH2 0x38F PUSH2 0x7F7 JUMP JUMPDEST PUSH1 0x40 MLOAD PUSH2 0x39C SWAP2 SWAP1 PUSH2 0x1434 JUMP JUMPDEST PUSH1 0x40 MLOAD DUP1 SWAP2 SUB SWAP1 RETURN JUMPDEST PUSH2 0x3BF PUSH1 0x4 DUP1 CALLDATASIZE SUB DUP2 ADD SWAP1 PUSH2 0x3BA SWAP2 SWAP1 PUSH2 0x147B JUMP JUMPDEST PUSH2 0x821 JUMP JUMPDEST STOP JUMPDEST PUSH2 0x3C9 PUSH2 0x8F8 JUMP JUMPDEST PUSH1 0x40 MLOAD PUSH2 0x3D6 SWAP2 SWAP1 PUSH2 0x1213 JUMP JUMPDEST PUSH1 0x40 MLOAD DUP1 SWAP2 SUB SWAP1 RETURN JUMPDEST PUSH2 0x3E7 PUSH2 0x98A JUMP JUMPDEST PUSH1 0x40 MLOAD PUSH2 0x3F4 SWAP2 SWAP1 PUSH2 0x1329 JUMP JUMPDEST PUSH1 0x40 MLOAD DUP1 SWAP2 SUB SWAP1 RETURN JUMPDEST PUSH2 0x417 PUSH1 0x4 DUP1 CALLDATASIZE SUB DUP2 ADD SWAP1 PUSH2 0x412 SWAP2 SWAP1 PUSH2 0x136E JUMP JUMPDEST PUSH2 0x99D JUMP JUMPDEST STOP JUMPDEST PUSH2 0x433 PUSH1 0x4 DUP1 CALLDATASIZE SUB DUP2 ADD SWAP1 PUSH2 0x42E SWAP2 SWAP1 PUSH2 0x14BB JUMP JUMPDEST PUSH2 0xA5D JUMP JUMPDEST STOP JUMPDEST PUSH2 0x44F PUSH1 0x4 DUP1 CALLDATASIZE SUB DUP2 ADD SWAP1 PUSH2 0x44A SWAP2 SWAP1 PUSH2 0x12CE JUMP JUMPDEST PUSH2 0xAF6 JUMP JUMPDEST PUSH1 0x40 MLOAD PUSH2 0x45C SWAP2 SWAP1 PUSH2 0x1329 JUMP JUMPDEST PUSH1 0x40 MLOAD DUP1 SWAP2 SUB SWAP1 RETURN JUMPDEST PUSH2 0x47F PUSH1 0x4 DUP1 CALLDATASIZE SUB DUP2 ADD SWAP1 PUSH2 0x47A SWAP2 SWAP1 PUSH2 0x14E8 JUMP JUMPDEST PUSH2 0xB14 JUMP JUMPDEST PUSH1 0x40 MLOAD PUSH2 0x48C SWAP2 SWAP1 PUSH2 0x1353 JUMP JUMPDEST PUSH1 0x40 MLOAD DUP1 SWAP2 SUB SWAP1 RETURN JUMPDEST PUSH2 0x49D PUSH2 0xB9B JUMP JUMPDEST PUSH1 0x40 MLOAD PUSH2 0x4AA SWAP2 SWAP1 PUSH2 0x1353 JUMP JUMPDEST PUSH1 0x40 MLOAD DUP1 SWAP2 SUB SWAP1 RETURN JUMPDEST PUSH2 0x4CD PUSH1 0x4 DUP1 CALLDATASIZE SUB DUP2 ADD SWAP1 PUSH2 0x4C8 SWAP2 SWAP1 PUSH2 0x136E JUMP JUMPDEST PUSH2 0xBA1 JUMP JUMPDEST STOP JUMPDEST PUSH2 0x4D7 PUSH2 0xC98 JUMP JUMPDEST PUSH1 0x40 MLOAD PUSH2 0x4E4 SWAP2 SWAP1 PUSH2 0x1587 JUMP JUMPDEST PUSH1 0x40 MLOAD DUP1 SWAP2 SUB SWAP1 RETURN JUMPDEST PUSH1 0x60 PUSH1 0x3 DUP1 SLOAD PUSH2 0x4FC SWAP1 PUSH2 0x15D1 JUMP JUMPDEST DUP1 PUSH1 0x1F ADD PUSH1 0x20 DUP1 SWAP2 DIV MUL PUSH1 0x20 ADD PUSH1 0x40 MLOAD SWAP1 DUP2 ADD PUSH1 0x40 MSTORE DUP1 SWAP3 SWAP2 SWAP1 DUP2 DUP2 MSTORE PUSH1 0x20 ADD DUP3 DUP1 SLOAD PUSH2 0x528 SWAP1 PUSH2 0x15D1 JUMP JUMPDEST DUP1 ISZERO PUSH2 0x575 JUMPI DUP1 PUSH1 0x1F LT PUSH2 0x54A JUMPI PUSH2 0x100 DUP1 DUP4 SLOAD DIV MUL DUP4 MSTORE SWAP2 PUSH1 0x20 ADD SWAP2 PUSH2 0x575 JUMP JUMPDEST DUP3 ADD SWAP2 SWAP1 PUSH1 0x0 MSTORE PUSH1 0x20 PUSH1 0x0 KECCAK256 SWAP1 JUMPDEST DUP2 SLOAD DUP2 MSTORE SWAP1 PUSH1 0x1 ADD SWAP1 PUSH1 0x20 ADD DUP1 DUP4 GT PUSH2 0x558 JUMPI DUP3 SWAP1 SUB PUSH1 0x1F AND DUP3 ADD SWAP2 JUMPDEST POP POP POP POP POP SWAP1 POP SWAP1 JUMP JUMPDEST PUSH1 0x0 PUSH2 0x593 PUSH2 0x58C PUSH2 0xCBE JUMP JUMPDEST DUP5 DUP5 PUSH2 0xCC6 JUMP JUMPDEST PUSH1 0x1 SWAP1 POP SWAP3 SWAP2 POP POP JUMP JUMPDEST PUSH1 0x8 SLOAD DUP2 JUMP JUMPDEST PUSH2 0x5AB PUSH2 0xCBE JUMP JUMPDEST PUSH20 0xFFFFFFFFFFFFFFFFFFFFFFFFFFFFFFFFFFFFFFFF AND PUSH2 0x5C9 PUSH2 0x7F7 JUMP JUMPDEST PUSH20 0xFFFFFFFFFFFFFFFFFFFFFFFFFFFFFFFFFFFFFFFF AND EQ PUSH2 0x61F JUMPI PUSH1 0x40 MLOAD PUSH32 0x8C379A000000000000000000000000000000000000000000000000000000000 DUP2 MSTORE PUSH1 0x4 ADD PUSH2 0x616 SWAP1 PUSH2 0x164E JUMP JUMPDEST PUSH1 0x40 MLOAD DUP1 SWAP2 SUB SWAP1 REVERT JUMPDEST DUP1 PUSH1 0x9 PUSH1 0x1 PUSH2 0x100 EXP DUP2 SLOAD DUP2 PUSH20 0xFFFFFFFFFFFFFFFFFFFFFFFFFFFFFFFFFFFFFFFF MUL NOT AND SWAP1 DUP4 PUSH20 0xFFFFFFFFFFFFFFFFFFFFFFFFFFFFFFFFFFFFFFFF AND MUL OR SWAP1 SSTORE POP POP JUMP JUMPDEST PUSH1 0x0 PUSH1 0x2 SLOAD SWAP1 POP SWAP1 JUMP JUMPDEST PUSH1 0x0 PUSH2 0x681 DUP5 PUSH2 0x67B PUSH2 0xCBE JUMP JUMPDEST DUP5 PUSH2 0xE8F JUMP JUMPDEST PUSH2 0x68C DUP5 DUP5 DUP5 PUSH2 0xF1B JUMP JUMPDEST PUSH1 0x1 SWAP1 POP SWAP4 SWAP3 POP POP POP JUMP JUMPDEST PUSH1 0x6 SLOAD DUP2 JUMP JUMPDEST PUSH1 0x0 PUSH1 0x12 SWAP1 POP SWAP1 JUMP JUMPDEST PUSH12 0x33B2E3C9FD0803CE8000000 DUP2 JUMP JUMPDEST PUSH1 0xC PUSH1 0x20 MSTORE DUP1 PUSH1 0x0 MSTORE PUSH1 0x40 PUSH1 0x0 KECCAK256 PUSH1 0x0 SWAP2 POP SLOAD SWAP1 PUSH2 0x100 EXP SWAP1 DIV PUSH1 0xFF AND DUP2 JUMP JUMPDEST PUSH1 0xA PUSH1 0x0 SWAP1 SLOAD SWAP1 PUSH2 0x100 EXP SWAP1 DIV PUSH20 0xFFFFFFFFFFFFFFFFFFFFFFFFFFFFFFFFFFFFFFFF AND DUP2 JUMP JUMPDEST PUSH1 0xFA DUP2 JUMP JUMPDEST PUSH1 0x0 DUP1 PUSH1 0x0 DUP4 PUSH20 0xFFFFFFFFFFFFFFFFFFFFFFFFFFFFFFFFFFFFFFFF AND PUSH20 0xFFFFFFFFFFFFFFFFFFFFFFFFFFFFFFFFFFFFFFFF AND DUP2 MSTORE PUSH1 0x20 ADD SWAP1 DUP2 MSTORE PUSH1 0x20 ADD PUSH1 0x0 KECCAK256 SLOAD SWAP1 POP SWAP2 SWAP1 POP JUMP JUMPDEST PUSH2 0x751 PUSH2 0xCBE JUMP JUMPDEST PUSH20 0xFFFFFFFFFFFFFFFFFFFFFFFFFFFFFFFFFFFFFFFF AND PUSH2 0x76F PUSH2 0x7F7 JUMP JUMPDEST PUSH20 0xFFFFFFFFFFFFFFFFFFFFFFFFFFFFFFFFFFFFFFFF AND EQ PUSH2 0x7C5 JUMPI PUSH1 0x40 MLOAD PUSH32 0x8C379A000000000000000000000000000000000000000000000000000000000 DUP2 MSTORE PUSH1 0x4 ADD PUSH2 0x7BC SWAP1 PUSH2 0x164E JUMP JUMPDEST PUSH1 0x40 MLOAD DUP1 SWAP2 SUB SWAP1 REVERT JUMPDEST PUSH2 0x7CF PUSH1 0x0 PUSH2 0x10B3 JUMP JUMPDEST JUMP JUMPDEST PUSH1 0x9 PUSH1 0x1 SWAP1 SLOAD SWAP1 PUSH2 0x100 EXP SWAP1 DIV PUSH20 0xFFFFFFFFFFFFFFFFFFFFFFFFFFFFFFFFFFFFFFFF AND DUP2 JUMP JUMPDEST PUSH1 0x0 PUSH1 0x5 PUSH1 0x0 SWAP1 SLOAD SWAP1 PUSH2 0x100 EXP SWAP1 DIV PUSH20 0xFFFFFFFFFFFFFFFFFFFFFFFFFFFFFFFFFFFFFFFF AND SWAP1 POP SWAP1 JUMP JUMPDEST PUSH2 0x829 PUSH2 0xCBE JUMP JUMPDEST PUSH20 0xFFFFFFFFFFFFFFFFFFFFFFFFFFFFFFFFFFFFFFFF AND PUSH2 0x847 PUSH2 0x7F7 JUMP JUMPDEST PUSH20 0xFFFFFFFFFFFFFFFFFFFFFFFFFFFFFFFFFFFFFFFF AND EQ PUSH2 0x89D JUMPI PUSH1 0x40 MLOAD PUSH32 0x8C379A000000000000000000000000000000000000000000000000000000000 DUP2 MSTORE PUSH1 0x4 ADD PUSH2 0x894 SWAP1 PUSH2 0x164E JUMP JUMPDEST PUSH1 0x40 MLOAD DUP1 SWAP2 SUB SWAP1 REVERT JUMPDEST DUP1 PUSH1 0xC PUSH1 0x0 DUP5 PUSH20 0xFFFFFFFFFFFFFFFFFFFFFFFFFFFFFFFFFFFFFFFF AND PUSH20 0xFFFFFFFFFFFFFFFFFFFFFFFFFFFFFFFFFFFFFFFF AND DUP2 MSTORE PUSH1 0x20 ADD SWAP1 DUP2 MSTORE PUSH1 0x20 ADD PUSH1 0x0 KECCAK256 PUSH1 0x0 PUSH2 0x100 EXP DUP2 SLOAD DUP2 PUSH1 0xFF MUL NOT AND SWAP1 DUP4 ISZERO ISZERO MUL OR SWAP1 SSTORE POP POP POP JUMP JUMPDEST PUSH1 0x60 PUSH1 0x4 DUP1 SLOAD PUSH2 0x907 SWAP1 PUSH2 0x15D1 JUMP JUMPDEST DUP1 PUSH1 0x1F ADD PUSH1 0x20 DUP1 SWAP2 DIV MUL PUSH1 0x20 ADD PUSH1 0x40 MLOAD SWAP1 DUP2 ADD PUSH1 0x40 MSTORE DUP1 SWAP3 SWAP2 SWAP1 DUP2 DUP2 MSTORE PUSH1 0x20 ADD DUP3 DUP1 SLOAD PUSH2 0x933 SWAP1 PUSH2 0x15D1 JUMP JUMPDEST DUP1 ISZERO PUSH2 0x980 JUMPI DUP1 PUSH1 0x1F LT PUSH2 0x955 JUMPI PUSH2 0x100 DUP1 DUP4 SLOAD DIV MUL DUP4 MSTORE SWAP2 PUSH1 0x20 ADD SWAP2 PUSH2 0x980 JUMP JUMPDEST DUP3 ADD SWAP2 SWAP1 PUSH1 0x0 MSTORE PUSH1 0x20 PUSH1 0x0 KECCAK256 SWAP1 JUMPDEST DUP2 SLOAD DUP2 MSTORE SWAP1 PUSH1 0x1 ADD SWAP1 PUSH1 0x20 ADD DUP1 DUP4 GT PUSH2 0x963 JUMPI DUP3 SWAP1 SUB PUSH1 0x1F AND DUP3 ADD SWAP2 JUMPDEST POP POP POP POP POP SWAP1 POP SWAP1 JUMP JUMPDEST PUSH1 0x9 PUSH1 0x0 SWAP1 SLOAD SWAP1 PUSH2 0x100 EXP SWAP1 DIV PUSH1 0xFF AND DUP2 JUMP JUMPDEST PUSH2 0x9A5 PUSH2 0xCBE JUMP JUMPDEST PUSH20 0xFFFFFFFFFFFFFFFFFFFFFFFFFFFFFFFFFFFFFFFF AND PUSH2 0x9C3 PUSH2 0x7F7 JUMP JUMPDEST PUSH20 0xFFFFFFFFFFFFFFFFFFFFFFFFFFFFFFFFFFFFFFFF AND EQ PUSH2 0xA19 JUMPI PUSH1 0x40 MLOAD PUSH32 0x8C379A000000000000000000000000000000000000000000000000000000000 DUP2 MSTORE PUSH1 0x4 ADD PUSH2 0xA10 SWAP1 PUSH2 0x164E JUMP JUMPDEST PUSH1 0x40 MLOAD DUP1 SWAP2 SUB SWAP1 REVERT JUMPDEST DUP1 PUSH1 0xA PUSH1 0x0 PUSH2 0x100 EXP DUP2 SLOAD DUP2 PUSH20 0xFFFFFFFFFFFFFFFFFFFFFFFFFFFFFFFFFFFFFFFF MUL NOT AND SWAP1 DUP4 PUSH20 0xFFFFFFFFFFFFFFFFFFFFFFFFFFFFFFFFFFFFFFFF AND MUL OR SWAP1 SSTORE POP POP JUMP JUMPDEST PUSH2 0xA65 PUSH2 0xCBE JUMP JUMPDEST PUSH20 0xFFFFFFFFFFFFFFFFFFFFFFFFFFFFFFFFFFFFFFFF AND PUSH2 0xA83 PUSH2 0x7F7 JUMP JUMPDEST PUSH20 0xFFFFFFFFFFFFFFFFFFFFFFFFFFFFFFFFFFFFFFFF AND EQ PUSH2 0xAD9 JUMPI PUSH1 0x40 MLOAD PUSH32 0x8C379A000000000000000000000000000000000000000000000000000000000 DUP2 MSTORE PUSH1 0x4 ADD PUSH2 0xAD0 SWAP1 PUSH2 0x164E JUMP JUMPDEST PUSH1 0x40 MLOAD DUP1 SWAP2 SUB SWAP1 REVERT JUMPDEST DUP1 PUSH1 0x9 PUSH1 0x0 PUSH2 0x100 EXP DUP2 SLOAD DUP2 PUSH1 0xFF MUL NOT AND SWAP1 DUP4 ISZERO ISZERO MUL OR SWAP1 SSTORE POP POP JUMP JUMPDEST PUSH1 0x0 PUSH2 0xB0A PUSH2 0xB03 PUSH2 0xCBE JUMP JUMPDEST DUP5 DUP5 PUSH2 0xF1B JUMP JUMPDEST PUSH1 0x1 SWAP1 POP SWAP3 SWAP2 POP POP JUMP JUMPDEST PUSH1 0x0 PUSH1 0x1 PUSH1 0x0 DUP5 PUSH20 0xFFFFFFFFFFFFFFFFFFFFFFFFFFFFFFFFFFFFFFFF AND PUSH20 0xFFFFFFFFFFFFFFFFFFFFFFFFFFFFFFFFFFFFFFFF AND DUP2 MSTORE PUSH1 0x20 ADD SWAP1 DUP2 MSTORE PUSH1 0x20 ADD PUSH1 0x0 KECCAK256 PUSH1 0x0 DUP4 PUSH20 0xFFFFFFFFFFFFFFFFFFFFFFFFFFFFFFFFFFFFFFFF AND PUSH20 0xFFFFFFFFFFFFFFFFFFFFFFFFFFFFFFFFFFFFFFFF AND DUP2 MSTORE PUSH1 0x20 ADD SWAP1 DUP2 MSTORE PUSH1 0x20 ADD PUSH1 0x0 KECCAK256 SLOAD SWAP1 POP SWAP3 SWAP2 POP POP JUMP JUMPDEST PUSH1 0x7 SLOAD DUP2 JUMP JUMPDEST PUSH2 0xBA9 PUSH2 0xCBE JUMP JUMPDEST PUSH20 0xFFFFFFFFFFFFFFFFFFFFFFFFFFFFFFFFFFFFFFFF AND PUSH2 0xBC7 PUSH2 0x7F7 JUMP JUMPDEST PUSH20 0xFFFFFFFFFFFFFFFFFFFFFFFFFFFFFFFFFFFFFFFF AND EQ PUSH2 0xC1D JUMPI PUSH1 0x40 MLOAD PUSH32 0x8C379A000000000000000000000000000000000000000000000000000000000 DUP2 MSTORE PUSH1 0x4 ADD PUSH2 0xC14 SWAP1 PUSH2 0x164E JUMP JUMPDEST PUSH1 0x40 MLOAD DUP1 SWAP2 SUB SWAP1 REVERT JUMPDEST PUSH1 0x0 PUSH20 0xFFFFFFFFFFFFFFFFFFFFFFFFFFFFFFFFFFFFFFFF AND DUP2 PUSH20 0xFFFFFFFFFFFFFFFFFFFFFFFFFFFFFFFFFFFFFFFF AND SUB PUSH2 0xC8C JUMPI PUSH1 0x40 MLOAD PUSH32 0x8C379A000000000000000000000000000000000000000000000000000000000 DUP2 MSTORE PUSH1 0x4 ADD PUSH2 0xC83 SWAP1 PUSH2 0x16E0 JUMP JUMPDEST PUSH1 0x40 MLOAD DUP1 SWAP2 SUB SWAP1 REVERT JUMPDEST PUSH2 0xC95 DUP2 PUSH2 0x10B3 JUMP JUMPDEST POP JUMP JUMPDEST PUSH1 0xB PUSH1 0x0 SWAP1 SLOAD SWAP1 PUSH2 0x100 EXP SWAP1 DIV PUSH20 0xFFFFFFFFFFFFFFFFFFFFFFFFFFFFFFFFFFFFFFFF AND DUP2 JUMP JUMPDEST PUSH1 0x0 CALLER SWAP1 POP SWAP1 JUMP JUMPDEST PUSH1 0x0 PUSH20 0xFFFFFFFFFFFFFFFFFFFFFFFFFFFFFFFFFFFFFFFF AND DUP4 PUSH20 0xFFFFFFFFFFFFFFFFFFFFFFFFFFFFFFFFFFFFFFFF AND SUB PUSH2 0xD35 JUMPI PUSH1 0x40 MLOAD PUSH32 0x8C379A000000000000000000000000000000000000000000000000000000000 DUP2 MSTORE PUSH1 0x4 ADD PUSH2 0xD2C SWAP1 PUSH2 0x174C JUMP JUMPDEST PUSH1 0x40 MLOAD DUP1 SWAP2 SUB SWAP1 REVERT JUMPDEST PUSH1 0x0 PUSH20 0xFFFFFFFFFFFFFFFFFFFFFFFFFFFFFFFFFFFFFFFF AND DUP3 PUSH20 0xFFFFFFFFFFFFFFFFFFFFFFFFFFFFFFFFFFFFFFFF AND SUB PUSH2 0xDA4 JUMPI PUSH1 0x40 MLOAD PUSH32 0x8C379A000000000000000000000000000000000000000000000000000000000 DUP2 MSTORE PUSH1 0x4 ADD PUSH2 0xD9B SWAP1 PUSH2 0x17B8 JUMP JUMPDEST PUSH1 0x40 MLOAD DUP1 SWAP2 SUB SWAP1 REVERT JUMPDEST DUP1 PUSH1 0x1 PUSH1 0x0 DUP6 PUSH20 0xFFFFFFFFFFFFFFFFFFFFFFFFFFFFFFFFFFFFFFFF AND PUSH20 0xFFFFFFFFFFFFFFFFFFFFFFFFFFFFFFFFFFFFFFFF AND DUP2 MSTORE PUSH1 0x20 ADD SWAP1 DUP2 MSTORE PUSH1 0x20 ADD PUSH1 0x0 KECCAK256 PUSH1 0x0 DUP5 PUSH20 0xFFFFFFFFFFFFFFFFFFFFFFFFFFFFFFFFFFFFFFFF AND PUSH20 0xFFFFFFFFFFFFFFFFFFFFFFFFFFFFFFFFFFFFFFFF AND DUP2 MSTORE PUSH1 0x20 ADD SWAP1 DUP2 MSTORE PUSH1 0x20 ADD PUSH1 0x0 KECCAK256 DUP2 SWAP1 SSTORE POP DUP2 PUSH20 0xFFFFFFFFFFFFFFFFFFFFFFFFFFFFFFFFFFFFFFFF AND DUP4 PUSH20 0xFFFFFFFFFFFFFFFFFFFFFFFFFFFFFFFFFFFFFFFF AND PUSH32 0x8C5BE1E5EBEC7D5BD14F71427D1E84F3DD0314C0F7B2291E5B200AC8C7C3B925 DUP4 PUSH1 0x40 MLOAD PUSH2 0xE82 SWAP2 SWAP1 PUSH2 0x1353 JUMP JUMPDEST PUSH1 0x40 MLOAD DUP1 SWAP2 SUB SWAP1 LOG3 POP POP POP JUMP JUMPDEST PUSH1 0x0 PUSH2 0xE9B DUP5 DUP5 PUSH2 0xB14 JUMP JUMPDEST SWAP1 POP PUSH32 0xFFFFFFFFFFFFFFFFFFFFFFFFFFFFFFFFFFFFFFFFFFFFFFFFFFFFFFFFFFFFFFFF DUP2 EQ PUSH2 0xF15 JUMPI DUP2 DUP2 LT ISZERO PUSH2 0xF07 JUMPI PUSH1 0x40 MLOAD PUSH32 0x8C379A000000000000000000000000000000000000000000000000000000000 DUP2 MSTORE PUSH1 0x4 ADD PUSH2 0xEFE SWAP1 PUSH2 0x1824 JUMP JUMPDEST PUSH1 0x40 MLOAD DUP1 SWAP2 SUB SWAP1 REVERT JUMPDEST PUSH2 0xF14 DUP5 DUP5 DUP5 DUP5 SUB PUSH2 0xCC6 JUMP JUMPDEST JUMPDEST POP POP POP POP JUMP JUMPDEST PUSH2 0xF26 DUP4 DUP4 DUP4 PUSH2 0x1179 JUMP JUMPDEST PUSH1 0x0 DUP1 PUSH1 0x0 DUP6 PUSH20 0xFFFFFFFFFFFFFFFFFFFFFFFFFFFFFFFFFFFFFFFF AND PUSH20 0xFFFFFFFFFFFFFFFFFFFFFFFFFFFFFFFFFFFFFFFF AND DUP2 MSTORE PUSH1 0x20 ADD SWAP1 DUP2 MSTORE PUSH1 0x20 ADD PUSH1 0x0 KECCAK256 SLOAD SWAP1 POP DUP2 DUP2 LT ISZERO PUSH2 0xFAC JUMPI PUSH1 0x40 MLOAD PUSH32 0x8C379A000000000000000000000000000000000000000000000000000000000 DUP2 MSTORE PUSH1 0x4 ADD PUSH2 0xFA3 SWAP1 PUSH2 0x18B6 JUMP JUMPDEST PUSH1 0x40 MLOAD DUP1 SWAP2 SUB SWAP1 REVERT JUMPDEST DUP2 DUP2 SUB PUSH1 0x0 DUP1 DUP7 PUSH20 0xFFFFFFFFFFFFFFFFFFFFFFFFFFFFFFFFFFFFFFFF AND PUSH20 0xFFFFFFFFFFFFFFFFFFFFFFFFFFFFFFFFFFFFFFFF AND DUP2 MSTORE PUSH1 0x20 ADD SWAP1 DUP2 MSTORE PUSH1 0x20 ADD PUSH1 0x0 KECCAK256 DUP2 SWAP1 SSTORE POP DUP2 PUSH1 0x0 DUP1 DUP6 PUSH20 0xFFFFFFFFFFFFFFFFFFFFFFFFFFFFFFFFFFFFFFFF AND PUSH20 0xFFFFFFFFFFFFFFFFFFFFFFFFFFFFFFFFFFFFFFFF AND DUP2 MSTORE PUSH1 0x20 ADD SWAP1 DUP2 MSTORE PUSH1 0x20 ADD PUSH1 0x0 KECCAK256 PUSH1 0x0 DUP3 DUP3 SLOAD ADD SWAP3 POP POP DUP2 SWAP1 SSTORE POP DUP3 PUSH20 0xFFFFFFFFFFFFFFFFFFFFFFFFFFFFFFFFFFFFFFFF AND DUP5 PUSH20 0xFFFFFFFFFFFFFFFFFFFFFFFFFFFFFFFFFFFFFFFF AND PUSH32 0xDDF252AD1BE2C89B69C2B068FC378DAA952BA7F163C4A11628F55A4DF523B3EF DUP5 PUSH1 0x40 MLOAD PUSH2 0x109A SWAP2 SWAP1 PUSH2 0x1353 JUMP JUMPDEST PUSH1 0x40 MLOAD DUP1 SWAP2 SUB SWAP1 LOG3 PUSH2 0x10AD DUP5 DUP5 DUP5 PUSH2 0x117E JUMP JUMPDEST POP POP POP POP JUMP JUMPDEST PUSH1 0x0 PUSH1 0x5 PUSH1 0x0 SWAP1 SLOAD SWAP1 PUSH2 0x100 EXP SWAP1 DIV PUSH20 0xFFFFFFFFFFFFFFFFFFFFFFFFFFFFFFFFFFFFFFFF AND SWAP1 POP DUP2 PUSH1 0x5 PUSH1 0x0 PUSH2 0x100 EXP DUP2 SLOAD DUP2 PUSH20 0xFFFFFFFFFFFFFFFFFFFFFFFFFFFFFFFFFFFFFFFF MUL NOT AND SWAP1 DUP4 PUSH20 0xFFFFFFFFFFFFFFFFFFFFFFFFFFFFFFFFFFFFFFFF AND MUL OR SWAP1 SSTORE POP DUP2 PUSH20 0xFFFFFFFFFFFFFFFFFFFFFFFFFFFFFFFFFFFFFFFF AND DUP2 PUSH20 0xFFFFFFFFFFFFFFFFFFFFFFFFFFFFFFFFFFFFFFFF AND PUSH32 0x8BE0079C531659141344CD1FD0A4F28419497F9722A3DAAFE3B4186F6B6457E0 PUSH1 0x40 MLOAD PUSH1 0x40 MLOAD DUP1 SWAP2 SUB SWAP1 LOG3 POP POP JUMP JUMPDEST POP POP POP JUMP JUMPDEST POP POP POP JUMP JUMPDEST PUSH1 0x0 DUP2 MLOAD SWAP1 POP SWAP2 SWAP1 POP JUMP JUMPDEST PUSH1 0x0 DUP3 DUP3 MSTORE PUSH1 0x20 DUP3 ADD SWAP1 POP SWAP3 SWAP2 POP POP JUMP JUMPDEST PUSH1 0x0 JUMPDEST DUP4 DUP2 LT ISZERO PUSH2 0x11BD JUMPI DUP1 DUP3 ADD MLOAD DUP2 DUP5 ADD MSTORE PUSH1 0x20 DUP2 ADD SWAP1 POP PUSH2 0x11A2 JUMP JUMPDEST PUSH1 0x0 DUP5 DUP5 ADD MSTORE POP POP POP POP JUMP JUMPDEST PUSH1 0x0 PUSH1 0x1F NOT PUSH1 0x1F DUP4 ADD AND SWAP1 POP SWAP2 SWAP1 POP JUMP JUMPDEST PUSH1 0x0 PUSH2 0x11E5 DUP3 PUSH2 0x1183 JUMP JUMPDEST PUSH2 0x11EF DUP2 DUP6 PUSH2 0x118E JUMP JUMPDEST SWAP4 POP PUSH2 0x11FF DUP2 DUP6 PUSH1 0x20 DUP7 ADD PUSH2 0x119F JUMP JUMPDEST PUSH2 0x1208 DUP2 PUSH2 0x11C9 JUMP JUMPDEST DUP5 ADD SWAP2 POP POP SWAP3 SWAP2 POP POP JUMP JUMPDEST PUSH1 0x0 PUSH1 0x20 DUP3 ADD SWAP1 POP DUP2 DUP2 SUB PUSH1 0x0 DUP4 ADD MSTORE PUSH2 0x122D DUP2 DUP5 PUSH2 0x11DA JUMP JUMPDEST SWAP1 POP SWAP3 SWAP2 POP POP JUMP JUMPDEST PUSH1 0x0 DUP1 REVERT JUMPDEST PUSH1 0x0 PUSH20 0xFFFFFFFFFFFFFFFFFFFFFFFFFFFFFFFFFFFFFFFF DUP3 AND SWAP1 POP SWAP2 SWAP1 POP JUMP JUMPDEST PUSH1 0x0 PUSH2 0x1265 DUP3 PUSH2 0x123A JUMP JUMPDEST SWAP1 POP SWAP2 SWAP1 POP JUMP JUMPDEST PUSH2 0x1275 DUP2 PUSH2 0x125A JUMP JUMPDEST DUP2 EQ PUSH2 0x1280 JUMPI PUSH1 0x0 DUP1 REVERT JUMPDEST POP JUMP JUMPDEST PUSH1 0x0 DUP2 CALLDATALOAD SWAP1 POP PUSH2 0x1292 DUP2 PUSH2 0x126C JUMP JUMPDEST SWAP3 SWAP2 POP POP JUMP JUMPDEST PUSH1 0x0 DUP2 SWAP1 POP SWAP2 SWAP1 POP JUMP JUMPDEST PUSH2 0x12AB DUP2 PUSH2 0x1298 JUMP JUMPDEST DUP2 EQ PUSH2 0x12B6 JUMPI PUSH1 0x0 DUP1 REVERT JUMPDEST POP JUMP JUMPDEST PUSH1 0x0 DUP2 CALLDATALOAD SWAP1 POP PUSH2 0x12C8 DUP2 PUSH2 0x12A2 JUMP JUMPDEST SWAP3 SWAP2 POP POP JUMP JUMPDEST PUSH1 0x0 DUP1 PUSH1 0x40 DUP4 DUP6 SUB SLT ISZERO PUSH2 0x12E5 JUMPI PUSH2 0x12E4 PUSH2 0x1235 JUMP JUMPDEST JUMPDEST PUSH1 0x0 PUSH2 0x12F3 DUP6 DUP3 DUP7 ADD PUSH2 0x1283 JUMP JUMPDEST SWAP3 POP POP PUSH1 0x20 PUSH2 0x1304 DUP6 DUP3 DUP7 ADD PUSH2 0x12B9 JUMP JUMPDEST SWAP2 POP POP SWAP3 POP SWAP3 SWAP1 POP JUMP JUMPDEST PUSH1 0x0 DUP2 ISZERO ISZERO SWAP1 POP SWAP2 SWAP1 POP JUMP JUMPDEST PUSH2 0x1323 DUP2 PUSH2 0x130E JUMP JUMPDEST DUP3 MSTORE POP POP JUMP JUMPDEST PUSH1 0x0 PUSH1 0x20 DUP3 ADD SWAP1 POP PUSH2 0x133E PUSH1 0x0 DUP4 ADD DUP5 PUSH2 0x131A JUMP JUMPDEST SWAP3 SWAP2 POP POP JUMP JUMPDEST PUSH2 0x134D DUP2 PUSH2 0x1298 JUMP JUMPDEST DUP3 MSTORE POP POP JUMP JUMPDEST PUSH1 0x0 PUSH1 0x20 DUP3 ADD SWAP1 POP PUSH2 0x1368 PUSH1 0x0 DUP4 ADD DUP5 PUSH2 0x1344 JUMP JUMPDEST SWAP3 SWAP2 POP POP JUMP JUMPDEST PUSH1 0x0 PUSH1 0x20 DUP3 DUP5 SUB SLT ISZERO PUSH2 0x1384 JUMPI PUSH2 0x1383 PUSH2 0x1235 JUMP JUMPDEST JUMPDEST PUSH1 0x0 PUSH2 0x1392 DUP5 DUP3 DUP6 ADD PUSH2 0x1283 JUMP JUMPDEST SWAP2 POP POP SWAP3 SWAP2 POP POP JUMP JUMPDEST PUSH1 0x0 DUP1 PUSH1 0x0 PUSH1 0x60 DUP5 DUP7 SUB SLT ISZERO PUSH2 0x13B4 JUMPI PUSH2 0x13B3 PUSH2 0x1235 JUMP JUMPDEST JUMPDEST PUSH1 0x0 PUSH2 0x13C2 DUP7 DUP3 DUP8 ADD PUSH2 0x1283 JUMP JUMPDEST SWAP4 POP POP PUSH1 0x20 PUSH2 0x13D3 DUP7 DUP3 DUP8 ADD PUSH2 0x1283 JUMP JUMPDEST SWAP3 POP POP PUSH1 0x40 PUSH2 0x13E4 DUP7 DUP3 DUP8 ADD PUSH2 0x12B9 JUMP JUMPDEST SWAP2 POP POP SWAP3 POP SWAP3 POP SWAP3 JUMP JUMPDEST PUSH1 0x0 PUSH1 0xFF DUP3 AND SWAP1 POP SWAP2 SWAP1 POP JUMP JUMPDEST PUSH2 0x1404 DUP2 PUSH2 0x13EE JUMP JUMPDEST DUP3 MSTORE POP POP JUMP JUMPDEST PUSH1 0x0 PUSH1 0x20 DUP3 ADD SWAP1 POP PUSH2 0x141F PUSH1 0x0 DUP4 ADD DUP5 PUSH2 0x13FB JUMP JUMPDEST SWAP3 SWAP2 POP POP JUMP JUMPDEST PUSH2 0x142E DUP2 PUSH2 0x125A JUMP JUMPDEST DUP3 MSTORE POP POP JUMP JUMPDEST PUSH1 0x0 PUSH1 0x20 DUP3 ADD SWAP1 POP PUSH2 0x1449 PUSH1 0x0 DUP4 ADD DUP5 PUSH2 0x1425 JUMP JUMPDEST SWAP3 SWAP2 POP POP JUMP JUMPDEST PUSH2 0x1458 DUP2 PUSH2 0x130E JUMP JUMPDEST DUP2 EQ PUSH2 0x1463 JUMPI PUSH1 0x0 DUP1 REVERT JUMPDEST POP JUMP JUMPDEST PUSH1 0x0 DUP2 CALLDATALOAD SWAP1 POP PUSH2 0x1475 DUP2 PUSH2 0x144F JUMP JUMPDEST SWAP3 SWAP2 POP POP JUMP JUMPDEST PUSH1 0x0 DUP1 PUSH1 0x40 DUP4 DUP6 SUB SLT ISZERO PUSH2 0x1492 JUMPI PUSH2 0x1491 PUSH2 0x1235 JUMP JUMPDEST JUMPDEST PUSH1 0x0 PUSH2 0x14A0 DUP6 DUP3 DUP7 ADD PUSH2 0x1283 JUMP JUMPDEST SWAP3 POP POP PUSH1 0x20 PUSH2 0x14B1 DUP6 DUP3 DUP7 ADD PUSH2 0x1466 JUMP JUMPDEST SWAP2 POP POP SWAP3 POP SWAP3 SWAP1 POP JUMP JUMPDEST PUSH1 0x0 PUSH1 0x20 DUP3 DUP5 SUB SLT ISZERO PUSH2 0x14D1 JUMPI PUSH2 0x14D0 PUSH2 0x1235 JUMP JUMPDEST JUMPDEST PUSH1 0x0 PUSH2 0x14DF DUP5 DUP3 DUP6 ADD PUSH2 0x1466 JUMP JUMPDEST SWAP2 POP POP SWAP3 SWAP2 POP POP JUMP JUMPDEST PUSH1 0x0 DUP1 PUSH1 0x40 DUP4 DUP6 SUB SLT ISZERO PUSH2 0x14FF JUMPI PUSH2 0x14FE PUSH2 0x1235 JUMP JUMPDEST JUMPDEST PUSH1 0x0 PUSH2 0x150D DUP6 DUP3 DUP7 ADD PUSH2 0x1283 JUMP JUMPDEST SWAP3 POP POP PUSH1 0x20 PUSH2 0x151E DUP6 DUP3 DUP7 ADD PUSH2 0x1283 JUMP JUMPDEST SWAP2 POP POP SWAP3 POP SWAP3 SWAP1 POP JUMP JUMPDEST PUSH1 0x0 DUP2 SWAP1 POP SWAP2 SWAP1 POP JUMP JUMPDEST PUSH1 0x0 PUSH2 0x154D PUSH2 0x1548 PUSH2 0x1543 DUP5 PUSH2 0x123A JUMP JUMPDEST PUSH2 0x1528 JUMP JUMPDEST PUSH2 0x123A JUMP JUMPDEST SWAP1 POP SWAP2 SWAP1 POP JUMP JUMPDEST PUSH1 0x0 PUSH2 0x155F DUP3 PUSH2 0x1532 JUMP JUMPDEST SWAP1 POP SWAP2 SWAP1 POP JUMP JUMPDEST PUSH1 0x0 PUSH2 0x1571 DUP3 PUSH2 0x1554 JUMP JUMPDEST SWAP1 POP SWAP2 SWAP1 POP JUMP JUMPDEST PUSH2 0x1581 DUP2 PUSH2 0x1566 JUMP JUMPDEST DUP3 MSTORE POP POP JUMP JUMPDEST PUSH1 0x0 PUSH1 0x20 DUP3 ADD SWAP1 POP PUSH2 0x159C PUSH1 0x0 DUP4 ADD DUP5 PUSH2 0x1578 JUMP JUMPDEST SWAP3 SWAP2 POP POP JUMP JUMPDEST PUSH32 0x4E487B7100000000000000000000000000000000000000000000000000000000 PUSH1 0x0 MSTORE PUSH1 0x22 PUSH1 0x4 MSTORE PUSH1 0x24 PUSH1 0x0 REVERT JUMPDEST PUSH1 0x0 PUSH1 0x2 DUP3 DIV SWAP1 POP PUSH1 0x1 DUP3 AND DUP1 PUSH2 0x15E9 JUMPI PUSH1 0x7F DUP3 AND SWAP2 POP JUMPDEST PUSH1 0x20 DUP3 LT DUP2 SUB PUSH2 0x15FC JUMPI PUSH2 0x15FB PUSH2 0x15A2 JUMP JUMPDEST JUMPDEST POP SWAP2 SWAP1 POP JUMP JUMPDEST PUSH32 0x4F776E61626C653A2063616C6C6572206973206E6F7420746865206F776E6572 PUSH1 0x0 DUP3 ADD MSTORE POP JUMP JUMPDEST PUSH1 0x0 PUSH2 0x1638 PUSH1 0x20 DUP4 PUSH2 0x118E JUMP JUMPDEST SWAP2 POP PUSH2 0x1643 DUP3 PUSH2 0x1602 JUMP JUMPDEST PUSH1 0x20 DUP3 ADD SWAP1 POP SWAP2 SWAP1 POP JUMP JUMPDEST PUSH1 0x0 PUSH1 0x20 DUP3 ADD SWAP1 POP DUP2 DUP2 SUB PUSH1 0x0 DUP4 ADD MSTORE PUSH2 0x1667 DUP2 PUSH2 0x162B JUMP JUMPDEST SWAP1 POP SWAP2 SWAP1 POP JUMP JUMPDEST PUSH32 0x4F776E61626C653A206E6577206F776E6572206973207A65726F206164647265 PUSH1 0x0 DUP3 ADD MSTORE PUSH32 0x7373000000000000000000000000000000000000000000000000000000000000 PUSH1 0x20 DUP3 ADD MSTORE POP JUMP JUMPDEST PUSH1 0x0 PUSH2 0x16CA PUSH1 0x22 DUP4 PUSH2 0x118E JUMP JUMPDEST SWAP2 POP PUSH2 0x16D5 DUP3 PUSH2 0x166E JUMP JUMPDEST PUSH1 0x40 DUP3 ADD SWAP1 POP SWAP2 SWAP1 POP JUMP JUMPDEST PUSH1 0x0 PUSH1 0x20 DUP3 ADD SWAP1 POP DUP2 DUP2 SUB PUSH1 0x0 DUP4 ADD MSTORE PUSH2 0x16F9 DUP2 PUSH2 0x16BD JUMP JUMPDEST SWAP1 POP SWAP2 SWAP1 POP JUMP JUMPDEST PUSH32 0x45524332303A20617070726F76652066726F6D207A65726F2061646472657373 PUSH1 0x0 DUP3 ADD MSTORE POP JUMP JUMPDEST PUSH1 0x0 PUSH2 0x1736 PUSH1 0x20 DUP4 PUSH2 0x118E JUMP JUMPDEST SWAP2 POP PUSH2 0x1741 DUP3 PUSH2 0x1700 JUMP JUMPDEST PUSH1 0x20 DUP3 ADD SWAP1 POP SWAP2 SWAP1 POP JUMP JUMPDEST PUSH1 0x0 PUSH1 0x20 DUP3 ADD SWAP1 POP DUP2 DUP2 SUB PUSH1 0x0 DUP4 ADD MSTORE PUSH2 0x1765 DUP2 PUSH2 0x1729 JUMP JUMPDEST SWAP1 POP SWAP2 SWAP1 POP JUMP JUMPDEST PUSH32 0x45524332303A20617070726F766520746F207A65726F20616464726573730000 PUSH1 0x0 DUP3 ADD MSTORE POP JUMP JUMPDEST PUSH1 0x0 PUSH2 0x17A2 PUSH1 0x1E DUP4 PUSH2 0x118E JUMP JUMPDEST SWAP2 POP PUSH2 0x17AD DUP3 PUSH2 0x176C JUMP JUMPDEST PUSH1 0x20 DUP3 ADD SWAP1 POP SWAP2 SWAP1 POP JUMP JUMPDEST PUSH1 0x0 PUSH1 0x20 DUP3 ADD SWAP1 POP DUP2 DUP2 SUB PUSH1 0x0 DUP4 ADD MSTORE PUSH2 0x17D1 DUP2 PUSH2 0x1795 JUMP JUMPDEST SWAP1 POP SWAP2 SWAP1 POP JUMP JUMPDEST PUSH32 0x45524332303A20696E73756666696369656E7420616C6C6F77616E6365000000 PUSH1 0x0 DUP3 ADD MSTORE POP JUMP JUMPDEST PUSH1 0x0 PUSH2 0x180E PUSH1 0x1D DUP4 PUSH2 0x118E JUMP JUMPDEST SWAP2 POP PUSH2 0x1819 DUP3 PUSH2 0x17D8 JUMP JUMPDEST PUSH1 0x20 DUP3 ADD SWAP1 POP SWAP2 SWAP1 POP JUMP JUMPDEST PUSH1 0x0 PUSH1 0x20 DUP3 ADD SWAP1 POP DUP2 DUP2 SUB PUSH1 0x0 DUP4 ADD MSTORE PUSH2 0x183D DUP2 PUSH2 0x1801 JUMP JUMPDEST SWAP1 POP SWAP2 SWAP1 POP JUMP JUMPDEST PUSH32 0x45524332303A207472616E7366657220616D6F756E7420657863656564732062 PUSH1 0x0 DUP3 ADD MSTORE PUSH32 0x616C616E63650000000000000000000000000000000000000000000000000000 PUSH1 0x20 DUP3 ADD MSTORE POP JUMP JUMPDEST PUSH1 0x0 PUSH2 0x18A0 PUSH1 0x26 DUP4 PUSH2 0x118E JUMP JUMPDEST SWAP2 POP PUSH2 0x18AB DUP3 PUSH2 0x1844 JUMP JUMPDEST PUSH1 0x40 DUP3 ADD SWAP1 POP SWAP2 SWAP1 POP JUMP JUMPDEST PUSH1 0x0 PUSH1 0x20 DUP3 ADD SWAP1 POP DUP2 DUP2 SUB PUSH1 0x0 DUP4 ADD MSTORE PUSH2 0x18CF DUP2 PUSH2 0x1893 JUMP JUMPDEST SWAP1 POP SWAP2 SWAP1 POP JUMP INVALID LOG2 PUSH5 0x6970667358 0x22 SLT KECCAK256 0x2D 0xDE 0xED DUP14 0x2A SWAP5 0xE1 0x27 MUL GASPRICE DUP13 SWAP9 XOR MSTORE8 0xD2 CHAINID 0xD8 ISZERO GAS 0xC6 0xEE DUP2 CALLDATALOAD PUSH14 0x8EFE4E0EFA4E461A64736F6C6343 STOP ADDMOD EQ STOP CALLER PUSH1 0xA0 PUSH1 0x40 MSTORE CALLVALUE DUP1 ISZERO PUSH3 0x11 JUMPI PUSH1 0x0 DUP1 REVERT JUMPDEST POP PUSH1 0x40 MLOAD PUSH3 0x1A6B CODESIZE SUB DUP1 PUSH3 0x1A6B DUP4 CODECOPY DUP2 DUP2 ADD PUSH1 0x40 MSTORE DUP2 ADD SWAP1 PUSH3 0x37 SWAP2 SWAP1 PUSH3 0x236 JUMP JUMPDEST CALLER PUSH3 0x49 DUP2 PUSH3 0x108 PUSH1 0x20 SHL PUSH1 0x20 SHR JUMP JUMPDEST POP DUP2 PUSH20 0xFFFFFFFFFFFFFFFFFFFFFFFFFFFFFFFFFFFFFFFF AND PUSH1 0x80 DUP2 PUSH20 0xFFFFFFFFFFFFFFFFFFFFFFFFFFFFFFFFFFFFFFFF AND DUP2 MSTORE POP POP DUP1 PUSH1 0x1 PUSH1 0x0 PUSH2 0x100 EXP DUP2 SLOAD DUP2 PUSH20 0xFFFFFFFFFFFFFFFFFFFFFFFFFFFFFFFFFFFFFFFF MUL NOT AND SWAP1 DUP4 PUSH20 0xFFFFFFFFFFFFFFFFFFFFFFFFFFFFFFFFFFFFFFFF AND MUL OR SWAP1 SSTORE POP DUP2 PUSH1 0x5 PUSH1 0x0 PUSH2 0x100 EXP DUP2 SLOAD DUP2 PUSH20 0xFFFFFFFFFFFFFFFFFFFFFFFFFFFFFFFFFFFFFFFF MUL NOT AND SWAP1 DUP4 PUSH20 0xFFFFFFFFFFFFFFFFFFFFFFFFFFFFFFFFFFFFFFFF AND MUL OR SWAP1 SSTORE POP POP POP PUSH3 0x27D JUMP JUMPDEST PUSH1 0x0 DUP1 PUSH1 0x0 SWAP1 SLOAD SWAP1 PUSH2 0x100 EXP SWAP1 DIV PUSH20 0xFFFFFFFFFFFFFFFFFFFFFFFFFFFFFFFFFFFFFFFF AND SWAP1 POP DUP2 PUSH1 0x0 DUP1 PUSH2 0x100 EXP DUP2 SLOAD DUP2 PUSH20 0xFFFFFFFFFFFFFFFFFFFFFFFFFFFFFFFFFFFFFFFF MUL NOT AND SWAP1 DUP4 PUSH20 0xFFFFFFFFFFFFFFFFFFFFFFFFFFFFFFFFFFFFFFFF AND MUL OR SWAP1 SSTORE POP DUP2 PUSH20 0xFFFFFFFFFFFFFFFFFFFFFFFFFFFFFFFFFFFFFFFF AND DUP2 PUSH20 0xFFFFFFFFFFFFFFFFFFFFFFFFFFFFFFFFFFFFFFFF AND PUSH32 0x8BE0079C531659141344CD1FD0A4F28419497F9722A3DAAFE3B4186F6B6457E0 PUSH1 0x40 MLOAD PUSH1 0x40 MLOAD DUP1 SWAP2 SUB SWAP1 LOG3 POP POP JUMP JUMPDEST PUSH1 0x0 DUP1 REVERT JUMPDEST PUSH1 0x0 PUSH20 0xFFFFFFFFFFFFFFFFFFFFFFFFFFFFFFFFFFFFFFFF DUP3 AND SWAP1 POP SWAP2 SWAP1 POP JUMP JUMPDEST PUSH1 0x0 PUSH3 0x1FE DUP3 PUSH3 0x1D1 JUMP JUMPDEST SWAP1 POP SWAP2 SWAP1 POP JUMP JUMPDEST PUSH3 0x210 DUP2 PUSH3 0x1F1 JUMP JUMPDEST DUP2 EQ PUSH3 0x21C JUMPI PUSH1 0x0 DUP1 REVERT JUMPDEST POP JUMP JUMPDEST PUSH1 0x0 DUP2 MLOAD SWAP1 POP PUSH3 0x230 DUP2 PUSH3 0x205 JUMP JUMPDEST SWAP3 SWAP2 POP POP JUMP JUMPDEST PUSH1 0x0 DUP1 PUSH1 0x40 DUP4 DUP6 SUB SLT ISZERO PUSH3 0x250 JUMPI PUSH3 0x24F PUSH3 0x1CC JUMP JUMPDEST JUMPDEST PUSH1 0x0 PUSH3 0x260 DUP6 DUP3 DUP7 ADD PUSH3 0x21F JUMP JUMPDEST SWAP3 POP POP PUSH1 0x20 PUSH3 0x273 DUP6 DUP3 DUP7 ADD PUSH3 0x21F JUMP JUMPDEST SWAP2 POP POP SWAP3 POP SWAP3 SWAP1 POP JUMP JUMPDEST PUSH1 0x80 MLOAD PUSH2 0x17A1 PUSH3 0x2CA PUSH1 0x0 CODECOPY PUSH1 0x0 DUP2 DUP2 PUSH2 0x47C ADD MSTORE DUP2 DUP2 PUSH2 0x57A ADD MSTORE DUP2 DUP2 PUSH2 0x63D ADD MSTORE DUP2 DUP2 PUSH2 0x79E ADD MSTORE DUP2 DUP2 PUSH2 0x9FC ADD MSTORE DUP2 DUP2 PUSH2 0xC57 ADD MSTORE DUP2 DUP2 PUSH2 0xC7D ADD MSTORE PUSH2 0xD37 ADD MSTORE PUSH2 0x17A1 PUSH1 0x0 RETURN INVALID PUSH1 0x80 PUSH1 0x40 MSTORE CALLVALUE DUP1 ISZERO PUSH2 0x10 JUMPI PUSH1 0x0 DUP1 REVERT JUMPDEST POP PUSH1 0x4 CALLDATASIZE LT PUSH2 0xF5 JUMPI PUSH1 0x0 CALLDATALOAD PUSH1 0xE0 SHR DUP1 PUSH4 0x6869C673 GT PUSH2 0x97 JUMPI DUP1 PUSH4 0xA9AA22A0 GT PUSH2 0x66 JUMPI DUP1 PUSH4 0xA9AA22A0 EQ PUSH2 0x23D JUMPI DUP1 PUSH4 0xF02AE48F EQ PUSH2 0x259 JUMPI DUP1 PUSH4 0xF2FDE38B EQ PUSH2 0x275 JUMPI DUP1 PUSH4 0xFC0C546A EQ PUSH2 0x291 JUMPI PUSH2 0xF5 JUMP JUMPDEST DUP1 PUSH4 0x6869C673 EQ PUSH2 0x1DB JUMPI DUP1 PUSH4 0x6B4ED21B EQ PUSH2 0x1F7 JUMPI DUP1 PUSH4 0x715018A6 EQ PUSH2 0x215 JUMPI DUP1 PUSH4 0x8DA5CB5B EQ PUSH2 0x21F JUMPI PUSH2 0xF5 JUMP JUMPDEST DUP1 PUSH4 0x4E71D92D GT PUSH2 0xD3 JUMPI DUP1 PUSH4 0x4E71D92D EQ PUSH2 0x177 JUMPI DUP1 PUSH4 0x4EFA82B6 EQ PUSH2 0x181 JUMPI DUP1 PUSH4 0x61D027B3 EQ PUSH2 0x19F JUMPI DUP1 PUSH4 0x66666AA9 EQ PUSH2 0x1BD JUMPI PUSH2 0xF5 JUMP JUMPDEST DUP1 PUSH4 0x16AD42AD EQ PUSH2 0xFA JUMPI DUP1 PUSH4 0x18A5BBDC EQ PUSH2 0x12A JUMPI DUP1 PUSH4 0x19C2DFEC EQ PUSH2 0x15B JUMPI JUMPDEST PUSH1 0x0 DUP1 REVERT JUMPDEST PUSH2 0x114 PUSH1 0x4 DUP1 CALLDATASIZE SUB DUP2 ADD SWAP1 PUSH2 0x10F SWAP2 SWAP1 PUSH2 0x10A2 JUMP JUMPDEST PUSH2 0x2AF JUMP JUMPDEST PUSH1 0x40 MLOAD PUSH2 0x121 SWAP2 SWAP1 PUSH2 0x1110 JUMP JUMPDEST PUSH1 0x40 MLOAD DUP1 SWAP2 SUB SWAP1 RETURN JUMPDEST PUSH2 0x144 PUSH1 0x4 DUP1 CALLDATASIZE SUB DUP2 ADD SWAP1 PUSH2 0x13F SWAP2 SWAP1 PUSH2 0x1157 JUMP JUMPDEST PUSH2 0x2EE JUMP JUMPDEST PUSH1 0x40 MLOAD PUSH2 0x152 SWAP3 SWAP2 SWAP1 PUSH2 0x1193 JUMP JUMPDEST PUSH1 0x40 MLOAD DUP1 SWAP2 SUB SWAP1 RETURN JUMPDEST PUSH2 0x175 PUSH1 0x4 DUP1 CALLDATASIZE SUB DUP2 ADD SWAP1 PUSH2 0x170 SWAP2 SWAP1 PUSH2 0x10A2 JUMP JUMPDEST PUSH2 0x312 JUMP JUMPDEST STOP JUMPDEST PUSH2 0x17F PUSH2 0x3A1 JUMP JUMPDEST STOP JUMPDEST PUSH2 0x189 PUSH2 0x3AC JUMP JUMPDEST PUSH1 0x40 MLOAD PUSH2 0x196 SWAP2 SWAP1 PUSH2 0x121B JUMP JUMPDEST PUSH1 0x40 MLOAD DUP1 SWAP2 SUB SWAP1 RETURN JUMPDEST PUSH2 0x1A7 PUSH2 0x3D2 JUMP JUMPDEST PUSH1 0x40 MLOAD PUSH2 0x1B4 SWAP2 SWAP1 PUSH2 0x1110 JUMP JUMPDEST PUSH1 0x40 MLOAD DUP1 SWAP2 SUB SWAP1 RETURN JUMPDEST PUSH2 0x1C5 PUSH2 0x3F8 JUMP JUMPDEST PUSH1 0x40 MLOAD PUSH2 0x1D2 SWAP2 SWAP1 PUSH2 0x1236 JUMP JUMPDEST PUSH1 0x40 MLOAD DUP1 SWAP2 SUB SWAP1 RETURN JUMPDEST PUSH2 0x1F5 PUSH1 0x4 DUP1 CALLDATASIZE SUB DUP2 ADD SWAP1 PUSH2 0x1F0 SWAP2 SWAP1 PUSH2 0x10A2 JUMP JUMPDEST PUSH2 0x3FE JUMP JUMPDEST STOP JUMPDEST PUSH2 0x1FF PUSH2 0x6DE JUMP JUMPDEST PUSH1 0x40 MLOAD PUSH2 0x20C SWAP2 SWAP1 PUSH2 0x1236 JUMP JUMPDEST PUSH1 0x40 MLOAD DUP1 SWAP2 SUB SWAP1 RETURN JUMPDEST PUSH2 0x21D PUSH2 0x6EB JUMP JUMPDEST STOP JUMPDEST PUSH2 0x227 PUSH2 0x773 JUMP JUMPDEST PUSH1 0x40 MLOAD PUSH2 0x234 SWAP2 SWAP1 PUSH2 0x1110 JUMP JUMPDEST PUSH1 0x40 MLOAD DUP1 SWAP2 SUB SWAP1 RETURN JUMPDEST PUSH2 0x257 PUSH1 0x4 DUP1 CALLDATASIZE SUB DUP2 ADD SWAP1 PUSH2 0x252 SWAP2 SWAP1 PUSH2 0x1251 JUMP JUMPDEST PUSH2 0x79C JUMP JUMPDEST STOP JUMPDEST PUSH2 0x273 PUSH1 0x4 DUP1 CALLDATASIZE SUB DUP2 ADD SWAP1 PUSH2 0x26E SWAP2 SWAP1 PUSH2 0x1157 JUMP JUMPDEST PUSH2 0xA9E JUMP JUMPDEST STOP JUMPDEST PUSH2 0x28F PUSH1 0x4 DUP1 CALLDATASIZE SUB DUP2 ADD SWAP1 PUSH2 0x28A SWAP2 SWAP1 PUSH2 0x1157 JUMP JUMPDEST PUSH2 0xB5E JUMP JUMPDEST STOP JUMPDEST PUSH2 0x299 PUSH2 0xC55 JUMP JUMPDEST PUSH1 0x40 MLOAD PUSH2 0x2A6 SWAP2 SWAP1 PUSH2 0x12B2 JUMP JUMPDEST PUSH1 0x40 MLOAD DUP1 SWAP2 SUB SWAP1 RETURN JUMPDEST PUSH1 0x3 DUP2 DUP2 SLOAD DUP2 LT PUSH2 0x2BF JUMPI PUSH1 0x0 DUP1 REVERT JUMPDEST SWAP1 PUSH1 0x0 MSTORE PUSH1 0x20 PUSH1 0x0 KECCAK256 ADD PUSH1 0x0 SWAP2 POP SLOAD SWAP1 PUSH2 0x100 EXP SWAP1 DIV PUSH20 0xFFFFFFFFFFFFFFFFFFFFFFFFFFFFFFFFFFFFFFFF AND DUP2 JUMP JUMPDEST PUSH1 0x2 PUSH1 0x20 MSTORE DUP1 PUSH1 0x0 MSTORE PUSH1 0x40 PUSH1 0x0 KECCAK256 PUSH1 0x0 SWAP2 POP SWAP1 POP DUP1 PUSH1 0x0 ADD SLOAD SWAP1 DUP1 PUSH1 0x1 ADD SLOAD SWAP1 POP DUP3 JUMP JUMPDEST PUSH1 0x0 PUSH1 0x3 DUP1 SLOAD SWAP1 POP SWAP1 POP PUSH1 0x0 DUP1 JUMPDEST DUP3 DUP2 LT DUP1 ISZERO PUSH2 0x32E JUMPI POP DUP4 DUP3 LT JUMPDEST ISZERO PUSH2 0x39B JUMPI PUSH2 0x37A PUSH1 0x3 DUP3 DUP2 SLOAD DUP2 LT PUSH2 0x34A JUMPI PUSH2 0x349 PUSH2 0x12CD JUMP JUMPDEST JUMPDEST SWAP1 PUSH1 0x0 MSTORE PUSH1 0x20 PUSH1 0x0 KECCAK256 ADD PUSH1 0x0 SWAP1 SLOAD SWAP1 PUSH2 0x100 EXP SWAP1 DIV PUSH20 0xFFFFFFFFFFFFFFFFFFFFFFFFFFFFFFFFFFFFFFFF AND PUSH2 0xC79 JUMP JUMPDEST DUP2 DUP1 PUSH2 0x385 SWAP1 PUSH2 0x132B JUMP JUMPDEST SWAP3 POP POP DUP1 DUP1 PUSH2 0x393 SWAP1 PUSH2 0x132B JUMP JUMPDEST SWAP2 POP POP PUSH2 0x320 JUMP JUMPDEST POP POP POP POP JUMP JUMPDEST PUSH2 0x3AA CALLER PUSH2 0xC79 JUMP JUMPDEST JUMP JUMPDEST PUSH1 0x5 PUSH1 0x0 SWAP1 SLOAD SWAP1 PUSH2 0x100 EXP SWAP1 DIV PUSH20 0xFFFFFFFFFFFFFFFFFFFFFFFFFFFFFFFFFFFFFFFF AND DUP2 JUMP JUMPDEST PUSH1 0x1 PUSH1 0x0 SWAP1 SLOAD SWAP1 PUSH2 0x100 EXP SWAP1 DIV PUSH20 0xFFFFFFFFFFFFFFFFFFFFFFFFFFFFFFFFFFFFFFFF AND DUP2 JUMP JUMPDEST PUSH1 0x4 SLOAD DUP2 JUMP JUMPDEST PUSH2 0x406 PUSH2 0xF9B JUMP JUMPDEST PUSH20 0xFFFFFFFFFFFFFFFFFFFFFFFFFFFFFFFFFFFFFFFF AND PUSH2 0x424 PUSH2 0x773 JUMP JUMPDEST PUSH20 0xFFFFFFFFFFFFFFFFFFFFFFFFFFFFFFFFFFFFFFFF AND EQ PUSH2 0x47A JUMPI PUSH1 0x40 MLOAD PUSH32 0x8C379A000000000000000000000000000000000000000000000000000000000 DUP2 MSTORE PUSH1 0x4 ADD PUSH2 0x471 SWAP1 PUSH2 0x13D0 JUMP JUMPDEST PUSH1 0x40 MLOAD DUP1 SWAP2 SUB SWAP1 REVERT JUMPDEST PUSH32 0x0 PUSH20 0xFFFFFFFFFFFFFFFFFFFFFFFFFFFFFFFFFFFFFFFF AND PUSH4 0x70A08231 PUSH1 0x1 PUSH1 0x0 SWAP1 SLOAD SWAP1 PUSH2 0x100 EXP SWAP1 DIV PUSH20 0xFFFFFFFFFFFFFFFFFFFFFFFFFFFFFFFFFFFFFFFF AND PUSH1 0x40 MLOAD DUP3 PUSH4 0xFFFFFFFF AND PUSH1 0xE0 SHL DUP2 MSTORE PUSH1 0x4 ADD PUSH2 0x4F5 SWAP2 SWAP1 PUSH2 0x1110 JUMP JUMPDEST PUSH1 0x20 PUSH1 0x40 MLOAD DUP1 DUP4 SUB DUP2 DUP7 GAS STATICCALL ISZERO DUP1 ISZERO PUSH2 0x512 JUMPI RETURNDATASIZE PUSH1 0x0 DUP1 RETURNDATACOPY RETURNDATASIZE PUSH1 0x0 REVERT JUMPDEST POP POP POP POP PUSH1 0x40 MLOAD RETURNDATASIZE PUSH1 0x1F NOT PUSH1 0x1F DUP3 ADD AND DUP3 ADD DUP1 PUSH1 0x40 MSTORE POP DUP2 ADD SWAP1 PUSH2 0x536 SWAP2 SWAP1 PUSH2 0x1405 JUMP JUMPDEST DUP2 GT ISZERO PUSH2 0x578 JUMPI PUSH1 0x40 MLOAD PUSH32 0x8C379A000000000000000000000000000000000000000000000000000000000 DUP2 MSTORE PUSH1 0x4 ADD PUSH2 0x56F SWAP1 PUSH2 0x147E JUMP JUMPDEST PUSH1 0x40 MLOAD DUP1 SWAP2 SUB SWAP1 REVERT JUMPDEST PUSH32 0x0 PUSH20 0xFFFFFFFFFFFFFFFFFFFFFFFFFFFFFFFFFFFFFFFF AND PUSH4 0x23B872DD PUSH1 0x1 PUSH1 0x0 SWAP1 SLOAD SWAP1 PUSH2 0x100 EXP SWAP1 DIV PUSH20 0xFFFFFFFFFFFFFFFFFFFFFFFFFFFFFFFFFFFFFFFF AND ADDRESS DUP5 PUSH1 0x40 MLOAD DUP5 PUSH4 0xFFFFFFFF AND PUSH1 0xE0 SHL DUP2 MSTORE PUSH1 0x4 ADD PUSH2 0x5F7 SWAP4 SWAP3 SWAP2 SWAP1 PUSH2 0x149E JUMP JUMPDEST PUSH1 0x20 PUSH1 0x40 MLOAD DUP1 DUP4 SUB DUP2 PUSH1 0x0 DUP8 GAS CALL ISZERO DUP1 ISZERO PUSH2 0x616 JUMPI RETURNDATASIZE PUSH1 0x0 DUP1 RETURNDATACOPY RETURNDATASIZE PUSH1 0x0 REVERT JUMPDEST POP POP POP POP PUSH1 0x40 MLOAD RETURNDATASIZE PUSH1 0x1F NOT PUSH1 0x1F DUP3 ADD AND DUP3 ADD DUP1 PUSH1 0x40 MSTORE POP DUP2 ADD SWAP1 PUSH2 0x63A SWAP2 SWAP1 PUSH2 0x150D JUMP JUMPDEST POP PUSH32 0x0 PUSH20 0xFFFFFFFFFFFFFFFFFFFFFFFFFFFFFFFFFFFFFFFF AND PUSH4 0xA9059CBB PUSH1 0x0 DUP4 PUSH1 0x40 MLOAD DUP4 PUSH4 0xFFFFFFFF AND PUSH1 0xE0 SHL DUP2 MSTORE PUSH1 0x4 ADD PUSH2 0x697 SWAP3 SWAP2 SWAP1 PUSH2 0x153A JUMP JUMPDEST PUSH1 0x20 PUSH1 0x40 MLOAD DUP1 DUP4 SUB DUP2 PUSH1 0x0 DUP8 GAS CALL ISZERO DUP1 ISZERO PUSH2 0x6B6 JUMPI RETURNDATASIZE PUSH1 0x0 DUP1 RETURNDATACOPY RETURNDATASIZE PUSH1 0x0 REVERT JUMPDEST POP POP POP POP PUSH1 0x40 MLOAD RETURNDATASIZE PUSH1 0x1F NOT PUSH1 0x1F DUP3 ADD AND DUP3 ADD DUP1 PUSH1 0x40 MSTORE POP DUP2 ADD SWAP1 PUSH2 0x6DA SWAP2 SWAP1 PUSH2 0x150D JUMP JUMPDEST POP POP JUMP JUMPDEST PUSH1 0x0 PUSH1 0x3 DUP1 SLOAD SWAP1 POP SWAP1 POP SWAP1 JUMP JUMPDEST PUSH2 0x6F3 PUSH2 0xF9B JUMP JUMPDEST PUSH20 0xFFFFFFFFFFFFFFFFFFFFFFFFFFFFFFFFFFFFFFFF AND PUSH2 0x711 PUSH2 0x773 JUMP JUMPDEST PUSH20 0xFFFFFFFFFFFFFFFFFFFFFFFFFFFFFFFFFFFFFFFF AND EQ PUSH2 0x767 JUMPI PUSH1 0x40 MLOAD PUSH32 0x8C379A000000000000000000000000000000000000000000000000000000000 DUP2 MSTORE PUSH1 0x4 ADD PUSH2 0x75E SWAP1 PUSH2 0x13D0 JUMP JUMPDEST PUSH1 0x40 MLOAD DUP1 SWAP2 SUB SWAP1 REVERT JUMPDEST PUSH2 0x771 PUSH1 0x0 PUSH2 0xFA3 JUMP JUMPDEST JUMP JUMPDEST PUSH1 0x0 DUP1 PUSH1 0x0 SWAP1 SLOAD SWAP1 PUSH2 0x100 EXP SWAP1 DIV PUSH20 0xFFFFFFFFFFFFFFFFFFFFFFFFFFFFFFFFFFFFFFFF AND SWAP1 POP SWAP1 JUMP JUMPDEST PUSH32 0x0 PUSH20 0xFFFFFFFFFFFFFFFFFFFFFFFFFFFFFFFFFFFFFFFF AND CALLER PUSH20 0xFFFFFFFFFFFFFFFFFFFFFFFFFFFFFFFFFFFFFFFF AND EQ PUSH2 0x82A JUMPI PUSH1 0x40 MLOAD PUSH32 0x8C379A000000000000000000000000000000000000000000000000000000000 DUP2 MSTORE PUSH1 0x4 ADD PUSH2 0x821 SWAP1 PUSH2 0x15AF JUMP JUMPDEST PUSH1 0x40 MLOAD DUP1 SWAP2 SUB SWAP1 REVERT JUMPDEST PUSH1 0x0 PUSH20 0xFFFFFFFFFFFFFFFFFFFFFFFFFFFFFFFFFFFFFFFF AND DUP3 PUSH20 0xFFFFFFFFFFFFFFFFFFFFFFFFFFFFFFFFFFFFFFFF AND EQ ISZERO DUP1 ISZERO PUSH2 0x8A9 JUMPI POP PUSH1 0x0 PUSH1 0x2 PUSH1 0x0 DUP5 PUSH20 0xFFFFFFFFFFFFFFFFFFFFFFFFFFFFFFFFFFFFFFFF AND PUSH20 0xFFFFFFFFFFFFFFFFFFFFFFFFFFFFFFFFFFFFFFFF AND DUP2 MSTORE PUSH1 0x20 ADD SWAP1 DUP2 MSTORE PUSH1 0x20 ADD PUSH1 0x0 KECCAK256 PUSH1 0x0 ADD SLOAD EQ JUMPDEST ISZERO PUSH2 0x912 JUMPI PUSH1 0x3 DUP3 SWAP1 DUP1 PUSH1 0x1 DUP2 SLOAD ADD DUP1 DUP3 SSTORE DUP1 SWAP2 POP POP PUSH1 0x1 SWAP1 SUB SWAP1 PUSH1 0x0 MSTORE PUSH1 0x20 PUSH1 0x0 KECCAK256 ADD PUSH1 0x0 SWAP1 SWAP2 SWAP1 SWAP2 SWAP1 SWAP2 PUSH2 0x100 EXP DUP2 SLOAD DUP2 PUSH20 0xFFFFFFFFFFFFFFFFFFFFFFFFFFFFFFFFFFFFFFFF MUL NOT AND SWAP1 DUP4 PUSH20 0xFFFFFFFFFFFFFFFFFFFFFFFFFFFFFFFFFFFFFFFF AND MUL OR SWAP1 SSTORE POP JUMPDEST PUSH1 0x0 PUSH20 0xFFFFFFFFFFFFFFFFFFFFFFFFFFFFFFFFFFFFFFFF AND DUP2 PUSH20 0xFFFFFFFFFFFFFFFFFFFFFFFFFFFFFFFFFFFFFFFF AND EQ ISZERO DUP1 ISZERO PUSH2 0x991 JUMPI POP PUSH1 0x0 PUSH1 0x2 PUSH1 0x0 DUP4 PUSH20 0xFFFFFFFFFFFFFFFFFFFFFFFFFFFFFFFFFFFFFFFF AND PUSH20 0xFFFFFFFFFFFFFFFFFFFFFFFFFFFFFFFFFFFFFFFF AND DUP2 MSTORE PUSH1 0x20 ADD SWAP1 DUP2 MSTORE PUSH1 0x20 ADD PUSH1 0x0 KECCAK256 PUSH1 0x0 ADD SLOAD EQ JUMPDEST ISZERO PUSH2 0x9FA JUMPI PUSH1 0x3 DUP2 SWAP1 DUP1 PUSH1 0x1 DUP2 SLOAD ADD DUP1 DUP3 SSTORE DUP1 SWAP2 POP POP PUSH1 0x1 SWAP1 SUB SWAP1 PUSH1 0x0 MSTORE PUSH1 0x20 PUSH1 0x0 KECCAK256 ADD PUSH1 0x0 SWAP1 SWAP2 SWAP1 SWAP2 SWAP1 SWAP2 PUSH2 0x100 EXP DUP2 SLOAD DUP2 PUSH20 0xFFFFFFFFFFFFFFFFFFFFFFFFFFFFFFFFFFFFFFFF MUL NOT AND SWAP1 DUP4 PUSH20 0xFFFFFFFFFFFFFFFFFFFFFFFFFFFFFFFFFFFFFFFF AND MUL OR SWAP1 SSTORE POP JUMPDEST PUSH32 0x0 PUSH20 0xFFFFFFFFFFFFFFFFFFFFFFFFFFFFFFFFFFFFFFFF AND PUSH4 0x70A08231 ADDRESS PUSH1 0x40 MLOAD DUP3 PUSH4 0xFFFFFFFF AND PUSH1 0xE0 SHL DUP2 MSTORE PUSH1 0x4 ADD PUSH2 0xA53 SWAP2 SWAP1 PUSH2 0x1110 JUMP JUMPDEST PUSH1 0x20 PUSH1 0x40 MLOAD DUP1 DUP4 SUB DUP2 DUP7 GAS STATICCALL ISZERO DUP1 ISZERO PUSH2 0xA70 JUMPI RETURNDATASIZE PUSH1 0x0 DUP1 RETURNDATACOPY RETURNDATASIZE PUSH1 0x0 REVERT JUMPDEST POP POP POP POP PUSH1 0x40 MLOAD RETURNDATASIZE PUSH1 0x1F NOT PUSH1 0x1F DUP3 ADD AND DUP3 ADD DUP1 PUSH1 0x40 MSTORE POP DUP2 ADD SWAP1 PUSH2 0xA94 SWAP2 SWAP1 PUSH2 0x1405 JUMP JUMPDEST PUSH1 0x4 DUP2 SWAP1 SSTORE POP POP POP JUMP JUMPDEST PUSH2 0xAA6 PUSH2 0xF9B JUMP JUMPDEST PUSH20 0xFFFFFFFFFFFFFFFFFFFFFFFFFFFFFFFFFFFFFFFF AND PUSH2 0xAC4 PUSH2 0x773 JUMP JUMPDEST PUSH20 0xFFFFFFFFFFFFFFFFFFFFFFFFFFFFFFFFFFFFFFFF AND EQ PUSH2 0xB1A JUMPI PUSH1 0x40 MLOAD PUSH32 0x8C379A000000000000000000000000000000000000000000000000000000000 DUP2 MSTORE PUSH1 0x4 ADD PUSH2 0xB11 SWAP1 PUSH2 0x13D0 JUMP JUMPDEST PUSH1 0x40 MLOAD DUP1 SWAP2 SUB SWAP1 REVERT JUMPDEST DUP1 PUSH1 0x5 PUSH1 0x0 PUSH2 0x100 EXP DUP2 SLOAD DUP2 PUSH20 0xFFFFFFFFFFFFFFFFFFFFFFFFFFFFFFFFFFFFFFFF MUL NOT AND SWAP1 DUP4 PUSH20 0xFFFFFFFFFFFFFFFFFFFFFFFFFFFFFFFFFFFFFFFF AND MUL OR SWAP1 SSTORE POP POP JUMP JUMPDEST PUSH2 0xB66 PUSH2 0xF9B JUMP JUMPDEST PUSH20 0xFFFFFFFFFFFFFFFFFFFFFFFFFFFFFFFFFFFFFFFF AND PUSH2 0xB84 PUSH2 0x773 JUMP JUMPDEST PUSH20 0xFFFFFFFFFFFFFFFFFFFFFFFFFFFFFFFFFFFFFFFF AND EQ PUSH2 0xBDA JUMPI PUSH1 0x40 MLOAD PUSH32 0x8C379A000000000000000000000000000000000000000000000000000000000 DUP2 MSTORE PUSH1 0x4 ADD PUSH2 0xBD1 SWAP1 PUSH2 0x13D0 JUMP JUMPDEST PUSH1 0x40 MLOAD DUP1 SWAP2 SUB SWAP1 REVERT JUMPDEST PUSH1 0x0 PUSH20 0xFFFFFFFFFFFFFFFFFFFFFFFFFFFFFFFFFFFFFFFF AND DUP2 PUSH20 0xFFFFFFFFFFFFFFFFFFFFFFFFFFFFFFFFFFFFFFFF AND SUB PUSH2 0xC49 JUMPI PUSH1 0x40 MLOAD PUSH32 0x8C379A000000000000000000000000000000000000000000000000000000000 DUP2 MSTORE PUSH1 0x4 ADD PUSH2 0xC40 SWAP1 PUSH2 0x1641 JUMP JUMPDEST PUSH1 0x40 MLOAD DUP1 SWAP2 SUB SWAP1 REVERT JUMPDEST PUSH2 0xC52 DUP2 PUSH2 0xFA3 JUMP JUMPDEST POP JUMP JUMPDEST PUSH32 0x0 DUP2 JUMP JUMPDEST PUSH1 0x0 PUSH32 0x0 PUSH20 0xFFFFFFFFFFFFFFFFFFFFFFFFFFFFFFFFFFFFFFFF AND PUSH4 0x70A08231 DUP4 PUSH1 0x40 MLOAD DUP3 PUSH4 0xFFFFFFFF AND PUSH1 0xE0 SHL DUP2 MSTORE PUSH1 0x4 ADD PUSH2 0xCD4 SWAP2 SWAP1 PUSH2 0x1110 JUMP JUMPDEST PUSH1 0x20 PUSH1 0x40 MLOAD DUP1 DUP4 SUB DUP2 DUP7 GAS STATICCALL ISZERO DUP1 ISZERO PUSH2 0xCF1 JUMPI RETURNDATASIZE PUSH1 0x0 DUP1 RETURNDATACOPY RETURNDATASIZE PUSH1 0x0 REVERT JUMPDEST POP POP POP POP PUSH1 0x40 MLOAD RETURNDATASIZE PUSH1 0x1F NOT PUSH1 0x1F DUP3 ADD AND DUP3 ADD DUP1 PUSH1 0x40 MSTORE POP DUP2 ADD SWAP1 PUSH2 0xD15 SWAP2 SWAP1 PUSH2 0x1405 JUMP JUMPDEST SWAP1 POP PUSH1 0x0 DUP2 EQ DUP1 PUSH2 0xD28 JUMPI POP PUSH1 0x0 PUSH1 0x4 SLOAD EQ JUMPDEST ISZERO PUSH2 0xD33 JUMPI POP PUSH2 0xF98 JUMP JUMPDEST PUSH1 0x0 PUSH32 0x0 PUSH20 0xFFFFFFFFFFFFFFFFFFFFFFFFFFFFFFFFFFFFFFFF AND PUSH4 0x18160DDD PUSH1 0x40 MLOAD DUP2 PUSH4 0xFFFFFFFF AND PUSH1 0xE0 SHL DUP2 MSTORE PUSH1 0x4 ADD PUSH1 0x20 PUSH1 0x40 MLOAD DUP1 DUP4 SUB DUP2 DUP7 GAS STATICCALL ISZERO DUP1 ISZERO PUSH2 0xDA0 JUMPI RETURNDATASIZE PUSH1 0x0 DUP1 RETURNDATACOPY RETURNDATASIZE PUSH1 0x0 REVERT JUMPDEST POP POP POP POP PUSH1 0x40 MLOAD RETURNDATASIZE PUSH1 0x1F NOT PUSH1 0x1F DUP3 ADD AND DUP3 ADD DUP1 PUSH1 0x40 MSTORE POP DUP2 ADD SWAP1 PUSH2 0xDC4 SWAP2 SWAP1 PUSH2 0x1405 JUMP JUMPDEST DUP3 PUSH1 0x4 SLOAD PUSH2 0xDD2 SWAP2 SWAP1 PUSH2 0x1661 JUMP JUMPDEST PUSH2 0xDDC SWAP2 SWAP1 PUSH2 0x16D2 JUMP JUMPDEST SWAP1 POP PUSH1 0x0 DUP2 SUB PUSH2 0xDED JUMPI POP POP PUSH2 0xF98 JUMP JUMPDEST DUP1 PUSH1 0x2 PUSH1 0x0 DUP6 PUSH20 0xFFFFFFFFFFFFFFFFFFFFFFFFFFFFFFFFFFFFFFFF AND PUSH20 0xFFFFFFFFFFFFFFFFFFFFFFFFFFFFFFFFFFFFFFFF AND DUP2 MSTORE PUSH1 0x20 ADD SWAP1 DUP2 MSTORE PUSH1 0x20 ADD PUSH1 0x0 KECCAK256 PUSH1 0x1 ADD PUSH1 0x0 DUP3 DUP3 SLOAD PUSH2 0xE3F SWAP2 SWAP1 PUSH2 0x1703 JUMP JUMPDEST SWAP3 POP POP DUP2 SWAP1 SSTORE POP TIMESTAMP PUSH1 0x2 PUSH1 0x0 DUP6 PUSH20 0xFFFFFFFFFFFFFFFFFFFFFFFFFFFFFFFFFFFFFFFF AND PUSH20 0xFFFFFFFFFFFFFFFFFFFFFFFFFFFFFFFFFFFFFFFF AND DUP2 MSTORE PUSH1 0x20 ADD SWAP1 DUP2 MSTORE PUSH1 0x20 ADD PUSH1 0x0 KECCAK256 PUSH1 0x0 ADD DUP2 SWAP1 SSTORE POP DUP1 PUSH1 0x4 PUSH1 0x0 DUP3 DUP3 SLOAD PUSH2 0xE9F SWAP2 SWAP1 PUSH2 0x1737 JUMP JUMPDEST SWAP3 POP POP DUP2 SWAP1 SSTORE POP PUSH1 0x5 PUSH1 0x0 SWAP1 SLOAD SWAP1 PUSH2 0x100 EXP SWAP1 DIV PUSH20 0xFFFFFFFFFFFFFFFFFFFFFFFFFFFFFFFFFFFFFFFF AND PUSH20 0xFFFFFFFFFFFFFFFFFFFFFFFFFFFFFFFFFFFFFFFF AND PUSH4 0xA9059CBB DUP5 DUP4 PUSH1 0x40 MLOAD DUP4 PUSH4 0xFFFFFFFF AND PUSH1 0xE0 SHL DUP2 MSTORE PUSH1 0x4 ADD PUSH2 0xF03 SWAP3 SWAP2 SWAP1 PUSH2 0x153A JUMP JUMPDEST PUSH1 0x20 PUSH1 0x40 MLOAD DUP1 DUP4 SUB DUP2 PUSH1 0x0 DUP8 GAS CALL ISZERO DUP1 ISZERO PUSH2 0xF22 JUMPI RETURNDATASIZE PUSH1 0x0 DUP1 RETURNDATACOPY RETURNDATASIZE PUSH1 0x0 REVERT JUMPDEST POP POP POP POP PUSH1 0x40 MLOAD RETURNDATASIZE PUSH1 0x1F NOT PUSH1 0x1F DUP3 ADD AND DUP3 ADD DUP1 PUSH1 0x40 MSTORE POP DUP2 ADD SWAP1 PUSH2 0xF46 SWAP2 SWAP1 PUSH2 0x150D JUMP JUMPDEST POP DUP3 PUSH20 0xFFFFFFFFFFFFFFFFFFFFFFFFFFFFFFFFFFFFFFFF AND PUSH32 0x47CEE97CB7ACD717B3C0AA1435D004CD5B3C8C57D70DBCEB4E4458BBD60E39D4 DUP3 PUSH1 0x40 MLOAD PUSH2 0xF8D SWAP2 SWAP1 PUSH2 0x1236 JUMP JUMPDEST PUSH1 0x40 MLOAD DUP1 SWAP2 SUB SWAP1 LOG2 POP POP JUMPDEST POP JUMP JUMPDEST PUSH1 0x0 CALLER SWAP1 POP SWAP1 JUMP JUMPDEST PUSH1 0x0 DUP1 PUSH1 0x0 SWAP1 SLOAD SWAP1 PUSH2 0x100 EXP SWAP1 DIV PUSH20 0xFFFFFFFFFFFFFFFFFFFFFFFFFFFFFFFFFFFFFFFF AND SWAP1 POP DUP2 PUSH1 0x0 DUP1 PUSH2 0x100 EXP DUP2 SLOAD DUP2 PUSH20 0xFFFFFFFFFFFFFFFFFFFFFFFFFFFFFFFFFFFFFFFF MUL NOT AND SWAP1 DUP4 PUSH20 0xFFFFFFFFFFFFFFFFFFFFFFFFFFFFFFFFFFFFFFFF AND MUL OR SWAP1 SSTORE POP DUP2 PUSH20 0xFFFFFFFFFFFFFFFFFFFFFFFFFFFFFFFFFFFFFFFF AND DUP2 PUSH20 0xFFFFFFFFFFFFFFFFFFFFFFFFFFFFFFFFFFFFFFFF AND PUSH32 0x8BE0079C531659141344CD1FD0A4F28419497F9722A3DAAFE3B4186F6B6457E0 PUSH1 0x40 MLOAD PUSH1 0x40 MLOAD DUP1 SWAP2 SUB SWAP1 LOG3 POP POP JUMP JUMPDEST PUSH1 0x0 DUP1 REVERT JUMPDEST PUSH1 0x0 DUP2 SWAP1 POP SWAP2 SWAP1 POP JUMP JUMPDEST PUSH2 0x107F DUP2 PUSH2 0x106C JUMP JUMPDEST DUP2 EQ PUSH2 0x108A JUMPI PUSH1 0x0 DUP1 REVERT JUMPDEST POP JUMP JUMPDEST PUSH1 0x0 DUP2 CALLDATALOAD SWAP1 POP PUSH2 0x109C DUP2 PUSH2 0x1076 JUMP JUMPDEST SWAP3 SWAP2 POP POP JUMP JUMPDEST PUSH1 0x0 PUSH1 0x20 DUP3 DUP5 SUB SLT ISZERO PUSH2 0x10B8 JUMPI PUSH2 0x10B7 PUSH2 0x1067 JUMP JUMPDEST JUMPDEST PUSH1 0x0 PUSH2 0x10C6 DUP5 DUP3 DUP6 ADD PUSH2 0x108D JUMP JUMPDEST SWAP2 POP POP SWAP3 SWAP2 POP POP JUMP JUMPDEST PUSH1 0x0 PUSH20 0xFFFFFFFFFFFFFFFFFFFFFFFFFFFFFFFFFFFFFFFF DUP3 AND SWAP1 POP SWAP2 SWAP1 POP JUMP JUMPDEST PUSH1 0x0 PUSH2 0x10FA DUP3 PUSH2 0x10CF JUMP JUMPDEST SWAP1 POP SWAP2 SWAP1 POP JUMP JUMPDEST PUSH2 0x110A DUP2 PUSH2 0x10EF JUMP JUMPDEST DUP3 MSTORE POP POP JUMP JUMPDEST PUSH1 0x0 PUSH1 0x20 DUP3 ADD SWAP1 POP PUSH2 0x1125 PUSH1 0x0 DUP4 ADD DUP5 PUSH2 0x1101 JUMP JUMPDEST SWAP3 SWAP2 POP POP JUMP JUMPDEST PUSH2 0x1134 DUP2 PUSH2 0x10EF JUMP JUMPDEST DUP2 EQ PUSH2 0x113F JUMPI PUSH1 0x0 DUP1 REVERT JUMPDEST POP JUMP JUMPDEST PUSH1 0x0 DUP2 CALLDATALOAD SWAP1 POP PUSH2 0x1151 DUP2 PUSH2 0x112B JUMP JUMPDEST SWAP3 SWAP2 POP POP JUMP JUMPDEST PUSH1 0x0 PUSH1 0x20 DUP3 DUP5 SUB SLT ISZERO PUSH2 0x116D JUMPI PUSH2 0x116C PUSH2 0x1067 JUMP JUMPDEST JUMPDEST PUSH1 0x0 PUSH2 0x117B DUP5 DUP3 DUP6 ADD PUSH2 0x1142 JUMP JUMPDEST SWAP2 POP POP SWAP3 SWAP2 POP POP JUMP JUMPDEST PUSH2 0x118D DUP2 PUSH2 0x106C JUMP JUMPDEST DUP3 MSTORE POP POP JUMP JUMPDEST PUSH1 0x0 PUSH1 0x40 DUP3 ADD SWAP1 POP PUSH2 0x11A8 PUSH1 0x0 DUP4 ADD DUP6 PUSH2 0x1184 JUMP JUMPDEST PUSH2 0x11B5 PUSH1 0x20 DUP4 ADD DUP5 PUSH2 0x1184 JUMP JUMPDEST SWAP4 SWAP3 POP POP POP JUMP JUMPDEST PUSH1 0x0 DUP2 SWAP1 POP SWAP2 SWAP1 POP JUMP JUMPDEST PUSH1 0x0 PUSH2 0x11E1 PUSH2 0x11DC PUSH2 0x11D7 DUP5 PUSH2 0x10CF JUMP JUMPDEST PUSH2 0x11BC JUMP JUMPDEST PUSH2 0x10CF JUMP JUMPDEST SWAP1 POP SWAP2 SWAP1 POP JUMP JUMPDEST PUSH1 0x0 PUSH2 0x11F3 DUP3 PUSH2 0x11C6 JUMP JUMPDEST SWAP1 POP SWAP2 SWAP1 POP JUMP JUMPDEST PUSH1 0x0 PUSH2 0x1205 DUP3 PUSH2 0x11E8 JUMP JUMPDEST SWAP1 POP SWAP2 SWAP1 POP JUMP JUMPDEST PUSH2 0x1215 DUP2 PUSH2 0x11FA JUMP JUMPDEST DUP3 MSTORE POP POP JUMP JUMPDEST PUSH1 0x0 PUSH1 0x20 DUP3 ADD SWAP1 POP PUSH2 0x1230 PUSH1 0x0 DUP4 ADD DUP5 PUSH2 0x120C JUMP JUMPDEST SWAP3 SWAP2 POP POP JUMP JUMPDEST PUSH1 0x0 PUSH1 0x20 DUP3 ADD SWAP1 POP PUSH2 0x124B PUSH1 0x0 DUP4 ADD DUP5 PUSH2 0x1184 JUMP JUMPDEST SWAP3 SWAP2 POP POP JUMP JUMPDEST PUSH1 0x0 DUP1 PUSH1 0x40 DUP4 DUP6 SUB SLT ISZERO PUSH2 0x1268 JUMPI PUSH2 0x1267 PUSH2 0x1067 JUMP JUMPDEST JUMPDEST PUSH1 0x0 PUSH2 0x1276 DUP6 DUP3 DUP7 ADD PUSH2 0x1142 JUMP JUMPDEST SWAP3 POP POP PUSH1 0x20 PUSH2 0x1287 DUP6 DUP3 DUP7 ADD PUSH2 0x1142 JUMP JUMPDEST SWAP2 POP POP SWAP3 POP SWAP3 SWAP1 POP JUMP JUMPDEST PUSH1 0x0 PUSH2 0x129C DUP3 PUSH2 0x11E8 JUMP JUMPDEST SWAP1 POP SWAP2 SWAP1 POP JUMP JUMPDEST PUSH2 0x12AC DUP2 PUSH2 0x1291 JUMP JUMPDEST DUP3 MSTORE POP POP JUMP JUMPDEST PUSH1 0x0 PUSH1 0x20 DUP3 ADD SWAP1 POP PUSH2 0x12C7 PUSH1 0x0 DUP4 ADD DUP5 PUSH2 0x12A3 JUMP JUMPDEST SWAP3 SWAP2 POP POP JUMP JUMPDEST PUSH32 0x4E487B7100000000000000000000000000000000000000000000000000000000 PUSH1 0x0 MSTORE PUSH1 0x32 PUSH1 0x4 MSTORE PUSH1 0x24 PUSH1 0x0 REVERT JUMPDEST PUSH32 0x4E487B7100000000000000000000000000000000000000000000000000000000 PUSH1 0x0 MSTORE PUSH1 0x11 PUSH1 0x4 MSTORE PUSH1 0x24 PUSH1 0x0 REVERT JUMPDEST PUSH1 0x0 PUSH2 0x1336 DUP3 PUSH2 0x106C JUMP JUMPDEST SWAP2 POP PUSH32 0xFFFFFFFFFFFFFFFFFFFFFFFFFFFFFFFFFFFFFFFFFFFFFFFFFFFFFFFFFFFFFFFF DUP3 SUB PUSH2 0x1368 JUMPI PUSH2 0x1367 PUSH2 0x12FC JUMP JUMPDEST JUMPDEST PUSH1 0x1 DUP3 ADD SWAP1 POP SWAP2 SWAP1 POP JUMP JUMPDEST PUSH1 0x0 DUP3 DUP3 MSTORE PUSH1 0x20 DUP3 ADD SWAP1 POP SWAP3 SWAP2 POP POP JUMP JUMPDEST PUSH32 0x4F776E61626C653A2063616C6C6572206973206E6F7420746865206F776E6572 PUSH1 0x0 DUP3 ADD MSTORE POP JUMP JUMPDEST PUSH1 0x0 PUSH2 0x13BA PUSH1 0x20 DUP4 PUSH2 0x1373 JUMP JUMPDEST SWAP2 POP PUSH2 0x13C5 DUP3 PUSH2 0x1384 JUMP JUMPDEST PUSH1 0x20 DUP3 ADD SWAP1 POP SWAP2 SWAP1 POP JUMP JUMPDEST PUSH1 0x0 PUSH1 0x20 DUP3 ADD SWAP1 POP DUP2 DUP2 SUB PUSH1 0x0 DUP4 ADD MSTORE PUSH2 0x13E9 DUP2 PUSH2 0x13AD JUMP JUMPDEST SWAP1 POP SWAP2 SWAP1 POP JUMP JUMPDEST PUSH1 0x0 DUP2 MLOAD SWAP1 POP PUSH2 0x13FF DUP2 PUSH2 0x1076 JUMP JUMPDEST SWAP3 SWAP2 POP POP JUMP JUMPDEST PUSH1 0x0 PUSH1 0x20 DUP3 DUP5 SUB SLT ISZERO PUSH2 0x141B JUMPI PUSH2 0x141A PUSH2 0x1067 JUMP JUMPDEST JUMPDEST PUSH1 0x0 PUSH2 0x1429 DUP5 DUP3 DUP6 ADD PUSH2 0x13F0 JUMP JUMPDEST SWAP2 POP POP SWAP3 SWAP2 POP POP JUMP JUMPDEST PUSH32 0x496E73756666696369656E742074726561737572790000000000000000000000 PUSH1 0x0 DUP3 ADD MSTORE POP JUMP JUMPDEST PUSH1 0x0 PUSH2 0x1468 PUSH1 0x15 DUP4 PUSH2 0x1373 JUMP JUMPDEST SWAP2 POP PUSH2 0x1473 DUP3 PUSH2 0x1432 JUMP JUMPDEST PUSH1 0x20 DUP3 ADD SWAP1 POP SWAP2 SWAP1 POP JUMP JUMPDEST PUSH1 0x0 PUSH1 0x20 DUP3 ADD SWAP1 POP DUP2 DUP2 SUB PUSH1 0x0 DUP4 ADD MSTORE PUSH2 0x1497 DUP2 PUSH2 0x145B JUMP JUMPDEST SWAP1 POP SWAP2 SWAP1 POP JUMP JUMPDEST PUSH1 0x0 PUSH1 0x60 DUP3 ADD SWAP1 POP PUSH2 0x14B3 PUSH1 0x0 DUP4 ADD DUP7 PUSH2 0x1101 JUMP JUMPDEST PUSH2 0x14C0 PUSH1 0x20 DUP4 ADD DUP6 PUSH2 0x1101 JUMP JUMPDEST PUSH2 0x14CD PUSH1 0x40 DUP4 ADD DUP5 PUSH2 0x1184 JUMP JUMPDEST SWAP5 SWAP4 POP POP POP POP JUMP JUMPDEST PUSH1 0x0 DUP2 ISZERO ISZERO SWAP1 POP SWAP2 SWAP1 POP JUMP JUMPDEST PUSH2 0x14EA DUP2 PUSH2 0x14D5 JUMP JUMPDEST DUP2 EQ PUSH2 0x14F5 JUMPI PUSH1 0x0 DUP1 REVERT JUMPDEST POP JUMP JUMPDEST PUSH1 0x0 DUP2 MLOAD SWAP1 POP PUSH2 0x1507 DUP2 PUSH2 0x14E1 JUMP JUMPDEST SWAP3 SWAP2 POP POP JUMP JUMPDEST PUSH1 0x0 PUSH1 0x20 DUP3 DUP5 SUB SLT ISZERO PUSH2 0x1523 JUMPI PUSH2 0x1522 PUSH2 0x1067 JUMP JUMPDEST JUMPDEST PUSH1 0x0 PUSH2 0x1531 DUP5 DUP3 DUP6 ADD PUSH2 0x14F8 JUMP JUMPDEST SWAP2 POP POP SWAP3 SWAP2 POP POP JUMP JUMPDEST PUSH1 0x0 PUSH1 0x40 DUP3 ADD SWAP1 POP PUSH2 0x154F PUSH1 0x0 DUP4 ADD DUP6 PUSH2 0x1101 JUMP JUMPDEST PUSH2 0x155C PUSH1 0x20 DUP4 ADD DUP5 PUSH2 0x1184 JUMP JUMPDEST SWAP4 SWAP3 POP POP POP JUMP JUMPDEST PUSH32 0x4F6E6C7920746F6B656E00000000000000000000000000000000000000000000 PUSH1 0x0 DUP3 ADD MSTORE POP JUMP JUMPDEST PUSH1 0x0 PUSH2 0x1599 PUSH1 0xA DUP4 PUSH2 0x1373 JUMP JUMPDEST SWAP2 POP PUSH2 0x15A4 DUP3 PUSH2 0x1563 JUMP JUMPDEST PUSH1 0x20 DUP3 ADD SWAP1 POP SWAP2 SWAP1 POP JUMP JUMPDEST PUSH1 0x0 PUSH1 0x20 DUP3 ADD SWAP1 POP DUP2 DUP2 SUB PUSH1 0x0 DUP4 ADD MSTORE PUSH2 0x15C8 DUP2 PUSH2 0x158C JUMP JUMPDEST SWAP1 POP SWAP2 SWAP1 POP JUMP JUMPDEST PUSH32 0x4F776E61626C653A206E6577206F776E6572206973207A65726F206164647265 PUSH1 0x0 DUP3 ADD MSTORE PUSH32 0x7373000000000000000000000000000000000000000000000000000000000000 PUSH1 0x20 DUP3 ADD MSTORE POP JUMP JUMPDEST PUSH1 0x0 PUSH2 0x162B PUSH1 0x22 DUP4 PUSH2 0x1373 JUMP JUMPDEST SWAP2 POP PUSH2 0x1636 DUP3 PUSH2 0x15CF JUMP JUMPDEST PUSH1 0x40 DUP3 ADD SWAP1 POP SWAP2 SWAP1 POP JUMP JUMPDEST PUSH1 0x0 PUSH1 0x20 DUP3 ADD SWAP1 POP DUP2 DUP2 SUB PUSH1 0x0 DUP4 ADD MSTORE PUSH2 0x165A DUP2 PUSH2 0x161E JUMP JUMPDEST SWAP1 POP SWAP2 SWAP1 POP JUMP JUMPDEST PUSH1 0x0 PUSH2 0x166C DUP3 PUSH2 0x106C JUMP JUMPDEST SWAP2 POP PUSH2 0x1677 DUP4 PUSH2 0x106C JUMP JUMPDEST SWAP3 POP DUP3 DUP3 MUL PUSH2 0x1685 DUP2 PUSH2 0x106C JUMP JUMPDEST SWAP2 POP DUP3 DUP3 DIV DUP5 EQ DUP4 ISZERO OR PUSH2 0x169C JUMPI PUSH2 0x169B PUSH2 0x12FC JUMP JUMPDEST JUMPDEST POP SWAP3 SWAP2 POP POP JUMP JUMPDEST PUSH32 0x4E487B7100000000000000000000000000000000000000000000000000000000 PUSH1 0x0 MSTORE PUSH1 0x12 PUSH1 0x4 MSTORE PUSH1 0x24 PUSH1 0x0 REVERT JUMPDEST PUSH1 0x0 PUSH2 0x16DD DUP3 PUSH2 0x106C JUMP JUMPDEST SWAP2 POP PUSH2 0x16E8 DUP4 PUSH2 0x106C JUMP JUMPDEST SWAP3 POP DUP3 PUSH2 0x16F8 JUMPI PUSH2 0x16F7 PUSH2 0x16A3 JUMP JUMPDEST JUMPDEST DUP3 DUP3 DIV SWAP1 POP SWAP3 SWAP2 POP POP JUMP JUMPDEST PUSH1 0x0 PUSH2 0x170E DUP3 PUSH2 0x106C JUMP JUMPDEST SWAP2 POP PUSH2 0x1719 DUP4 PUSH2 0x106C JUMP JUMPDEST SWAP3 POP DUP3 DUP3 ADD SWAP1 POP DUP1 DUP3 GT ISZERO PUSH2 0x1731 JUMPI PUSH2 0x1730 PUSH2 0x12FC JUMP JUMPDEST JUMPDEST SWAP3 SWAP2 POP POP JUMP JUMPDEST PUSH1 0x0 PUSH2 0x1742 DUP3 PUSH2 0x106C JUMP JUMPDEST SWAP2 POP PUSH2 0x174D DUP4 PUSH2 0x106C JUMP JUMPDEST SWAP3 POP DUP3 DUP3 SUB SWAP1 POP DUP2 DUP2 GT ISZERO PUSH2 0x1765 JUMPI PUSH2 0x1764 PUSH2 0x12FC JUMP JUMPDEST JUMPDEST SWAP3 SWAP2 POP POP JUMP INVALID LOG2 PUSH5 0x6970667358 0x22 SLT KECCAK256 0x2B 0xA9 SDIV 0xE7 SWAP1 0xE7 SWAP5 PUSH31 0x20132CFCFE966F57BB99380FCF4C4885E2AE09BFCF38999C64736F6C634300 ADDMOD EQ STOP CALLER "
	},
	"abi": [
		{
			"inputs": [
				{
					"internalType": "address",
					"name": "_foundingWallet",
					"type": "address"
				},
				{
					"internalType": "address",
					"name": "_treasuryWallet",
					"type": "address"
				}
			],
			"stateMutability": "nonpayable",
			"type": "constructor"
		},
		{
			"anonymous": false,
			"inputs": [
				{
					"indexed": true,
					"internalType": "address",
					"name": "owner",
					"type": "address"
				},
				{
					"indexed": true,
					"internalType": "address",
					"name": "spender",
					"type": "address"
				},
				{
					"indexed": false,
					"internalType": "uint256",
					"name": "value",
					"type": "uint256"
				}
			],
			"name": "Approval",
			"type": "event"
		},
		{
			"inputs": [
				{
					"internalType": "address",
					"name": "spender",
					"type": "address"
				},
				{
					"internalType": "uint256",
					"name": "amount",
					"type": "uint256"
				}
			],
			"name": "approve",
			"outputs": [
				{
					"internalType": "bool",
					"name": "",
					"type": "bool"
				}
			],
			"stateMutability": "nonpayable",
			"type": "function"
		},
		{
			"anonymous": false,
			"inputs": [
				{
					"indexed": true,
					"internalType": "address",
					"name": "previousOwner",
					"type": "address"
				},
				{
					"indexed": true,
					"internalType": "address",
					"name": "newOwner",
					"type": "address"
				}
			],
			"name": "OwnershipTransferred",
			"type": "event"
		},
		{
			"inputs": [],
			"name": "renounceOwnership",
			"outputs": [],
			"stateMutability": "nonpayable",
			"type": "function"
		},
		{
			"inputs": [
				{
					"internalType": "address",
					"name": "account",
					"type": "address"
				},
				{
					"internalType": "bool",
					"name": "exempt",
					"type": "bool"
				}
			],
			"name": "setFeeExempt",
			"outputs": [],
			"stateMutability": "nonpayable",
			"type": "function"
		},
		{
			"inputs": [
				{
					"internalType": "bool",
					"name": "enabled",
					"type": "bool"
				}
			],
			"name": "setFeesEnabled",
			"outputs": [],
			"stateMutability": "nonpayable",
			"type": "function"
		},
		{
			"inputs": [
				{
					"internalType": "address",
					"name": "wallet",
					"type": "address"
				}
			],
			"name": "setFoundingWallet",
			"outputs": [],
			"stateMutability": "nonpayable",
			"type": "function"
		},
		{
			"inputs": [
				{
					"internalType": "address",
					"name": "wallet",
					"type": "address"
				}
			],
			"name": "setTreasuryWallet",
			"outputs": [],
			"stateMutability": "nonpayable",
			"type": "function"
		},
		{
			"inputs": [
				{
					"internalType": "address",
					"name": "to",
					"type": "address"
				},
				{
					"internalType": "uint256",
					"name": "amount",
					"type": "uint256"
				}
			],
			"name": "transfer",
			"outputs": [
				{
					"internalType": "bool",
					"name": "",
					"type": "bool"
				}
			],
			"stateMutability": "nonpayable",
			"type": "function"
		},
		{
			"anonymous": false,
			"inputs": [
				{
					"indexed": true,
					"internalType": "address",
					"name": "from",
					"type": "address"
				},
				{
					"indexed": true,
					"internalType": "address",
					"name": "to",
					"type": "address"
				},
				{
					"indexed": false,
					"internalType": "uint256",
					"name": "value",
					"type": "uint256"
				}
			],
			"name": "Transfer",
			"type": "event"
		},
		{
			"inputs": [
				{
					"internalType": "address",
					"name": "from",
					"type": "address"
				},
				{
					"internalType": "address",
					"name": "to",
					"type": "address"
				},
				{
					"internalType": "uint256",
					"name": "amount",
					"type": "uint256"
				}
			],
			"name": "transferFrom",
			"outputs": [
				{
					"internalType": "bool",
					"name": "",
					"type": "bool"
				}
			],
			"stateMutability": "nonpayable",
			"type": "function"
		},
		{
			"inputs": [
				{
					"internalType": "address",
					"name": "newOwner",
					"type": "address"
				}
			],
			"name": "transferOwnership",
			"outputs": [],
			"stateMutability": "nonpayable",
			"type": "function"
		},
		{
			"inputs": [
				{
					"internalType": "address",
					"name": "owner",
					"type": "address"
				},
				{
					"internalType": "address",
					"name": "spender",
					"type": "address"
				}
			],
			"name": "allowance",
			"outputs": [
				{
					"internalType": "uint256",
					"name": "",
					"type": "uint256"
				}
			],
			"stateMutability": "view",
			"type": "function"
		},
		{
			"inputs": [
				{
					"internalType": "address",
					"name": "account",
					"type": "address"
				}
			],
			"name": "balanceOf",
			"outputs": [
				{
					"internalType": "uint256",
					"name": "",
					"type": "uint256"
				}
			],
			"stateMutability": "view",
			"type": "function"
		},
		{
			"inputs": [],
			"name": "decimals",
			"outputs": [
				{
					"internalType": "uint8",
					"name": "",
					"type": "uint8"
				}
			],
			"stateMutability": "view",
			"type": "function"
		},
		{
			"inputs": [],
			"name": "feesEnabled",
			"outputs": [
				{
					"internalType": "bool",
					"name": "",
					"type": "bool"
				}
			],
			"stateMutability": "view",
			"type": "function"
		},
		{
			"inputs": [],
			"name": "foundingFeeBP",
			"outputs": [
				{
					"internalType": "uint256",
					"name": "",
					"type": "uint256"
				}
			],
			"stateMutability": "view",
			"type": "function"
		},
		{
			"inputs": [],
			"name": "foundingWallet",
			"outputs": [
				{
					"internalType": "address",
					"name": "",
					"type": "address"
				}
			],
			"stateMutability": "view",
			"type": "function"
		},
		{
			"inputs": [
				{
					"internalType": "address",
					"name": "",
					"type": "address"
				}
			],
			"name": "isFeeExempt",
			"outputs": [
				{
					"internalType": "bool",
					"name": "",
					"type": "bool"
				}
			],
			"stateMutability": "view",
			"type": "function"
		},
		{
			"inputs": [],
			"name": "MAX_FEE_BP",
			"outputs": [
				{
					"internalType": "uint256",
					"name": "",
					"type": "uint256"
				}
			],
			"stateMutability": "view",
			"type": "function"
		},
		{
			"inputs": [],
			"name": "MAX_SUPPLY",
			"outputs": [
				{
					"internalType": "uint256",
					"name": "",
					"type": "uint256"
				}
			],
			"stateMutability": "view",
			"type": "function"
		},
		{
			"inputs": [],
			"name": "name",
			"outputs": [
				{
					"internalType": "string",
					"name": "",
					"type": "string"
				}
			],
			"stateMutability": "view",
			"type": "function"
		},
		{
			"inputs": [],
			"name": "owner",
			"outputs": [
				{
					"internalType": "address",
					"name": "",
					"type": "address"
				}
			],
			"stateMutability": "view",
			"type": "function"
		},
		{
			"inputs": [],
			"name": "rewardFeeBP",
			"outputs": [
				{
					"internalType": "uint256",
					"name": "",
					"type": "uint256"
				}
			],
			"stateMutability": "view",
			"type": "function"
		},
		{
			"inputs": [],
			"name": "symbol",
			"outputs": [
				{
					"internalType": "string",
					"name": "",
					"type": "string"
				}
			],
			"stateMutability": "view",
			"type": "function"
		},
		{
			"inputs": [],
			"name": "totalSupply",
			"outputs": [
				{
					"internalType": "uint256",
					"name": "",
					"type": "uint256"
				}
			],
			"stateMutability": "view",
			"type": "function"
		},
		{
			"inputs": [],
			"name": "treasuryFeeBP",
			"outputs": [
				{
					"internalType": "uint256",
					"name": "",
					"type": "uint256"
				}
			],
			"stateMutability": "view",
			"type": "function"
		},
		{
			"inputs": [],
			"name": "treasuryWallet",
			"outputs": [
				{
					"internalType": "address",
					"name": "",
					"type": "address"
				}
			],
			"stateMutability": "view",
			"type": "function"
		},
		{
			"inputs": [],
			"name": "vault",
			"outputs": [
				{
					"internalType": "contract DividendVault",
					"name": "",
					"type": "address"
				}
			],
			"stateMutability": "view",
			"type": "function"
		}
	],
	"storageLayout": {
		"storage": [
			{
				"astId": 98,
				"contract": "contracts/BITKWANZA.sol:BITKWANZA",
				"label": "_balances",
				"offset": 0,
				"slot": "0",
				"type": "t_mapping(t_address,t_uint256)"
			},
			{
				"astId": 104,
				"contract": "contracts/BITKWANZA.sol:BITKWANZA",
				"label": "_allowances",
				"offset": 0,
				"slot": "1",
				"type": "t_mapping(t_address,t_mapping(t_address,t_uint256))"
			},
			{
				"astId": 106,
				"contract": "contracts/BITKWANZA.sol:BITKWANZA",
				"label": "_totalSupply",
				"offset": 0,
				"slot": "2",
				"type": "t_uint256"
			},
			{
				"astId": 108,
				"contract": "contracts/BITKWANZA.sol:BITKWANZA",
				"label": "_name",
				"offset": 0,
				"slot": "3",
				"type": "t_string_storage"
			},
			{
				"astId": 110,
				"contract": "contracts/BITKWANZA.sol:BITKWANZA",
				"label": "_symbol",
				"offset": 0,
				"slot": "4",
				"type": "t_string_storage"
			},
			{
				"astId": 531,
				"contract": "contracts/BITKWANZA.sol:BITKWANZA",
				"label": "_owner",
				"offset": 0,
				"slot": "5",
				"type": "t_address"
			},
			{
				"astId": 657,
				"contract": "contracts/BITKWANZA.sol:BITKWANZA",
				"label": "foundingFeeBP",
				"offset": 0,
				"slot": "6",
				"type": "t_uint256"
			},
			{
				"astId": 660,
				"contract": "contracts/BITKWANZA.sol:BITKWANZA",
				"label": "rewardFeeBP",
				"offset": 0,
				"slot": "7",
				"type": "t_uint256"
			},
			{
				"astId": 663,
				"contract": "contracts/BITKWANZA.sol:BITKWANZA",
				"label": "treasuryFeeBP",
				"offset": 0,
				"slot": "8",
				"type": "t_uint256"
			},
			{
				"astId": 666,
				"contract": "contracts/BITKWANZA.sol:BITKWANZA",
				"label": "feesEnabled",
				"offset": 0,
				"slot": "9",
				"type": "t_bool"
			},
			{
				"astId": 668,
				"contract": "contracts/BITKWANZA.sol:BITKWANZA",
				"label": "foundingWallet",
				"offset": 1,
				"slot": "9",
				"type": "t_address"
			},
			{
				"astId": 670,
				"contract": "contracts/BITKWANZA.sol:BITKWANZA",
				"label": "treasuryWallet",
				"offset": 0,
				"slot": "10",
				"type": "t_address"
			},
			{
				"astId": 673,
				"contract": "contracts/BITKWANZA.sol:BITKWANZA",
				"label": "vault",
				"offset": 0,
				"slot": "11",
				"type": "t_contract(DividendVault)1234"
			},
			{
				"astId": 677,
				"contract": "contracts/BITKWANZA.sol:BITKWANZA",
				"label": "isFeeExempt",
				"offset": 0,
				"slot": "12",
				"type": "t_mapping(t_address,t_bool)"
			}
		],
		"types": {
			"t_address": {
				"encoding": "inplace",
				"label": "address",
				"numberOfBytes": "20"
			},
			"t_bool": {
				"encoding": "inplace",
				"label": "bool",
				"numberOfBytes": "1"
			},
			"t_contract(DividendVault)1234": {
				"encoding": "inplace",
				"label": "contract DividendVault",
				"numberOfBytes": "20"
			},
			"t_mapping(t_address,t_bool)": {
				"encoding": "mapping",
				"key": "t_address",
				"label": "mapping(address => bool)",
				"numberOfBytes": "32",
				"value": "t_bool"
			},
			"t_mapping(t_address,t_mapping(t_address,t_uint256))": {
				"encoding": "mapping",
				"key": "t_address",
				"label": "mapping(address => mapping(address => uint256))",
				"numberOfBytes": "32",
				"value": "t_mapping(t_address,t_uint256)"
			},
			"t_mapping(t_address,t_uint256)": {
				"encoding": "mapping",
				"key": "t_address",
				"label": "mapping(address => uint256)",
				"numberOfBytes": "32",
				"value": "t_uint256"
			},
			"t_string_storage": {
				"encoding": "bytes",
				"label": "string",
				"numberOfBytes": "32"
			},
			"t_uint256": {
				"encoding": "inplace",
				"label": "uint256",
				"numberOfBytes": "32"
			}
		}
	},
	"web3Deploy": "var _foundingWallet = /* var of type address here */ ;\nvar _treasuryWallet = /* var of type address here */ ;\nvar bitkwanzaContract = new web3.eth.Contract([{\"inputs\":[{\"internalType\":\"address\",\"name\":\"_foundingWallet\",\"type\":\"address\"},{\"internalType\":\"address\",\"name\":\"_treasuryWallet\",\"type\":\"address\"}],\"stateMutability\":\"nonpayable\",\"type\":\"constructor\"},{\"anonymous\":false,\"inputs\":[{\"indexed\":true,\"internalType\":\"address\",\"name\":\"owner\",\"type\":\"address\"},{\"indexed\":true,\"internalType\":\"address\",\"name\":\"spender\",\"type\":\"address\"},{\"indexed\":false,\"internalType\":\"uint256\",\"name\":\"value\",\"type\":\"uint256\"}],\"name\":\"Approval\",\"type\":\"event\"},{\"anonymous\":false,\"inputs\":[{\"indexed\":true,\"internalType\":\"address\",\"name\":\"previousOwner\",\"type\":\"address\"},{\"indexed\":true,\"internalType\":\"address\",\"name\":\"newOwner\",\"type\":\"address\"}],\"name\":\"OwnershipTransferred\",\"type\":\"event\"},{\"anonymous\":false,\"inputs\":[{\"indexed\":true,\"internalType\":\"address\",\"name\":\"from\",\"type\":\"address\"},{\"indexed\":true,\"internalType\":\"address\",\"name\":\"to\",\"type\":\"address\"},{\"indexed\":false,\"internalType\":\"uint256\",\"name\":\"value\",\"type\":\"uint256\"}],\"name\":\"Transfer\",\"type\":\"event\"},{\"inputs\":[],\"name\":\"MAX_FEE_BP\",\"outputs\":[{\"internalType\":\"uint256\",\"name\":\"\",\"type\":\"uint256\"}],\"stateMutability\":\"view\",\"type\":\"function\"},{\"inputs\":[],\"name\":\"MAX_SUPPLY\",\"outputs\":[{\"internalType\":\"uint256\",\"name\":\"\",\"type\":\"uint256\"}],\"stateMutability\":\"view\",\"type\":\"function\"},{\"inputs\":[{\"internalType\":\"address\",\"name\":\"owner\",\"type\":\"address\"},{\"internalType\":\"address\",\"name\":\"spender\",\"type\":\"address\"}],\"name\":\"allowance\",\"outputs\":[{\"internalType\":\"uint256\",\"name\":\"\",\"type\":\"uint256\"}],\"stateMutability\":\"view\",\"type\":\"function\"},{\"inputs\":[{\"internalType\":\"address\",\"name\":\"spender\",\"type\":\"address\"},{\"internalType\":\"uint256\",\"name\":\"amount\",\"type\":\"uint256\"}],\"name\":\"approve\",\"outputs\":[{\"internalType\":\"bool\",\"name\":\"\",\"type\":\"bool\"}],\"stateMutability\":\"nonpayable\",\"type\":\"function\"},{\"inputs\":[{\"internalType\":\"address\",\"name\":\"account\",\"type\":\"address\"}],\"name\":\"balanceOf\",\"outputs\":[{\"internalType\":\"uint256\",\"name\":\"\",\"type\":\"uint256\"}],\"stateMutability\":\"view\",\"type\":\"function\"},{\"inputs\":[],\"name\":\"decimals\",\"outputs\":[{\"internalType\":\"uint8\",\"name\":\"\",\"type\":\"uint8\"}],\"stateMutability\":\"view\",\"type\":\"function\"},{\"inputs\":[],\"name\":\"feesEnabled\",\"outputs\":[{\"internalType\":\"bool\",\"name\":\"\",\"type\":\"bool\"}],\"stateMutability\":\"view\",\"type\":\"function\"},{\"inputs\":[],\"name\":\"foundingFeeBP\",\"outputs\":[{\"internalType\":\"uint256\",\"name\":\"\",\"type\":\"uint256\"}],\"stateMutability\":\"view\",\"type\":\"function\"},{\"inputs\":[],\"name\":\"foundingWallet\",\"outputs\":[{\"internalType\":\"address\",\"name\":\"\",\"type\":\"address\"}],\"stateMutability\":\"view\",\"type\":\"function\"},{\"inputs\":[{\"internalType\":\"address\",\"name\":\"\",\"type\":\"address\"}],\"name\":\"isFeeExempt\",\"outputs\":[{\"internalType\":\"bool\",\"name\":\"\",\"type\":\"bool\"}],\"stateMutability\":\"view\",\"type\":\"function\"},{\"inputs\":[],\"name\":\"name\",\"outputs\":[{\"internalType\":\"string\",\"name\":\"\",\"type\":\"string\"}],\"stateMutability\":\"view\",\"type\":\"function\"},{\"inputs\":[],\"name\":\"owner\",\"outputs\":[{\"internalType\":\"address\",\"name\":\"\",\"type\":\"address\"}],\"stateMutability\":\"view\",\"type\":\"function\"},{\"inputs\":[],\"name\":\"renounceOwnership\",\"outputs\":[],\"stateMutability\":\"nonpayable\",\"type\":\"function\"},{\"inputs\":[],\"name\":\"rewardFeeBP\",\"outputs\":[{\"internalType\":\"uint256\",\"name\":\"\",\"type\":\"uint256\"}],\"stateMutability\":\"view\",\"type\":\"function\"},{\"inputs\":[{\"internalType\":\"address\",\"name\":\"account\",\"type\":\"address\"},{\"internalType\":\"bool\",\"name\":\"exempt\",\"type\":\"bool\"}],\"name\":\"setFeeExempt\",\"outputs\":[],\"stateMutability\":\"nonpayable\",\"type\":\"function\"},{\"inputs\":[{\"internalType\":\"bool\",\"name\":\"enabled\",\"type\":\"bool\"}],\"name\":\"setFeesEnabled\",\"outputs\":[],\"stateMutability\":\"nonpayable\",\"type\":\"function\"},{\"inputs\":[{\"internalType\":\"address\",\"name\":\"wallet\",\"type\":\"address\"}],\"name\":\"setFoundingWallet\",\"outputs\":[],\"stateMutability\":\"nonpayable\",\"type\":\"function\"},{\"inputs\":[{\"internalType\":\"address\",\"name\":\"wallet\",\"type\":\"address\"}],\"name\":\"setTreasuryWallet\",\"outputs\":[],\"stateMutability\":\"nonpayable\",\"type\":\"function\"},{\"inputs\":[],\"name\":\"symbol\",\"outputs\":[{\"internalType\":\"string\",\"name\":\"\",\"type\":\"string\"}],\"stateMutability\":\"view\",\"type\":\"function\"},{\"inputs\":[],\"name\":\"totalSupply\",\"outputs\":[{\"internalType\":\"uint256\",\"name\":\"\",\"type\":\"uint256\"}],\"stateMutability\":\"view\",\"type\":\"function\"},{\"inputs\":[{\"internalType\":\"address\",\"name\":\"to\",\"type\":\"address\"},{\"internalType\":\"uint256\",\"name\":\"amount\",\"type\":\"uint256\"}],\"name\":\"transfer\",\"outputs\":[{\"internalType\":\"bool\",\"name\":\"\",\"type\":\"bool\"}],\"stateMutability\":\"nonpayable\",\"type\":\"function\"},{\"inputs\":[{\"internalType\":\"address\",\"name\":\"from\",\"type\":\"address\"},{\"internalType\":\"address\",\"name\":\"to\",\"type\":\"address\"},{\"internalType\":\"uint256\",\"name\":\"amount\",\"type\":\"uint256\"}],\"name\":\"transferFrom\",\"outputs\":[{\"internalType\":\"bool\",\"name\":\"\",\"type\":\"bool\"}],\"stateMutability\":\"nonpayable\",\"type\":\"function\"},{\"inputs\":[{\"internalType\":\"address\",\"name\":\"newOwner\",\"type\":\"address\"}],\"name\":\"transferOwnership\",\"outputs\":[],\"stateMutability\":\"nonpayable\",\"type\":\"function\"},{\"inputs\":[],\"name\":\"treasuryFeeBP\",\"outputs\":[{\"internalType\":\"uint256\",\"name\":\"\",\"type\":\"uint256\"}],\"stateMutability\":\"view\",\"type\":\"function\"},{\"inputs\":[],\"name\":\"treasuryWallet\",\"outputs\":[{\"internalType\":\"address\",\"name\":\"\",\"type\":\"address\"}],\"stateMutability\":\"view\",\"type\":\"function\"},{\"inputs\":[],\"name\":\"vault\",\"outputs\":[{\"internalType\":\"contract DividendVault\",\"name\":\"\",\"type\":\"address\"}],\"stateMutability\":\"view\",\"type\":\"function\"}]);\nvar bitkwanza = bitkwanzaContract.deploy({\n     data: '0x60806040526005600655600160075560646008556001600960006101000a81548160ff0219169083151502179055503480156200003b57600080fd5b5060405162003d2c38038062003d2c833981810160405281019062000061919062000527565b336040518060400160405280600981526020017f4249544b57414e5a4100000000000000000000000000000000000000000000008152506040518060400160405280600381526020017f424b5a00000000000000000000000000000000000000000000000000000000008152508160039081620000df9190620007e8565b508060049081620000f19190620007e8565b5050506200010581620002d960201b60201c565b5081600960016101000a81548173ffffffffffffffffffffffffffffffffffffffff021916908373ffffffffffffffffffffffffffffffffffffffff16021790555080600a60006101000a81548173ffffffffffffffffffffffffffffffffffffffff021916908373ffffffffffffffffffffffffffffffffffffffff16021790555030816040516200019890620004af565b620001a5929190620008e0565b604051809103906000f080158015620001c2573d6000803e3d6000fd5b50600b60006101000a81548173ffffffffffffffffffffffffffffffffffffffff021916908373ffffffffffffffffffffffffffffffffffffffff16021790555062000221336b033b2e3c9fd0803ce80000006200039f60201b60201c565b6001600c60003373ffffffffffffffffffffffffffffffffffffffff1673ffffffffffffffffffffffffffffffffffffffff16815260200190815260200160002060006101000a81548160ff0219169083151502179055506001600c60003073ffffffffffffffffffffffffffffffffffffffff1673ffffffffffffffffffffffffffffffffffffffff16815260200190815260200160002060006101000a81548160ff0219169083151502179055505050620009a5565b6000600560009054906101000a900473ffffffffffffffffffffffffffffffffffffffff16905081600560006101000a81548173ffffffffffffffffffffffffffffffffffffffff021916908373ffffffffffffffffffffffffffffffffffffffff1602179055508173ffffffffffffffffffffffffffffffffffffffff168173ffffffffffffffffffffffffffffffffffffffff167f8be0079c531659141344cd1fd0a4f28419497f9722a3daafe3b4186f6b6457e060405160405180910390a35050565b620003b360008383620004a560201b60201c565b8060026000828254620003c791906200093c565b92505081905550806000808473ffffffffffffffffffffffffffffffffffffffff1673ffffffffffffffffffffffffffffffffffffffff16815260200190815260200160002060008282546200041e91906200093c565b925050819055508173ffffffffffffffffffffffffffffffffffffffff16600073ffffffffffffffffffffffffffffffffffffffff167fddf252ad1be2c89b69c2b068fc378daa952ba7f163c4a11628f55a4df523b3ef8360405162000485919062000988565b60405180910390a3620004a160008383620004aa60201b60201c565b5050565b505050565b505050565b611a6b80620022c183390190565b600080fd5b600073ffffffffffffffffffffffffffffffffffffffff82169050919050565b6000620004ef82620004c2565b9050919050565b6200050181620004e2565b81146200050d57600080fd5b50565b6000815190506200052181620004f6565b92915050565b60008060408385031215620005415762000540620004bd565b5b6000620005518582860162000510565b9250506020620005648582860162000510565b9150509250929050565b600081519050919050565b7f4e487b7100000000000000000000000000000000000000000000000000000000600052604160045260246000fd5b7f4e487b7100000000000000000000000000000000000000000000000000000000600052602260045260246000fd5b60006002820490506001821680620005f057607f821691505b602082108103620006065762000605620005a8565b5b50919050565b60008190508160005260206000209050919050565b60006020601f8301049050919050565b600082821b905092915050565b600060088302620006707fffffffffffffffffffffffffffffffffffffffffffffffffffffffffffffffff8262000631565b6200067c868362000631565b95508019841693508086168417925050509392505050565b6000819050919050565b6000819050919050565b6000620006c9620006c3620006bd8462000694565b6200069e565b62000694565b9050919050565b6000819050919050565b620006e583620006a8565b620006fd620006f482620006d0565b8484546200063e565b825550505050565b600090565b6200071462000705565b62000721818484620006da565b505050565b5b8181101562000749576200073d6000826200070a565b60018101905062000727565b5050565b601f821115620007985762000762816200060c565b6200076d8462000621565b810160208510156200077d578190505b620007956200078c8562000621565b83018262000726565b50505b505050565b600082821c905092915050565b6000620007bd600019846008026200079d565b1980831691505092915050565b6000620007d88383620007aa565b9150826002028217905092915050565b620007f3826200056e565b67ffffffffffffffff8111156200080f576200080e62000579565b5b6200081b8254620005d7565b620008288282856200074d565b600060209050601f8311600181146200086057600084156200084b578287015190505b620008578582620007ca565b865550620008c7565b601f19841662000870866200060c565b60005b828110156200089a5784890151825560018201915060208501945060208101905062000873565b86831015620008ba5784890151620008b6601f891682620007aa565b8355505b6001600288020188555050505b505050505050565b620008da81620004e2565b82525050565b6000604082019050620008f76000830185620008cf565b620009066020830184620008cf565b9392505050565b7f4e487b7100000000000000000000000000000000000000000000000000000000600052601160045260246000fd5b6000620009498262000694565b9150620009568362000694565b92508282019050808211156200097157620009706200090d565b5b92915050565b620009828162000694565b82525050565b60006020820190506200099f600083018462000977565b92915050565b61190c80620009b56000396000f3fe608060405234801561001057600080fd5b506004361061018e5760003560e01c8063715018a6116100de578063a8602fea11610097578063dd62ed3e11610071578063dd62ed3e14610465578063f2a4259d14610495578063f2fde38b146104b3578063fbfa77cf146104cf5761018e565b8063a8602fea146103fd578063a901dd9214610419578063a9059cbb146104355761018e565b8063715018a61461035f578063773ec8ac146103695780638da5cb5b146103875780638ebfc796146103a557806395d89b41146103c1578063a64e4f8a146103df5761018e565b80632c1597e41161014b5780633f4218e0116101255780633f4218e0146102c35780634626402b146102f35780636eb3abe01461031157806370a082311461032f5761018e565b80632c1597e414610269578063313ce5671461028757806332cb6b0c146102a55761018e565b806306fdde0314610193578063095ea7b3146101b15780630d7fcd1a146101e157806315ce462d146101ff57806318160ddd1461021b57806323b872dd14610239575b600080fd5b61019b6104ed565b6040516101a89190611213565b60405180910390f35b6101cb60048036038101906101c691906112ce565b61057f565b6040516101d89190611329565b60405180910390f35b6101e961059d565b6040516101f69190611353565b60405180910390f35b6102196004803603810190610214919061136e565b6105a3565b005b610223610663565b6040516102309190611353565b60405180910390f35b610253600480360381019061024e919061139b565b61066d565b6040516102609190611329565b60405180910390f35b610271610697565b60405161027e9190611353565b60405180910390f35b61028f61069d565b60405161029c919061140a565b60405180910390f35b6102ad6106a6565b6040516102ba9190611353565b60405180910390f35b6102dd60048036038101906102d8919061136e565b6106b6565b6040516102ea9190611329565b60405180910390f35b6102fb6106d6565b6040516103089190611434565b60405180910390f35b6103196106fc565b6040516103269190611353565b60405180910390f35b6103496004803603810190610344919061136e565b610701565b6040516103569190611353565b60405180910390f35b610367610749565b005b6103716107d1565b60405161037e9190611434565b60405180910390f35b61038f6107f7565b60405161039c9190611434565b60405180910390f35b6103bf60048036038101906103ba919061147b565b610821565b005b6103c96108f8565b6040516103d69190611213565b60405180910390f35b6103e761098a565b6040516103f49190611329565b60405180910390f35b6104176004803603810190610412919061136e565b61099d565b005b610433600480360381019061042e91906114bb565b610a5d565b005b61044f600480360381019061044a91906112ce565b610af6565b60405161045c9190611329565b60405180910390f35b61047f600480360381019061047a91906114e8565b610b14565b60405161048c9190611353565b60405180910390f35b61049d610b9b565b6040516104aa9190611353565b60405180910390f35b6104cd60048036038101906104c8919061136e565b610ba1565b005b6104d7610c98565b6040516104e49190611587565b60405180910390f35b6060600380546104fc906115d1565b80601f0160208091040260200160405190810160405280929190818152602001828054610528906115d1565b80156105755780601f1061054a57610100808354040283529160200191610575565b820191906000526020600020905b81548152906001019060200180831161055857829003601f168201915b5050505050905090565b600061059361058c610cbe565b8484610cc6565b6001905092915050565b60085481565b6105ab610cbe565b73ffffffffffffffffffffffffffffffffffffffff166105c96107f7565b73ffffffffffffffffffffffffffffffffffffffff161461061f576040517f08c379a00000000000000000000000000000000000000000000000000000000081526004016106169061164e565b60405180910390fd5b80600960016101000a81548173ffffffffffffffffffffffffffffffffffffffff021916908373ffffffffffffffffffffffffffffffffffffffff16021790555050565b6000600254905090565b60006106818461067b610cbe565b84610e8f565b61068c848484610f1b565b600190509392505050565b60065481565b60006012905090565b6b033b2e3c9fd0803ce800000081565b600c6020528060005260406000206000915054906101000a900460ff1681565b600a60009054906101000a900473ffffffffffffffffffffffffffffffffffffffff1681565b60fa81565b60008060008373ffffffffffffffffffffffffffffffffffffffff1673ffffffffffffffffffffffffffffffffffffffff168152602001908152602001600020549050919050565b610751610cbe565b73ffffffffffffffffffffffffffffffffffffffff1661076f6107f7565b73ffffffffffffffffffffffffffffffffffffffff16146107c5576040517f08c379a00000000000000000000000000000000000000000000000000000000081526004016107bc9061164e565b60405180910390fd5b6107cf60006110b3565b565b600960019054906101000a900473ffffffffffffffffffffffffffffffffffffffff1681565b6000600560009054906101000a900473ffffffffffffffffffffffffffffffffffffffff16905090565b610829610cbe565b73ffffffffffffffffffffffffffffffffffffffff166108476107f7565b73ffffffffffffffffffffffffffffffffffffffff161461089d576040517f08c379a00000000000000000000000000000000000000000000000000000000081526004016108949061164e565b60405180910390fd5b80600c60008473ffffffffffffffffffffffffffffffffffffffff1673ffffffffffffffffffffffffffffffffffffffff16815260200190815260200160002060006101000a81548160ff0219169083151502179055505050565b606060048054610907906115d1565b80601f0160208091040260200160405190810160405280929190818152602001828054610933906115d1565b80156109805780601f1061095557610100808354040283529160200191610980565b820191906000526020600020905b81548152906001019060200180831161096357829003601f168201915b5050505050905090565b600960009054906101000a900460ff1681565b6109a5610cbe565b73ffffffffffffffffffffffffffffffffffffffff166109c36107f7565b73ffffffffffffffffffffffffffffffffffffffff1614610a19576040517f08c379a0000000000000000000000000000000000000000000000000000000008152600401610a109061164e565b60405180910390fd5b80600a60006101000a81548173ffffffffffffffffffffffffffffffffffffffff021916908373ffffffffffffffffffffffffffffffffffffffff16021790555050565b610a65610cbe565b73ffffffffffffffffffffffffffffffffffffffff16610a836107f7565b73ffffffffffffffffffffffffffffffffffffffff1614610ad9576040517f08c379a0000000000000000000000000000000000000000000000000000000008152600401610ad09061164e565b60405180910390fd5b80600960006101000a81548160ff02191690831515021790555050565b6000610b0a610b03610cbe565b8484610f1b565b6001905092915050565b6000600160008473ffffffffffffffffffffffffffffffffffffffff1673ffffffffffffffffffffffffffffffffffffffff16815260200190815260200160002060008373ffffffffffffffffffffffffffffffffffffffff1673ffffffffffffffffffffffffffffffffffffffff16815260200190815260200160002054905092915050565b60075481565b610ba9610cbe565b73ffffffffffffffffffffffffffffffffffffffff16610bc76107f7565b73ffffffffffffffffffffffffffffffffffffffff1614610c1d576040517f08c379a0000000000000000000000000000000000000000000000000000000008152600401610c149061164e565b60405180910390fd5b600073ffffffffffffffffffffffffffffffffffffffff168173ffffffffffffffffffffffffffffffffffffffff1603610c8c576040517f08c379a0000000000000000000000000000000000000000000000000000000008152600401610c83906116e0565b60405180910390fd5b610c95816110b3565b50565b600b60009054906101000a900473ffffffffffffffffffffffffffffffffffffffff1681565b600033905090565b600073ffffffffffffffffffffffffffffffffffffffff168373ffffffffffffffffffffffffffffffffffffffff1603610d35576040517f08c379a0000000000000000000000000000000000000000000000000000000008152600401610d2c9061174c565b60405180910390fd5b600073ffffffffffffffffffffffffffffffffffffffff168273ffffffffffffffffffffffffffffffffffffffff1603610da4576040517f08c379a0000000000000000000000000000000000000000000000000000000008152600401610d9b906117b8565b60405180910390fd5b80600160008573ffffffffffffffffffffffffffffffffffffffff1673ffffffffffffffffffffffffffffffffffffffff16815260200190815260200160002060008473ffffffffffffffffffffffffffffffffffffffff1673ffffffffffffffffffffffffffffffffffffffff168152602001908152602001600020819055508173ffffffffffffffffffffffffffffffffffffffff168373ffffffffffffffffffffffffffffffffffffffff167f8c5be1e5ebec7d5bd14f71427d1e84f3dd0314c0f7b2291e5b200ac8c7c3b92583604051610e829190611353565b60405180910390a3505050565b6000610e9b8484610b14565b90507fffffffffffffffffffffffffffffffffffffffffffffffffffffffffffffffff8114610f155781811015610f07576040517f08c379a0000000000000000000000000000000000000000000000000000000008152600401610efe90611824565b60405180910390fd5b610f148484848403610cc6565b5b50505050565b610f26838383611179565b60008060008573ffffffffffffffffffffffffffffffffffffffff1673ffffffffffffffffffffffffffffffffffffffff16815260200190815260200160002054905081811015610fac576040517f08c379a0000000000000000000000000000000000000000000000000000000008152600401610fa3906118b6565b60405180910390fd5b8181036000808673ffffffffffffffffffffffffffffffffffffffff1673ffffffffffffffffffffffffffffffffffffffff16815260200190815260200160002081905550816000808573ffffffffffffffffffffffffffffffffffffffff1673ffffffffffffffffffffffffffffffffffffffff168152602001908152602001600020600082825401925050819055508273ffffffffffffffffffffffffffffffffffffffff168473ffffffffffffffffffffffffffffffffffffffff167fddf252ad1be2c89b69c2b068fc378daa952ba7f163c4a11628f55a4df523b3ef8460405161109a9190611353565b60405180910390a36110ad84848461117e565b50505050565b6000600560009054906101000a900473ffffffffffffffffffffffffffffffffffffffff16905081600560006101000a81548173ffffffffffffffffffffffffffffffffffffffff021916908373ffffffffffffffffffffffffffffffffffffffff1602179055508173ffffffffffffffffffffffffffffffffffffffff168173ffffffffffffffffffffffffffffffffffffffff167f8be0079c531659141344cd1fd0a4f28419497f9722a3daafe3b4186f6b6457e060405160405180910390a35050565b505050565b505050565b600081519050919050565b600082825260208201905092915050565b60005b838110156111bd5780820151818401526020810190506111a2565b60008484015250505050565b6000601f19601f8301169050919050565b60006111e582611183565b6111ef818561118e565b93506111ff81856020860161119f565b611208816111c9565b840191505092915050565b6000602082019050818103600083015261122d81846111da565b905092915050565b600080fd5b600073ffffffffffffffffffffffffffffffffffffffff82169050919050565b60006112658261123a565b9050919050565b6112758161125a565b811461128057600080fd5b50565b6000813590506112928161126c565b92915050565b6000819050919050565b6112ab81611298565b81146112b657600080fd5b50565b6000813590506112c8816112a2565b92915050565b600080604083850312156112e5576112e4611235565b5b60006112f385828601611283565b9250506020611304858286016112b9565b9150509250929050565b60008115159050919050565b6113238161130e565b82525050565b600060208201905061133e600083018461131a565b92915050565b61134d81611298565b82525050565b60006020820190506113686000830184611344565b92915050565b60006020828403121561138457611383611235565b5b600061139284828501611283565b91505092915050565b6000806000606084860312156113b4576113b3611235565b5b60006113c286828701611283565b93505060206113d386828701611283565b92505060406113e4868287016112b9565b9150509250925092565b600060ff82169050919050565b611404816113ee565b82525050565b600060208201905061141f60008301846113fb565b92915050565b61142e8161125a565b82525050565b60006020820190506114496000830184611425565b92915050565b6114588161130e565b811461146357600080fd5b50565b6000813590506114758161144f565b92915050565b6000806040838503121561149257611491611235565b5b60006114a085828601611283565b92505060206114b185828601611466565b9150509250929050565b6000602082840312156114d1576114d0611235565b5b60006114df84828501611466565b91505092915050565b600080604083850312156114ff576114fe611235565b5b600061150d85828601611283565b925050602061151e85828601611283565b9150509250929050565b6000819050919050565b600061154d6115486115438461123a565b611528565b61123a565b9050919050565b600061155f82611532565b9050919050565b600061157182611554565b9050919050565b61158181611566565b82525050565b600060208201905061159c6000830184611578565b92915050565b7f4e487b7100000000000000000000000000000000000000000000000000000000600052602260045260246000fd5b600060028204905060018216806115e957607f821691505b6020821081036115fc576115fb6115a2565b5b50919050565b7f4f776e61626c653a2063616c6c6572206973206e6f7420746865206f776e6572600082015250565b600061163860208361118e565b915061164382611602565b602082019050919050565b600060208201905081810360008301526116678161162b565b9050919050565b7f4f776e61626c653a206e6577206f776e6572206973207a65726f20616464726560008201527f7373000000000000000000000000000000000000000000000000000000000000602082015250565b60006116ca60228361118e565b91506116d58261166e565b604082019050919050565b600060208201905081810360008301526116f9816116bd565b9050919050565b7f45524332303a20617070726f76652066726f6d207a65726f2061646472657373600082015250565b600061173660208361118e565b915061174182611700565b602082019050919050565b6000602082019050818103600083015261176581611729565b9050919050565b7f45524332303a20617070726f766520746f207a65726f20616464726573730000600082015250565b60006117a2601e8361118e565b91506117ad8261176c565b602082019050919050565b600060208201905081810360008301526117d181611795565b9050919050565b7f45524332303a20696e73756666696369656e7420616c6c6f77616e6365000000600082015250565b600061180e601d8361118e565b9150611819826117d8565b602082019050919050565b6000602082019050818103600083015261183d81611801565b9050919050565b7f45524332303a207472616e7366657220616d6f756e742065786365656473206260008201527f616c616e63650000000000000000000000000000000000000000000000000000602082015250565b60006118a060268361118e565b91506118ab82611844565b604082019050919050565b600060208201905081810360008301526118cf81611893565b905091905056fea26469706673582212202ddeed8d2a94e127023a8c981853d246d8155ac6ee81356d8efe4e0efa4e461a64736f6c6343000814003360a06040523480156200001157600080fd5b5060405162001a6b38038062001a6b833981810160405281019062000037919062000236565b3362000049816200010860201b60201c565b508173ffffffffffffffffffffffffffffffffffffffff1660808173ffffffffffffffffffffffffffffffffffffffff168152505080600160006101000a81548173ffffffffffffffffffffffffffffffffffffffff021916908373ffffffffffffffffffffffffffffffffffffffff16021790555081600560006101000a81548173ffffffffffffffffffffffffffffffffffffffff021916908373ffffffffffffffffffffffffffffffffffffffff16021790555050506200027d565b60008060009054906101000a900473ffffffffffffffffffffffffffffffffffffffff169050816000806101000a81548173ffffffffffffffffffffffffffffffffffffffff021916908373ffffffffffffffffffffffffffffffffffffffff1602179055508173ffffffffffffffffffffffffffffffffffffffff168173ffffffffffffffffffffffffffffffffffffffff167f8be0079c531659141344cd1fd0a4f28419497f9722a3daafe3b4186f6b6457e060405160405180910390a35050565b600080fd5b600073ffffffffffffffffffffffffffffffffffffffff82169050919050565b6000620001fe82620001d1565b9050919050565b6200021081620001f1565b81146200021c57600080fd5b50565b600081519050620002308162000205565b92915050565b6000806040838503121562000250576200024f620001cc565b5b600062000260858286016200021f565b925050602062000273858286016200021f565b9150509250929050565b6080516117a1620002ca6000396000818161047c0152818161057a0152818161063d0152818161079e015281816109fc01528181610c5701528181610c7d0152610d3701526117a16000f3fe608060405234801561001057600080fd5b50600436106100f55760003560e01c80636869c67311610097578063a9aa22a011610066578063a9aa22a01461023d578063f02ae48f14610259578063f2fde38b14610275578063fc0c546a14610291576100f5565b80636869c673146101db5780636b4ed21b146101f7578063715018a6146102155780638da5cb5b1461021f576100f5565b80634e71d92d116100d35780634e71d92d146101775780634efa82b61461018157806361d027b31461019f57806366666aa9146101bd576100f5565b806316ad42ad146100fa57806318a5bbdc1461012a57806319c2dfec1461015b575b600080fd5b610114600480360381019061010f91906110a2565b6102af565b6040516101219190611110565b60405180910390f35b610144600480360381019061013f9190611157565b6102ee565b604051610152929190611193565b60405180910390f35b610175600480360381019061017091906110a2565b610312565b005b61017f6103a1565b005b6101896103ac565b604051610196919061121b565b60405180910390f35b6101a76103d2565b6040516101b49190611110565b60405180910390f35b6101c56103f8565b6040516101d29190611236565b60405180910390f35b6101f560048036038101906101f091906110a2565b6103fe565b005b6101ff6106de565b60405161020c9190611236565b60405180910390f35b61021d6106eb565b005b610227610773565b6040516102349190611110565b60405180910390f35b61025760048036038101906102529190611251565b61079c565b005b610273600480360381019061026e9190611157565b610a9e565b005b61028f600480360381019061028a9190611157565b610b5e565b005b610299610c55565b6040516102a691906112b2565b60405180910390f35b600381815481106102bf57600080fd5b906000526020600020016000915054906101000a900473ffffffffffffffffffffffffffffffffffffffff1681565b60026020528060005260406000206000915090508060000154908060010154905082565b600060038054905090506000805b828110801561032e57508382105b1561039b5761037a6003828154811061034a576103496112cd565b5b9060005260206000200160009054906101000a900473ffffffffffffffffffffffffffffffffffffffff16610c79565b81806103859061132b565b92505080806103939061132b565b915050610320565b50505050565b6103aa33610c79565b565b600560009054906101000a900473ffffffffffffffffffffffffffffffffffffffff1681565b600160009054906101000a900473ffffffffffffffffffffffffffffffffffffffff1681565b60045481565b610406610f9b565b73ffffffffffffffffffffffffffffffffffffffff16610424610773565b73ffffffffffffffffffffffffffffffffffffffff161461047a576040517f08c379a0000000000000000000000000000000000000000000000000000000008152600401610471906113d0565b60405180910390fd5b7f000000000000000000000000000000000000000000000000000000000000000073ffffffffffffffffffffffffffffffffffffffff166370a08231600160009054906101000a900473ffffffffffffffffffffffffffffffffffffffff166040518263ffffffff1660e01b81526004016104f59190611110565b602060405180830381865afa158015610512573d6000803e3d6000fd5b505050506040513d601f19601f820116820180604052508101906105369190611405565b811115610578576040517f08c379a000000000000000000000000000000000000000000000000000000000815260040161056f9061147e565b60405180910390fd5b7f000000000000000000000000000000000000000000000000000000000000000073ffffffffffffffffffffffffffffffffffffffff166323b872dd600160009054906101000a900473ffffffffffffffffffffffffffffffffffffffff1630846040518463ffffffff1660e01b81526004016105f79392919061149e565b6020604051808303816000875af1158015610616573d6000803e3d6000fd5b505050506040513d601f19601f8201168201806040525081019061063a919061150d565b507f000000000000000000000000000000000000000000000000000000000000000073ffffffffffffffffffffffffffffffffffffffff1663a9059cbb6000836040518363ffffffff1660e01b815260040161069792919061153a565b6020604051808303816000875af11580156106b6573d6000803e3d6000fd5b505050506040513d601f19601f820116820180604052508101906106da919061150d565b5050565b6000600380549050905090565b6106f3610f9b565b73ffffffffffffffffffffffffffffffffffffffff16610711610773565b73ffffffffffffffffffffffffffffffffffffffff1614610767576040517f08c379a000000000000000000000000000000000000000000000000000000000815260040161075e906113d0565b60405180910390fd5b6107716000610fa3565b565b60008060009054906101000a900473ffffffffffffffffffffffffffffffffffffffff16905090565b7f000000000000000000000000000000000000000000000000000000000000000073ffffffffffffffffffffffffffffffffffffffff163373ffffffffffffffffffffffffffffffffffffffff161461082a576040517f08c379a0000000000000000000000000000000000000000000000000000000008152600401610821906115af565b60405180910390fd5b600073ffffffffffffffffffffffffffffffffffffffff168273ffffffffffffffffffffffffffffffffffffffff16141580156108a957506000600260008473ffffffffffffffffffffffffffffffffffffffff1673ffffffffffffffffffffffffffffffffffffffff16815260200190815260200160002060000154145b15610912576003829080600181540180825580915050600190039060005260206000200160009091909190916101000a81548173ffffffffffffffffffffffffffffffffffffffff021916908373ffffffffffffffffffffffffffffffffffffffff1602179055505b600073ffffffffffffffffffffffffffffffffffffffff168173ffffffffffffffffffffffffffffffffffffffff161415801561099157506000600260008373ffffffffffffffffffffffffffffffffffffffff1673ffffffffffffffffffffffffffffffffffffffff16815260200190815260200160002060000154145b156109fa576003819080600181540180825580915050600190039060005260206000200160009091909190916101000a81548173ffffffffffffffffffffffffffffffffffffffff021916908373ffffffffffffffffffffffffffffffffffffffff1602179055505b7f000000000000000000000000000000000000000000000000000000000000000073ffffffffffffffffffffffffffffffffffffffff166370a08231306040518263ffffffff1660e01b8152600401610a539190611110565b602060405180830381865afa158015610a70573d6000803e3d6000fd5b505050506040513d601f19601f82011682018060405250810190610a949190611405565b6004819055505050565b610aa6610f9b565b73ffffffffffffffffffffffffffffffffffffffff16610ac4610773565b73ffffffffffffffffffffffffffffffffffffffff1614610b1a576040517f08c379a0000000000000000000000000000000000000000000000000000000008152600401610b11906113d0565b60405180910390fd5b80600560006101000a81548173ffffffffffffffffffffffffffffffffffffffff021916908373ffffffffffffffffffffffffffffffffffffffff16021790555050565b610b66610f9b565b73ffffffffffffffffffffffffffffffffffffffff16610b84610773565b73ffffffffffffffffffffffffffffffffffffffff1614610bda576040517f08c379a0000000000000000000000000000000000000000000000000000000008152600401610bd1906113d0565b60405180910390fd5b600073ffffffffffffffffffffffffffffffffffffffff168173ffffffffffffffffffffffffffffffffffffffff1603610c49576040517f08c379a0000000000000000000000000000000000000000000000000000000008152600401610c4090611641565b60405180910390fd5b610c5281610fa3565b50565b7f000000000000000000000000000000000000000000000000000000000000000081565b60007f000000000000000000000000000000000000000000000000000000000000000073ffffffffffffffffffffffffffffffffffffffff166370a08231836040518263ffffffff1660e01b8152600401610cd49190611110565b602060405180830381865afa158015610cf1573d6000803e3d6000fd5b505050506040513d601f19601f82011682018060405250810190610d159190611405565b90506000811480610d2857506000600454145b15610d335750610f98565b60007f000000000000000000000000000000000000000000000000000000000000000073ffffffffffffffffffffffffffffffffffffffff166318160ddd6040518163ffffffff1660e01b8152600401602060405180830381865afa158015610da0573d6000803e3d6000fd5b505050506040513d601f19601f82011682018060405250810190610dc49190611405565b82600454610dd29190611661565b610ddc91906116d2565b905060008103610ded575050610f98565b80600260008573ffffffffffffffffffffffffffffffffffffffff1673ffffffffffffffffffffffffffffffffffffffff1681526020019081526020016000206001016000828254610e3f9190611703565b9250508190555042600260008573ffffffffffffffffffffffffffffffffffffffff1673ffffffffffffffffffffffffffffffffffffffff168152602001908152602001600020600001819055508060046000828254610e9f9190611737565b92505081905550600560009054906101000a900473ffffffffffffffffffffffffffffffffffffffff1673ffffffffffffffffffffffffffffffffffffffff1663a9059cbb84836040518363ffffffff1660e01b8152600401610f0392919061153a565b6020604051808303816000875af1158015610f22573d6000803e3d6000fd5b505050506040513d601f19601f82011682018060405250810190610f46919061150d565b508273ffffffffffffffffffffffffffffffffffffffff167f47cee97cb7acd717b3c0aa1435d004cd5b3c8c57d70dbceb4e4458bbd60e39d482604051610f8d9190611236565b60405180910390a250505b50565b600033905090565b60008060009054906101000a900473ffffffffffffffffffffffffffffffffffffffff169050816000806101000a81548173ffffffffffffffffffffffffffffffffffffffff021916908373ffffffffffffffffffffffffffffffffffffffff1602179055508173ffffffffffffffffffffffffffffffffffffffff168173ffffffffffffffffffffffffffffffffffffffff167f8be0079c531659141344cd1fd0a4f28419497f9722a3daafe3b4186f6b6457e060405160405180910390a35050565b600080fd5b6000819050919050565b61107f8161106c565b811461108a57600080fd5b50565b60008135905061109c81611076565b92915050565b6000602082840312156110b8576110b7611067565b5b60006110c68482850161108d565b91505092915050565b600073ffffffffffffffffffffffffffffffffffffffff82169050919050565b60006110fa826110cf565b9050919050565b61110a816110ef565b82525050565b60006020820190506111256000830184611101565b92915050565b611134816110ef565b811461113f57600080fd5b50565b6000813590506111518161112b565b92915050565b60006020828403121561116d5761116c611067565b5b600061117b84828501611142565b91505092915050565b61118d8161106c565b82525050565b60006040820190506111a86000830185611184565b6111b56020830184611184565b9392505050565b6000819050919050565b60006111e16111dc6111d7846110cf565b6111bc565b6110cf565b9050919050565b60006111f3826111c6565b9050919050565b6000611205826111e8565b9050919050565b611215816111fa565b82525050565b6000602082019050611230600083018461120c565b92915050565b600060208201905061124b6000830184611184565b92915050565b6000806040838503121561126857611267611067565b5b600061127685828601611142565b925050602061128785828601611142565b9150509250929050565b600061129c826111e8565b9050919050565b6112ac81611291565b82525050565b60006020820190506112c760008301846112a3565b92915050565b7f4e487b7100000000000000000000000000000000000000000000000000000000600052603260045260246000fd5b7f4e487b7100000000000000000000000000000000000000000000000000000000600052601160045260246000fd5b60006113368261106c565b91507fffffffffffffffffffffffffffffffffffffffffffffffffffffffffffffffff8203611368576113676112fc565b5b600182019050919050565b600082825260208201905092915050565b7f4f776e61626c653a2063616c6c6572206973206e6f7420746865206f776e6572600082015250565b60006113ba602083611373565b91506113c582611384565b602082019050919050565b600060208201905081810360008301526113e9816113ad565b9050919050565b6000815190506113ff81611076565b92915050565b60006020828403121561141b5761141a611067565b5b6000611429848285016113f0565b91505092915050565b7f496e73756666696369656e742074726561737572790000000000000000000000600082015250565b6000611468601583611373565b915061147382611432565b602082019050919050565b600060208201905081810360008301526114978161145b565b9050919050565b60006060820190506114b36000830186611101565b6114c06020830185611101565b6114cd6040830184611184565b949350505050565b60008115159050919050565b6114ea816114d5565b81146114f557600080fd5b50565b600081519050611507816114e1565b92915050565b60006020828403121561152357611522611067565b5b6000611531848285016114f8565b91505092915050565b600060408201905061154f6000830185611101565b61155c6020830184611184565b9392505050565b7f4f6e6c7920746f6b656e00000000000000000000000000000000000000000000600082015250565b6000611599600a83611373565b91506115a482611563565b602082019050919050565b600060208201905081810360008301526115c88161158c565b9050919050565b7f4f776e61626c653a206e6577206f776e6572206973207a65726f20616464726560008201527f7373000000000000000000000000000000000000000000000000000000000000602082015250565b600061162b602283611373565b9150611636826115cf565b604082019050919050565b6000602082019050818103600083015261165a8161161e565b9050919050565b600061166c8261106c565b91506116778361106c565b92508282026116858161106c565b9150828204841483151761169c5761169b6112fc565b5b5092915050565b7f4e487b7100000000000000000000000000000000000000000000000000000000600052601260045260246000fd5b60006116dd8261106c565b91506116e88361106c565b9250826116f8576116f76116a3565b5b828204905092915050565b600061170e8261106c565b91506117198361106c565b9250828201905080821115611731576117306112fc565b5b92915050565b60006117428261106c565b915061174d8361106c565b9250828203905081811115611765576117646112fc565b5b9291505056fea26469706673582212202ba905e790e7947e20132cfcfe966f57bb99380fcf4c4885e2ae09bfcf38999c64736f6c63430008140033', \n     arguments: [\n          _foundingWallet,\n          _treasuryWallet,\n     ]\n}).send({\n     from: web3.eth.accounts[0], \n     gas: '4700000'\n   }, function (e, contract){\n    console.log(e, contract);\n    if (typeof contract.address !== 'undefined') {\n         console.log('Contract mined! address: ' + contract.address + ' transactionHash: ' + contract.transactionHash);\n    }\n })",
	"functionHashes": {
		"6eb3abe0": "MAX_FEE_BP()",
		"32cb6b0c": "MAX_SUPPLY()",
		"dd62ed3e": "allowance(address,address)",
		"095ea7b3": "approve(address,uint256)",
		"70a08231": "balanceOf(address)",
		"313ce567": "decimals()",
		"a64e4f8a": "feesEnabled()",
		"2c1597e4": "foundingFeeBP()",
		"773ec8ac": "foundingWallet()",
		"3f4218e0": "isFeeExempt(address)",
		"06fdde03": "name()",
		"8da5cb5b": "owner()",
		"715018a6": "renounceOwnership()",
		"f2a4259d": "rewardFeeBP()",
		"8ebfc796": "setFeeExempt(address,bool)",
		"a901dd92": "setFeesEnabled(bool)",
		"15ce462d": "setFoundingWallet(address)",
		"a8602fea": "setTreasuryWallet(address)",
		"95d89b41": "symbol()",
		"18160ddd": "totalSupply()",
		"a9059cbb": "transfer(address,uint256)",
		"23b872dd": "transferFrom(address,address,uint256)",
		"f2fde38b": "transferOwnership(address)",
		"0d7fcd1a": "treasuryFeeBP()",
		"4626402b": "treasuryWallet()",
		"fbfa77cf": "vault()"
	},
	"gasEstimates": {
		"Creation": {
			"codeDepositCost": "1282400",
			"executionCost": "infinite",
			"totalCost": "infinite"
		},
		"External": {
			"MAX_FEE_BP()": "418",
			"MAX_SUPPLY()": "419",
			"allowance(address,address)": "infinite",
			"approve(address,uint256)": "infinite",
			"balanceOf(address)": "2952",
			"decimals()": "411",
			"feesEnabled()": "2604",
			"foundingFeeBP()": "2475",
			"foundingWallet()": "2609",
			"isFeeExempt(address)": "2890",
			"name()": "infinite",
			"owner()": "2589",
			"renounceOwnership()": "30397",
			"rewardFeeBP()": "2495",
			"setFeeExempt(address,bool)": "27320",
			"setFeesEnabled(bool)": "26986",
			"setFoundingWallet(address)": "27102",
			"setTreasuryWallet(address)": "27007",
			"symbol()": "infinite",
			"totalSupply()": "2549",
			"transfer(address,uint256)": "infinite",
			"transferFrom(address,address,uint256)": "infinite",
			"transferOwnership(address)": "30808",
			"treasuryFeeBP()": "2497",
			"treasuryWallet()": "2581",
			"vault()": "infinite"
		},
		"Internal": {
			"_update(address,address,uint256)": "infinite"
		}
	},
	"devdoc": {
		"kind": "dev",
		"methods": {},
		"version": 1
	},
	"userdoc": {
		"kind": "user",
		"methods": {},
		"version": 1
	},
	"Runtime Bytecode": {
		"immutableReferences": {},
		"linkReferences": {},
		"object": "608060405234801561001057600080fd5b506004361061018e5760003560e01c8063715018a6116100de578063a8602fea11610097578063dd62ed3e11610071578063dd62ed3e14610465578063f2a4259d14610495578063f2fde38b146104b3578063fbfa77cf146104cf5761018e565b8063a8602fea146103fd578063a901dd9214610419578063a9059cbb146104355761018e565b8063715018a61461035f578063773ec8ac146103695780638da5cb5b146103875780638ebfc796146103a557806395d89b41146103c1578063a64e4f8a146103df5761018e565b80632c1597e41161014b5780633f4218e0116101255780633f4218e0146102c35780634626402b146102f35780636eb3abe01461031157806370a082311461032f5761018e565b80632c1597e414610269578063313ce5671461028757806332cb6b0c146102a55761018e565b806306fdde0314610193578063095ea7b3146101b15780630d7fcd1a146101e157806315ce462d146101ff57806318160ddd1461021b57806323b872dd14610239575b600080fd5b61019b6104ed565b6040516101a89190611213565b60405180910390f35b6101cb60048036038101906101c691906112ce565b61057f565b6040516101d89190611329565b60405180910390f35b6101e961059d565b6040516101f69190611353565b60405180910390f35b6102196004803603810190610214919061136e565b6105a3565b005b610223610663565b6040516102309190611353565b60405180910390f35b610253600480360381019061024e919061139b565b61066d565b6040516102609190611329565b60405180910390f35b610271610697565b60405161027e9190611353565b60405180910390f35b61028f61069d565b60405161029c919061140a565b60405180910390f35b6102ad6106a6565b6040516102ba9190611353565b60405180910390f35b6102dd60048036038101906102d8919061136e565b6106b6565b6040516102ea9190611329565b60405180910390f35b6102fb6106d6565b6040516103089190611434565b60405180910390f35b6103196106fc565b6040516103269190611353565b60405180910390f35b6103496004803603810190610344919061136e565b610701565b6040516103569190611353565b60405180910390f35b610367610749565b005b6103716107d1565b60405161037e9190611434565b60405180910390f35b61038f6107f7565b60405161039c9190611434565b60405180910390f35b6103bf60048036038101906103ba919061147b565b610821565b005b6103c96108f8565b6040516103d69190611213565b60405180910390f35b6103e761098a565b6040516103f49190611329565b60405180910390f35b6104176004803603810190610412919061136e565b61099d565b005b610433600480360381019061042e91906114bb565b610a5d565b005b61044f600480360381019061044a91906112ce565b610af6565b60405161045c9190611329565b60405180910390f35b61047f600480360381019061047a91906114e8565b610b14565b60405161048c9190611353565b60405180910390f35b61049d610b9b565b6040516104aa9190611353565b60405180910390f35b6104cd60048036038101906104c8919061136e565b610ba1565b005b6104d7610c98565b6040516104e49190611587565b60405180910390f35b6060600380546104fc906115d1565b80601f0160208091040260200160405190810160405280929190818152602001828054610528906115d1565b80156105755780601f1061054a57610100808354040283529160200191610575565b820191906000526020600020905b81548152906001019060200180831161055857829003601f168201915b5050505050905090565b600061059361058c610cbe565b8484610cc6565b6001905092915050565b60085481565b6105ab610cbe565b73ffffffffffffffffffffffffffffffffffffffff166105c96107f7565b73ffffffffffffffffffffffffffffffffffffffff161461061f576040517f08c379a00000000000000000000000000000000000000000000000000000000081526004016106169061164e565b60405180910390fd5b80600960016101000a81548173ffffffffffffffffffffffffffffffffffffffff021916908373ffffffffffffffffffffffffffffffffffffffff16021790555050565b6000600254905090565b60006106818461067b610cbe565b84610e8f565b61068c848484610f1b565b600190509392505050565b60065481565b60006012905090565b6b033b2e3c9fd0803ce800000081565b600c6020528060005260406000206000915054906101000a900460ff1681565b600a60009054906101000a900473ffffffffffffffffffffffffffffffffffffffff1681565b60fa81565b60008060008373ffffffffffffffffffffffffffffffffffffffff1673ffffffffffffffffffffffffffffffffffffffff168152602001908152602001600020549050919050565b610751610cbe565b73ffffffffffffffffffffffffffffffffffffffff1661076f6107f7565b73ffffffffffffffffffffffffffffffffffffffff16146107c5576040517f08c379a00000000000000000000000000000000000000000000000000000000081526004016107bc9061164e565b60405180910390fd5b6107cf60006110b3565b565b600960019054906101000a900473ffffffffffffffffffffffffffffffffffffffff1681565b6000600560009054906101000a900473ffffffffffffffffffffffffffffffffffffffff16905090565b610829610cbe565b73ffffffffffffffffffffffffffffffffffffffff166108476107f7565b73ffffffffffffffffffffffffffffffffffffffff161461089d576040517f08c379a00000000000000000000000000000000000000000000000000000000081526004016108949061164e565b60405180910390fd5b80600c60008473ffffffffffffffffffffffffffffffffffffffff1673ffffffffffffffffffffffffffffffffffffffff16815260200190815260200160002060006101000a81548160ff0219169083151502179055505050565b606060048054610907906115d1565b80601f0160208091040260200160405190810160405280929190818152602001828054610933906115d1565b80156109805780601f1061095557610100808354040283529160200191610980565b820191906000526020600020905b81548152906001019060200180831161096357829003601f168201915b5050505050905090565b600960009054906101000a900460ff1681565b6109a5610cbe565b73ffffffffffffffffffffffffffffffffffffffff166109c36107f7565b73ffffffffffffffffffffffffffffffffffffffff1614610a19576040517f08c379a0000000000000000000000000000000000000000000000000000000008152600401610a109061164e565b60405180910390fd5b80600a60006101000a81548173ffffffffffffffffffffffffffffffffffffffff021916908373ffffffffffffffffffffffffffffffffffffffff16021790555050565b610a65610cbe565b73ffffffffffffffffffffffffffffffffffffffff16610a836107f7565b73ffffffffffffffffffffffffffffffffffffffff1614610ad9576040517f08c379a0000000000000000000000000000000000000000000000000000000008152600401610ad09061164e565b60405180910390fd5b80600960006101000a81548160ff02191690831515021790555050565b6000610b0a610b03610cbe565b8484610f1b565b6001905092915050565b6000600160008473ffffffffffffffffffffffffffffffffffffffff1673ffffffffffffffffffffffffffffffffffffffff16815260200190815260200160002060008373ffffffffffffffffffffffffffffffffffffffff1673ffffffffffffffffffffffffffffffffffffffff16815260200190815260200160002054905092915050565b60075481565b610ba9610cbe565b73ffffffffffffffffffffffffffffffffffffffff16610bc76107f7565b73ffffffffffffffffffffffffffffffffffffffff1614610c1d576040517f08c379a0000000000000000000000000000000000000000000000000000000008152600401610c149061164e565b60405180910390fd5b600073ffffffffffffffffffffffffffffffffffffffff168173ffffffffffffffffffffffffffffffffffffffff1603610c8c576040517f08c379a0000000000000000000000000000000000000000000000000000000008152600401610c83906116e0565b60405180910390fd5b610c95816110b3565b50565b600b60009054906101000a900473ffffffffffffffffffffffffffffffffffffffff1681565b600033905090565b600073ffffffffffffffffffffffffffffffffffffffff168373ffffffffffffffffffffffffffffffffffffffff1603610d35576040517f08c379a0000000000000000000000000000000000000000000000000000000008152600401610d2c9061174c565b60405180910390fd5b600073ffffffffffffffffffffffffffffffffffffffff168273ffffffffffffffffffffffffffffffffffffffff1603610da4576040517f08c379a0000000000000000000000000000000000000000000000000000000008152600401610d9b906117b8565b60405180910390fd5b80600160008573ffffffffffffffffffffffffffffffffffffffff1673ffffffffffffffffffffffffffffffffffffffff16815260200190815260200160002060008473ffffffffffffffffffffffffffffffffffffffff1673ffffffffffffffffffffffffffffffffffffffff168152602001908152602001600020819055508173ffffffffffffffffffffffffffffffffffffffff168373ffffffffffffffffffffffffffffffffffffffff167f8c5be1e5ebec7d5bd14f71427d1e84f3dd0314c0f7b2291e5b200ac8c7c3b92583604051610e829190611353565b60405180910390a3505050565b6000610e9b8484610b14565b90507fffffffffffffffffffffffffffffffffffffffffffffffffffffffffffffffff8114610f155781811015610f07576040517f08c379a0000000000000000000000000000000000000000000000000000000008152600401610efe90611824565b60405180910390fd5b610f148484848403610cc6565b5b50505050565b610f26838383611179565b60008060008573ffffffffffffffffffffffffffffffffffffffff1673ffffffffffffffffffffffffffffffffffffffff16815260200190815260200160002054905081811015610fac576040517f08c379a0000000000000000000000000000000000000000000000000000000008152600401610fa3906118b6565b60405180910390fd5b8181036000808673ffffffffffffffffffffffffffffffffffffffff1673ffffffffffffffffffffffffffffffffffffffff16815260200190815260200160002081905550816000808573ffffffffffffffffffffffffffffffffffffffff1673ffffffffffffffffffffffffffffffffffffffff168152602001908152602001600020600082825401925050819055508273ffffffffffffffffffffffffffffffffffffffff168473ffffffffffffffffffffffffffffffffffffffff167fddf252ad1be2c89b69c2b068fc378daa952ba7f163c4a11628f55a4df523b3ef8460405161109a9190611353565b60405180910390a36110ad84848461117e565b50505050565b6000600560009054906101000a900473ffffffffffffffffffffffffffffffffffffffff16905081600560006101000a81548173ffffffffffffffffffffffffffffffffffffffff021916908373ffffffffffffffffffffffffffffffffffffffff1602179055508173ffffffffffffffffffffffffffffffffffffffff168173ffffffffffffffffffffffffffffffffffffffff167f8be0079c531659141344cd1fd0a4f28419497f9722a3daafe3b4186f6b6457e060405160405180910390a35050565b505050565b505050565b600081519050919050565b600082825260208201905092915050565b60005b838110156111bd5780820151818401526020810190506111a2565b60008484015250505050565b6000601f19601f8301169050919050565b60006111e582611183565b6111ef818561118e565b93506111ff81856020860161119f565b611208816111c9565b840191505092915050565b6000602082019050818103600083015261122d81846111da565b905092915050565b600080fd5b600073ffffffffffffffffffffffffffffffffffffffff82169050919050565b60006112658261123a565b9050919050565b6112758161125a565b811461128057600080fd5b50565b6000813590506112928161126c565b92915050565b6000819050919050565b6112ab81611298565b81146112b657600080fd5b50565b6000813590506112c8816112a2565b92915050565b600080604083850312156112e5576112e4611235565b5b60006112f385828601611283565b9250506020611304858286016112b9565b9150509250929050565b60008115159050919050565b6113238161130e565b82525050565b600060208201905061133e600083018461131a565b92915050565b61134d81611298565b82525050565b60006020820190506113686000830184611344565b92915050565b60006020828403121561138457611383611235565b5b600061139284828501611283565b91505092915050565b6000806000606084860312156113b4576113b3611235565b5b60006113c286828701611283565b93505060206113d386828701611283565b92505060406113e4868287016112b9565b9150509250925092565b600060ff82169050919050565b611404816113ee565b82525050565b600060208201905061141f60008301846113fb565b92915050565b61142e8161125a565b82525050565b60006020820190506114496000830184611425565b92915050565b6114588161130e565b811461146357600080fd5b50565b6000813590506114758161144f565b92915050565b6000806040838503121561149257611491611235565b5b60006114a085828601611283565b92505060206114b185828601611466565b9150509250929050565b6000602082840312156114d1576114d0611235565b5b60006114df84828501611466565b91505092915050565b600080604083850312156114ff576114fe611235565b5b600061150d85828601611283565b925050602061151e85828601611283565b9150509250929050565b6000819050919050565b600061154d6115486115438461123a565b611528565b61123a565b9050919050565b600061155f82611532565b9050919050565b600061157182611554565b9050919050565b61158181611566565b82525050565b600060208201905061159c6000830184611578565b92915050565b7f4e487b7100000000000000000000000000000000000000000000000000000000600052602260045260246000fd5b600060028204905060018216806115e957607f821691505b6020821081036115fc576115fb6115a2565b5b50919050565b7f4f776e61626c653a2063616c6c6572206973206e6f7420746865206f776e6572600082015250565b600061163860208361118e565b915061164382611602565b602082019050919050565b600060208201905081810360008301526116678161162b565b9050919050565b7f4f776e61626c653a206e6577206f776e6572206973207a65726f20616464726560008201527f7373000000000000000000000000000000000000000000000000000000000000602082015250565b60006116ca60228361118e565b91506116d58261166e565b604082019050919050565b600060208201905081810360008301526116f9816116bd565b9050919050565b7f45524332303a20617070726f76652066726f6d207a65726f2061646472657373600082015250565b600061173660208361118e565b915061174182611700565b602082019050919050565b6000602082019050818103600083015261176581611729565b9050919050565b7f45524332303a20617070726f766520746f207a65726f20616464726573730000600082015250565b60006117a2601e8361118e565b91506117ad8261176c565b602082019050919050565b600060208201905081810360008301526117d181611795565b9050919050565b7f45524332303a20696e73756666696369656e7420616c6c6f77616e6365000000600082015250565b600061180e601d8361118e565b9150611819826117d8565b602082019050919050565b6000602082019050818103600083015261183d81611801565b9050919050565b7f45524332303a207472616e7366657220616d6f756e742065786365656473206260008201527f616c616e63650000000000000000000000000000000000000000000000000000602082015250565b60006118a060268361118e565b91506118ab82611844565b604082019050919050565b600060208201905081810360008301526118cf81611893565b905091905056fea26469706673582212202ddeed8d2a94e127023a8c981853d246d8155ac6ee81356d8efe4e0efa4e461a64736f6c63430008140033",
		"opcodes": "PUSH1 0x80 PUSH1 0x40 MSTORE CALLVALUE DUP1 ISZERO PUSH2 0x10 JUMPI PUSH1 0x0 DUP1 REVERT JUMPDEST POP PUSH1 0x4 CALLDATASIZE LT PUSH2 0x18E JUMPI PUSH1 0x0 CALLDATALOAD PUSH1 0xE0 SHR DUP1 PUSH4 0x715018A6 GT PUSH2 0xDE JUMPI DUP1 PUSH4 0xA8602FEA GT PUSH2 0x97 JUMPI DUP1 PUSH4 0xDD62ED3E GT PUSH2 0x71 JUMPI DUP1 PUSH4 0xDD62ED3E EQ PUSH2 0x465 JUMPI DUP1 PUSH4 0xF2A4259D EQ PUSH2 0x495 JUMPI DUP1 PUSH4 0xF2FDE38B EQ PUSH2 0x4B3 JUMPI DUP1 PUSH4 0xFBFA77CF EQ PUSH2 0x4CF JUMPI PUSH2 0x18E JUMP JUMPDEST DUP1 PUSH4 0xA8602FEA EQ PUSH2 0x3FD JUMPI DUP1 PUSH4 0xA901DD92 EQ PUSH2 0x419 JUMPI DUP1 PUSH4 0xA9059CBB EQ PUSH2 0x435 JUMPI PUSH2 0x18E JUMP JUMPDEST DUP1 PUSH4 0x715018A6 EQ PUSH2 0x35F JUMPI DUP1 PUSH4 0x773EC8AC EQ PUSH2 0x369 JUMPI DUP1 PUSH4 0x8DA5CB5B EQ PUSH2 0x387 JUMPI DUP1 PUSH4 0x8EBFC796 EQ PUSH2 0x3A5 JUMPI DUP1 PUSH4 0x95D89B41 EQ PUSH2 0x3C1 JUMPI DUP1 PUSH4 0xA64E4F8A EQ PUSH2 0x3DF JUMPI PUSH2 0x18E JUMP JUMPDEST DUP1 PUSH4 0x2C1597E4 GT PUSH2 0x14B JUMPI DUP1 PUSH4 0x3F4218E0 GT PUSH2 0x125 JUMPI DUP1 PUSH4 0x3F4218E0 EQ PUSH2 0x2C3 JUMPI DUP1 PUSH4 0x4626402B EQ PUSH2 0x2F3 JUMPI DUP1 PUSH4 0x6EB3ABE0 EQ PUSH2 0x311 JUMPI DUP1 PUSH4 0x70A08231 EQ PUSH2 0x32F JUMPI PUSH2 0x18E JUMP JUMPDEST DUP1 PUSH4 0x2C1597E4 EQ PUSH2 0x269 JUMPI DUP1 PUSH4 0x313CE567 EQ PUSH2 0x287 JUMPI DUP1 PUSH4 0x32CB6B0C EQ PUSH2 0x2A5 JUMPI PUSH2 0x18E JUMP JUMPDEST DUP1 PUSH4 0x6FDDE03 EQ PUSH2 0x193 JUMPI DUP1 PUSH4 0x95EA7B3 EQ PUSH2 0x1B1 JUMPI DUP1 PUSH4 0xD7FCD1A EQ PUSH2 0x1E1 JUMPI DUP1 PUSH4 0x15CE462D EQ PUSH2 0x1FF JUMPI DUP1 PUSH4 0x18160DDD EQ PUSH2 0x21B JUMPI DUP1 PUSH4 0x23B872DD EQ PUSH2 0x239 JUMPI JUMPDEST PUSH1 0x0 DUP1 REVERT JUMPDEST PUSH2 0x19B PUSH2 0x4ED JUMP JUMPDEST PUSH1 0x40 MLOAD PUSH2 0x1A8 SWAP2 SWAP1 PUSH2 0x1213 JUMP JUMPDEST PUSH1 0x40 MLOAD DUP1 SWAP2 SUB SWAP1 RETURN JUMPDEST PUSH2 0x1CB PUSH1 0x4 DUP1 CALLDATASIZE SUB DUP2 ADD SWAP1 PUSH2 0x1C6 SWAP2 SWAP1 PUSH2 0x12CE JUMP JUMPDEST PUSH2 0x57F JUMP JUMPDEST PUSH1 0x40 MLOAD PUSH2 0x1D8 SWAP2 SWAP1 PUSH2 0x1329 JUMP JUMPDEST PUSH1 0x40 MLOAD DUP1 SWAP2 SUB SWAP1 RETURN JUMPDEST PUSH2 0x1E9 PUSH2 0x59D JUMP JUMPDEST PUSH1 0x40 MLOAD PUSH2 0x1F6 SWAP2 SWAP1 PUSH2 0x1353 JUMP JUMPDEST PUSH1 0x40 MLOAD DUP1 SWAP2 SUB SWAP1 RETURN JUMPDEST PUSH2 0x219 PUSH1 0x4 DUP1 CALLDATASIZE SUB DUP2 ADD SWAP1 PUSH2 0x214 SWAP2 SWAP1 PUSH2 0x136E JUMP JUMPDEST PUSH2 0x5A3 JUMP JUMPDEST STOP JUMPDEST PUSH2 0x223 PUSH2 0x663 JUMP JUMPDEST PUSH1 0x40 MLOAD PUSH2 0x230 SWAP2 SWAP1 PUSH2 0x1353 JUMP JUMPDEST PUSH1 0x40 MLOAD DUP1 SWAP2 SUB SWAP1 RETURN JUMPDEST PUSH2 0x253 PUSH1 0x4 DUP1 CALLDATASIZE SUB DUP2 ADD SWAP1 PUSH2 0x24E SWAP2 SWAP1 PUSH2 0x139B JUMP JUMPDEST PUSH2 0x66D JUMP JUMPDEST PUSH1 0x40 MLOAD PUSH2 0x260 SWAP2 SWAP1 PUSH2 0x1329 JUMP JUMPDEST PUSH1 0x40 MLOAD DUP1 SWAP2 SUB SWAP1 RETURN JUMPDEST PUSH2 0x271 PUSH2 0x697 JUMP JUMPDEST PUSH1 0x40 MLOAD PUSH2 0x27E SWAP2 SWAP1 PUSH2 0x1353 JUMP JUMPDEST PUSH1 0x40 MLOAD DUP1 SWAP2 SUB SWAP1 RETURN JUMPDEST PUSH2 0x28F PUSH2 0x69D JUMP JUMPDEST PUSH1 0x40 MLOAD PUSH2 0x29C SWAP2 SWAP1 PUSH2 0x140A JUMP JUMPDEST PUSH1 0x40 MLOAD DUP1 SWAP2 SUB SWAP1 RETURN JUMPDEST PUSH2 0x2AD PUSH2 0x6A6 JUMP JUMPDEST PUSH1 0x40 MLOAD PUSH2 0x2BA SWAP2 SWAP1 PUSH2 0x1353 JUMP JUMPDEST PUSH1 0x40 MLOAD DUP1 SWAP2 SUB SWAP1 RETURN JUMPDEST PUSH2 0x2DD PUSH1 0x4 DUP1 CALLDATASIZE SUB DUP2 ADD SWAP1 PUSH2 0x2D8 SWAP2 SWAP1 PUSH2 0x136E JUMP JUMPDEST PUSH2 0x6B6 JUMP JUMPDEST PUSH1 0x40 MLOAD PUSH2 0x2EA SWAP2 SWAP1 PUSH2 0x1329 JUMP JUMPDEST PUSH1 0x40 MLOAD DUP1 SWAP2 SUB SWAP1 RETURN JUMPDEST PUSH2 0x2FB PUSH2 0x6D6 JUMP JUMPDEST PUSH1 0x40 MLOAD PUSH2 0x308 SWAP2 SWAP1 PUSH2 0x1434 JUMP JUMPDEST PUSH1 0x40 MLOAD DUP1 SWAP2 SUB SWAP1 RETURN JUMPDEST PUSH2 0x319 PUSH2 0x6FC JUMP JUMPDEST PUSH1 0x40 MLOAD PUSH2 0x326 SWAP2 SWAP1 PUSH2 0x1353 JUMP JUMPDEST PUSH1 0x40 MLOAD DUP1 SWAP2 SUB SWAP1 RETURN JUMPDEST PUSH2 0x349 PUSH1 0x4 DUP1 CALLDATASIZE SUB DUP2 ADD SWAP1 PUSH2 0x344 SWAP2 SWAP1 PUSH2 0x136E JUMP JUMPDEST PUSH2 0x701 JUMP JUMPDEST PUSH1 0x40 MLOAD PUSH2 0x356 SWAP2 SWAP1 PUSH2 0x1353 JUMP JUMPDEST PUSH1 0x40 MLOAD DUP1 SWAP2 SUB SWAP1 RETURN JUMPDEST PUSH2 0x367 PUSH2 0x749 JUMP JUMPDEST STOP JUMPDEST PUSH2 0x371 PUSH2 0x7D1 JUMP JUMPDEST PUSH1 0x40 MLOAD PUSH2 0x37E SWAP2 SWAP1 PUSH2 0x1434 JUMP JUMPDEST PUSH1 0x40 MLOAD DUP1 SWAP2 SUB SWAP1 RETURN JUMPDEST PUSH2 0x38F PUSH2 0x7F7 JUMP JUMPDEST PUSH1 0x40 MLOAD PUSH2 0x39C SWAP2 SWAP1 PUSH2 0x1434 JUMP JUMPDEST PUSH1 0x40 MLOAD DUP1 SWAP2 SUB SWAP1 RETURN JUMPDEST PUSH2 0x3BF PUSH1 0x4 DUP1 CALLDATASIZE SUB DUP2 ADD SWAP1 PUSH2 0x3BA SWAP2 SWAP1 PUSH2 0x147B JUMP JUMPDEST PUSH2 0x821 JUMP JUMPDEST STOP JUMPDEST PUSH2 0x3C9 PUSH2 0x8F8 JUMP JUMPDEST PUSH1 0x40 MLOAD PUSH2 0x3D6 SWAP2 SWAP1 PUSH2 0x1213 JUMP JUMPDEST PUSH1 0x40 MLOAD DUP1 SWAP2 SUB SWAP1 RETURN JUMPDEST PUSH2 0x3E7 PUSH2 0x98A JUMP JUMPDEST PUSH1 0x40 MLOAD PUSH2 0x3F4 SWAP2 SWAP1 PUSH2 0x1329 JUMP JUMPDEST PUSH1 0x40 MLOAD DUP1 SWAP2 SUB SWAP1 RETURN JUMPDEST PUSH2 0x417 PUSH1 0x4 DUP1 CALLDATASIZE SUB DUP2 ADD SWAP1 PUSH2 0x412 SWAP2 SWAP1 PUSH2 0x136E JUMP JUMPDEST PUSH2 0x99D JUMP JUMPDEST STOP JUMPDEST PUSH2 0x433 PUSH1 0x4 DUP1 CALLDATASIZE SUB DUP2 ADD SWAP1 PUSH2 0x42E SWAP2 SWAP1 PUSH2 0x14BB JUMP JUMPDEST PUSH2 0xA5D JUMP JUMPDEST STOP JUMPDEST PUSH2 0x44F PUSH1 0x4 DUP1 CALLDATASIZE SUB DUP2 ADD SWAP1 PUSH2 0x44A SWAP2 SWAP1 PUSH2 0x12CE JUMP JUMPDEST PUSH2 0xAF6 JUMP JUMPDEST PUSH1 0x40 MLOAD PUSH2 0x45C SWAP2 SWAP1 PUSH2 0x1329 JUMP JUMPDEST PUSH1 0x40 MLOAD DUP1 SWAP2 SUB SWAP1 RETURN JUMPDEST PUSH2 0x47F PUSH1 0x4 DUP1 CALLDATASIZE SUB DUP2 ADD SWAP1 PUSH2 0x47A SWAP2 SWAP1 PUSH2 0x14E8 JUMP JUMPDEST PUSH2 0xB14 JUMP JUMPDEST PUSH1 0x40 MLOAD PUSH2 0x48C SWAP2 SWAP1 PUSH2 0x1353 JUMP JUMPDEST PUSH1 0x40 MLOAD DUP1 SWAP2 SUB SWAP1 RETURN JUMPDEST PUSH2 0x49D PUSH2 0xB9B JUMP JUMPDEST PUSH1 0x40 MLOAD PUSH2 0x4AA SWAP2 SWAP1 PUSH2 0x1353 JUMP JUMPDEST PUSH1 0x40 MLOAD DUP1 SWAP2 SUB SWAP1 RETURN JUMPDEST PUSH2 0x4CD PUSH1 0x4 DUP1 CALLDATASIZE SUB DUP2 ADD SWAP1 PUSH2 0x4C8 SWAP2 SWAP1 PUSH2 0x136E JUMP JUMPDEST PUSH2 0xBA1 JUMP JUMPDEST STOP JUMPDEST PUSH2 0x4D7 PUSH2 0xC98 JUMP JUMPDEST PUSH1 0x40 MLOAD PUSH2 0x4E4 SWAP2 SWAP1 PUSH2 0x1587 JUMP JUMPDEST PUSH1 0x40 MLOAD DUP1 SWAP2 SUB SWAP1 RETURN JUMPDEST PUSH1 0x60 PUSH1 0x3 DUP1 SLOAD PUSH2 0x4FC SWAP1 PUSH2 0x15D1 JUMP JUMPDEST DUP1 PUSH1 0x1F ADD PUSH1 0x20 DUP1 SWAP2 DIV MUL PUSH1 0x20 ADD PUSH1 0x40 MLOAD SWAP1 DUP2 ADD PUSH1 0x40 MSTORE DUP1 SWAP3 SWAP2 SWAP1 DUP2 DUP2 MSTORE PUSH1 0x20 ADD DUP3 DUP1 SLOAD PUSH2 0x528 SWAP1 PUSH2 0x15D1 JUMP JUMPDEST DUP1 ISZERO PUSH2 0x575 JUMPI DUP1 PUSH1 0x1F LT PUSH2 0x54A JUMPI PUSH2 0x100 DUP1 DUP4 SLOAD DIV MUL DUP4 MSTORE SWAP2 PUSH1 0x20 ADD SWAP2 PUSH2 0x575 JUMP JUMPDEST DUP3 ADD SWAP2 SWAP1 PUSH1 0x0 MSTORE PUSH1 0x20 PUSH1 0x0 KECCAK256 SWAP1 JUMPDEST DUP2 SLOAD DUP2 MSTORE SWAP1 PUSH1 0x1 ADD SWAP1 PUSH1 0x20 ADD DUP1 DUP4 GT PUSH2 0x558 JUMPI DUP3 SWAP1 SUB PUSH1 0x1F AND DUP3 ADD SWAP2 JUMPDEST POP POP POP POP POP SWAP1 POP SWAP1 JUMP JUMPDEST PUSH1 0x0 PUSH2 0x593 PUSH2 0x58C PUSH2 0xCBE JUMP JUMPDEST DUP5 DUP5 PUSH2 0xCC6 JUMP JUMPDEST PUSH1 0x1 SWAP1 POP SWAP3 SWAP2 POP POP JUMP JUMPDEST PUSH1 0x8 SLOAD DUP2 JUMP JUMPDEST PUSH2 0x5AB PUSH2 0xCBE JUMP JUMPDEST PUSH20 0xFFFFFFFFFFFFFFFFFFFFFFFFFFFFFFFFFFFFFFFF AND PUSH2 0x5C9 PUSH2 0x7F7 JUMP JUMPDEST PUSH20 0xFFFFFFFFFFFFFFFFFFFFFFFFFFFFFFFFFFFFFFFF AND EQ PUSH2 0x61F JUMPI PUSH1 0x40 MLOAD PUSH32 0x8C379A000000000000000000000000000000000000000000000000000000000 DUP2 MSTORE PUSH1 0x4 ADD PUSH2 0x616 SWAP1 PUSH2 0x164E JUMP JUMPDEST PUSH1 0x40 MLOAD DUP1 SWAP2 SUB SWAP1 REVERT JUMPDEST DUP1 PUSH1 0x9 PUSH1 0x1 PUSH2 0x100 EXP DUP2 SLOAD DUP2 PUSH20 0xFFFFFFFFFFFFFFFFFFFFFFFFFFFFFFFFFFFFFFFF MUL NOT AND SWAP1 DUP4 PUSH20 0xFFFFFFFFFFFFFFFFFFFFFFFFFFFFFFFFFFFFFFFF AND MUL OR SWAP1 SSTORE POP POP JUMP JUMPDEST PUSH1 0x0 PUSH1 0x2 SLOAD SWAP1 POP SWAP1 JUMP JUMPDEST PUSH1 0x0 PUSH2 0x681 DUP5 PUSH2 0x67B PUSH2 0xCBE JUMP JUMPDEST DUP5 PUSH2 0xE8F JUMP JUMPDEST PUSH2 0x68C DUP5 DUP5 DUP5 PUSH2 0xF1B JUMP JUMPDEST PUSH1 0x1 SWAP1 POP SWAP4 SWAP3 POP POP POP JUMP JUMPDEST PUSH1 0x6 SLOAD DUP2 JUMP JUMPDEST PUSH1 0x0 PUSH1 0x12 SWAP1 POP SWAP1 JUMP JUMPDEST PUSH12 0x33B2E3C9FD0803CE8000000 DUP2 JUMP JUMPDEST PUSH1 0xC PUSH1 0x20 MSTORE DUP1 PUSH1 0x0 MSTORE PUSH1 0x40 PUSH1 0x0 KECCAK256 PUSH1 0x0 SWAP2 POP SLOAD SWAP1 PUSH2 0x100 EXP SWAP1 DIV PUSH1 0xFF AND DUP2 JUMP JUMPDEST PUSH1 0xA PUSH1 0x0 SWAP1 SLOAD SWAP1 PUSH2 0x100 EXP SWAP1 DIV PUSH20 0xFFFFFFFFFFFFFFFFFFFFFFFFFFFFFFFFFFFFFFFF AND DUP2 JUMP JUMPDEST PUSH1 0xFA DUP2 JUMP JUMPDEST PUSH1 0x0 DUP1 PUSH1 0x0 DUP4 PUSH20 0xFFFFFFFFFFFFFFFFFFFFFFFFFFFFFFFFFFFFFFFF AND PUSH20 0xFFFFFFFFFFFFFFFFFFFFFFFFFFFFFFFFFFFFFFFF AND DUP2 MSTORE PUSH1 0x20 ADD SWAP1 DUP2 MSTORE PUSH1 0x20 ADD PUSH1 0x0 KECCAK256 SLOAD SWAP1 POP SWAP2 SWAP1 POP JUMP JUMPDEST PUSH2 0x751 PUSH2 0xCBE JUMP JUMPDEST PUSH20 0xFFFFFFFFFFFFFFFFFFFFFFFFFFFFFFFFFFFFFFFF AND PUSH2 0x76F PUSH2 0x7F7 JUMP JUMPDEST PUSH20 0xFFFFFFFFFFFFFFFFFFFFFFFFFFFFFFFFFFFFFFFF AND EQ PUSH2 0x7C5 JUMPI PUSH1 0x40 MLOAD PUSH32 0x8C379A000000000000000000000000000000000000000000000000000000000 DUP2 MSTORE PUSH1 0x4 ADD PUSH2 0x7BC SWAP1 PUSH2 0x164E JUMP JUMPDEST PUSH1 0x40 MLOAD DUP1 SWAP2 SUB SWAP1 REVERT JUMPDEST PUSH2 0x7CF PUSH1 0x0 PUSH2 0x10B3 JUMP JUMPDEST JUMP JUMPDEST PUSH1 0x9 PUSH1 0x1 SWAP1 SLOAD SWAP1 PUSH2 0x100 EXP SWAP1 DIV PUSH20 0xFFFFFFFFFFFFFFFFFFFFFFFFFFFFFFFFFFFFFFFF AND DUP2 JUMP JUMPDEST PUSH1 0x0 PUSH1 0x5 PUSH1 0x0 SWAP1 SLOAD SWAP1 PUSH2 0x100 EXP SWAP1 DIV PUSH20 0xFFFFFFFFFFFFFFFFFFFFFFFFFFFFFFFFFFFFFFFF AND SWAP1 POP SWAP1 JUMP JUMPDEST PUSH2 0x829 PUSH2 0xCBE JUMP JUMPDEST PUSH20 0xFFFFFFFFFFFFFFFFFFFFFFFFFFFFFFFFFFFFFFFF AND PUSH2 0x847 PUSH2 0x7F7 JUMP JUMPDEST PUSH20 0xFFFFFFFFFFFFFFFFFFFFFFFFFFFFFFFFFFFFFFFF AND EQ PUSH2 0x89D JUMPI PUSH1 0x40 MLOAD PUSH32 0x8C379A000000000000000000000000000000000000000000000000000000000 DUP2 MSTORE PUSH1 0x4 ADD PUSH2 0x894 SWAP1 PUSH2 0x164E JUMP JUMPDEST PUSH1 0x40 MLOAD DUP1 SWAP2 SUB SWAP1 REVERT JUMPDEST DUP1 PUSH1 0xC PUSH1 0x0 DUP5 PUSH20 0xFFFFFFFFFFFFFFFFFFFFFFFFFFFFFFFFFFFFFFFF AND PUSH20 0xFFFFFFFFFFFFFFFFFFFFFFFFFFFFFFFFFFFFFFFF AND DUP2 MSTORE PUSH1 0x20 ADD SWAP1 DUP2 MSTORE PUSH1 0x20 ADD PUSH1 0x0 KECCAK256 PUSH1 0x0 PUSH2 0x100 EXP DUP2 SLOAD DUP2 PUSH1 0xFF MUL NOT AND SWAP1 DUP4 ISZERO ISZERO MUL OR SWAP1 SSTORE POP POP POP JUMP JUMPDEST PUSH1 0x60 PUSH1 0x4 DUP1 SLOAD PUSH2 0x907 SWAP1 PUSH2 0x15D1 JUMP JUMPDEST DUP1 PUSH1 0x1F ADD PUSH1 0x20 DUP1 SWAP2 DIV MUL PUSH1 0x20 ADD PUSH1 0x40 MLOAD SWAP1 DUP2 ADD PUSH1 0x40 MSTORE DUP1 SWAP3 SWAP2 SWAP1 DUP2 DUP2 MSTORE PUSH1 0x20 ADD DUP3 DUP1 SLOAD PUSH2 0x933 SWAP1 PUSH2 0x15D1 JUMP JUMPDEST DUP1 ISZERO PUSH2 0x980 JUMPI DUP1 PUSH1 0x1F LT PUSH2 0x955 JUMPI PUSH2 0x100 DUP1 DUP4 SLOAD DIV MUL DUP4 MSTORE SWAP2 PUSH1 0x20 ADD SWAP2 PUSH2 0x980 JUMP JUMPDEST DUP3 ADD SWAP2 SWAP1 PUSH1 0x0 MSTORE PUSH1 0x20 PUSH1 0x0 KECCAK256 SWAP1 JUMPDEST DUP2 SLOAD DUP2 MSTORE SWAP1 PUSH1 0x1 ADD SWAP1 PUSH1 0x20 ADD DUP1 DUP4 GT PUSH2 0x963 JUMPI DUP3 SWAP1 SUB PUSH1 0x1F AND DUP3 ADD SWAP2 JUMPDEST POP POP POP POP POP SWAP1 POP SWAP1 JUMP JUMPDEST PUSH1 0x9 PUSH1 0x0 SWAP1 SLOAD SWAP1 PUSH2 0x100 EXP SWAP1 DIV PUSH1 0xFF AND DUP2 JUMP JUMPDEST PUSH2 0x9A5 PUSH2 0xCBE JUMP JUMPDEST PUSH20 0xFFFFFFFFFFFFFFFFFFFFFFFFFFFFFFFFFFFFFFFF AND PUSH2 0x9C3 PUSH2 0x7F7 JUMP JUMPDEST PUSH20 0xFFFFFFFFFFFFFFFFFFFFFFFFFFFFFFFFFFFFFFFF AND EQ PUSH2 0xA19 JUMPI PUSH1 0x40 MLOAD PUSH32 0x8C379A000000000000000000000000000000000000000000000000000000000 DUP2 MSTORE PUSH1 0x4 ADD PUSH2 0xA10 SWAP1 PUSH2 0x164E JUMP JUMPDEST PUSH1 0x40 MLOAD DUP1 SWAP2 SUB SWAP1 REVERT JUMPDEST DUP1 PUSH1 0xA PUSH1 0x0 PUSH2 0x100 EXP DUP2 SLOAD DUP2 PUSH20 0xFFFFFFFFFFFFFFFFFFFFFFFFFFFFFFFFFFFFFFFF MUL NOT AND SWAP1 DUP4 PUSH20 0xFFFFFFFFFFFFFFFFFFFFFFFFFFFFFFFFFFFFFFFF AND MUL OR SWAP1 SSTORE POP POP JUMP JUMPDEST PUSH2 0xA65 PUSH2 0xCBE JUMP JUMPDEST PUSH20 0xFFFFFFFFFFFFFFFFFFFFFFFFFFFFFFFFFFFFFFFF AND PUSH2 0xA83 PUSH2 0x7F7 JUMP JUMPDEST PUSH20 0xFFFFFFFFFFFFFFFFFFFFFFFFFFFFFFFFFFFFFFFF AND EQ PUSH2 0xAD9 JUMPI PUSH1 0x40 MLOAD PUSH32 0x8C379A000000000000000000000000000000000000000000000000000000000 DUP2 MSTORE PUSH1 0x4 ADD PUSH2 0xAD0 SWAP1 PUSH2 0x164E JUMP JUMPDEST PUSH1 0x40 MLOAD DUP1 SWAP2 SUB SWAP1 REVERT JUMPDEST DUP1 PUSH1 0x9 PUSH1 0x0 PUSH2 0x100 EXP DUP2 SLOAD DUP2 PUSH1 0xFF MUL NOT AND SWAP1 DUP4 ISZERO ISZERO MUL OR SWAP1 SSTORE POP POP JUMP JUMPDEST PUSH1 0x0 PUSH2 0xB0A PUSH2 0xB03 PUSH2 0xCBE JUMP JUMPDEST DUP5 DUP5 PUSH2 0xF1B JUMP JUMPDEST PUSH1 0x1 SWAP1 POP SWAP3 SWAP2 POP POP JUMP JUMPDEST PUSH1 0x0 PUSH1 0x1 PUSH1 0x0 DUP5 PUSH20 0xFFFFFFFFFFFFFFFFFFFFFFFFFFFFFFFFFFFFFFFF AND PUSH20 0xFFFFFFFFFFFFFFFFFFFFFFFFFFFFFFFFFFFFFFFF AND DUP2 MSTORE PUSH1 0x20 ADD SWAP1 DUP2 MSTORE PUSH1 0x20 ADD PUSH1 0x0 KECCAK256 PUSH1 0x0 DUP4 PUSH20 0xFFFFFFFFFFFFFFFFFFFFFFFFFFFFFFFFFFFFFFFF AND PUSH20 0xFFFFFFFFFFFFFFFFFFFFFFFFFFFFFFFFFFFFFFFF AND DUP2 MSTORE PUSH1 0x20 ADD SWAP1 DUP2 MSTORE PUSH1 0x20 ADD PUSH1 0x0 KECCAK256 SLOAD SWAP1 POP SWAP3 SWAP2 POP POP JUMP JUMPDEST PUSH1 0x7 SLOAD DUP2 JUMP JUMPDEST PUSH2 0xBA9 PUSH2 0xCBE JUMP JUMPDEST PUSH20 0xFFFFFFFFFFFFFFFFFFFFFFFFFFFFFFFFFFFFFFFF AND PUSH2 0xBC7 PUSH2 0x7F7 JUMP JUMPDEST PUSH20 0xFFFFFFFFFFFFFFFFFFFFFFFFFFFFFFFFFFFFFFFF AND EQ PUSH2 0xC1D JUMPI PUSH1 0x40 MLOAD PUSH32 0x8C379A000000000000000000000000000000000000000000000000000000000 DUP2 MSTORE PUSH1 0x4 ADD PUSH2 0xC14 SWAP1 PUSH2 0x164E JUMP JUMPDEST PUSH1 0x40 MLOAD DUP1 SWAP2 SUB SWAP1 REVERT JUMPDEST PUSH1 0x0 PUSH20 0xFFFFFFFFFFFFFFFFFFFFFFFFFFFFFFFFFFFFFFFF AND DUP2 PUSH20 0xFFFFFFFFFFFFFFFFFFFFFFFFFFFFFFFFFFFFFFFF AND SUB PUSH2 0xC8C JUMPI PUSH1 0x40 MLOAD PUSH32 0x8C379A000000000000000000000000000000000000000000000000000000000 DUP2 MSTORE PUSH1 0x4 ADD PUSH2 0xC83 SWAP1 PUSH2 0x16E0 JUMP JUMPDEST PUSH1 0x40 MLOAD DUP1 SWAP2 SUB SWAP1 REVERT JUMPDEST PUSH2 0xC95 DUP2 PUSH2 0x10B3 JUMP JUMPDEST POP JUMP JUMPDEST PUSH1 0xB PUSH1 0x0 SWAP1 SLOAD SWAP1 PUSH2 0x100 EXP SWAP1 DIV PUSH20 0xFFFFFFFFFFFFFFFFFFFFFFFFFFFFFFFFFFFFFFFF AND DUP2 JUMP JUMPDEST PUSH1 0x0 CALLER SWAP1 POP SWAP1 JUMP JUMPDEST PUSH1 0x0 PUSH20 0xFFFFFFFFFFFFFFFFFFFFFFFFFFFFFFFFFFFFFFFF AND DUP4 PUSH20 0xFFFFFFFFFFFFFFFFFFFFFFFFFFFFFFFFFFFFFFFF AND SUB PUSH2 0xD35 JUMPI PUSH1 0x40 MLOAD PUSH32 0x8C379A000000000000000000000000000000000000000000000000000000000 DUP2 MSTORE PUSH1 0x4 ADD PUSH2 0xD2C SWAP1 PUSH2 0x174C JUMP JUMPDEST PUSH1 0x40 MLOAD DUP1 SWAP2 SUB SWAP1 REVERT JUMPDEST PUSH1 0x0 PUSH20 0xFFFFFFFFFFFFFFFFFFFFFFFFFFFFFFFFFFFFFFFF AND DUP3 PUSH20 0xFFFFFFFFFFFFFFFFFFFFFFFFFFFFFFFFFFFFFFFF AND SUB PUSH2 0xDA4 JUMPI PUSH1 0x40 MLOAD PUSH32 0x8C379A000000000000000000000000000000000000000000000000000000000 DUP2 MSTORE PUSH1 0x4 ADD PUSH2 0xD9B SWAP1 PUSH2 0x17B8 JUMP JUMPDEST PUSH1 0x40 MLOAD DUP1 SWAP2 SUB SWAP1 REVERT JUMPDEST DUP1 PUSH1 0x1 PUSH1 0x0 DUP6 PUSH20 0xFFFFFFFFFFFFFFFFFFFFFFFFFFFFFFFFFFFFFFFF AND PUSH20 0xFFFFFFFFFFFFFFFFFFFFFFFFFFFFFFFFFFFFFFFF AND DUP2 MSTORE PUSH1 0x20 ADD SWAP1 DUP2 MSTORE PUSH1 0x20 ADD PUSH1 0x0 KECCAK256 PUSH1 0x0 DUP5 PUSH20 0xFFFFFFFFFFFFFFFFFFFFFFFFFFFFFFFFFFFFFFFF AND PUSH20 0xFFFFFFFFFFFFFFFFFFFFFFFFFFFFFFFFFFFFFFFF AND DUP2 MSTORE PUSH1 0x20 ADD SWAP1 DUP2 MSTORE PUSH1 0x20 ADD PUSH1 0x0 KECCAK256 DUP2 SWAP1 SSTORE POP DUP2 PUSH20 0xFFFFFFFFFFFFFFFFFFFFFFFFFFFFFFFFFFFFFFFF AND DUP4 PUSH20 0xFFFFFFFFFFFFFFFFFFFFFFFFFFFFFFFFFFFFFFFF AND PUSH32 0x8C5BE1E5EBEC7D5BD14F71427D1E84F3DD0314C0F7B2291E5B200AC8C7C3B925 DUP4 PUSH1 0x40 MLOAD PUSH2 0xE82 SWAP2 SWAP1 PUSH2 0x1353 JUMP JUMPDEST PUSH1 0x40 MLOAD DUP1 SWAP2 SUB SWAP1 LOG3 POP POP POP JUMP JUMPDEST PUSH1 0x0 PUSH2 0xE9B DUP5 DUP5 PUSH2 0xB14 JUMP JUMPDEST SWAP1 POP PUSH32 0xFFFFFFFFFFFFFFFFFFFFFFFFFFFFFFFFFFFFFFFFFFFFFFFFFFFFFFFFFFFFFFFF DUP2 EQ PUSH2 0xF15 JUMPI DUP2 DUP2 LT ISZERO PUSH2 0xF07 JUMPI PUSH1 0x40 MLOAD PUSH32 0x8C379A000000000000000000000000000000000000000000000000000000000 DUP2 MSTORE PUSH1 0x4 ADD PUSH2 0xEFE SWAP1 PUSH2 0x1824 JUMP JUMPDEST PUSH1 0x40 MLOAD DUP1 SWAP2 SUB SWAP1 REVERT JUMPDEST PUSH2 0xF14 DUP5 DUP5 DUP5 DUP5 SUB PUSH2 0xCC6 JUMP JUMPDEST JUMPDEST POP POP POP POP JUMP JUMPDEST PUSH2 0xF26 DUP4 DUP4 DUP4 PUSH2 0x1179 JUMP JUMPDEST PUSH1 0x0 DUP1 PUSH1 0x0 DUP6 PUSH20 0xFFFFFFFFFFFFFFFFFFFFFFFFFFFFFFFFFFFFFFFF AND PUSH20 0xFFFFFFFFFFFFFFFFFFFFFFFFFFFFFFFFFFFFFFFF AND DUP2 MSTORE PUSH1 0x20 ADD SWAP1 DUP2 MSTORE PUSH1 0x20 ADD PUSH1 0x0 KECCAK256 SLOAD SWAP1 POP DUP2 DUP2 LT ISZERO PUSH2 0xFAC JUMPI PUSH1 0x40 MLOAD PUSH32 0x8C379A000000000000000000000000000000000000000000000000000000000 DUP2 MSTORE PUSH1 0x4 ADD PUSH2 0xFA3 SWAP1 PUSH2 0x18B6 JUMP JUMPDEST PUSH1 0x40 MLOAD DUP1 SWAP2 SUB SWAP1 REVERT JUMPDEST DUP2 DUP2 SUB PUSH1 0x0 DUP1 DUP7 PUSH20 0xFFFFFFFFFFFFFFFFFFFFFFFFFFFFFFFFFFFFFFFF AND PUSH20 0xFFFFFFFFFFFFFFFFFFFFFFFFFFFFFFFFFFFFFFFF AND DUP2 MSTORE PUSH1 0x20 ADD SWAP1 DUP2 MSTORE PUSH1 0x20 ADD PUSH1 0x0 KECCAK256 DUP2 SWAP1 SSTORE POP DUP2 PUSH1 0x0 DUP1 DUP6 PUSH20 0xFFFFFFFFFFFFFFFFFFFFFFFFFFFFFFFFFFFFFFFF AND PUSH20 0xFFFFFFFFFFFFFFFFFFFFFFFFFFFFFFFFFFFFFFFF AND DUP2 MSTORE PUSH1 0x20 ADD SWAP1 DUP2 MSTORE PUSH1 0x20 ADD PUSH1 0x0 KECCAK256 PUSH1 0x0 DUP3 DUP3 SLOAD ADD SWAP3 POP POP DUP2 SWAP1 SSTORE POP DUP3 PUSH20 0xFFFFFFFFFFFFFFFFFFFFFFFFFFFFFFFFFFFFFFFF AND DUP5 PUSH20 0xFFFFFFFFFFFFFFFFFFFFFFFFFFFFFFFFFFFFFFFF AND PUSH32 0xDDF252AD1BE2C89B69C2B068FC378DAA952BA7F163C4A11628F55A4DF523B3EF DUP5 PUSH1 0x40 MLOAD PUSH2 0x109A SWAP2 SWAP1 PUSH2 0x1353 JUMP JUMPDEST PUSH1 0x40 MLOAD DUP1 SWAP2 SUB SWAP1 LOG3 PUSH2 0x10AD DUP5 DUP5 DUP5 PUSH2 0x117E JUMP JUMPDEST POP POP POP POP JUMP JUMPDEST PUSH1 0x0 PUSH1 0x5 PUSH1 0x0 SWAP1 SLOAD SWAP1 PUSH2 0x100 EXP SWAP1 DIV PUSH20 0xFFFFFFFFFFFFFFFFFFFFFFFFFFFFFFFFFFFFFFFF AND SWAP1 POP DUP2 PUSH1 0x5 PUSH1 0x0 PUSH2 0x100 EXP DUP2 SLOAD DUP2 PUSH20 0xFFFFFFFFFFFFFFFFFFFFFFFFFFFFFFFFFFFFFFFF MUL NOT AND SWAP1 DUP4 PUSH20 0xFFFFFFFFFFFFFFFFFFFFFFFFFFFFFFFFFFFFFFFF AND MUL OR SWAP1 SSTORE POP DUP2 PUSH20 0xFFFFFFFFFFFFFFFFFFFFFFFFFFFFFFFFFFFFFFFF AND DUP2 PUSH20 0xFFFFFFFFFFFFFFFFFFFFFFFFFFFFFFFFFFFFFFFF AND PUSH32 0x8BE0079C531659141344CD1FD0A4F28419497F9722A3DAAFE3B4186F6B6457E0 PUSH1 0x40 MLOAD PUSH1 0x40 MLOAD DUP1 SWAP2 SUB SWAP1 LOG3 POP POP JUMP JUMPDEST POP POP POP JUMP JUMPDEST POP POP POP JUMP JUMPDEST PUSH1 0x0 DUP2 MLOAD SWAP1 POP SWAP2 SWAP1 POP JUMP JUMPDEST PUSH1 0x0 DUP3 DUP3 MSTORE PUSH1 0x20 DUP3 ADD SWAP1 POP SWAP3 SWAP2 POP POP JUMP JUMPDEST PUSH1 0x0 JUMPDEST DUP4 DUP2 LT ISZERO PUSH2 0x11BD JUMPI DUP1 DUP3 ADD MLOAD DUP2 DUP5 ADD MSTORE PUSH1 0x20 DUP2 ADD SWAP1 POP PUSH2 0x11A2 JUMP JUMPDEST PUSH1 0x0 DUP5 DUP5 ADD MSTORE POP POP POP POP JUMP JUMPDEST PUSH1 0x0 PUSH1 0x1F NOT PUSH1 0x1F DUP4 ADD AND SWAP1 POP SWAP2 SWAP1 POP JUMP JUMPDEST PUSH1 0x0 PUSH2 0x11E5 DUP3 PUSH2 0x1183 JUMP JUMPDEST PUSH2 0x11EF DUP2 DUP6 PUSH2 0x118E JUMP JUMPDEST SWAP4 POP PUSH2 0x11FF DUP2 DUP6 PUSH1 0x20 DUP7 ADD PUSH2 0x119F JUMP JUMPDEST PUSH2 0x1208 DUP2 PUSH2 0x11C9 JUMP JUMPDEST DUP5 ADD SWAP2 POP POP SWAP3 SWAP2 POP POP JUMP JUMPDEST PUSH1 0x0 PUSH1 0x20 DUP3 ADD SWAP1 POP DUP2 DUP2 SUB PUSH1 0x0 DUP4 ADD MSTORE PUSH2 0x122D DUP2 DUP5 PUSH2 0x11DA JUMP JUMPDEST SWAP1 POP SWAP3 SWAP2 POP POP JUMP JUMPDEST PUSH1 0x0 DUP1 REVERT JUMPDEST PUSH1 0x0 PUSH20 0xFFFFFFFFFFFFFFFFFFFFFFFFFFFFFFFFFFFFFFFF DUP3 AND SWAP1 POP SWAP2 SWAP1 POP JUMP JUMPDEST PUSH1 0x0 PUSH2 0x1265 DUP3 PUSH2 0x123A JUMP JUMPDEST SWAP1 POP SWAP2 SWAP1 POP JUMP JUMPDEST PUSH2 0x1275 DUP2 PUSH2 0x125A JUMP JUMPDEST DUP2 EQ PUSH2 0x1280 JUMPI PUSH1 0x0 DUP1 REVERT JUMPDEST POP JUMP JUMPDEST PUSH1 0x0 DUP2 CALLDATALOAD SWAP1 POP PUSH2 0x1292 DUP2 PUSH2 0x126C JUMP JUMPDEST SWAP3 SWAP2 POP POP JUMP JUMPDEST PUSH1 0x0 DUP2 SWAP1 POP SWAP2 SWAP1 POP JUMP JUMPDEST PUSH2 0x12AB DUP2 PUSH2 0x1298 JUMP JUMPDEST DUP2 EQ PUSH2 0x12B6 JUMPI PUSH1 0x0 DUP1 REVERT JUMPDEST POP JUMP JUMPDEST PUSH1 0x0 DUP2 CALLDATALOAD SWAP1 POP PUSH2 0x12C8 DUP2 PUSH2 0x12A2 JUMP JUMPDEST SWAP3 SWAP2 POP POP JUMP JUMPDEST PUSH1 0x0 DUP1 PUSH1 0x40 DUP4 DUP6 SUB SLT ISZERO PUSH2 0x12E5 JUMPI PUSH2 0x12E4 PUSH2 0x1235 JUMP JUMPDEST JUMPDEST PUSH1 0x0 PUSH2 0x12F3 DUP6 DUP3 DUP7 ADD PUSH2 0x1283 JUMP JUMPDEST SWAP3 POP POP PUSH1 0x20 PUSH2 0x1304 DUP6 DUP3 DUP7 ADD PUSH2 0x12B9 JUMP JUMPDEST SWAP2 POP POP SWAP3 POP SWAP3 SWAP1 POP JUMP JUMPDEST PUSH1 0x0 DUP2 ISZERO ISZERO SWAP1 POP SWAP2 SWAP1 POP JUMP JUMPDEST PUSH2 0x1323 DUP2 PUSH2 0x130E JUMP JUMPDEST DUP3 MSTORE POP POP JUMP JUMPDEST PUSH1 0x0 PUSH1 0x20 DUP3 ADD SWAP1 POP PUSH2 0x133E PUSH1 0x0 DUP4 ADD DUP5 PUSH2 0x131A JUMP JUMPDEST SWAP3 SWAP2 POP POP JUMP JUMPDEST PUSH2 0x134D DUP2 PUSH2 0x1298 JUMP JUMPDEST DUP3 MSTORE POP POP JUMP JUMPDEST PUSH1 0x0 PUSH1 0x20 DUP3 ADD SWAP1 POP PUSH2 0x1368 PUSH1 0x0 DUP4 ADD DUP5 PUSH2 0x1344 JUMP JUMPDEST SWAP3 SWAP2 POP POP JUMP JUMPDEST PUSH1 0x0 PUSH1 0x20 DUP3 DUP5 SUB SLT ISZERO PUSH2 0x1384 JUMPI PUSH2 0x1383 PUSH2 0x1235 JUMP JUMPDEST JUMPDEST PUSH1 0x0 PUSH2 0x1392 DUP5 DUP3 DUP6 ADD PUSH2 0x1283 JUMP JUMPDEST SWAP2 POP POP SWAP3 SWAP2 POP POP JUMP JUMPDEST PUSH1 0x0 DUP1 PUSH1 0x0 PUSH1 0x60 DUP5 DUP7 SUB SLT ISZERO PUSH2 0x13B4 JUMPI PUSH2 0x13B3 PUSH2 0x1235 JUMP JUMPDEST JUMPDEST PUSH1 0x0 PUSH2 0x13C2 DUP7 DUP3 DUP8 ADD PUSH2 0x1283 JUMP JUMPDEST SWAP4 POP POP PUSH1 0x20 PUSH2 0x13D3 DUP7 DUP3 DUP8 ADD PUSH2 0x1283 JUMP JUMPDEST SWAP3 POP POP PUSH1 0x40 PUSH2 0x13E4 DUP7 DUP3 DUP8 ADD PUSH2 0x12B9 JUMP JUMPDEST SWAP2 POP POP SWAP3 POP SWAP3 POP SWAP3 JUMP JUMPDEST PUSH1 0x0 PUSH1 0xFF DUP3 AND SWAP1 POP SWAP2 SWAP1 POP JUMP JUMPDEST PUSH2 0x1404 DUP2 PUSH2 0x13EE JUMP JUMPDEST DUP3 MSTORE POP POP JUMP JUMPDEST PUSH1 0x0 PUSH1 0x20 DUP3 ADD SWAP1 POP PUSH2 0x141F PUSH1 0x0 DUP4 ADD DUP5 PUSH2 0x13FB JUMP JUMPDEST SWAP3 SWAP2 POP POP JUMP JUMPDEST PUSH2 0x142E DUP2 PUSH2 0x125A JUMP JUMPDEST DUP3 MSTORE POP POP JUMP JUMPDEST PUSH1 0x0 PUSH1 0x20 DUP3 ADD SWAP1 POP PUSH2 0x1449 PUSH1 0x0 DUP4 ADD DUP5 PUSH2 0x1425 JUMP JUMPDEST SWAP3 SWAP2 POP POP JUMP JUMPDEST PUSH2 0x1458 DUP2 PUSH2 0x130E JUMP JUMPDEST DUP2 EQ PUSH2 0x1463 JUMPI PUSH1 0x0 DUP1 REVERT JUMPDEST POP JUMP JUMPDEST PUSH1 0x0 DUP2 CALLDATALOAD SWAP1 POP PUSH2 0x1475 DUP2 PUSH2 0x144F JUMP JUMPDEST SWAP3 SWAP2 POP POP JUMP JUMPDEST PUSH1 0x0 DUP1 PUSH1 0x40 DUP4 DUP6 SUB SLT ISZERO PUSH2 0x1492 JUMPI PUSH2 0x1491 PUSH2 0x1235 JUMP JUMPDEST JUMPDEST PUSH1 0x0 PUSH2 0x14A0 DUP6 DUP3 DUP7 ADD PUSH2 0x1283 JUMP JUMPDEST SWAP3 POP POP PUSH1 0x20 PUSH2 0x14B1 DUP6 DUP3 DUP7 ADD PUSH2 0x1466 JUMP JUMPDEST SWAP2 POP POP SWAP3 POP SWAP3 SWAP1 POP JUMP JUMPDEST PUSH1 0x0 PUSH1 0x20 DUP3 DUP5 SUB SLT ISZERO PUSH2 0x14D1 JUMPI PUSH2 0x14D0 PUSH2 0x1235 JUMP JUMPDEST JUMPDEST PUSH1 0x0 PUSH2 0x14DF DUP5 DUP3 DUP6 ADD PUSH2 0x1466 JUMP JUMPDEST SWAP2 POP POP SWAP3 SWAP2 POP POP JUMP JUMPDEST PUSH1 0x0 DUP1 PUSH1 0x40 DUP4 DUP6 SUB SLT ISZERO PUSH2 0x14FF JUMPI PUSH2 0x14FE PUSH2 0x1235 JUMP JUMPDEST JUMPDEST PUSH1 0x0 PUSH2 0x150D DUP6 DUP3 DUP7 ADD PUSH2 0x1283 JUMP JUMPDEST SWAP3 POP POP PUSH1 0x20 PUSH2 0x151E DUP6 DUP3 DUP7 ADD PUSH2 0x1283 JUMP JUMPDEST SWAP2 POP POP SWAP3 POP SWAP3 SWAP1 POP JUMP JUMPDEST PUSH1 0x0 DUP2 SWAP1 POP SWAP2 SWAP1 POP JUMP JUMPDEST PUSH1 0x0 PUSH2 0x154D PUSH2 0x1548 PUSH2 0x1543 DUP5 PUSH2 0x123A JUMP JUMPDEST PUSH2 0x1528 JUMP JUMPDEST PUSH2 0x123A JUMP JUMPDEST SWAP1 POP SWAP2 SWAP1 POP JUMP JUMPDEST PUSH1 0x0 PUSH2 0x155F DUP3 PUSH2 0x1532 JUMP JUMPDEST SWAP1 POP SWAP2 SWAP1 POP JUMP JUMPDEST PUSH1 0x0 PUSH2 0x1571 DUP3 PUSH2 0x1554 JUMP JUMPDEST SWAP1 POP SWAP2 SWAP1 POP JUMP JUMPDEST PUSH2 0x1581 DUP2 PUSH2 0x1566 JUMP JUMPDEST DUP3 MSTORE POP POP JUMP JUMPDEST PUSH1 0x0 PUSH1 0x20 DUP3 ADD SWAP1 POP PUSH2 0x159C PUSH1 0x0 DUP4 ADD DUP5 PUSH2 0x1578 JUMP JUMPDEST SWAP3 SWAP2 POP POP JUMP JUMPDEST PUSH32 0x4E487B7100000000000000000000000000000000000000000000000000000000 PUSH1 0x0 MSTORE PUSH1 0x22 PUSH1 0x4 MSTORE PUSH1 0x24 PUSH1 0x0 REVERT JUMPDEST PUSH1 0x0 PUSH1 0x2 DUP3 DIV SWAP1 POP PUSH1 0x1 DUP3 AND DUP1 PUSH2 0x15E9 JUMPI PUSH1 0x7F DUP3 AND SWAP2 POP JUMPDEST PUSH1 0x20 DUP3 LT DUP2 SUB PUSH2 0x15FC JUMPI PUSH2 0x15FB PUSH2 0x15A2 JUMP JUMPDEST JUMPDEST POP SWAP2 SWAP1 POP JUMP JUMPDEST PUSH32 0x4F776E61626C653A2063616C6C6572206973206E6F7420746865206F776E6572 PUSH1 0x0 DUP3 ADD MSTORE POP JUMP JUMPDEST PUSH1 0x0 PUSH2 0x1638 PUSH1 0x20 DUP4 PUSH2 0x118E JUMP JUMPDEST SWAP2 POP PUSH2 0x1643 DUP3 PUSH2 0x1602 JUMP JUMPDEST PUSH1 0x20 DUP3 ADD SWAP1 POP SWAP2 SWAP1 POP JUMP JUMPDEST PUSH1 0x0 PUSH1 0x20 DUP3 ADD SWAP1 POP DUP2 DUP2 SUB PUSH1 0x0 DUP4 ADD MSTORE PUSH2 0x1667 DUP2 PUSH2 0x162B JUMP JUMPDEST SWAP1 POP SWAP2 SWAP1 POP JUMP JUMPDEST PUSH32 0x4F776E61626C653A206E6577206F776E6572206973207A65726F206164647265 PUSH1 0x0 DUP3 ADD MSTORE PUSH32 0x7373000000000000000000000000000000000000000000000000000000000000 PUSH1 0x20 DUP3 ADD MSTORE POP JUMP JUMPDEST PUSH1 0x0 PUSH2 0x16CA PUSH1 0x22 DUP4 PUSH2 0x118E JUMP JUMPDEST SWAP2 POP PUSH2 0x16D5 DUP3 PUSH2 0x166E JUMP JUMPDEST PUSH1 0x40 DUP3 ADD SWAP1 POP SWAP2 SWAP1 POP JUMP JUMPDEST PUSH1 0x0 PUSH1 0x20 DUP3 ADD SWAP1 POP DUP2 DUP2 SUB PUSH1 0x0 DUP4 ADD MSTORE PUSH2 0x16F9 DUP2 PUSH2 0x16BD JUMP JUMPDEST SWAP1 POP SWAP2 SWAP1 POP JUMP JUMPDEST PUSH32 0x45524332303A20617070726F76652066726F6D207A65726F2061646472657373 PUSH1 0x0 DUP3 ADD MSTORE POP JUMP JUMPDEST PUSH1 0x0 PUSH2 0x1736 PUSH1 0x20 DUP4 PUSH2 0x118E JUMP JUMPDEST SWAP2 POP PUSH2 0x1741 DUP3 PUSH2 0x1700 JUMP JUMPDEST PUSH1 0x20 DUP3 ADD SWAP1 POP SWAP2 SWAP1 POP JUMP JUMPDEST PUSH1 0x0 PUSH1 0x20 DUP3 ADD SWAP1 POP DUP2 DUP2 SUB PUSH1 0x0 DUP4 ADD MSTORE PUSH2 0x1765 DUP2 PUSH2 0x1729 JUMP JUMPDEST SWAP1 POP SWAP2 SWAP1 POP JUMP JUMPDEST PUSH32 0x45524332303A20617070726F766520746F207A65726F20616464726573730000 PUSH1 0x0 DUP3 ADD MSTORE POP JUMP JUMPDEST PUSH1 0x0 PUSH2 0x17A2 PUSH1 0x1E DUP4 PUSH2 0x118E JUMP JUMPDEST SWAP2 POP PUSH2 0x17AD DUP3 PUSH2 0x176C JUMP JUMPDEST PUSH1 0x20 DUP3 ADD SWAP1 POP SWAP2 SWAP1 POP JUMP JUMPDEST PUSH1 0x0 PUSH1 0x20 DUP3 ADD SWAP1 POP DUP2 DUP2 SUB PUSH1 0x0 DUP4 ADD MSTORE PUSH2 0x17D1 DUP2 PUSH2 0x1795 JUMP JUMPDEST SWAP1 POP SWAP2 SWAP1 POP JUMP JUMPDEST PUSH32 0x45524332303A20696E73756666696369656E7420616C6C6F77616E6365000000 PUSH1 0x0 DUP3 ADD MSTORE POP JUMP JUMPDEST PUSH1 0x0 PUSH2 0x180E PUSH1 0x1D DUP4 PUSH2 0x118E JUMP JUMPDEST SWAP2 POP PUSH2 0x1819 DUP3 PUSH2 0x17D8 JUMP JUMPDEST PUSH1 0x20 DUP3 ADD SWAP1 POP SWAP2 SWAP1 POP JUMP JUMPDEST PUSH1 0x0 PUSH1 0x20 DUP3 ADD SWAP1 POP DUP2 DUP2 SUB PUSH1 0x0 DUP4 ADD MSTORE PUSH2 0x183D DUP2 PUSH2 0x1801 JUMP JUMPDEST SWAP1 POP SWAP2 SWAP1 POP JUMP JUMPDEST PUSH32 0x45524332303A207472616E7366657220616D6F756E7420657863656564732062 PUSH1 0x0 DUP3 ADD MSTORE PUSH32 0x616C616E63650000000000000000000000000000000000000000000000000000 PUSH1 0x20 DUP3 ADD MSTORE POP JUMP JUMPDEST PUSH1 0x0 PUSH2 0x18A0 PUSH1 0x26 DUP4 PUSH2 0x118E JUMP JUMPDEST SWAP2 POP PUSH2 0x18AB DUP3 PUSH2 0x1844 JUMP JUMPDEST PUSH1 0x40 DUP3 ADD SWAP1 POP SWAP2 SWAP1 POP JUMP JUMPDEST PUSH1 0x0 PUSH1 0x20 DUP3 ADD SWAP1 POP DUP2 DUP2 SUB PUSH1 0x0 DUP4 ADD MSTORE PUSH2 0x18CF DUP2 PUSH2 0x1893 JUMP JUMPDEST SWAP1 POP SWAP2 SWAP1 POP JUMP INVALID LOG2 PUSH5 0x6970667358 0x22 SLT KECCAK256 0x2D 0xDE 0xED DUP14 0x2A SWAP5 0xE1 0x27 MUL GASPRICE DUP13 SWAP9 XOR MSTORE8 0xD2 CHAINID 0xD8 ISZERO GAS 0xC6 0xEE DUP2 CALLDATALOAD PUSH14 0x8EFE4E0EFA4E461A64736F6C6343 STOP ADDMOD EQ STOP CALLER "
	},
	"Assembly": ".code\n  PUSH 80\t\t\tcontract BITKWANZA is ERC20, O...\n  PUSH 40\t\t\tcontract BITKWANZA is ERC20, O...\n  MSTORE \t\t\tcontract BITKWANZA is ERC20, O...\n  PUSH 5\t\t\t5\n  PUSH 6\t\t\tuint256 public foundingFeeBP =...\n  SSTORE \t\t\tuint256 public foundingFeeBP =...\n  PUSH 1\t\t\t1\n  PUSH 7\t\t\tuint256 public rewardFeeBP = 1\n  SSTORE \t\t\tuint256 public rewardFeeBP = 1\n  PUSH 64\t\t\t100\n  PUSH 8\t\t\tuint256 public treasuryFeeBP =...\n  SSTORE \t\t\tuint256 public treasuryFeeBP =...\n  PUSH 1\t\t\ttrue\n  PUSH 9\t\t\tbool public feesEnabled = true\n  PUSH 0\t\t\tbool public feesEnabled = true\n  PUSH 100\t\t\tbool public feesEnabled = true\n  EXP \t\t\tbool public feesEnabled = true\n  DUP2 \t\t\tbool public feesEnabled = true\n  SLOAD \t\t\tbool public feesEnabled = true\n  DUP2 \t\t\tbool public feesEnabled = true\n  PUSH FF\t\t\tbool public feesEnabled = true\n  MUL \t\t\tbool public feesEnabled = true\n  NOT \t\t\tbool public feesEnabled = true\n  AND \t\t\tbool public feesEnabled = true\n  SWAP1 \t\t\tbool public feesEnabled = true\n  DUP4 \t\t\tbool public feesEnabled = true\n  ISZERO \t\t\tbool public feesEnabled = true\n  ISZERO \t\t\tbool public feesEnabled = true\n  MUL \t\t\tbool public feesEnabled = true\n  OR \t\t\tbool public feesEnabled = true\n  SWAP1 \t\t\tbool public feesEnabled = true\n  SSTORE \t\t\tbool public feesEnabled = true\n  POP \t\t\tbool public feesEnabled = true\n  CALLVALUE \t\t\tconstructor(\\n        address ...\n  DUP1 \t\t\tconstructor(\\n        address ...\n  ISZERO \t\t\tconstructor(\\n        address ...\n  PUSH [tag] 1\t\t\tconstructor(\\n        address ...\n  JUMPI \t\t\tconstructor(\\n        address ...\n  PUSH 0\t\t\tconstructor(\\n        address ...\n  DUP1 \t\t\tconstructor(\\n        address ...\n  REVERT \t\t\tconstructor(\\n        address ...\ntag 1\t\t\tconstructor(\\n        address ...\n  JUMPDEST \t\t\tconstructor(\\n        address ...\n  POP \t\t\tconstructor(\\n        address ...\n  PUSH 40\t\t\tconstructor(\\n        address ...\n  MLOAD \t\t\tconstructor(\\n        address ...\n  PUSHSIZE \t\t\tconstructor(\\n        address ...\n  CODESIZE \t\t\tconstructor(\\n        address ...\n  SUB \t\t\tconstructor(\\n        address ...\n  DUP1 \t\t\tconstructor(\\n        address ...\n  PUSHSIZE \t\t\tconstructor(\\n        address ...\n  DUP4 \t\t\tconstructor(\\n        address ...\n  CODECOPY \t\t\tconstructor(\\n        address ...\n  DUP2 \t\t\tconstructor(\\n        address ...\n  DUP2 \t\t\tconstructor(\\n        address ...\n  ADD \t\t\tconstructor(\\n        address ...\n  PUSH 40\t\t\tconstructor(\\n        address ...\n  MSTORE \t\t\tconstructor(\\n        address ...\n  DUP2 \t\t\tconstructor(\\n        address ...\n  ADD \t\t\tconstructor(\\n        address ...\n  SWAP1 \t\t\tconstructor(\\n        address ...\n  PUSH [tag] 2\t\t\tconstructor(\\n        address ...\n  SWAP2 \t\t\tconstructor(\\n        address ...\n  SWAP1 \t\t\tconstructor(\\n        address ...\n  PUSH [tag] 3\t\t\tconstructor(\\n        address ...\n  JUMP \t\t\tconstructor(\\n        address ...\ntag 2\t\t\tconstructor(\\n        address ...\n  JUMPDEST \t\t\tconstructor(\\n        address ...\n  CALLER \t\t\tmsg.sender\n  PUSH 40\t\t\tconstructor(string memory name...\n  MLOAD \t\t\tconstructor(string memory name...\n  DUP1 \t\t\tconstructor(string memory name...\n  PUSH 40\t\t\tconstructor(string memory name...\n  ADD \t\t\tconstructor(string memory name...\n  PUSH 40\t\t\tconstructor(string memory name...\n  MSTORE \t\t\tconstructor(string memory name...\n  DUP1 \t\t\tconstructor(string memory name...\n  PUSH 9\t\t\tconstructor(string memory name...\n  DUP2 \t\t\tconstructor(string memory name...\n  MSTORE \t\t\tconstructor(string memory name...\n  PUSH 20\t\t\tconstructor(string memory name...\n  ADD \t\t\tconstructor(string memory name...\n  PUSH 4249544B57414E5A410000000000000000000000000000000000000000000000\t\t\tconstructor(string memory name...\n  DUP2 \t\t\tconstructor(string memory name...\n  MSTORE \t\t\tconstructor(string memory name...\n  POP \t\t\tconstructor(string memory name...\n  PUSH 40\t\t\tconstructor(string memory name...\n  MLOAD \t\t\tconstructor(string memory name...\n  DUP1 \t\t\tconstructor(string memory name...\n  PUSH 40\t\t\tconstructor(string memory name...\n  ADD \t\t\tconstructor(string memory name...\n  PUSH 40\t\t\tconstructor(string memory name...\n  MSTORE \t\t\tconstructor(string memory name...\n  DUP1 \t\t\tconstructor(string memory name...\n  PUSH 3\t\t\tconstructor(string memory name...\n  DUP2 \t\t\tconstructor(string memory name...\n  MSTORE \t\t\tconstructor(string memory name...\n  PUSH 20\t\t\tconstructor(string memory name...\n  ADD \t\t\tconstructor(string memory name...\n  PUSH 424B5A0000000000000000000000000000000000000000000000000000000000\t\t\tconstructor(string memory name...\n  DUP2 \t\t\tconstructor(string memory name...\n  MSTORE \t\t\tconstructor(string memory name...\n  POP \t\t\tconstructor(string memory name...\n  DUP2 \t\t\tname_\n  PUSH 3\t\t\t_name\n  SWAP1 \t\t\t_name = name_\n  DUP2 \t\t\t_name = name_\n  PUSH [tag] 8\t\t\t_name = name_\n  SWAP2 \t\t\t_name = name_\n  SWAP1 \t\t\t_name = name_\n  PUSH [tag] 9\t\t\t_name = name_\n  JUMP \t\t\t_name = name_\ntag 8\t\t\t_name = name_\n  JUMPDEST \t\t\t_name = name_\n  POP \t\t\t_name = name_\n  DUP1 \t\t\tsymbol_\n  PUSH 4\t\t\t_symbol\n  SWAP1 \t\t\t_symbol = symbol_\n  DUP2 \t\t\t_symbol = symbol_\n  PUSH [tag] 10\t\t\t_symbol = symbol_\n  SWAP2 \t\t\t_symbol = symbol_\n  SWAP1 \t\t\t_symbol = symbol_\n  PUSH [tag] 9\t\t\t_symbol = symbol_\n  JUMP \t\t\t_symbol = symbol_\ntag 10\t\t\t_symbol = symbol_\n  JUMPDEST \t\t\t_symbol = symbol_\n  POP \t\t\t_symbol = symbol_\n  POP \t\t\tconstructor(string memory name...\n  POP \t\t\tconstructor(string memory name...\n  PUSH [tag] 12\t\t\t_transferOwnership(initialOwne...\n  DUP2 \t\t\tinitialOwner\n  PUSH [tag] 13\t\t\t_transferOwnership\n  PUSH 20\t\t\t_transferOwnership\n  SHL \t\t\t_transferOwnership\n  PUSH 20\t\t\t_transferOwnership(initialOwne...\n  SHR \t\t\t_transferOwnership(initialOwne...\n  JUMP \t\t\t_transferOwnership(initialOwne...\ntag 12\t\t\t_transferOwnership(initialOwne...\n  JUMPDEST \t\t\t_transferOwnership(initialOwne...\n  POP \t\t\tconstructor(address initialOwn...\n  DUP2 \t\t\t_foundingWallet\n  PUSH 9\t\t\tfoundingWallet\n  PUSH 1\t\t\tfoundingWallet\n  PUSH 100\t\t\tfoundingWallet = _foundingWall...\n  EXP \t\t\tfoundingWallet = _foundingWall...\n  DUP2 \t\t\tfoundingWallet = _foundingWall...\n  SLOAD \t\t\tfoundingWallet = _foundingWall...\n  DUP2 \t\t\tfoundingWallet = _foundingWall...\n  PUSH FFFFFFFFFFFFFFFFFFFFFFFFFFFFFFFFFFFFFFFF\t\t\tfoundingWallet = _foundingWall...\n  MUL \t\t\tfoundingWallet = _foundingWall...\n  NOT \t\t\tfoundingWallet = _foundingWall...\n  AND \t\t\tfoundingWallet = _foundingWall...\n  SWAP1 \t\t\tfoundingWallet = _foundingWall...\n  DUP4 \t\t\tfoundingWallet = _foundingWall...\n  PUSH FFFFFFFFFFFFFFFFFFFFFFFFFFFFFFFFFFFFFFFF\t\t\tfoundingWallet = _foundingWall...\n  AND \t\t\tfoundingWallet = _foundingWall...\n  MUL \t\t\tfoundingWallet = _foundingWall...\n  OR \t\t\tfoundingWallet = _foundingWall...\n  SWAP1 \t\t\tfoundingWallet = _foundingWall...\n  SSTORE \t\t\tfoundingWallet = _foundingWall...\n  POP \t\t\tfoundingWallet = _foundingWall...\n  DUP1 \t\t\t_treasuryWallet\n  PUSH A\t\t\ttreasuryWallet\n  PUSH 0\t\t\ttreasuryWallet\n  PUSH 100\t\t\ttreasuryWallet = _treasuryWall...\n  EXP \t\t\ttreasuryWallet = _treasuryWall...\n  DUP2 \t\t\ttreasuryWallet = _treasuryWall...\n  SLOAD \t\t\ttreasuryWallet = _treasuryWall...\n  DUP2 \t\t\ttreasuryWallet = _treasuryWall...\n  PUSH FFFFFFFFFFFFFFFFFFFFFFFFFFFFFFFFFFFFFFFF\t\t\ttreasuryWallet = _treasuryWall...\n  MUL \t\t\ttreasuryWallet = _treasuryWall...\n  NOT \t\t\ttreasuryWallet = _treasuryWall...\n  AND \t\t\ttreasuryWallet = _treasuryWall...\n  SWAP1 \t\t\ttreasuryWallet = _treasuryWall...\n  DUP4 \t\t\ttreasuryWallet = _treasuryWall...\n  PUSH FFFFFFFFFFFFFFFFFFFFFFFFFFFFFFFFFFFFFFFF\t\t\ttreasuryWallet = _treasuryWall...\n  AND \t\t\ttreasuryWallet = _treasuryWall...\n  MUL \t\t\ttreasuryWallet = _treasuryWall...\n  OR \t\t\ttreasuryWallet = _treasuryWall...\n  SWAP1 \t\t\ttreasuryWallet = _treasuryWall...\n  SSTORE \t\t\ttreasuryWallet = _treasuryWall...\n  POP \t\t\ttreasuryWallet = _treasuryWall...\n  ADDRESS \t\t\tthis\n  DUP2 \t\t\t_treasuryWallet\n  PUSH 40\t\t\tnew DividendVault(address(this...\n  MLOAD \t\t\tnew DividendVault(address(this...\n  PUSH [tag] 15\t\t\tnew DividendVault(address(this...\n  SWAP1 \t\t\tnew DividendVault(address(this...\n  PUSH [tag] 16\t\t\tnew DividendVault(address(this...\n  JUMP \t\t\tnew DividendVault(address(this...\ntag 15\t\t\tnew DividendVault(address(this...\n  JUMPDEST \t\t\tnew DividendVault(address(this...\n  PUSH [tag] 17\t\t\tnew DividendVault(address(this...\n  SWAP3 \t\t\tnew DividendVault(address(this...\n  SWAP2 \t\t\tnew DividendVault(address(this...\n  SWAP1 \t\t\tnew DividendVault(address(this...\n  PUSH [tag] 18\t\t\tnew DividendVault(address(this...\n  JUMP \t\t\tnew DividendVault(address(this...\ntag 17\t\t\tnew DividendVault(address(this...\n  JUMPDEST \t\t\tnew DividendVault(address(this...\n  PUSH 40\t\t\tnew DividendVault(address(this...\n  MLOAD \t\t\tnew DividendVault(address(this...\n  DUP1 \t\t\tnew DividendVault(address(this...\n  SWAP2 \t\t\tnew DividendVault(address(this...\n  SUB \t\t\tnew DividendVault(address(this...\n  SWAP1 \t\t\tnew DividendVault(address(this...\n  PUSH 0\t\t\tnew DividendVault(address(this...\n  CREATE \t\t\tnew DividendVault(address(this...\n  DUP1 \t\t\tnew DividendVault(address(this...\n  ISZERO \t\t\tnew DividendVault(address(this...\n  DUP1 \t\t\tnew DividendVault(address(this...\n  ISZERO \t\t\tnew DividendVault(address(this...\n  PUSH [tag] 19\t\t\tnew DividendVault(address(this...\n  JUMPI \t\t\tnew DividendVault(address(this...\n  RETURNDATASIZE \t\t\tnew DividendVault(address(this...\n  PUSH 0\t\t\tnew DividendVault(address(this...\n  DUP1 \t\t\tnew DividendVault(address(this...\n  RETURNDATACOPY \t\t\tnew DividendVault(address(this...\n  RETURNDATASIZE \t\t\tnew DividendVault(address(this...\n  PUSH 0\t\t\tnew DividendVault(address(this...\n  REVERT \t\t\tnew DividendVault(address(this...\ntag 19\t\t\tnew DividendVault(address(this...\n  JUMPDEST \t\t\tnew DividendVault(address(this...\n  POP \t\t\tnew DividendVault(address(this...\n  PUSH B\t\t\tvault\n  PUSH 0\t\t\tvault\n  PUSH 100\t\t\tvault = new DividendVault(addr...\n  EXP \t\t\tvault = new DividendVault(addr...\n  DUP2 \t\t\tvault = new DividendVault(addr...\n  SLOAD \t\t\tvault = new DividendVault(addr...\n  DUP2 \t\t\tvault = new DividendVault(addr...\n  PUSH FFFFFFFFFFFFFFFFFFFFFFFFFFFFFFFFFFFFFFFF\t\t\tvault = new DividendVault(addr...\n  MUL \t\t\tvault = new DividendVault(addr...\n  NOT \t\t\tvault = new DividendVault(addr...\n  AND \t\t\tvault = new DividendVault(addr...\n  SWAP1 \t\t\tvault = new DividendVault(addr...\n  DUP4 \t\t\tvault = new DividendVault(addr...\n  PUSH FFFFFFFFFFFFFFFFFFFFFFFFFFFFFFFFFFFFFFFF\t\t\tvault = new DividendVault(addr...\n  AND \t\t\tvault = new DividendVault(addr...\n  MUL \t\t\tvault = new DividendVault(addr...\n  OR \t\t\tvault = new DividendVault(addr...\n  SWAP1 \t\t\tvault = new DividendVault(addr...\n  SSTORE \t\t\tvault = new DividendVault(addr...\n  POP \t\t\tvault = new DividendVault(addr...\n  PUSH [tag] 20\t\t\t_mint(msg.sender, MAX_SUPPLY)\n  CALLER \t\t\tmsg.sender\n  PUSH 33B2E3C9FD0803CE8000000\t\t\t1_000_000_000 * 10**18\n  PUSH [tag] 21\t\t\t_mint\n  PUSH 20\t\t\t_mint\n  SHL \t\t\t_mint\n  PUSH 20\t\t\t_mint(msg.sender, MAX_SUPPLY)\n  SHR \t\t\t_mint(msg.sender, MAX_SUPPLY)\n  JUMP \t\t\t_mint(msg.sender, MAX_SUPPLY)\ntag 20\t\t\t_mint(msg.sender, MAX_SUPPLY)\n  JUMPDEST \t\t\t_mint(msg.sender, MAX_SUPPLY)\n  PUSH 1\t\t\ttrue\n  PUSH C\t\t\tisFeeExempt\n  PUSH 0\t\t\tisFeeExempt[msg.sender]\n  CALLER \t\t\tmsg.sender\n  PUSH FFFFFFFFFFFFFFFFFFFFFFFFFFFFFFFFFFFFFFFF\t\t\tisFeeExempt[msg.sender]\n  AND \t\t\tisFeeExempt[msg.sender]\n  PUSH FFFFFFFFFFFFFFFFFFFFFFFFFFFFFFFFFFFFFFFF\t\t\tisFeeExempt[msg.sender]\n  AND \t\t\tisFeeExempt[msg.sender]\n  DUP2 \t\t\tisFeeExempt[msg.sender]\n  MSTORE \t\t\tisFeeExempt[msg.sender]\n  PUSH 20\t\t\tisFeeExempt[msg.sender]\n  ADD \t\t\tisFeeExempt[msg.sender]\n  SWAP1 \t\t\tisFeeExempt[msg.sender]\n  DUP2 \t\t\tisFeeExempt[msg.sender]\n  MSTORE \t\t\tisFeeExempt[msg.sender]\n  PUSH 20\t\t\tisFeeExempt[msg.sender]\n  ADD \t\t\tisFeeExempt[msg.sender]\n  PUSH 0\t\t\tisFeeExempt[msg.sender]\n  KECCAK256 \t\t\tisFeeExempt[msg.sender]\n  PUSH 0\t\t\tisFeeExempt[msg.sender]\n  PUSH 100\t\t\tisFeeExempt[msg.sender] = true\n  EXP \t\t\tisFeeExempt[msg.sender] = true\n  DUP2 \t\t\tisFeeExempt[msg.sender] = true\n  SLOAD \t\t\tisFeeExempt[msg.sender] = true\n  DUP2 \t\t\tisFeeExempt[msg.sender] = true\n  PUSH FF\t\t\tisFeeExempt[msg.sender] = true\n  MUL \t\t\tisFeeExempt[msg.sender] = true\n  NOT \t\t\tisFeeExempt[msg.sender] = true\n  AND \t\t\tisFeeExempt[msg.sender] = true\n  SWAP1 \t\t\tisFeeExempt[msg.sender] = true\n  DUP4 \t\t\tisFeeExempt[msg.sender] = true\n  ISZERO \t\t\tisFeeExempt[msg.sender] = true\n  ISZERO \t\t\tisFeeExempt[msg.sender] = true\n  MUL \t\t\tisFeeExempt[msg.sender] = true\n  OR \t\t\tisFeeExempt[msg.sender] = true\n  SWAP1 \t\t\tisFeeExempt[msg.sender] = true\n  SSTORE \t\t\tisFeeExempt[msg.sender] = true\n  POP \t\t\tisFeeExempt[msg.sender] = true\n  PUSH 1\t\t\ttrue\n  PUSH C\t\t\tisFeeExempt\n  PUSH 0\t\t\tisFeeExempt[address(this)]\n  ADDRESS \t\t\tthis\n  PUSH FFFFFFFFFFFFFFFFFFFFFFFFFFFFFFFFFFFFFFFF\t\t\tisFeeExempt[address(this)]\n  AND \t\t\tisFeeExempt[address(this)]\n  PUSH FFFFFFFFFFFFFFFFFFFFFFFFFFFFFFFFFFFFFFFF\t\t\tisFeeExempt[address(this)]\n  AND \t\t\tisFeeExempt[address(this)]\n  DUP2 \t\t\tisFeeExempt[address(this)]\n  MSTORE \t\t\tisFeeExempt[address(this)]\n  PUSH 20\t\t\tisFeeExempt[address(this)]\n  ADD \t\t\tisFeeExempt[address(this)]\n  SWAP1 \t\t\tisFeeExempt[address(this)]\n  DUP2 \t\t\tisFeeExempt[address(this)]\n  MSTORE \t\t\tisFeeExempt[address(this)]\n  PUSH 20\t\t\tisFeeExempt[address(this)]\n  ADD \t\t\tisFeeExempt[address(this)]\n  PUSH 0\t\t\tisFeeExempt[address(this)]\n  KECCAK256 \t\t\tisFeeExempt[address(this)]\n  PUSH 0\t\t\tisFeeExempt[address(this)]\n  PUSH 100\t\t\tisFeeExempt[address(this)] = t...\n  EXP \t\t\tisFeeExempt[address(this)] = t...\n  DUP2 \t\t\tisFeeExempt[address(this)] = t...\n  SLOAD \t\t\tisFeeExempt[address(this)] = t...\n  DUP2 \t\t\tisFeeExempt[address(this)] = t...\n  PUSH FF\t\t\tisFeeExempt[address(this)] = t...\n  MUL \t\t\tisFeeExempt[address(this)] = t...\n  NOT \t\t\tisFeeExempt[address(this)] = t...\n  AND \t\t\tisFeeExempt[address(this)] = t...\n  SWAP1 \t\t\tisFeeExempt[address(this)] = t...\n  DUP4 \t\t\tisFeeExempt[address(this)] = t...\n  ISZERO \t\t\tisFeeExempt[address(this)] = t...\n  ISZERO \t\t\tisFeeExempt[address(this)] = t...\n  MUL \t\t\tisFeeExempt[address(this)] = t...\n  OR \t\t\tisFeeExempt[address(this)] = t...\n  SWAP1 \t\t\tisFeeExempt[address(this)] = t...\n  SSTORE \t\t\tisFeeExempt[address(this)] = t...\n  POP \t\t\tisFeeExempt[address(this)] = t...\n  POP \t\t\tconstructor(\\n        address ...\n  POP \t\t\tconstructor(\\n        address ...\n  PUSH [tag] 22\t\t\tcontract BITKWANZA is ERC20, O...\n  JUMP \t\t\tcontract BITKWANZA is ERC20, O...\ntag 13\t\t\tfunction _transferOwnership(ad...\n  JUMPDEST \t\t\tfunction _transferOwnership(ad...\n  PUSH 0\t\t\taddress oldOwner\n  PUSH 5\t\t\t_owner\n  PUSH 0\t\t\t_owner\n  SWAP1 \t\t\t_owner\n  SLOAD \t\t\t_owner\n  SWAP1 \t\t\t_owner\n  PUSH 100\t\t\t_owner\n  EXP \t\t\t_owner\n  SWAP1 \t\t\t_owner\n  DIV \t\t\t_owner\n  PUSH FFFFFFFFFFFFFFFFFFFFFFFFFFFFFFFFFFFFFFFF\t\t\t_owner\n  AND \t\t\t_owner\n  SWAP1 \t\t\taddress oldOwner = _owner\n  POP \t\t\taddress oldOwner = _owner\n  DUP2 \t\t\tnewOwner\n  PUSH 5\t\t\t_owner\n  PUSH 0\t\t\t_owner\n  PUSH 100\t\t\t_owner = newOwner\n  EXP \t\t\t_owner = newOwner\n  DUP2 \t\t\t_owner = newOwner\n  SLOAD \t\t\t_owner = newOwner\n  DUP2 \t\t\t_owner = newOwner\n  PUSH FFFFFFFFFFFFFFFFFFFFFFFFFFFFFFFFFFFFFFFF\t\t\t_owner = newOwner\n  MUL \t\t\t_owner = newOwner\n  NOT \t\t\t_owner = newOwner\n  AND \t\t\t_owner = newOwner\n  SWAP1 \t\t\t_owner = newOwner\n  DUP4 \t\t\t_owner = newOwner\n  PUSH FFFFFFFFFFFFFFFFFFFFFFFFFFFFFFFFFFFFFFFF\t\t\t_owner = newOwner\n  AND \t\t\t_owner = newOwner\n  MUL \t\t\t_owner = newOwner\n  OR \t\t\t_owner = newOwner\n  SWAP1 \t\t\t_owner = newOwner\n  SSTORE \t\t\t_owner = newOwner\n  POP \t\t\t_owner = newOwner\n  DUP2 \t\t\tnewOwner\n  PUSH FFFFFFFFFFFFFFFFFFFFFFFFFFFFFFFFFFFFFFFF\t\t\tOwnershipTransferred(oldOwner,...\n  AND \t\t\tOwnershipTransferred(oldOwner,...\n  DUP2 \t\t\toldOwner\n  PUSH FFFFFFFFFFFFFFFFFFFFFFFFFFFFFFFFFFFFFFFF\t\t\tOwnershipTransferred(oldOwner,...\n  AND \t\t\tOwnershipTransferred(oldOwner,...\n  PUSH 8BE0079C531659141344CD1FD0A4F28419497F9722A3DAAFE3B4186F6B6457E0\t\t\tOwnershipTransferred(oldOwner,...\n  PUSH 40\t\t\tOwnershipTransferred(oldOwner,...\n  MLOAD \t\t\tOwnershipTransferred(oldOwner,...\n  PUSH 40\t\t\tOwnershipTransferred(oldOwner,...\n  MLOAD \t\t\tOwnershipTransferred(oldOwner,...\n  DUP1 \t\t\tOwnershipTransferred(oldOwner,...\n  SWAP2 \t\t\tOwnershipTransferred(oldOwner,...\n  SUB \t\t\tOwnershipTransferred(oldOwner,...\n  SWAP1 \t\t\tOwnershipTransferred(oldOwner,...\n  LOG3 \t\t\tOwnershipTransferred(oldOwner,...\n  POP \t\t\t{\\n        address oldOwner = ...\n  POP \t\t\tfunction _transferOwnership(ad...\n  JUMP \t\t\tfunction _transferOwnership(ad...\ntag 21\t\t\tfunction _mint(address account...\n  JUMPDEST \t\t\tfunction _mint(address account...\n  PUSH [tag] 25\t\t\t_beforeTokenTransfer(address(0...\n  PUSH 0\t\t\t0\n  DUP4 \t\t\taccount\n  DUP4 \t\t\tamount\n  PUSH [tag] 26\t\t\t_beforeTokenTransfer\n  PUSH 20\t\t\t_beforeTokenTransfer\n  SHL \t\t\t_beforeTokenTransfer\n  PUSH 20\t\t\t_beforeTokenTransfer(address(0...\n  SHR \t\t\t_beforeTokenTransfer(address(0...\n  JUMP \t\t\t_beforeTokenTransfer(address(0...\ntag 25\t\t\t_beforeTokenTransfer(address(0...\n  JUMPDEST \t\t\t_beforeTokenTransfer(address(0...\n  DUP1 \t\t\tamount\n  PUSH 2\t\t\t_totalSupply\n  PUSH 0\t\t\t_totalSupply\n  DUP3 \t\t\t_totalSupply += amount\n  DUP3 \t\t\t_totalSupply += amount\n  SLOAD \t\t\t_totalSupply += amount\n  PUSH [tag] 27\t\t\t_totalSupply += amount\n  SWAP2 \t\t\t_totalSupply += amount\n  SWAP1 \t\t\t_totalSupply += amount\n  PUSH [tag] 28\t\t\t_totalSupply += amount\n  JUMP \t\t\t_totalSupply += amount\ntag 27\t\t\t_totalSupply += amount\n  JUMPDEST \t\t\t_totalSupply += amount\n  SWAP3 \t\t\t_totalSupply += amount\n  POP \t\t\t_totalSupply += amount\n  POP \t\t\t_totalSupply += amount\n  DUP2 \t\t\t_totalSupply += amount\n  SWAP1 \t\t\t_totalSupply += amount\n  SSTORE \t\t\t_totalSupply += amount\n  POP \t\t\t_totalSupply += amount\n  DUP1 \t\t\tamount\n  PUSH 0\t\t\t_balances\n  DUP1 \t\t\t_balances[account]\n  DUP5 \t\t\taccount\n  PUSH FFFFFFFFFFFFFFFFFFFFFFFFFFFFFFFFFFFFFFFF\t\t\t_balances[account]\n  AND \t\t\t_balances[account]\n  PUSH FFFFFFFFFFFFFFFFFFFFFFFFFFFFFFFFFFFFFFFF\t\t\t_balances[account]\n  AND \t\t\t_balances[account]\n  DUP2 \t\t\t_balances[account]\n  MSTORE \t\t\t_balances[account]\n  PUSH 20\t\t\t_balances[account]\n  ADD \t\t\t_balances[account]\n  SWAP1 \t\t\t_balances[account]\n  DUP2 \t\t\t_balances[account]\n  MSTORE \t\t\t_balances[account]\n  PUSH 20\t\t\t_balances[account]\n  ADD \t\t\t_balances[account]\n  PUSH 0\t\t\t_balances[account]\n  KECCAK256 \t\t\t_balances[account]\n  PUSH 0\t\t\t_balances[account]\n  DUP3 \t\t\t_balances[account] += amount\n  DUP3 \t\t\t_balances[account] += amount\n  SLOAD \t\t\t_balances[account] += amount\n  PUSH [tag] 29\t\t\t_balances[account] += amount\n  SWAP2 \t\t\t_balances[account] += amount\n  SWAP1 \t\t\t_balances[account] += amount\n  PUSH [tag] 28\t\t\t_balances[account] += amount\n  JUMP \t\t\t_balances[account] += amount\ntag 29\t\t\t_balances[account] += amount\n  JUMPDEST \t\t\t_balances[account] += amount\n  SWAP3 \t\t\t_balances[account] += amount\n  POP \t\t\t_balances[account] += amount\n  POP \t\t\t_balances[account] += amount\n  DUP2 \t\t\t_balances[account] += amount\n  SWAP1 \t\t\t_balances[account] += amount\n  SSTORE \t\t\t_balances[account] += amount\n  POP \t\t\t_balances[account] += amount\n  DUP2 \t\t\taccount\n  PUSH FFFFFFFFFFFFFFFFFFFFFFFFFFFFFFFFFFFFFFFF\t\t\tTransfer(address(0), account, ...\n  AND \t\t\tTransfer(address(0), account, ...\n  PUSH 0\t\t\t0\n  PUSH FFFFFFFFFFFFFFFFFFFFFFFFFFFFFFFFFFFFFFFF\t\t\tTransfer(address(0), account, ...\n  AND \t\t\tTransfer(address(0), account, ...\n  PUSH DDF252AD1BE2C89B69C2B068FC378DAA952BA7F163C4A11628F55A4DF523B3EF\t\t\tTransfer(address(0), account, ...\n  DUP4 \t\t\tamount\n  PUSH 40\t\t\tTransfer(address(0), account, ...\n  MLOAD \t\t\tTransfer(address(0), account, ...\n  PUSH [tag] 30\t\t\tTransfer(address(0), account, ...\n  SWAP2 \t\t\tTransfer(address(0), account, ...\n  SWAP1 \t\t\tTransfer(address(0), account, ...\n  PUSH [tag] 31\t\t\tTransfer(address(0), account, ...\n  JUMP \t\t\tTransfer(address(0), account, ...\ntag 30\t\t\tTransfer(address(0), account, ...\n  JUMPDEST \t\t\tTransfer(address(0), account, ...\n  PUSH 40\t\t\tTransfer(address(0), account, ...\n  MLOAD \t\t\tTransfer(address(0), account, ...\n  DUP1 \t\t\tTransfer(address(0), account, ...\n  SWAP2 \t\t\tTransfer(address(0), account, ...\n  SUB \t\t\tTransfer(address(0), account, ...\n  SWAP1 \t\t\tTransfer(address(0), account, ...\n  LOG3 \t\t\tTransfer(address(0), account, ...\n  PUSH [tag] 32\t\t\t_afterTokenTransfer(address(0)...\n  PUSH 0\t\t\t0\n  DUP4 \t\t\taccount\n  DUP4 \t\t\tamount\n  PUSH [tag] 33\t\t\t_afterTokenTransfer\n  PUSH 20\t\t\t_afterTokenTransfer\n  SHL \t\t\t_afterTokenTransfer\n  PUSH 20\t\t\t_afterTokenTransfer(address(0)...\n  SHR \t\t\t_afterTokenTransfer(address(0)...\n  JUMP \t\t\t_afterTokenTransfer(address(0)...\ntag 32\t\t\t_afterTokenTransfer(address(0)...\n  JUMPDEST \t\t\t_afterTokenTransfer(address(0)...\n  POP \t\t\tfunction _mint(address account...\n  POP \t\t\tfunction _mint(address account...\n  JUMP \t\t\tfunction _mint(address account...\ntag 26\t\t\tfunction _beforeTokenTransfer(...\n  JUMPDEST \t\t\tfunction _beforeTokenTransfer(...\n  POP \t\t\tfunction _beforeTokenTransfer(...\n  POP \t\t\tfunction _beforeTokenTransfer(...\n  POP \t\t\tfunction _beforeTokenTransfer(...\n  JUMP \t\t\tfunction _beforeTokenTransfer(...\ntag 33\t\t\tfunction _afterTokenTransfer(a...\n  JUMPDEST \t\t\tfunction _afterTokenTransfer(a...\n  POP \t\t\tfunction _afterTokenTransfer(a...\n  POP \t\t\tfunction _afterTokenTransfer(a...\n  POP \t\t\tfunction _afterTokenTransfer(a...\n  JUMP \t\t\tfunction _afterTokenTransfer(a...\ntag 16\t\t\tcontract BITKWANZA is ERC20, O...\n  JUMPDEST \t\t\tcontract BITKWANZA is ERC20, O...\n  PUSH #[$] 0000000000000000000000000000000000000000000000000000000000000001\t\t\tcontract BITKWANZA is ERC20, O...\n  DUP1 \t\t\tcontract BITKWANZA is ERC20, O...\n  PUSH [$] 0000000000000000000000000000000000000000000000000000000000000001\t\t\tcontract BITKWANZA is ERC20, O...\n  DUP4 \t\t\tcontract BITKWANZA is ERC20, O...\n  CODECOPY \t\t\tcontract BITKWANZA is ERC20, O...\n  ADD \t\t\tcontract BITKWANZA is ERC20, O...\n  SWAP1 \t\t\tcontract BITKWANZA is ERC20, O...\n  JUMP \t\t\tcontract BITKWANZA is ERC20, O...\ntag 37\t\t\tIN DEPENDENCIES --------------...\n  JUMPDEST \t\t\tIN DEPENDENCIES --------------...\n  PUSH 0\t\t\tn\n  DUP1 \t\t\t/\n  REVERT \t\t\tEIP.\\n */\\nint\ntag 39\t\t\tns (uint256);\\n    function tr...\n  JUMPDEST \t\t\tns (uint256);\\n    function tr...\n  PUSH 0\t\t\tddress \n  PUSH FFFFFFFFFFFFFFFFFFFFFFFFFFFFFFFFFFFFFFFF\t\t\trns (bool);\\n    function allo...\n  DUP3 \t\t\tal re\n  AND \t\t\tternal returns (bool);\\n    fu...\n  SWAP1 \t\t\t amount) external returns (boo...\n  POP \t\t\t amount) external returns (boo...\n  SWAP2 \t\t\tns (uint256);\\n    function tr...\n  SWAP1 \t\t\tns (uint256);\\n    function tr...\n  POP \t\t\tns (uint256);\\n    function tr...\n  JUMP \t\t\tns (uint256);\\n    function tr...\ntag 40\t\t\tss spender) external view retu...\n  JUMPDEST \t\t\tss spender) external view retu...\n  PUSH 0\t\t\tnt256);\n  PUSH [tag] 72\t\t\taddress spender, uint256\n  DUP3 \t\t\tint25\n  PUSH [tag] 39\t\t\taddress spender, uint256\n  JUMP \t\t\taddress spender, uint256\ntag 72\t\t\taddress spender, uint256\n  JUMPDEST \t\t\taddress spender, uint256\n  SWAP1 \t\t\ton approve(address spender, ui...\n  POP \t\t\ton approve(address spender, ui...\n  SWAP2 \t\t\tss spender) external view retu...\n  SWAP1 \t\t\tss spender) external view retu...\n  POP \t\t\tss spender) external view retu...\n  JUMP \t\t\tss spender) external view retu...\ntag 41\t\t\ternal returns (bool);\\n    fun...\n  JUMPDEST \t\t\ternal returns (bool);\\n    fun...\n  PUSH [tag] 74\t\t\t      address to,\\n      \n  DUP2 \t\t\t     \n  PUSH [tag] 40\t\t\t      address to,\\n      \n  JUMP \t\t\t      address to,\\n      \ntag 74\t\t\t      address to,\\n      \n  JUMPDEST \t\t\t      address to,\\n      \n  DUP2 \t\t\trom,\\n\n  EQ \t\t\ts from,\\n        address to,\\n...\n  PUSH [tag] 75\t\t\t    address from,\\n        add...\n  JUMPI \t\t\t    address from,\\n        add...\n  PUSH 0\t\t\tt\n  DUP1 \t\t\to\n  REVERT \t\t\tt256 amount\\n\ntag 75\t\t\t    address from,\\n        add...\n  JUMPDEST \t\t\t    address from,\\n        add...\n  POP \t\t\ternal returns (bool);\\n    fun...\n  JUMP \t\t\ternal returns (bool);\\n    fun...\ntag 42\t\t\t returns (bool);\\n    event Tr...\n  JUMPDEST \t\t\t returns (bool);\\n    event Tr...\n  PUSH 0\t\t\t addr\n  DUP2 \t\t\tlue);\\n\n  MLOAD \t\t\t256 value);\\n \n  SWAP1 \t\t\t to, uint256 value);\\n \n  POP \t\t\t to, uint256 value);\\n \n  PUSH [tag] 77\t\t\tApproval(address indexed owner...\n  DUP2 \t\t\tner, \n  PUSH [tag] 41\t\t\tApproval(address indexed owner...\n  JUMP \t\t\tApproval(address indexed owner...\ntag 77\t\t\tApproval(address indexed owner...\n  JUMPDEST \t\t\tApproval(address indexed owner...\n  SWAP3 \t\t\t returns (bool);\\n    event Tr...\n  SWAP2 \t\t\t returns (bool);\\n    event Tr...\n  POP \t\t\t returns (bool);\\n    event Tr...\n  POP \t\t\t returns (bool);\\n    event Tr...\n  JUMP \t\t\t returns (bool);\\n    event Tr...\ntag 3\t\t\ted spender, uint256 value);\\n}...\n  JUMPDEST \t\t\ted spender, uint256 value);\\n}...\n  PUSH 0\t\t\tnt exe\n  DUP1 \t\t\ttion c\n  PUSH 40\t\t\t f\n  DUP4 \t\t\tontext {\\n\n  DUP6 \t\t\tontract\n  SUB \t\t\tct contract Context {\\n \n  SLT \t\t\tstract contract Context {\\n   ...\n  ISZERO \t\t\t\\nabstract contract Context {\\...\n  PUSH [tag] 79\t\t\t\\nabstract contract Context {\\...\n  JUMPI \t\t\t\\nabstract contract Context {\\...\n  PUSH [tag] 80\t\t\tion _msgSender() internal view...\n  PUSH [tag] 37\t\t\tion _msgSender() internal view...\n  JUMP \t\t\tion _msgSender() internal view...\ntag 80\t\t\tion _msgSender() internal view...\n  JUMPDEST \t\t\tion _msgSender() internal view...\ntag 79\t\t\t\\nabstract contract Context {\\...\n  JUMPDEST \t\t\t\\nabstract contract Context {\\...\n  PUSH 0\t\t\tr\n  PUSH [tag] 81\t\t\t (bytes calldata) {\\n        r...\n  DUP6 \t\t\t*\\n * @d\n  DUP3 \t\t\t  }\\n}\\n\n  DUP7 \t\t\tsg.data;\\n\n  ADD \t\t\trn msg.data;\\n    }\\n}\\n\\n\n  PUSH [tag] 42\t\t\t (bytes calldata) {\\n        r...\n  JUMP \t\t\t (bytes calldata) {\\n        r...\ntag 81\t\t\t (bytes calldata) {\\n        r...\n  JUMPDEST \t\t\t (bytes calldata) {\\n        r...\n  SWAP3 \t\t\tal returns (bytes calldata) {\\...\n  POP \t\t\tal returns (bytes calldata) {\\...\n  POP \t\t\t\\n    function _msgData() inte...\n  PUSH 20\t\t\ton\n  PUSH [tag] 82\t\t\tIERC20 {\\n    mapping(address ...\n  DUP6 \t\t\tes;\\n   \n  DUP3 \t\t\te _bal\n  DUP7 \t\t\t256) priv\n  ADD \t\t\tuint256) private _bala\n  PUSH [tag] 42\t\t\tIERC20 {\\n    mapping(address ...\n  JUMP \t\t\tIERC20 {\\n    mapping(address ...\ntag 82\t\t\tIERC20 {\\n    mapping(address ...\n  JUMPDEST \t\t\tIERC20 {\\n    mapping(address ...\n  SWAP2 \t\t\t Context, IERC20 {\\n    mappin...\n  POP \t\t\t Context, IERC20 {\\n    mappin...\n  POP \t\t\tthe {IERC20} interface.\\n */\\n...\n  SWAP3 \t\t\ted spender, uint256 value);\\n}...\n  POP \t\t\ted spender, uint256 value);\\n}...\n  SWAP3 \t\t\ted spender, uint256 value);\\n}...\n  SWAP1 \t\t\ted spender, uint256 value);\\n}...\n  POP \t\t\ted spender, uint256 value);\\n}...\n  JUMP \t\t\ted spender, uint256 value);\\n}...\ntag 43\t\t\ting(address => uint256)) priva...\n  JUMPDEST \t\t\ting(address => uint256)) priva...\n  PUSH 0\t\t\tint256\n  DUP2 \t\t\ttring\n  MLOAD \t\t\t\\n    string \n  SWAP1 \t\t\ttalSupply;\\n    string \n  POP \t\t\ttalSupply;\\n    string \n  SWAP2 \t\t\ting(address => uint256)) priva...\n  SWAP1 \t\t\ting(address => uint256)) priva...\n  POP \t\t\ting(address => uint256)) priva...\n  JUMP \t\t\ting(address => uint256)) priva...\ntag 44\t\t\t;\\n    string private _symbol;...\n  JUMPDEST \t\t\t;\\n    string private _symbol;...\n  PUSH 4E487B7100000000000000000000000000000000000000000000000000000000\t\t\ttring memory name_, string mem...\n  PUSH 0\t\t\tr\n  MSTORE \t\t\tstructor(string memory name_, ...\n  PUSH 41\t\t\t  }\\n\n  PUSH 4\t\t\t\\n\n  MSTORE \t\t\tymbol_;\\n    }\\n\\n\n  PUSH 24\t\t\t pub\n  PUSH 0\t\t\te\n  REVERT \t\t\tion name() publ\ntag 45\t\t\tual returns (string memory) {\\...\n  JUMPDEST \t\t\tual returns (string memory) {\\...\n  PUSH 4E487B7100000000000000000000000000000000000000000000000000000000\t\t\tme;\\n    }\\n\\n    function sym...\n  PUSH 0\t\t\t_\n  MSTORE \t\t\treturn _name;\\n    }\\n\\n    fu...\n  PUSH 22\t\t\tmbol\n  PUSH 4\t\t\t_\n  MSTORE \t\t\treturn _symbol;\n  PUSH 24\t\t\tn de\n  PUSH 0\t\t\tt\n  REVERT \t\t\t   function dec\ntag 46\t\t\tic view virtual returns (uint8...\n  JUMPDEST \t\t\tic view virtual returns (uint8...\n  PUSH 0\t\t\tturn 1\n  PUSH 2\t\t\tp\n  DUP3 \t\t\ttalS\n  DIV \t\t\tn totalSuppl\n  SWAP1 \t\t\t   function totalSuppl\n  POP \t\t\t   function totalSuppl\n  PUSH 1\t\t\tt\n  DUP3 \t\t\ts (u\n  AND \t\t\tturns (uint2\n  DUP1 \t\t\tn _totalSupply;\\n  \n  PUSH [tag] 87\t\t\t     return _totalSupply;\\n   ...\n  JUMPI \t\t\t     return _totalSupply;\\n   ...\n  PUSH 7F\t\t\tcoun\n  DUP3 \t\t\tdress \n  AND \t\t\tf(address account\n  SWAP2 \t\t\tn balanceOf(address account\n  POP \t\t\tn balanceOf(address account\ntag 87\t\t\t     return _totalSupply;\\n   ...\n  JUMPDEST \t\t\t     return _totalSupply;\\n   ...\n  PUSH 20\t\t\t  \n  DUP3 \t\t\t{\\n    \n  LT \t\t\t6) {\\n        r\n  DUP2 \t\t\tride returns (uint\n  SUB \t\t\tverride returns (uint256) {\\n ...\n  PUSH [tag] 88\t\t\tl override returns (uint256) {...\n  JUMPI \t\t\tl override returns (uint256) {...\n  PUSH [tag] 89\t\t\taccount];\\n    }\\n\\n \n  PUSH [tag] 45\t\t\taccount];\\n    }\\n\\n \n  JUMP \t\t\taccount];\\n    }\\n\\n \ntag 89\t\t\taccount];\\n    }\\n\\n \n  JUMPDEST \t\t\taccount];\\n    }\\n\\n \ntag 88\t\t\tl override returns (uint256) {...\n  JUMPDEST \t\t\tl override returns (uint256) {...\n  POP \t\t\t;\\n    }\\n\\n    function total...\n  SWAP2 \t\t\tic view virtual returns (uint8...\n  SWAP1 \t\t\tic view virtual returns (uint8...\n  POP \t\t\tic view virtual returns (uint8...\n  JUMP \t\t\tic view virtual returns (uint8...\ntag 47\t\t\tddress to, uint256 amount) pub...\n  JUMPDEST \t\t\tddress to, uint256 amount) pub...\n  PUSH 0\t\t\te re\n  DUP2 \t\t\t   \n  SWAP1 \t\t\t) {\\n       \n  POP \t\t\t) {\\n       \n  DUP2 \t\t\tr()\n  PUSH 0\t\t\tn\n  MSTORE \t\t\t(_msgSender(),\n  PUSH 20\t\t\true;\n  PUSH 0\t\t\tn\n  KECCAK256 \t\t\t     return true;\\n\n  SWAP1 \t\t\tnt);\\n        return true;\\n\n  POP \t\t\tnt);\\n        return true;\\n\n  SWAP2 \t\t\tddress to, uint256 amount) pub...\n  SWAP1 \t\t\tddress to, uint256 amount) pub...\n  POP \t\t\tddress to, uint256 amount) pub...\n  JUMP \t\t\tddress to, uint256 amount) pub...\ntag 48\t\t\tnction allowance(address owner...\n  JUMPDEST \t\t\tnction allowance(address owner...\n  PUSH 0\t\t\tss spe\n  PUSH 20\t\t\ts \n  PUSH 1F\t\t\tet\n  DUP4 \t\t\trride\n  ADD \t\t\t override retu\n  DIV \t\t\ttual override returns (\n  SWAP1 \t\t\tc view virtual override return...\n  POP \t\t\tc view virtual override return...\n  SWAP2 \t\t\tnction allowance(address owner...\n  SWAP1 \t\t\tnction allowance(address owner...\n  POP \t\t\tnction allowance(address owner...\n  JUMP \t\t\tnction allowance(address owner...\ntag 49\t\t\t       return _allowances[owne...\n  JUMPDEST \t\t\t       return _allowances[owne...\n  PUSH 0\t\t\t   }\\n\\n  \n  DUP3 \t\t\t6 amo\n  DUP3 \t\t\tuint\n  SHL \t\t\ter, uint256 amou\n  SWAP1 \t\t\tapprove(address spender, uint2...\n  POP \t\t\tapprove(address spender, uint2...\n  SWAP3 \t\t\t       return _allowances[owne...\n  SWAP2 \t\t\t       return _allowances[owne...\n  POP \t\t\t       return _allowances[owne...\n  POP \t\t\t       return _allowances[owne...\n  JUMP \t\t\t       return _allowances[owne...\ntag 50\t\t\trtual override returns (bool) ...\n  JUMPDEST \t\t\trtual override returns (bool) ...\n  PUSH 0\t\t\tr, amo\n  PUSH 8\t\t\to\n  DUP4 \t\t\t\\n\\n    func\n  MUL \t\t\t   }\\n\\n    function\n  PUSH [tag] 94\t\t\t  address from,\\n        addre...\n  PUSH FFFFFFFFFFFFFFFFFFFFFFFFFFFFFFFFFFFFFFFFFFFFFFFFFFFFFFFFFFFFFFFF\t\t\ts to,\\n        uint256 amount\\...\n  DUP3 \t\t\t     addr\n  PUSH [tag] 49\t\t\t  address from,\\n        addre...\n  JUMP \t\t\t  address from,\\n        addre...\ntag 94\t\t\t  address from,\\n        addre...\n  JUMPDEST \t\t\t  address from,\\n        addre...\n  PUSH [tag] 95\t\t\tndAllowance(from, _msgSender()...\n  DUP7 \t\t\t, amount\n  DUP4 \t\t\tmsgSender\n  PUSH [tag] 49\t\t\tndAllowance(from, _msgSender()...\n  JUMP \t\t\tndAllowance(from, _msgSender()...\ntag 95\t\t\tndAllowance(from, _msgSender()...\n  JUMPDEST \t\t\tndAllowance(from, _msgSender()...\n  SWAP6 \t\t\t        _spendAllowance(from, ...\n  POP \t\t\t        _spendAllowance(from, ...\n  DUP1 \t\t\tunt)\n  NOT \t\t\t amount);\n  DUP5 \t\t\tom, t\n  AND \t\t\tr(from, to, amount);\\n\n  SWAP4 \t\t\t _transfer(from, to, amount);\\...\n  POP \t\t\t _transfer(from, to, amount);\\...\n  DUP1 \t\t\trans\n  DUP7 \t\t\tunction \n  AND \t\t\t   function _transf\n  DUP5 \t\t\t   }\\n\n  OR \t\t\t;\\n    }\\n\\n    function _tran...\n  SWAP3 \t\t\teturn true;\\n    }\\n\\n    func...\n  POP \t\t\teturn true;\\n    }\\n\\n    func...\n  POP \t\t\tnt);\\n        return true;\\n  ...\n  POP \t\t\tnt);\\n        return true;\\n  ...\n  SWAP4 \t\t\trtual override returns (bool) ...\n  SWAP3 \t\t\trtual override returns (bool) ...\n  POP \t\t\trtual override returns (bool) ...\n  POP \t\t\trtual override returns (bool) ...\n  POP \t\t\trtual override returns (bool) ...\n  JUMP \t\t\trtual override returns (bool) ...\ntag 51\t\t\tom, address to, uint256 amount...\n  JUMPDEST \t\t\tom, address to, uint256 amount...\n  PUSH 0\t\t\tnal vir\n  DUP2 \t\t\tToken\n  SWAP1 \t\t\t    _beforeToken\n  POP \t\t\t    _beforeToken\n  SWAP2 \t\t\tom, address to, uint256 amount...\n  SWAP1 \t\t\tom, address to, uint256 amount...\n  POP \t\t\tom, address to, uint256 amount...\n  JUMP \t\t\tom, address to, uint256 amount...\ntag 52\t\t\tm, to, amount);\\n\\n        uin...\n  JUMPDEST \t\t\tm, to, amount);\\n\\n        uin...\n  PUSH 0\t\t\tt25\n  DUP2 \t\t\talanc\n  SWAP1 \t\t\tce = _balanc\n  POP \t\t\tce = _balanc\n  SWAP2 \t\t\tm, to, amount);\\n\\n        uin...\n  SWAP1 \t\t\tm, to, amount);\\n\\n        uin...\n  POP \t\t\tm, to, amount);\\n\\n        uin...\n  JUMP \t\t\tm, to, amount);\\n\\n        uin...\ntag 53\t\t\t      require(fromBalance >= a...\n  JUMPDEST \t\t\t      require(fromBalance >= a...\n  PUSH 0\t\t\tfer amoun\n  PUSH [tag] 99\t\t\t     unchecked {\\n            ...\n  PUSH [tag] 100\t\t\t           _balances[from] = f...\n  PUSH [tag] 101\t\t\t  _balances[from] = from\n  DUP5 \t\t\t= fro\n  PUSH [tag] 51\t\t\t  _balances[from] = from\n  JUMP \t\t\t  _balances[from] = from\ntag 101\t\t\t  _balances[from] = from\n  JUMPDEST \t\t\t  _balances[from] = from\n  PUSH [tag] 52\t\t\t           _balances[from] = f...\n  JUMP \t\t\t           _balances[from] = f...\ntag 100\t\t\t           _balances[from] = f...\n  JUMPDEST \t\t\t           _balances[from] = f...\n  PUSH [tag] 51\t\t\t     unchecked {\\n            ...\n  JUMP \t\t\t     unchecked {\\n            ...\ntag 99\t\t\t     unchecked {\\n            ...\n  JUMPDEST \t\t\t     unchecked {\\n            ...\n  SWAP1 \t\t\talance\");\\n        unchecked {...\n  POP \t\t\talance\");\\n        unchecked {...\n  SWAP2 \t\t\t      require(fromBalance >= a...\n  SWAP1 \t\t\t      require(fromBalance >= a...\n  POP \t\t\t      require(fromBalance >= a...\n  JUMP \t\t\t      require(fromBalance >= a...\ntag 54\t\t\tnt;\\n            _balances[to]...\n  JUMPDEST \t\t\tnt;\\n            _balances[to]...\n  PUSH 0\t\t\t   \n  DUP2 \t\t\t Tran\n  SWAP1 \t\t\t   emit Tran\n  POP \t\t\t   emit Tran\n  SWAP2 \t\t\tnt;\\n            _balances[to]...\n  SWAP1 \t\t\tnt;\\n            _balances[to]...\n  POP \t\t\tnt;\\n            _balances[to]...\n  JUMP \t\t\tnt;\\n            _balances[to]...\ntag 55\t\t\to, amount);\\n\\n        _afterT...\n  JUMPDEST \t\t\to, amount);\\n\\n        _afterT...\n  PUSH [tag] 104\t\t\t amount) internal virtual {\\n ...\n  DUP4 \t\t\t     _b\n  PUSH [tag] 53\t\t\t amount) internal virtual {\\n ...\n  JUMP \t\t\t amount) internal virtual {\\n ...\ntag 104\t\t\t amount) internal virtual {\\n ...\n  JUMPDEST \t\t\t amount) internal virtual {\\n ...\n  PUSH [tag] 105\t\t\tess(0), account, amount);\\n\\n ...\n  PUSH [tag] 106\t\t\t= amount;\\n        _balances[a...\n  DUP3 \t\t\tces[account] += \n  PUSH [tag] 54\t\t\t= amount;\\n        _balances[a...\n  JUMP \t\t\t= amount;\\n        _balances[a...\ntag 106\t\t\t= amount;\\n        _balances[a...\n  JUMPDEST \t\t\t= amount;\\n        _balances[a...\n  DUP5 \t\t\tSupply\n  DUP5 \t\t\t _to\n  SLOAD \t\t\t       _tot\n  PUSH [tag] 50\t\t\tess(0), account, amount);\\n\\n ...\n  JUMP \t\t\tess(0), account, amount);\\n\\n ...\ntag 105\t\t\tess(0), account, amount);\\n\\n ...\n  JUMPDEST \t\t\tess(0), account, amount);\\n\\n ...\n  DUP3 \t\t\tr(ad\n  SSTORE \t\t\tTransfer(address(0), account, ...\n  POP \t\t\tion _mint(address account, uin...\n  POP \t\t\to, amount);\\n\\n        _afterT...\n  POP \t\t\to, amount);\\n\\n        _afterT...\n  POP \t\t\to, amount);\\n\\n        _afterT...\n  JUMP \t\t\to, amount);\\n\\n        _afterT...\ntag 56\t\t\t emit Transfer(address(0), acc...\n  JUMPDEST \t\t\t emit Transfer(address(0), acc...\n  PUSH 0\t\t\t\\n  \n  SWAP1 \t\t\t emit Transfer(address(0), acc...\n  JUMP \t\t\t emit Transfer(address(0), acc...\ntag 57\t\t\tss(0), account, amount);\\n    ...\n  JUMPDEST \t\t\tss(0), account, amount);\\n    ...\n  PUSH [tag] 109\t\t\tmount) internal virtual {\\n   ...\n  PUSH [tag] 56\t\t\tmount) internal virtual {\\n   ...\n  JUMP \t\t\tmount) internal virtual {\\n   ...\ntag 109\t\t\tmount) internal virtual {\\n   ...\n  JUMPDEST \t\t\tmount) internal virtual {\\n   ...\n  PUSH [tag] 110\t\t\tTokenTransfer(account, address...\n  DUP2 \t\t\t56 acc\n  DUP5 \t\t\t   uin\n  DUP5 \t\t\t\\n   \n  PUSH [tag] 55\t\t\tTokenTransfer(account, address...\n  JUMP \t\t\tTokenTransfer(account, address...\ntag 110\t\t\tTokenTransfer(account, address...\n  JUMPDEST \t\t\tTokenTransfer(account, address...\n  POP \t\t\tdress account, uint256 amount)...\n  POP \t\t\tss(0), account, amount);\\n    ...\n  POP \t\t\tss(0), account, amount);\\n    ...\n  JUMP \t\t\tss(0), account, amount);\\n    ...\ntag 58\t\t\t _balances[account];\\n        ...\n  JUMPDEST \t\t\t _balances[account];\\n        ...\ntag 112\t\t\tt, \"ERC20: burn amount exceeds...\n  JUMPDEST \t\t\tt, \"ERC20: burn amount exceeds...\n  DUP2 \t\t\tmou\n  DUP2 \t\t\t burn\n  LT \t\t\t20: burn amoun\n  ISZERO \t\t\tt, \"ERC20: burn amount exceeds...\n  PUSH [tag] 114\t\t\tt, \"ERC20: burn amount exceeds...\n  JUMPI \t\t\tt, \"ERC20: burn amount exceeds...\n  PUSH [tag] 115\t\t\t   _balances[account] = accoun...\n  PUSH 0\t\t\te\n  DUP3 \t\t\ttBala\n  PUSH [tag] 57\t\t\t   _balances[account] = accoun...\n  JUMP \t\t\t   _balances[account] = accoun...\ntag 115\t\t\t   _balances[account] = accoun...\n  JUMPDEST \t\t\t   _balances[account] = accoun...\n  PUSH 1\t\t\t \n  DUP2 \t\t\te\");\\n\n  ADD \t\t\tlance\");\\n    \n  SWAP1 \t\t\txceeds balance\");\\n    \n  POP \t\t\txceeds balance\");\\n    \n  PUSH [tag] 112\t\t\tt, \"ERC20: burn amount exceeds...\n  JUMP \t\t\tt, \"ERC20: burn amount exceeds...\ntag 114\t\t\tt, \"ERC20: burn amount exceeds...\n  JUMPDEST \t\t\tt, \"ERC20: burn amount exceeds...\n  POP \t\t\t _balances[account];\\n        ...\n  POP \t\t\t _balances[account];\\n        ...\n  JUMP \t\t\t _balances[account];\\n        ...\ntag 59\t\t\t_totalSupply -= amount;\\n     ...\n  JUMPDEST \t\t\t_totalSupply -= amount;\\n     ...\n  PUSH 1F\t\t\trT\n  DUP3 \t\t\t_af\n  GT \t\t\t   _afterTo\n  ISZERO \t\t\t      _afterTokenTransfer(acco...\n  PUSH [tag] 117\t\t\t      _afterTokenTransfer(acco...\n  JUMPI \t\t\t      _afterTokenTransfer(acco...\n  PUSH [tag] 118\t\t\t, amount);\\n    }\\n\\n    funct...\n  DUP2 \t\t\tappro\n  PUSH [tag] 47\t\t\t, amount);\\n    }\\n\\n    funct...\n  JUMP \t\t\t, amount);\\n    }\\n\\n    funct...\ntag 118\t\t\t, amount);\\n    }\\n\\n    funct...\n  JUMPDEST \t\t\t, amount);\\n    }\\n\\n    funct...\n  PUSH [tag] 119\t\t\tder,\\n        uint256 amount\\n...\n  DUP5 \t\t\t56 amount\\n\n  PUSH [tag] 48\t\t\tder,\\n        uint256 amount\\n...\n  JUMP \t\t\tder,\\n        uint256 amount\\n...\ntag 119\t\t\tder,\\n        uint256 amount\\n...\n  JUMPDEST \t\t\tder,\\n        uint256 amount\\n...\n  DUP2 \t\t\tdress sp\n  ADD \t\t\t  address spender,\\n        ui...\n  PUSH 20\t\t\to \n  DUP6 \t\t\t0: approve\n  LT \t\t\tRC20: approve to z\n  ISZERO \t\t\t \"ERC20: approve to zero addre...\n  PUSH [tag] 120\t\t\t \"ERC20: approve to zero addre...\n  JUMPI \t\t\t \"ERC20: approve to zero addre...\n  DUP2 \t\t\t      _a\n  SWAP1 \t\t\t address\");\\n\\n        _a\n  POP \t\t\t address\");\\n\\n        _a\ntag 120\t\t\t \"ERC20: approve to zero addre...\n  JUMPDEST \t\t\t \"ERC20: approve to zero addre...\n  PUSH [tag] 121\t\t\t][spender] = amount;\\n        ...\n  PUSH [tag] 122\t\t\tr, amount);\\n    }\\n\\n   \n  DUP6 \t\t\t\\n  \n  PUSH [tag] 48\t\t\tr, amount);\\n    }\\n\\n   \n  JUMP \t\t\tr, amount);\\n    }\\n\\n   \ntag 122\t\t\tr, amount);\\n    }\\n\\n   \n  JUMPDEST \t\t\tr, amount);\\n    }\\n\\n   \n  DUP4 \t\t\ter, spen\n  ADD \t\t\t(owner, spender, amount);\\n   ...\n  DUP3 \t\t\temit Approv\n  PUSH [tag] 58\t\t\t][spender] = amount;\\n        ...\n  JUMP \t\t\t][spender] = amount;\\n        ...\ntag 121\t\t\t][spender] = amount;\\n        ...\n  JUMPDEST \t\t\t][spender] = amount;\\n        ...\n  POP \t\t\tenTransfer(account, address(0)...\n  POP \t\t\tenTransfer(account, address(0)...\ntag 117\t\t\t      _afterTokenTransfer(acco...\n  JUMPDEST \t\t\t      _afterTokenTransfer(acco...\n  POP \t\t\t_totalSupply -= amount;\\n     ...\n  POP \t\t\t_totalSupply -= amount;\\n     ...\n  POP \t\t\t_totalSupply -= amount;\\n     ...\n  JUMP \t\t\t_totalSupply -= amount;\\n     ...\ntag 60\t\t\t(\\n        address owner,\\n   ...\n  JUMPDEST \t\t\t(\\n        address owner,\\n   ...\n  PUSH 0\t\t\t    uint\n  DUP3 \t\t\t  uin\n  DUP3 \t\t\t    \n  SHR \t\t\tl {\\n        uint\n  SWAP1 \t\t\t    ) internal virtual {\\n    ...\n  POP \t\t\t    ) internal virtual {\\n    ...\n  SWAP3 \t\t\t(\\n        address owner,\\n   ...\n  SWAP2 \t\t\t(\\n        address owner,\\n   ...\n  POP \t\t\t(\\n        address owner,\\n   ...\n  POP \t\t\t(\\n        address owner,\\n   ...\n  JUMP \t\t\t(\\n        address owner,\\n   ...\ntag 61\t\t\tlowance = allowance(owner, spe...\n  JUMPDEST \t\t\tlowance = allowance(owner, spe...\n  PUSH 0\t\t\t if (c\n  PUSH [tag] 125\t\t\tt256).max) {\\n            requ...\n  PUSH 0\t\t\te\n  NOT \t\t\twance \n  DUP5 \t\t\trentA\n  PUSH 8\t\t\tc\n  MUL \t\t\tire(currentAl\n  PUSH [tag] 60\t\t\tt256).max) {\\n            requ...\n  JUMP \t\t\tt256).max) {\\n            requ...\ntag 125\t\t\tt256).max) {\\n            requ...\n  JUMPDEST \t\t\tt256).max) {\\n            requ...\n  NOT \t\t\t(uint256).max) {\\n            ...\n  DUP1 \t\t\t all\n  DUP4 \t\t\ticie\n  AND \t\t\tsufficient allo\n  SWAP2 \t\t\t\"ERC20: insufficient allo\n  POP \t\t\t\"ERC20: insufficient allo\n  POP \t\t\trrentAllowance != type(uint256...\n  SWAP3 \t\t\tlowance = allowance(owner, spe...\n  SWAP2 \t\t\tlowance = allowance(owner, spe...\n  POP \t\t\tlowance = allowance(owner, spe...\n  POP \t\t\tlowance = allowance(owner, spe...\n  JUMP \t\t\tlowance = allowance(owner, spe...\ntag 62\t\t\t          unchecked {\\n       ...\n  JUMPDEST \t\t\t          unchecked {\\n       ...\n  PUSH 0\t\t\tnce \n  PUSH [tag] 127\t\t\tfunction _afterTokenTransfer(\n  DUP4 \t\t\tfer\n  DUP4 \t\t\tnTra\n  PUSH [tag] 61\t\t\tfunction _afterTokenTransfer(\n  JUMP \t\t\tfunction _afterTokenTransfer(\ntag 127\t\t\tfunction _afterTokenTransfer(\n  JUMPDEST \t\t\tfunction _afterTokenTransfer(\n  SWAP2 \t\t\t {}\\n    function _afterTokenT...\n  POP \t\t\t {}\\n    function _afterTokenT...\n  DUP3 \t\t\t am\n  PUSH 2\t\t\t2\n  MUL \t\t\tuint256 amo\n  DUP3 \t\t\ts to\n  OR \t\t\tress to, uint256 amou\n  SWAP1 \t\t\trom, address to, uint256 amou\n  POP \t\t\trom, address to, uint256 amou\n  SWAP3 \t\t\t          unchecked {\\n       ...\n  SWAP2 \t\t\t          unchecked {\\n       ...\n  POP \t\t\t          unchecked {\\n       ...\n  POP \t\t\t          unchecked {\\n       ...\n  JUMP \t\t\t          unchecked {\\n       ...\ntag 9\t\t\tl virtual {}\\n}\\n\\n/**\\n * @de...\n  JUMPDEST \t\t\tl virtual {}\\n}\\n\\n/**\\n * @de...\n  PUSH [tag] 129\t\t\tount (an owner) that can be gr...\n  DUP3 \t\t\ted \n  PUSH [tag] 43\t\t\tount (an owner) that can be gr...\n  JUMP \t\t\tount (an owner) that can be gr...\ntag 129\t\t\tount (an owner) that can be gr...\n  JUMPDEST \t\t\tount (an owner) that can be gr...\n  PUSH FFFFFFFFFFFFFFFF\t\t\twnable is Context \n  DUP2 \t\t\tntract\n  GT \t\t\t contract Ownable is Context {\n  ISZERO \t\t\tact contract Ownable is Contex...\n  PUSH [tag] 130\t\t\tact contract Ownable is Contex...\n  JUMPI \t\t\tact contract Ownable is Contex...\n  PUSH [tag] 131\t\t\t  address private \n  PUSH [tag] 44\t\t\t  address private \n  JUMP \t\t\t  address private \ntag 131\t\t\t  address private \n  JUMPDEST \t\t\t  address private \ntag 130\t\t\tact contract Ownable is Contex...\n  JUMPDEST \t\t\tact contract Ownable is Contex...\n  PUSH [tag] 132\t\t\tipTransferred(address indexed ...\n  DUP3 \t\t\tevio\n  SLOAD \t\t\txed previou\n  PUSH [tag] 46\t\t\tipTransferred(address indexed ...\n  JUMP \t\t\tipTransferred(address indexed ...\ntag 132\t\t\tipTransferred(address indexed ...\n  JUMPDEST \t\t\tipTransferred(address indexed ...\n  PUSH [tag] 133\t\t\ttor(address initialOwner) {\\n ...\n  DUP3 \t\t\talOwne\n  DUP3 \t\t\tip(ini\n  DUP6 \t\t\twner\n  PUSH [tag] 59\t\t\ttor(address initialOwner) {\\n ...\n  JUMP \t\t\ttor(address initialOwner) {\\n ...\ntag 133\t\t\ttor(address initialOwner) {\\n ...\n  JUMPDEST \t\t\ttor(address initialOwner) {\\n ...\n  PUSH 0\t\t\tr\n  PUSH 20\t\t\tretu\n  SWAP1 \t\t\tview virtual retu\n  POP \t\t\tview virtual retu\n  PUSH 1F\t\t\trn\n  DUP4 \t\t\t    re\n  GT \t\t\t       return \n  PUSH 1\t\t\t\\n\n  DUP2 \t\t\t   }\\n\\n    modifier onlyOwner...\n  EQ \t\t\t   }\\n\\n    modifier onlyOwner...\n  PUSH [tag] 135\t\t\t   }\\n\\n    modifier onlyOwner...\n  JUMPI \t\t\t   }\\n\\n    modifier onlyOwner...\n  PUSH 0\t\t\t-\n  DUP5 \t\t\t--- */\n  ISZERO \t\t\t------ */\\ninterface IERC20Ext...\n  PUSH [tag] 136\t\t\t------ */\\ninterface IERC20Ext...\n  JUMPI \t\t\t------ */\\ninterface IERC20Ext...\n  DUP3 \t\t\tansfer(ad\n  DUP8 \t\t\ton \n  ADD \t\t\tnction transfer(add\n  MLOAD \t\t\t    function transfer(addr\n  SWAP1 \t\t\ttended {\\n    function transfe...\n  POP \t\t\ttended {\\n    function transfe...\ntag 136\t\t\t------ */\\ninterface IERC20Ext...\n  JUMPDEST \t\t\t------ */\\ninterface IERC20Ext...\n  PUSH [tag] 137\t\t\t (bool);\\n    function balance...\n  DUP6 \t\t\tew ret\n  DUP3 \t\t\trnal \n  PUSH [tag] 62\t\t\t (bool);\\n    function balance...\n  JUMP \t\t\t (bool);\\n    function balance...\ntag 137\t\t\t (bool);\\n    function balance...\n  JUMPDEST \t\t\t (bool);\\n    function balance...\n  DUP7 \t\t\tetur\n  SSTORE \t\t\ternal returns (bool);\\n    fun...\n  POP \t\t\t--------------- INTERFACES ---...\n  PUSH [tag] 134\t\t\tss) {\\n        return _owner;\\...\n  JUMP \t\t\tss) {\\n        return _owner;\\...\ntag 135\t\t\t   }\\n\\n    modifier onlyOwner...\n  JUMPDEST \t\t\t   }\\n\\n    modifier onlyOwner...\n  PUSH 1F\t\t\ter()\n  NOT \t\t\t(owner() \n  DUP5 \t\t\t requi\n  AND \t\t\t     require(owner() =\n  PUSH [tag] 138\t\t\tller is not the owner\");\\n    ...\n  DUP7 \t\t\t _;\\n\n  PUSH [tag] 47\t\t\tller is not the owner\");\\n    ...\n  JUMP \t\t\tller is not the owner\");\\n    ...\ntag 138\t\t\tller is not the owner\");\\n    ...\n  JUMPDEST \t\t\tller is not the owner\");\\n    ...\n  PUSH 0\t\t\to\ntag 139\t\t\t() public virtual onlyOwner {\\...\n  JUMPDEST \t\t\t() public virtual onlyOwner {\\...\n  DUP3 \t\t\tual onl\n  DUP2 \t\t\ti\n  LT \t\t\tc virtual only\n  ISZERO \t\t\t() public virtual onlyOwner {\\...\n  PUSH [tag] 141\t\t\t() public virtual onlyOwner {\\...\n  JUMPI \t\t\t() public virtual onlyOwner {\\...\n  DUP5 \t\t\tnsferOwne\n  DUP10 \t\t\tn t\n  ADD \t\t\tction transferOwner\n  MLOAD \t\t\t   function transferOwners\n  DUP3 \t\t\t    }\\n\n  SSTORE \t\t\ts(0));\\n    }\\n\\n    function ...\n  PUSH 1\t\t\ty\n  DUP3 \t\t\ttual o\n  ADD \t\t\t virtual onlyO\n  SWAP2 \t\t\ter) public virtual onlyO\n  POP \t\t\ter) public virtual onlyO\n  PUSH 20\t\t\t, \n  DUP6 \t\t\t address(\n  ADD \t\t\tr != address(0), \"\n  SWAP5 \t\t\tquire(newOwner != address(0), ...\n  POP \t\t\tquire(newOwner != address(0), ...\n  PUSH 20\t\t\t _tr\n  DUP2 \t\t\t \n  ADD \t\t\t        _tra\n  SWAP1 \t\t\ter {\\n        _tra\n  POP \t\t\ter {\\n        _tra\n  PUSH [tag] 139\t\t\t() public virtual onlyOwner {\\...\n  JUMP \t\t\t() public virtual onlyOwner {\\...\ntag 141\t\t\t() public virtual onlyOwner {\\...\n  JUMPDEST \t\t\t() public virtual onlyOwner {\\...\n  DUP7 \t\t\t    _t\n  DUP4 \t\t\ts\");\\n  \n  LT \t\t\tress\");\\n        _tr\n  ISZERO \t\t\taddress\");\\n        _transferO...\n  PUSH [tag] 142\t\t\taddress\");\\n        _transferO...\n  JUMPI \t\t\taddress\");\\n        _transferO...\n  DUP5 \t\t\tnsferOwne\n  DUP10 \t\t\t _t\n  ADD \t\t\ttion _transferOwner\n  MLOAD \t\t\t  function _transferOwners\n  PUSH [tag] 143\t\t\tirtual {\\n        address oldO...\n  PUSH 1F\t\t\t;\\n  \n  DUP10 \t\t\t= _own\n  AND \t\t\tner = _owner;\\n   \n  DUP3 \t\t\tdress old\n  PUSH [tag] 61\t\t\tirtual {\\n        address oldO...\n  JUMP \t\t\tirtual {\\n        address oldO...\ntag 143\t\t\tirtual {\\n        address oldO...\n  JUMPDEST \t\t\tirtual {\\n        address oldO...\n  DUP4 \t\t\tternal\n  SSTORE \t\t\tner) internal virtual {\\n     ...\n  POP \t\t\tnsferOwnership(newOwner);\\n   ...\ntag 142\t\t\taddress\");\\n        _transferO...\n  JUMPDEST \t\t\taddress\");\\n        _transferO...\n  PUSH 1\t\t\tw\n  PUSH 2\t\t\to\n  DUP9 \t\t\tsferre\n  MUL \t\t\tTransferred(ol\n  ADD \t\t\tshipTransferred(oldOwn\n  DUP9 \t\t\t Own\n  SSTORE \t\t\t   emit OwnershipTransferred(o...\n  POP \t\t\t   modifier onlyOwner() {\\n   ...\n  POP \t\t\t   modifier onlyOwner() {\\n   ...\n  POP \t\t\t   modifier onlyOwner() {\\n   ...\ntag 134\t\t\tss) {\\n        return _owner;\\...\n  JUMPDEST \t\t\tss) {\\n        return _owner;\\...\n  POP \t\t\tss) {\\n        return _owner;\\...\n  POP \t\t\t where\\n * there is an account...\n  POP \t\t\t where\\n * there is an account...\n  POP \t\t\t where\\n * there is an account...\n  POP \t\t\tl virtual {}\\n}\\n\\n/**\\n * @de...\n  POP \t\t\tl virtual {}\\n}\\n\\n/**\\n * @de...\n  JUMP \t\t\tl virtual {}\\n}\\n\\n/**\\n * @de...\ntag 63\t\t\t-------------- BITKWANZA -----...\n  JUMPDEST \t\t\t-------------- BITKWANZA -----...\n  PUSH [tag] 145\t\t\t{\\n    uint256 public con\n  DUP2 \t\t\tic co\n  PUSH [tag] 40\t\t\t{\\n    uint256 public con\n  JUMP \t\t\t{\\n    uint256 public con\ntag 145\t\t\t{\\n    uint256 public con\n  JUMPDEST \t\t\t{\\n    uint256 public con\n  DUP3 \t\t\tabl\n  MSTORE \t\t\t20, Ownable {\\n    uint256 pub...\n  POP \t\t\t-------------- BITKWANZA -----...\n  POP \t\t\t-------------- BITKWANZA -----...\n  JUMP \t\t\t-------------- BITKWANZA -----...\ntag 18\t\t\tPLY = 1_000_000_000 * 10**18;\\...\n  JUMPDEST \t\t\tPLY = 1_000_000_000 * 10**18;\\...\n  PUSH 0\t\t\t    \n  PUSH 40\t\t\tew\n  DUP3 \t\t\t56 public\n  ADD \t\t\tint256 public rewa\n  SWAP1 \t\t\t5%\\n    uint256 public rewa\n  POP \t\t\t5%\\n    uint256 public rewa\n  PUSH [tag] 147\t\t\t1;          // 0.00005%\\n    u...\n  PUSH 0\t\t\t \n  DUP4 \t\t\t= 100;   \n  ADD \t\t\teBP = 100;      /\n  DUP6 \t\t\treasur\n  PUSH [tag] 63\t\t\t1;          // 0.00005%\\n    u...\n  JUMP \t\t\t1;          // 0.00005%\\n    u...\ntag 147\t\t\t1;          // 0.00005%\\n    u...\n  JUMPDEST \t\t\t1;          // 0.00005%\\n    u...\n  PUSH [tag] 148\t\t\tol public feesEnabled = true;\\...\n  PUSH 20\t\t\t  \n  DUP4 \t\t\tgWallet;\\n\n  ADD \t\t\tndingWallet;\\n    a\n  DUP5 \t\t\tublic \n  PUSH [tag] 63\t\t\tol public feesEnabled = true;\\...\n  JUMP \t\t\tol public feesEnabled = true;\\...\ntag 148\t\t\tol public feesEnabled = true;\\...\n  JUMPDEST \t\t\tol public feesEnabled = true;\\...\n  SWAP4 \t\t\tPLY = 1_000_000_000 * 10**18;\\...\n  SWAP3 \t\t\tPLY = 1_000_000_000 * 10**18;\\...\n  POP \t\t\tPLY = 1_000_000_000 * 10**18;\\...\n  POP \t\t\tPLY = 1_000_000_000 * 10**18;\\...\n  POP \t\t\tPLY = 1_000_000_000 * 10**18;\\...\n  JUMP \t\t\tPLY = 1_000_000_000 * 10**18;\\...\ntag 64\t\t\ttreasuryWallet;\\n    DividendV...\n  JUMPDEST \t\t\ttreasuryWallet;\\n    DividendV...\n  PUSH 4E487B7100000000000000000000000000000000000000000000000000000000\t\t\t    mapping(address => bool) p...\n  PUSH 0\t\t\tt\n  MSTORE \t\t\tic vault;\\n    mapping(address...\n  PUSH 11\t\t\tt,\\n \n  PUSH 4\t\t\tl\n  MSTORE \t\t\tndingWallet,\\n  \n  PUSH 24\t\t\tsury\n  PUSH 0\t\t\tr\n  REVERT \t\t\tress _treasuryW\ntag 28\t\t\tERC20(\"BITKWANZA\", \"BKZ\") Owna...\n  JUMPDEST \t\t\tERC20(\"BITKWANZA\", \"BKZ\") Owna...\n  PUSH 0\t\t\tnde\n  PUSH [tag] 151\t\t\tndingWallet = _found\n  DUP3 \t\t\tn\n  PUSH [tag] 51\t\t\tndingWallet = _found\n  JUMP \t\t\tndingWallet = _found\ntag 151\t\t\tndingWallet = _found\n  JUMPDEST \t\t\tndingWallet = _found\n  SWAP2 \t\t\t  foundingWallet = _found\n  POP \t\t\t  foundingWallet = _found\n  PUSH [tag] 152\t\t\t     treasuryWallet \n  DUP4 \t\t\tt\n  PUSH [tag] 51\t\t\t     treasuryWallet \n  JUMP \t\t\t     treasuryWallet \ntag 152\t\t\t     treasuryWallet \n  JUMPDEST \t\t\t     treasuryWallet \n  SWAP3 \t\t\t;\\n        treasuryWallet \n  POP \t\t\t;\\n        treasuryWallet \n  DUP3 \t\t\t \n  DUP3 \t\t\t \n  ADD \t\t\tt;\\n      \n  SWAP1 \t\t\tryWallet;\\n      \n  POP \t\t\tryWallet;\\n      \n  DUP1 \t\t\tend\n  DUP3 \t\t\tv\n  GT \t\t\t DividendV\n  ISZERO \t\t\tnew DividendVault(address(this...\n  PUSH [tag] 153\t\t\tnew DividendVault(address(this...\n  JUMPI \t\t\tnew DividendVault(address(this...\n  PUSH [tag] 154\t\t\tt(address(this), _\n  PUSH [tag] 64\t\t\tt(address(this), _\n  JUMP \t\t\tt(address(this), _\ntag 154\t\t\tt(address(this), _\n  JUMPDEST \t\t\tt(address(this), _\ntag 153\t\t\tnew DividendVault(address(this...\n  JUMPDEST \t\t\tnew DividendVault(address(this...\n  SWAP3 \t\t\tERC20(\"BITKWANZA\", \"BKZ\") Owna...\n  SWAP2 \t\t\tERC20(\"BITKWANZA\", \"BKZ\") Owna...\n  POP \t\t\tERC20(\"BITKWANZA\", \"BKZ\") Owna...\n  POP \t\t\tERC20(\"BITKWANZA\", \"BKZ\") Owna...\n  JUMP \t\t\tERC20(\"BITKWANZA\", \"BKZ\") Owna...\ntag 65\t\t\t;\\n        _mint(msg.sender, M...\n  JUMPDEST \t\t\t;\\n        _mint(msg.sender, M...\n  PUSH [tag] 156\t\t\t  isFeeExempt[address(th\n  DUP2 \t\t\tess(t\n  PUSH [tag] 51\t\t\t  isFeeExempt[address(th\n  JUMP \t\t\t  isFeeExempt[address(th\ntag 156\t\t\t  isFeeExempt[address(th\n  JUMPDEST \t\t\t  isFeeExempt[address(th\n  DUP3 \t\t\t   \n  MSTORE \t\t\ttrue;\\n        isFeeExempt[add...\n  POP \t\t\t;\\n        _mint(msg.sender, M...\n  POP \t\t\t;\\n        _mint(msg.sender, M...\n  JUMP \t\t\t;\\n        _mint(msg.sender, M...\ntag 31\t\t\t    }\\n\\n    /* --------------...\n  JUMPDEST \t\t\t    }\\n\\n    /* --------------...\n  PUSH 0\t\t\tbled\n  PUSH 20\t\t\tsE\n  DUP3 \t\t\t        f\n  ADD \t\t\tr {\\n        feesEn\n  SWAP1 \t\t\tonlyOwner {\\n        feesEn\n  POP \t\t\tonlyOwner {\\n        feesEn\n  PUSH [tag] 158\t\t\tabled;\\n    }\\n\\n    function ...\n  PUSH 0\t\t\t)\n  DUP4 \t\t\tbool exem\n  ADD \t\t\tnt, bool exempt) \n  DUP5 \t\t\tess ac\n  PUSH [tag] 65\t\t\tabled;\\n    }\\n\\n    function ...\n  JUMP \t\t\tabled;\\n    }\\n\\n    function ...\ntag 158\t\t\tabled;\\n    }\\n\\n    function ...\n  JUMPDEST \t\t\tabled;\\n    }\\n\\n    function ...\n  SWAP3 \t\t\t    }\\n\\n    /* --------------...\n  SWAP2 \t\t\t    }\\n\\n    /* --------------...\n  POP \t\t\t    }\\n\\n    /* --------------...\n  POP \t\t\t    }\\n\\n    /* --------------...\n  JUMP \t\t\t    }\\n\\n    /* --------------...\ntag 22\t\t\tcontract BITKWANZA is ERC20, O...\n  JUMPDEST \t\t\tcontract BITKWANZA is ERC20, O...\n  PUSH #[$] 0000000000000000000000000000000000000000000000000000000000000000\t\t\tcontract BITKWANZA is ERC20, O...\n  DUP1 \t\t\tcontract BITKWANZA is ERC20, O...\n  PUSH [$] 0000000000000000000000000000000000000000000000000000000000000000\t\t\tcontract BITKWANZA is ERC20, O...\n  PUSH 0\t\t\tcontract BITKWANZA is ERC20, O...\n  CODECOPY \t\t\tcontract BITKWANZA is ERC20, O...\n  PUSH 0\t\t\tcontract BITKWANZA is ERC20, O...\n  RETURN \t\t\tcontract BITKWANZA is ERC20, O...\n.data\n  0:\n    .code\n      PUSH 80\t\t\tcontract BITKWANZA is ERC20, O...\n      PUSH 40\t\t\tcontract BITKWANZA is ERC20, O...\n      MSTORE \t\t\tcontract BITKWANZA is ERC20, O...\n      CALLVALUE \t\t\tcontract BITKWANZA is ERC20, O...\n      DUP1 \t\t\tcontract BITKWANZA is ERC20, O...\n      ISZERO \t\t\tcontract BITKWANZA is ERC20, O...\n      PUSH [tag] 1\t\t\tcontract BITKWANZA is ERC20, O...\n      JUMPI \t\t\tcontract BITKWANZA is ERC20, O...\n      PUSH 0\t\t\tcontract BITKWANZA is ERC20, O...\n      DUP1 \t\t\tcontract BITKWANZA is ERC20, O...\n      REVERT \t\t\tcontract BITKWANZA is ERC20, O...\n    tag 1\t\t\tcontract BITKWANZA is ERC20, O...\n      JUMPDEST \t\t\tcontract BITKWANZA is ERC20, O...\n      POP \t\t\tcontract BITKWANZA is ERC20, O...\n      PUSH 4\t\t\tcontract BITKWANZA is ERC20, O...\n      CALLDATASIZE \t\t\tcontract BITKWANZA is ERC20, O...\n      LT \t\t\tcontract BITKWANZA is ERC20, O...\n      PUSH [tag] 2\t\t\tcontract BITKWANZA is ERC20, O...\n      JUMPI \t\t\tcontract BITKWANZA is ERC20, O...\n      PUSH 0\t\t\tcontract BITKWANZA is ERC20, O...\n      CALLDATALOAD \t\t\tcontract BITKWANZA is ERC20, O...\n      PUSH E0\t\t\tcontract BITKWANZA is ERC20, O...\n      SHR \t\t\tcontract BITKWANZA is ERC20, O...\n      DUP1 \t\t\tcontract BITKWANZA is ERC20, O...\n      PUSH 715018A6\t\t\tcontract BITKWANZA is ERC20, O...\n      GT \t\t\tcontract BITKWANZA is ERC20, O...\n      PUSH [tag] 29\t\t\tcontract BITKWANZA is ERC20, O...\n      JUMPI \t\t\tcontract BITKWANZA is ERC20, O...\n      DUP1 \t\t\tcontract BITKWANZA is ERC20, O...\n      PUSH A8602FEA\t\t\tcontract BITKWANZA is ERC20, O...\n      GT \t\t\tcontract BITKWANZA is ERC20, O...\n      PUSH [tag] 30\t\t\tcontract BITKWANZA is ERC20, O...\n      JUMPI \t\t\tcontract BITKWANZA is ERC20, O...\n      DUP1 \t\t\tcontract BITKWANZA is ERC20, O...\n      PUSH DD62ED3E\t\t\tcontract BITKWANZA is ERC20, O...\n      GT \t\t\tcontract BITKWANZA is ERC20, O...\n      PUSH [tag] 31\t\t\tcontract BITKWANZA is ERC20, O...\n      JUMPI \t\t\tcontract BITKWANZA is ERC20, O...\n      DUP1 \t\t\tcontract BITKWANZA is ERC20, O...\n      PUSH DD62ED3E\t\t\tcontract BITKWANZA is ERC20, O...\n      EQ \t\t\tcontract BITKWANZA is ERC20, O...\n      PUSH [tag] 25\t\t\tcontract BITKWANZA is ERC20, O...\n      JUMPI \t\t\tcontract BITKWANZA is ERC20, O...\n      DUP1 \t\t\tcontract BITKWANZA is ERC20, O...\n      PUSH F2A4259D\t\t\tcontract BITKWANZA is ERC20, O...\n      EQ \t\t\tcontract BITKWANZA is ERC20, O...\n      PUSH [tag] 26\t\t\tcontract BITKWANZA is ERC20, O...\n      JUMPI \t\t\tcontract BITKWANZA is ERC20, O...\n      DUP1 \t\t\tcontract BITKWANZA is ERC20, O...\n      PUSH F2FDE38B\t\t\tcontract BITKWANZA is ERC20, O...\n      EQ \t\t\tcontract BITKWANZA is ERC20, O...\n      PUSH [tag] 27\t\t\tcontract BITKWANZA is ERC20, O...\n      JUMPI \t\t\tcontract BITKWANZA is ERC20, O...\n      DUP1 \t\t\tcontract BITKWANZA is ERC20, O...\n      PUSH FBFA77CF\t\t\tcontract BITKWANZA is ERC20, O...\n      EQ \t\t\tcontract BITKWANZA is ERC20, O...\n      PUSH [tag] 28\t\t\tcontract BITKWANZA is ERC20, O...\n      JUMPI \t\t\tcontract BITKWANZA is ERC20, O...\n      PUSH [tag] 2\t\t\tcontract BITKWANZA is ERC20, O...\n      JUMP \t\t\tcontract BITKWANZA is ERC20, O...\n    tag 31\t\t\tcontract BITKWANZA is ERC20, O...\n      JUMPDEST \t\t\tcontract BITKWANZA is ERC20, O...\n      DUP1 \t\t\tcontract BITKWANZA is ERC20, O...\n      PUSH A8602FEA\t\t\tcontract BITKWANZA is ERC20, O...\n      EQ \t\t\tcontract BITKWANZA is ERC20, O...\n      PUSH [tag] 22\t\t\tcontract BITKWANZA is ERC20, O...\n      JUMPI \t\t\tcontract BITKWANZA is ERC20, O...\n      DUP1 \t\t\tcontract BITKWANZA is ERC20, O...\n      PUSH A901DD92\t\t\tcontract BITKWANZA is ERC20, O...\n      EQ \t\t\tcontract BITKWANZA is ERC20, O...\n      PUSH [tag] 23\t\t\tcontract BITKWANZA is ERC20, O...\n      JUMPI \t\t\tcontract BITKWANZA is ERC20, O...\n      DUP1 \t\t\tcontract BITKWANZA is ERC20, O...\n      PUSH A9059CBB\t\t\tcontract BITKWANZA is ERC20, O...\n      EQ \t\t\tcontract BITKWANZA is ERC20, O...\n      PUSH [tag] 24\t\t\tcontract BITKWANZA is ERC20, O...\n      JUMPI \t\t\tcontract BITKWANZA is ERC20, O...\n      PUSH [tag] 2\t\t\tcontract BITKWANZA is ERC20, O...\n      JUMP \t\t\tcontract BITKWANZA is ERC20, O...\n    tag 30\t\t\tcontract BITKWANZA is ERC20, O...\n      JUMPDEST \t\t\tcontract BITKWANZA is ERC20, O...\n      DUP1 \t\t\tcontract BITKWANZA is ERC20, O...\n      PUSH 715018A6\t\t\tcontract BITKWANZA is ERC20, O...\n      EQ \t\t\tcontract BITKWANZA is ERC20, O...\n      PUSH [tag] 16\t\t\tcontract BITKWANZA is ERC20, O...\n      JUMPI \t\t\tcontract BITKWANZA is ERC20, O...\n      DUP1 \t\t\tcontract BITKWANZA is ERC20, O...\n      PUSH 773EC8AC\t\t\tcontract BITKWANZA is ERC20, O...\n      EQ \t\t\tcontract BITKWANZA is ERC20, O...\n      PUSH [tag] 17\t\t\tcontract BITKWANZA is ERC20, O...\n      JUMPI \t\t\tcontract BITKWANZA is ERC20, O...\n      DUP1 \t\t\tcontract BITKWANZA is ERC20, O...\n      PUSH 8DA5CB5B\t\t\tcontract BITKWANZA is ERC20, O...\n      EQ \t\t\tcontract BITKWANZA is ERC20, O...\n      PUSH [tag] 18\t\t\tcontract BITKWANZA is ERC20, O...\n      JUMPI \t\t\tcontract BITKWANZA is ERC20, O...\n      DUP1 \t\t\tcontract BITKWANZA is ERC20, O...\n      PUSH 8EBFC796\t\t\tcontract BITKWANZA is ERC20, O...\n      EQ \t\t\tcontract BITKWANZA is ERC20, O...\n      PUSH [tag] 19\t\t\tcontract BITKWANZA is ERC20, O...\n      JUMPI \t\t\tcontract BITKWANZA is ERC20, O...\n      DUP1 \t\t\tcontract BITKWANZA is ERC20, O...\n      PUSH 95D89B41\t\t\tcontract BITKWANZA is ERC20, O...\n      EQ \t\t\tcontract BITKWANZA is ERC20, O...\n      PUSH [tag] 20\t\t\tcontract BITKWANZA is ERC20, O...\n      JUMPI \t\t\tcontract BITKWANZA is ERC20, O...\n      DUP1 \t\t\tcontract BITKWANZA is ERC20, O...\n      PUSH A64E4F8A\t\t\tcontract BITKWANZA is ERC20, O...\n      EQ \t\t\tcontract BITKWANZA is ERC20, O...\n      PUSH [tag] 21\t\t\tcontract BITKWANZA is ERC20, O...\n      JUMPI \t\t\tcontract BITKWANZA is ERC20, O...\n      PUSH [tag] 2\t\t\tcontract BITKWANZA is ERC20, O...\n      JUMP \t\t\tcontract BITKWANZA is ERC20, O...\n    tag 29\t\t\tcontract BITKWANZA is ERC20, O...\n      JUMPDEST \t\t\tcontract BITKWANZA is ERC20, O...\n      DUP1 \t\t\tcontract BITKWANZA is ERC20, O...\n      PUSH 2C1597E4\t\t\tcontract BITKWANZA is ERC20, O...\n      GT \t\t\tcontract BITKWANZA is ERC20, O...\n      PUSH [tag] 32\t\t\tcontract BITKWANZA is ERC20, O...\n      JUMPI \t\t\tcontract BITKWANZA is ERC20, O...\n      DUP1 \t\t\tcontract BITKWANZA is ERC20, O...\n      PUSH 3F4218E0\t\t\tcontract BITKWANZA is ERC20, O...\n      GT \t\t\tcontract BITKWANZA is ERC20, O...\n      PUSH [tag] 33\t\t\tcontract BITKWANZA is ERC20, O...\n      JUMPI \t\t\tcontract BITKWANZA is ERC20, O...\n      DUP1 \t\t\tcontract BITKWANZA is ERC20, O...\n      PUSH 3F4218E0\t\t\tcontract BITKWANZA is ERC20, O...\n      EQ \t\t\tcontract BITKWANZA is ERC20, O...\n      PUSH [tag] 12\t\t\tcontract BITKWANZA is ERC20, O...\n      JUMPI \t\t\tcontract BITKWANZA is ERC20, O...\n      DUP1 \t\t\tcontract BITKWANZA is ERC20, O...\n      PUSH 4626402B\t\t\tcontract BITKWANZA is ERC20, O...\n      EQ \t\t\tcontract BITKWANZA is ERC20, O...\n      PUSH [tag] 13\t\t\tcontract BITKWANZA is ERC20, O...\n      JUMPI \t\t\tcontract BITKWANZA is ERC20, O...\n      DUP1 \t\t\tcontract BITKWANZA is ERC20, O...\n      PUSH 6EB3ABE0\t\t\tcontract BITKWANZA is ERC20, O...\n      EQ \t\t\tcontract BITKWANZA is ERC20, O...\n      PUSH [tag] 14\t\t\tcontract BITKWANZA is ERC20, O...\n      JUMPI \t\t\tcontract BITKWANZA is ERC20, O...\n      DUP1 \t\t\tcontract BITKWANZA is ERC20, O...\n      PUSH 70A08231\t\t\tcontract BITKWANZA is ERC20, O...\n      EQ \t\t\tcontract BITKWANZA is ERC20, O...\n      PUSH [tag] 15\t\t\tcontract BITKWANZA is ERC20, O...\n      JUMPI \t\t\tcontract BITKWANZA is ERC20, O...\n      PUSH [tag] 2\t\t\tcontract BITKWANZA is ERC20, O...\n      JUMP \t\t\tcontract BITKWANZA is ERC20, O...\n    tag 33\t\t\tcontract BITKWANZA is ERC20, O...\n      JUMPDEST \t\t\tcontract BITKWANZA is ERC20, O...\n      DUP1 \t\t\tcontract BITKWANZA is ERC20, O...\n      PUSH 2C1597E4\t\t\tcontract BITKWANZA is ERC20, O...\n      EQ \t\t\tcontract BITKWANZA is ERC20, O...\n      PUSH [tag] 9\t\t\tcontract BITKWANZA is ERC20, O...\n      JUMPI \t\t\tcontract BITKWANZA is ERC20, O...\n      DUP1 \t\t\tcontract BITKWANZA is ERC20, O...\n      PUSH 313CE567\t\t\tcontract BITKWANZA is ERC20, O...\n      EQ \t\t\tcontract BITKWANZA is ERC20, O...\n      PUSH [tag] 10\t\t\tcontract BITKWANZA is ERC20, O...\n      JUMPI \t\t\tcontract BITKWANZA is ERC20, O...\n      DUP1 \t\t\tcontract BITKWANZA is ERC20, O...\n      PUSH 32CB6B0C\t\t\tcontract BITKWANZA is ERC20, O...\n      EQ \t\t\tcontract BITKWANZA is ERC20, O...\n      PUSH [tag] 11\t\t\tcontract BITKWANZA is ERC20, O...\n      JUMPI \t\t\tcontract BITKWANZA is ERC20, O...\n      PUSH [tag] 2\t\t\tcontract BITKWANZA is ERC20, O...\n      JUMP \t\t\tcontract BITKWANZA is ERC20, O...\n    tag 32\t\t\tcontract BITKWANZA is ERC20, O...\n      JUMPDEST \t\t\tcontract BITKWANZA is ERC20, O...\n      DUP1 \t\t\tcontract BITKWANZA is ERC20, O...\n      PUSH 6FDDE03\t\t\tcontract BITKWANZA is ERC20, O...\n      EQ \t\t\tcontract BITKWANZA is ERC20, O...\n      PUSH [tag] 3\t\t\tcontract BITKWANZA is ERC20, O...\n      JUMPI \t\t\tcontract BITKWANZA is ERC20, O...\n      DUP1 \t\t\tcontract BITKWANZA is ERC20, O...\n      PUSH 95EA7B3\t\t\tcontract BITKWANZA is ERC20, O...\n      EQ \t\t\tcontract BITKWANZA is ERC20, O...\n      PUSH [tag] 4\t\t\tcontract BITKWANZA is ERC20, O...\n      JUMPI \t\t\tcontract BITKWANZA is ERC20, O...\n      DUP1 \t\t\tcontract BITKWANZA is ERC20, O...\n      PUSH D7FCD1A\t\t\tcontract BITKWANZA is ERC20, O...\n      EQ \t\t\tcontract BITKWANZA is ERC20, O...\n      PUSH [tag] 5\t\t\tcontract BITKWANZA is ERC20, O...\n      JUMPI \t\t\tcontract BITKWANZA is ERC20, O...\n      DUP1 \t\t\tcontract BITKWANZA is ERC20, O...\n      PUSH 15CE462D\t\t\tcontract BITKWANZA is ERC20, O...\n      EQ \t\t\tcontract BITKWANZA is ERC20, O...\n      PUSH [tag] 6\t\t\tcontract BITKWANZA is ERC20, O...\n      JUMPI \t\t\tcontract BITKWANZA is ERC20, O...\n      DUP1 \t\t\tcontract BITKWANZA is ERC20, O...\n      PUSH 18160DDD\t\t\tcontract BITKWANZA is ERC20, O...\n      EQ \t\t\tcontract BITKWANZA is ERC20, O...\n      PUSH [tag] 7\t\t\tcontract BITKWANZA is ERC20, O...\n      JUMPI \t\t\tcontract BITKWANZA is ERC20, O...\n      DUP1 \t\t\tcontract BITKWANZA is ERC20, O...\n      PUSH 23B872DD\t\t\tcontract BITKWANZA is ERC20, O...\n      EQ \t\t\tcontract BITKWANZA is ERC20, O...\n      PUSH [tag] 8\t\t\tcontract BITKWANZA is ERC20, O...\n      JUMPI \t\t\tcontract BITKWANZA is ERC20, O...\n    tag 2\t\t\tcontract BITKWANZA is ERC20, O...\n      JUMPDEST \t\t\tcontract BITKWANZA is ERC20, O...\n      PUSH 0\t\t\tcontract BITKWANZA is ERC20, O...\n      DUP1 \t\t\tcontract BITKWANZA is ERC20, O...\n      REVERT \t\t\tcontract BITKWANZA is ERC20, O...\n    tag 3\t\t\tfunction name() public view vi...\n      JUMPDEST \t\t\tfunction name() public view vi...\n      PUSH [tag] 34\t\t\tfunction name() public view vi...\n      PUSH [tag] 35\t\t\tfunction name() public view vi...\n      JUMP \t\t\tfunction name() public view vi...\n    tag 34\t\t\tfunction name() public view vi...\n      JUMPDEST \t\t\tfunction name() public view vi...\n      PUSH 40\t\t\tfunction name() public view vi...\n      MLOAD \t\t\tfunction name() public view vi...\n      PUSH [tag] 36\t\t\tfunction name() public view vi...\n      SWAP2 \t\t\tfunction name() public view vi...\n      SWAP1 \t\t\tfunction name() public view vi...\n      PUSH [tag] 37\t\t\tfunction name() public view vi...\n      JUMP \t\t\tfunction name() public view vi...\n    tag 36\t\t\tfunction name() public view vi...\n      JUMPDEST \t\t\tfunction name() public view vi...\n      PUSH 40\t\t\tfunction name() public view vi...\n      MLOAD \t\t\tfunction name() public view vi...\n      DUP1 \t\t\tfunction name() public view vi...\n      SWAP2 \t\t\tfunction name() public view vi...\n      SUB \t\t\tfunction name() public view vi...\n      SWAP1 \t\t\tfunction name() public view vi...\n      RETURN \t\t\tfunction name() public view vi...\n    tag 4\t\t\tfunction approve(address spend...\n      JUMPDEST \t\t\tfunction approve(address spend...\n      PUSH [tag] 38\t\t\tfunction approve(address spend...\n      PUSH 4\t\t\tfunction approve(address spend...\n      DUP1 \t\t\tfunction approve(address spend...\n      CALLDATASIZE \t\t\tfunction approve(address spend...\n      SUB \t\t\tfunction approve(address spend...\n      DUP2 \t\t\tfunction approve(address spend...\n      ADD \t\t\tfunction approve(address spend...\n      SWAP1 \t\t\tfunction approve(address spend...\n      PUSH [tag] 39\t\t\tfunction approve(address spend...\n      SWAP2 \t\t\tfunction approve(address spend...\n      SWAP1 \t\t\tfunction approve(address spend...\n      PUSH [tag] 40\t\t\tfunction approve(address spend...\n      JUMP \t\t\tfunction approve(address spend...\n    tag 39\t\t\tfunction approve(address spend...\n      JUMPDEST \t\t\tfunction approve(address spend...\n      PUSH [tag] 41\t\t\tfunction approve(address spend...\n      JUMP \t\t\tfunction approve(address spend...\n    tag 38\t\t\tfunction approve(address spend...\n      JUMPDEST \t\t\tfunction approve(address spend...\n      PUSH 40\t\t\tfunction approve(address spend...\n      MLOAD \t\t\tfunction approve(address spend...\n      PUSH [tag] 42\t\t\tfunction approve(address spend...\n      SWAP2 \t\t\tfunction approve(address spend...\n      SWAP1 \t\t\tfunction approve(address spend...\n      PUSH [tag] 43\t\t\tfunction approve(address spend...\n      JUMP \t\t\tfunction approve(address spend...\n    tag 42\t\t\tfunction approve(address spend...\n      JUMPDEST \t\t\tfunction approve(address spend...\n      PUSH 40\t\t\tfunction approve(address spend...\n      MLOAD \t\t\tfunction approve(address spend...\n      DUP1 \t\t\tfunction approve(address spend...\n      SWAP2 \t\t\tfunction approve(address spend...\n      SUB \t\t\tfunction approve(address spend...\n      SWAP1 \t\t\tfunction approve(address spend...\n      RETURN \t\t\tfunction approve(address spend...\n    tag 5\t\t\tuint256 public treasuryFeeBP =...\n      JUMPDEST \t\t\tuint256 public treasuryFeeBP =...\n      PUSH [tag] 44\t\t\tuint256 public treasuryFeeBP =...\n      PUSH [tag] 45\t\t\tuint256 public treasuryFeeBP =...\n      JUMP \t\t\tuint256 public treasuryFeeBP =...\n    tag 44\t\t\tuint256 public treasuryFeeBP =...\n      JUMPDEST \t\t\tuint256 public treasuryFeeBP =...\n      PUSH 40\t\t\tuint256 public treasuryFeeBP =...\n      MLOAD \t\t\tuint256 public treasuryFeeBP =...\n      PUSH [tag] 46\t\t\tuint256 public treasuryFeeBP =...\n      SWAP2 \t\t\tuint256 public treasuryFeeBP =...\n      SWAP1 \t\t\tuint256 public treasuryFeeBP =...\n      PUSH [tag] 47\t\t\tuint256 public treasuryFeeBP =...\n      JUMP \t\t\tuint256 public treasuryFeeBP =...\n    tag 46\t\t\tuint256 public treasuryFeeBP =...\n      JUMPDEST \t\t\tuint256 public treasuryFeeBP =...\n      PUSH 40\t\t\tuint256 public treasuryFeeBP =...\n      MLOAD \t\t\tuint256 public treasuryFeeBP =...\n      DUP1 \t\t\tuint256 public treasuryFeeBP =...\n      SWAP2 \t\t\tuint256 public treasuryFeeBP =...\n      SUB \t\t\tuint256 public treasuryFeeBP =...\n      SWAP1 \t\t\tuint256 public treasuryFeeBP =...\n      RETURN \t\t\tuint256 public treasuryFeeBP =...\n    tag 6\t\t\tfunction setFoundingWallet(add...\n      JUMPDEST \t\t\tfunction setFoundingWallet(add...\n      PUSH [tag] 48\t\t\tfunction setFoundingWallet(add...\n      PUSH 4\t\t\tfunction setFoundingWallet(add...\n      DUP1 \t\t\tfunction setFoundingWallet(add...\n      CALLDATASIZE \t\t\tfunction setFoundingWallet(add...\n      SUB \t\t\tfunction setFoundingWallet(add...\n      DUP2 \t\t\tfunction setFoundingWallet(add...\n      ADD \t\t\tfunction setFoundingWallet(add...\n      SWAP1 \t\t\tfunction setFoundingWallet(add...\n      PUSH [tag] 49\t\t\tfunction setFoundingWallet(add...\n      SWAP2 \t\t\tfunction setFoundingWallet(add...\n      SWAP1 \t\t\tfunction setFoundingWallet(add...\n      PUSH [tag] 50\t\t\tfunction setFoundingWallet(add...\n      JUMP \t\t\tfunction setFoundingWallet(add...\n    tag 49\t\t\tfunction setFoundingWallet(add...\n      JUMPDEST \t\t\tfunction setFoundingWallet(add...\n      PUSH [tag] 51\t\t\tfunction setFoundingWallet(add...\n      JUMP \t\t\tfunction setFoundingWallet(add...\n    tag 48\t\t\tfunction setFoundingWallet(add...\n      JUMPDEST \t\t\tfunction setFoundingWallet(add...\n      STOP \t\t\tfunction setFoundingWallet(add...\n    tag 7\t\t\tfunction totalSupply() public ...\n      JUMPDEST \t\t\tfunction totalSupply() public ...\n      PUSH [tag] 52\t\t\tfunction totalSupply() public ...\n      PUSH [tag] 53\t\t\tfunction totalSupply() public ...\n      JUMP \t\t\tfunction totalSupply() public ...\n    tag 52\t\t\tfunction totalSupply() public ...\n      JUMPDEST \t\t\tfunction totalSupply() public ...\n      PUSH 40\t\t\tfunction totalSupply() public ...\n      MLOAD \t\t\tfunction totalSupply() public ...\n      PUSH [tag] 54\t\t\tfunction totalSupply() public ...\n      SWAP2 \t\t\tfunction totalSupply() public ...\n      SWAP1 \t\t\tfunction totalSupply() public ...\n      PUSH [tag] 47\t\t\tfunction totalSupply() public ...\n      JUMP \t\t\tfunction totalSupply() public ...\n    tag 54\t\t\tfunction totalSupply() public ...\n      JUMPDEST \t\t\tfunction totalSupply() public ...\n      PUSH 40\t\t\tfunction totalSupply() public ...\n      MLOAD \t\t\tfunction totalSupply() public ...\n      DUP1 \t\t\tfunction totalSupply() public ...\n      SWAP2 \t\t\tfunction totalSupply() public ...\n      SUB \t\t\tfunction totalSupply() public ...\n      SWAP1 \t\t\tfunction totalSupply() public ...\n      RETURN \t\t\tfunction totalSupply() public ...\n    tag 8\t\t\tfunction transferFrom(\\n      ...\n      JUMPDEST \t\t\tfunction transferFrom(\\n      ...\n      PUSH [tag] 55\t\t\tfunction transferFrom(\\n      ...\n      PUSH 4\t\t\tfunction transferFrom(\\n      ...\n      DUP1 \t\t\tfunction transferFrom(\\n      ...\n      CALLDATASIZE \t\t\tfunction transferFrom(\\n      ...\n      SUB \t\t\tfunction transferFrom(\\n      ...\n      DUP2 \t\t\tfunction transferFrom(\\n      ...\n      ADD \t\t\tfunction transferFrom(\\n      ...\n      SWAP1 \t\t\tfunction transferFrom(\\n      ...\n      PUSH [tag] 56\t\t\tfunction transferFrom(\\n      ...\n      SWAP2 \t\t\tfunction transferFrom(\\n      ...\n      SWAP1 \t\t\tfunction transferFrom(\\n      ...\n      PUSH [tag] 57\t\t\tfunction transferFrom(\\n      ...\n      JUMP \t\t\tfunction transferFrom(\\n      ...\n    tag 56\t\t\tfunction transferFrom(\\n      ...\n      JUMPDEST \t\t\tfunction transferFrom(\\n      ...\n      PUSH [tag] 58\t\t\tfunction transferFrom(\\n      ...\n      JUMP \t\t\tfunction transferFrom(\\n      ...\n    tag 55\t\t\tfunction transferFrom(\\n      ...\n      JUMPDEST \t\t\tfunction transferFrom(\\n      ...\n      PUSH 40\t\t\tfunction transferFrom(\\n      ...\n      MLOAD \t\t\tfunction transferFrom(\\n      ...\n      PUSH [tag] 59\t\t\tfunction transferFrom(\\n      ...\n      SWAP2 \t\t\tfunction transferFrom(\\n      ...\n      SWAP1 \t\t\tfunction transferFrom(\\n      ...\n      PUSH [tag] 43\t\t\tfunction transferFrom(\\n      ...\n      JUMP \t\t\tfunction transferFrom(\\n      ...\n    tag 59\t\t\tfunction transferFrom(\\n      ...\n      JUMPDEST \t\t\tfunction transferFrom(\\n      ...\n      PUSH 40\t\t\tfunction transferFrom(\\n      ...\n      MLOAD \t\t\tfunction transferFrom(\\n      ...\n      DUP1 \t\t\tfunction transferFrom(\\n      ...\n      SWAP2 \t\t\tfunction transferFrom(\\n      ...\n      SUB \t\t\tfunction transferFrom(\\n      ...\n      SWAP1 \t\t\tfunction transferFrom(\\n      ...\n      RETURN \t\t\tfunction transferFrom(\\n      ...\n    tag 9\t\t\tuint256 public foundingFeeBP =...\n      JUMPDEST \t\t\tuint256 public foundingFeeBP =...\n      PUSH [tag] 60\t\t\tuint256 public foundingFeeBP =...\n      PUSH [tag] 61\t\t\tuint256 public foundingFeeBP =...\n      JUMP \t\t\tuint256 public foundingFeeBP =...\n    tag 60\t\t\tuint256 public foundingFeeBP =...\n      JUMPDEST \t\t\tuint256 public foundingFeeBP =...\n      PUSH 40\t\t\tuint256 public foundingFeeBP =...\n      MLOAD \t\t\tuint256 public foundingFeeBP =...\n      PUSH [tag] 62\t\t\tuint256 public foundingFeeBP =...\n      SWAP2 \t\t\tuint256 public foundingFeeBP =...\n      SWAP1 \t\t\tuint256 public foundingFeeBP =...\n      PUSH [tag] 47\t\t\tuint256 public foundingFeeBP =...\n      JUMP \t\t\tuint256 public foundingFeeBP =...\n    tag 62\t\t\tuint256 public foundingFeeBP =...\n      JUMPDEST \t\t\tuint256 public foundingFeeBP =...\n      PUSH 40\t\t\tuint256 public foundingFeeBP =...\n      MLOAD \t\t\tuint256 public foundingFeeBP =...\n      DUP1 \t\t\tuint256 public foundingFeeBP =...\n      SWAP2 \t\t\tuint256 public foundingFeeBP =...\n      SUB \t\t\tuint256 public foundingFeeBP =...\n      SWAP1 \t\t\tuint256 public foundingFeeBP =...\n      RETURN \t\t\tuint256 public foundingFeeBP =...\n    tag 10\t\t\tfunction decimals() public vie...\n      JUMPDEST \t\t\tfunction decimals() public vie...\n      PUSH [tag] 63\t\t\tfunction decimals() public vie...\n      PUSH [tag] 64\t\t\tfunction decimals() public vie...\n      JUMP \t\t\tfunction decimals() public vie...\n    tag 63\t\t\tfunction decimals() public vie...\n      JUMPDEST \t\t\tfunction decimals() public vie...\n      PUSH 40\t\t\tfunction decimals() public vie...\n      MLOAD \t\t\tfunction decimals() public vie...\n      PUSH [tag] 65\t\t\tfunction decimals() public vie...\n      SWAP2 \t\t\tfunction decimals() public vie...\n      SWAP1 \t\t\tfunction decimals() public vie...\n      PUSH [tag] 66\t\t\tfunction decimals() public vie...\n      JUMP \t\t\tfunction decimals() public vie...\n    tag 65\t\t\tfunction decimals() public vie...\n      JUMPDEST \t\t\tfunction decimals() public vie...\n      PUSH 40\t\t\tfunction decimals() public vie...\n      MLOAD \t\t\tfunction decimals() public vie...\n      DUP1 \t\t\tfunction decimals() public vie...\n      SWAP2 \t\t\tfunction decimals() public vie...\n      SUB \t\t\tfunction decimals() public vie...\n      SWAP1 \t\t\tfunction decimals() public vie...\n      RETURN \t\t\tfunction decimals() public vie...\n    tag 11\t\t\tuint256 public constant MAX_SU...\n      JUMPDEST \t\t\tuint256 public constant MAX_SU...\n      PUSH [tag] 67\t\t\tuint256 public constant MAX_SU...\n      PUSH [tag] 68\t\t\tuint256 public constant MAX_SU...\n      JUMP \t\t\tuint256 public constant MAX_SU...\n    tag 67\t\t\tuint256 public constant MAX_SU...\n      JUMPDEST \t\t\tuint256 public constant MAX_SU...\n      PUSH 40\t\t\tuint256 public constant MAX_SU...\n      MLOAD \t\t\tuint256 public constant MAX_SU...\n      PUSH [tag] 69\t\t\tuint256 public constant MAX_SU...\n      SWAP2 \t\t\tuint256 public constant MAX_SU...\n      SWAP1 \t\t\tuint256 public constant MAX_SU...\n      PUSH [tag] 47\t\t\tuint256 public constant MAX_SU...\n      JUMP \t\t\tuint256 public constant MAX_SU...\n    tag 69\t\t\tuint256 public constant MAX_SU...\n      JUMPDEST \t\t\tuint256 public constant MAX_SU...\n      PUSH 40\t\t\tuint256 public constant MAX_SU...\n      MLOAD \t\t\tuint256 public constant MAX_SU...\n      DUP1 \t\t\tuint256 public constant MAX_SU...\n      SWAP2 \t\t\tuint256 public constant MAX_SU...\n      SUB \t\t\tuint256 public constant MAX_SU...\n      SWAP1 \t\t\tuint256 public constant MAX_SU...\n      RETURN \t\t\tuint256 public constant MAX_SU...\n    tag 12\t\t\tmapping(address => bool) publi...\n      JUMPDEST \t\t\tmapping(address => bool) publi...\n      PUSH [tag] 70\t\t\tmapping(address => bool) publi...\n      PUSH 4\t\t\tmapping(address => bool) publi...\n      DUP1 \t\t\tmapping(address => bool) publi...\n      CALLDATASIZE \t\t\tmapping(address => bool) publi...\n      SUB \t\t\tmapping(address => bool) publi...\n      DUP2 \t\t\tmapping(address => bool) publi...\n      ADD \t\t\tmapping(address => bool) publi...\n      SWAP1 \t\t\tmapping(address => bool) publi...\n      PUSH [tag] 71\t\t\tmapping(address => bool) publi...\n      SWAP2 \t\t\tmapping(address => bool) publi...\n      SWAP1 \t\t\tmapping(address => bool) publi...\n      PUSH [tag] 50\t\t\tmapping(address => bool) publi...\n      JUMP \t\t\tmapping(address => bool) publi...\n    tag 71\t\t\tmapping(address => bool) publi...\n      JUMPDEST \t\t\tmapping(address => bool) publi...\n      PUSH [tag] 72\t\t\tmapping(address => bool) publi...\n      JUMP \t\t\tmapping(address => bool) publi...\n    tag 70\t\t\tmapping(address => bool) publi...\n      JUMPDEST \t\t\tmapping(address => bool) publi...\n      PUSH 40\t\t\tmapping(address => bool) publi...\n      MLOAD \t\t\tmapping(address => bool) publi...\n      PUSH [tag] 73\t\t\tmapping(address => bool) publi...\n      SWAP2 \t\t\tmapping(address => bool) publi...\n      SWAP1 \t\t\tmapping(address => bool) publi...\n      PUSH [tag] 43\t\t\tmapping(address => bool) publi...\n      JUMP \t\t\tmapping(address => bool) publi...\n    tag 73\t\t\tmapping(address => bool) publi...\n      JUMPDEST \t\t\tmapping(address => bool) publi...\n      PUSH 40\t\t\tmapping(address => bool) publi...\n      MLOAD \t\t\tmapping(address => bool) publi...\n      DUP1 \t\t\tmapping(address => bool) publi...\n      SWAP2 \t\t\tmapping(address => bool) publi...\n      SUB \t\t\tmapping(address => bool) publi...\n      SWAP1 \t\t\tmapping(address => bool) publi...\n      RETURN \t\t\tmapping(address => bool) publi...\n    tag 13\t\t\taddress public treasuryWallet\n      JUMPDEST \t\t\taddress public treasuryWallet\n      PUSH [tag] 74\t\t\taddress public treasuryWallet\n      PUSH [tag] 75\t\t\taddress public treasuryWallet\n      JUMP \t\t\taddress public treasuryWallet\n    tag 74\t\t\taddress public treasuryWallet\n      JUMPDEST \t\t\taddress public treasuryWallet\n      PUSH 40\t\t\taddress public treasuryWallet\n      MLOAD \t\t\taddress public treasuryWallet\n      PUSH [tag] 76\t\t\taddress public treasuryWallet\n      SWAP2 \t\t\taddress public treasuryWallet\n      SWAP1 \t\t\taddress public treasuryWallet\n      PUSH [tag] 77\t\t\taddress public treasuryWallet\n      JUMP \t\t\taddress public treasuryWallet\n    tag 76\t\t\taddress public treasuryWallet\n      JUMPDEST \t\t\taddress public treasuryWallet\n      PUSH 40\t\t\taddress public treasuryWallet\n      MLOAD \t\t\taddress public treasuryWallet\n      DUP1 \t\t\taddress public treasuryWallet\n      SWAP2 \t\t\taddress public treasuryWallet\n      SUB \t\t\taddress public treasuryWallet\n      SWAP1 \t\t\taddress public treasuryWallet\n      RETURN \t\t\taddress public treasuryWallet\n    tag 14\t\t\tuint256 public constant MAX_FE...\n      JUMPDEST \t\t\tuint256 public constant MAX_FE...\n      PUSH [tag] 78\t\t\tuint256 public constant MAX_FE...\n      PUSH [tag] 79\t\t\tuint256 public constant MAX_FE...\n      JUMP \t\t\tuint256 public constant MAX_FE...\n    tag 78\t\t\tuint256 public constant MAX_FE...\n      JUMPDEST \t\t\tuint256 public constant MAX_FE...\n      PUSH 40\t\t\tuint256 public constant MAX_FE...\n      MLOAD \t\t\tuint256 public constant MAX_FE...\n      PUSH [tag] 80\t\t\tuint256 public constant MAX_FE...\n      SWAP2 \t\t\tuint256 public constant MAX_FE...\n      SWAP1 \t\t\tuint256 public constant MAX_FE...\n      PUSH [tag] 47\t\t\tuint256 public constant MAX_FE...\n      JUMP \t\t\tuint256 public constant MAX_FE...\n    tag 80\t\t\tuint256 public constant MAX_FE...\n      JUMPDEST \t\t\tuint256 public constant MAX_FE...\n      PUSH 40\t\t\tuint256 public constant MAX_FE...\n      MLOAD \t\t\tuint256 public constant MAX_FE...\n      DUP1 \t\t\tuint256 public constant MAX_FE...\n      SWAP2 \t\t\tuint256 public constant MAX_FE...\n      SUB \t\t\tuint256 public constant MAX_FE...\n      SWAP1 \t\t\tuint256 public constant MAX_FE...\n      RETURN \t\t\tuint256 public constant MAX_FE...\n    tag 15\t\t\tfunction balanceOf(address acc...\n      JUMPDEST \t\t\tfunction balanceOf(address acc...\n      PUSH [tag] 81\t\t\tfunction balanceOf(address acc...\n      PUSH 4\t\t\tfunction balanceOf(address acc...\n      DUP1 \t\t\tfunction balanceOf(address acc...\n      CALLDATASIZE \t\t\tfunction balanceOf(address acc...\n      SUB \t\t\tfunction balanceOf(address acc...\n      DUP2 \t\t\tfunction balanceOf(address acc...\n      ADD \t\t\tfunction balanceOf(address acc...\n      SWAP1 \t\t\tfunction balanceOf(address acc...\n      PUSH [tag] 82\t\t\tfunction balanceOf(address acc...\n      SWAP2 \t\t\tfunction balanceOf(address acc...\n      SWAP1 \t\t\tfunction balanceOf(address acc...\n      PUSH [tag] 50\t\t\tfunction balanceOf(address acc...\n      JUMP \t\t\tfunction balanceOf(address acc...\n    tag 82\t\t\tfunction balanceOf(address acc...\n      JUMPDEST \t\t\tfunction balanceOf(address acc...\n      PUSH [tag] 83\t\t\tfunction balanceOf(address acc...\n      JUMP \t\t\tfunction balanceOf(address acc...\n    tag 81\t\t\tfunction balanceOf(address acc...\n      JUMPDEST \t\t\tfunction balanceOf(address acc...\n      PUSH 40\t\t\tfunction balanceOf(address acc...\n      MLOAD \t\t\tfunction balanceOf(address acc...\n      PUSH [tag] 84\t\t\tfunction balanceOf(address acc...\n      SWAP2 \t\t\tfunction balanceOf(address acc...\n      SWAP1 \t\t\tfunction balanceOf(address acc...\n      PUSH [tag] 47\t\t\tfunction balanceOf(address acc...\n      JUMP \t\t\tfunction balanceOf(address acc...\n    tag 84\t\t\tfunction balanceOf(address acc...\n      JUMPDEST \t\t\tfunction balanceOf(address acc...\n      PUSH 40\t\t\tfunction balanceOf(address acc...\n      MLOAD \t\t\tfunction balanceOf(address acc...\n      DUP1 \t\t\tfunction balanceOf(address acc...\n      SWAP2 \t\t\tfunction balanceOf(address acc...\n      SUB \t\t\tfunction balanceOf(address acc...\n      SWAP1 \t\t\tfunction balanceOf(address acc...\n      RETURN \t\t\tfunction balanceOf(address acc...\n    tag 16\t\t\tfunction renounceOwnership() p...\n      JUMPDEST \t\t\tfunction renounceOwnership() p...\n      PUSH [tag] 85\t\t\tfunction renounceOwnership() p...\n      PUSH [tag] 86\t\t\tfunction renounceOwnership() p...\n      JUMP \t\t\tfunction renounceOwnership() p...\n    tag 85\t\t\tfunction renounceOwnership() p...\n      JUMPDEST \t\t\tfunction renounceOwnership() p...\n      STOP \t\t\tfunction renounceOwnership() p...\n    tag 17\t\t\taddress public foundingWallet\n      JUMPDEST \t\t\taddress public foundingWallet\n      PUSH [tag] 87\t\t\taddress public foundingWallet\n      PUSH [tag] 88\t\t\taddress public foundingWallet\n      JUMP \t\t\taddress public foundingWallet\n    tag 87\t\t\taddress public foundingWallet\n      JUMPDEST \t\t\taddress public foundingWallet\n      PUSH 40\t\t\taddress public foundingWallet\n      MLOAD \t\t\taddress public foundingWallet\n      PUSH [tag] 89\t\t\taddress public foundingWallet\n      SWAP2 \t\t\taddress public foundingWallet\n      SWAP1 \t\t\taddress public foundingWallet\n      PUSH [tag] 77\t\t\taddress public foundingWallet\n      JUMP \t\t\taddress public foundingWallet\n    tag 89\t\t\taddress public foundingWallet\n      JUMPDEST \t\t\taddress public foundingWallet\n      PUSH 40\t\t\taddress public foundingWallet\n      MLOAD \t\t\taddress public foundingWallet\n      DUP1 \t\t\taddress public foundingWallet\n      SWAP2 \t\t\taddress public foundingWallet\n      SUB \t\t\taddress public foundingWallet\n      SWAP1 \t\t\taddress public foundingWallet\n      RETURN \t\t\taddress public foundingWallet\n    tag 18\t\t\tfunction owner() public view v...\n      JUMPDEST \t\t\tfunction owner() public view v...\n      PUSH [tag] 90\t\t\tfunction owner() public view v...\n      PUSH [tag] 91\t\t\tfunction owner() public view v...\n      JUMP \t\t\tfunction owner() public view v...\n    tag 90\t\t\tfunction owner() public view v...\n      JUMPDEST \t\t\tfunction owner() public view v...\n      PUSH 40\t\t\tfunction owner() public view v...\n      MLOAD \t\t\tfunction owner() public view v...\n      PUSH [tag] 92\t\t\tfunction owner() public view v...\n      SWAP2 \t\t\tfunction owner() public view v...\n      SWAP1 \t\t\tfunction owner() public view v...\n      PUSH [tag] 77\t\t\tfunction owner() public view v...\n      JUMP \t\t\tfunction owner() public view v...\n    tag 92\t\t\tfunction owner() public view v...\n      JUMPDEST \t\t\tfunction owner() public view v...\n      PUSH 40\t\t\tfunction owner() public view v...\n      MLOAD \t\t\tfunction owner() public view v...\n      DUP1 \t\t\tfunction owner() public view v...\n      SWAP2 \t\t\tfunction owner() public view v...\n      SUB \t\t\tfunction owner() public view v...\n      SWAP1 \t\t\tfunction owner() public view v...\n      RETURN \t\t\tfunction owner() public view v...\n    tag 19\t\t\tfunction setFeeExempt(address ...\n      JUMPDEST \t\t\tfunction setFeeExempt(address ...\n      PUSH [tag] 93\t\t\tfunction setFeeExempt(address ...\n      PUSH 4\t\t\tfunction setFeeExempt(address ...\n      DUP1 \t\t\tfunction setFeeExempt(address ...\n      CALLDATASIZE \t\t\tfunction setFeeExempt(address ...\n      SUB \t\t\tfunction setFeeExempt(address ...\n      DUP2 \t\t\tfunction setFeeExempt(address ...\n      ADD \t\t\tfunction setFeeExempt(address ...\n      SWAP1 \t\t\tfunction setFeeExempt(address ...\n      PUSH [tag] 94\t\t\tfunction setFeeExempt(address ...\n      SWAP2 \t\t\tfunction setFeeExempt(address ...\n      SWAP1 \t\t\tfunction setFeeExempt(address ...\n      PUSH [tag] 95\t\t\tfunction setFeeExempt(address ...\n      JUMP \t\t\tfunction setFeeExempt(address ...\n    tag 94\t\t\tfunction setFeeExempt(address ...\n      JUMPDEST \t\t\tfunction setFeeExempt(address ...\n      PUSH [tag] 96\t\t\tfunction setFeeExempt(address ...\n      JUMP \t\t\tfunction setFeeExempt(address ...\n    tag 93\t\t\tfunction setFeeExempt(address ...\n      JUMPDEST \t\t\tfunction setFeeExempt(address ...\n      STOP \t\t\tfunction setFeeExempt(address ...\n    tag 20\t\t\tfunction symbol() public view ...\n      JUMPDEST \t\t\tfunction symbol() public view ...\n      PUSH [tag] 97\t\t\tfunction symbol() public view ...\n      PUSH [tag] 98\t\t\tfunction symbol() public view ...\n      JUMP \t\t\tfunction symbol() public view ...\n    tag 97\t\t\tfunction symbol() public view ...\n      JUMPDEST \t\t\tfunction symbol() public view ...\n      PUSH 40\t\t\tfunction symbol() public view ...\n      MLOAD \t\t\tfunction symbol() public view ...\n      PUSH [tag] 99\t\t\tfunction symbol() public view ...\n      SWAP2 \t\t\tfunction symbol() public view ...\n      SWAP1 \t\t\tfunction symbol() public view ...\n      PUSH [tag] 37\t\t\tfunction symbol() public view ...\n      JUMP \t\t\tfunction symbol() public view ...\n    tag 99\t\t\tfunction symbol() public view ...\n      JUMPDEST \t\t\tfunction symbol() public view ...\n      PUSH 40\t\t\tfunction symbol() public view ...\n      MLOAD \t\t\tfunction symbol() public view ...\n      DUP1 \t\t\tfunction symbol() public view ...\n      SWAP2 \t\t\tfunction symbol() public view ...\n      SUB \t\t\tfunction symbol() public view ...\n      SWAP1 \t\t\tfunction symbol() public view ...\n      RETURN \t\t\tfunction symbol() public view ...\n    tag 21\t\t\tbool public feesEnabled = true\n      JUMPDEST \t\t\tbool public feesEnabled = true\n      PUSH [tag] 100\t\t\tbool public feesEnabled = true\n      PUSH [tag] 101\t\t\tbool public feesEnabled = true\n      JUMP \t\t\tbool public feesEnabled = true\n    tag 100\t\t\tbool public feesEnabled = true\n      JUMPDEST \t\t\tbool public feesEnabled = true\n      PUSH 40\t\t\tbool public feesEnabled = true\n      MLOAD \t\t\tbool public feesEnabled = true\n      PUSH [tag] 102\t\t\tbool public feesEnabled = true\n      SWAP2 \t\t\tbool public feesEnabled = true\n      SWAP1 \t\t\tbool public feesEnabled = true\n      PUSH [tag] 43\t\t\tbool public feesEnabled = true\n      JUMP \t\t\tbool public feesEnabled = true\n    tag 102\t\t\tbool public feesEnabled = true\n      JUMPDEST \t\t\tbool public feesEnabled = true\n      PUSH 40\t\t\tbool public feesEnabled = true\n      MLOAD \t\t\tbool public feesEnabled = true\n      DUP1 \t\t\tbool public feesEnabled = true\n      SWAP2 \t\t\tbool public feesEnabled = true\n      SUB \t\t\tbool public feesEnabled = true\n      SWAP1 \t\t\tbool public feesEnabled = true\n      RETURN \t\t\tbool public feesEnabled = true\n    tag 22\t\t\tfunction setTreasuryWallet(add...\n      JUMPDEST \t\t\tfunction setTreasuryWallet(add...\n      PUSH [tag] 103\t\t\tfunction setTreasuryWallet(add...\n      PUSH 4\t\t\tfunction setTreasuryWallet(add...\n      DUP1 \t\t\tfunction setTreasuryWallet(add...\n      CALLDATASIZE \t\t\tfunction setTreasuryWallet(add...\n      SUB \t\t\tfunction setTreasuryWallet(add...\n      DUP2 \t\t\tfunction setTreasuryWallet(add...\n      ADD \t\t\tfunction setTreasuryWallet(add...\n      SWAP1 \t\t\tfunction setTreasuryWallet(add...\n      PUSH [tag] 104\t\t\tfunction setTreasuryWallet(add...\n      SWAP2 \t\t\tfunction setTreasuryWallet(add...\n      SWAP1 \t\t\tfunction setTreasuryWallet(add...\n      PUSH [tag] 50\t\t\tfunction setTreasuryWallet(add...\n      JUMP \t\t\tfunction setTreasuryWallet(add...\n    tag 104\t\t\tfunction setTreasuryWallet(add...\n      JUMPDEST \t\t\tfunction setTreasuryWallet(add...\n      PUSH [tag] 105\t\t\tfunction setTreasuryWallet(add...\n      JUMP \t\t\tfunction setTreasuryWallet(add...\n    tag 103\t\t\tfunction setTreasuryWallet(add...\n      JUMPDEST \t\t\tfunction setTreasuryWallet(add...\n      STOP \t\t\tfunction setTreasuryWallet(add...\n    tag 23\t\t\tfunction setFeesEnabled(bool e...\n      JUMPDEST \t\t\tfunction setFeesEnabled(bool e...\n      PUSH [tag] 106\t\t\tfunction setFeesEnabled(bool e...\n      PUSH 4\t\t\tfunction setFeesEnabled(bool e...\n      DUP1 \t\t\tfunction setFeesEnabled(bool e...\n      CALLDATASIZE \t\t\tfunction setFeesEnabled(bool e...\n      SUB \t\t\tfunction setFeesEnabled(bool e...\n      DUP2 \t\t\tfunction setFeesEnabled(bool e...\n      ADD \t\t\tfunction setFeesEnabled(bool e...\n      SWAP1 \t\t\tfunction setFeesEnabled(bool e...\n      PUSH [tag] 107\t\t\tfunction setFeesEnabled(bool e...\n      SWAP2 \t\t\tfunction setFeesEnabled(bool e...\n      SWAP1 \t\t\tfunction setFeesEnabled(bool e...\n      PUSH [tag] 108\t\t\tfunction setFeesEnabled(bool e...\n      JUMP \t\t\tfunction setFeesEnabled(bool e...\n    tag 107\t\t\tfunction setFeesEnabled(bool e...\n      JUMPDEST \t\t\tfunction setFeesEnabled(bool e...\n      PUSH [tag] 109\t\t\tfunction setFeesEnabled(bool e...\n      JUMP \t\t\tfunction setFeesEnabled(bool e...\n    tag 106\t\t\tfunction setFeesEnabled(bool e...\n      JUMPDEST \t\t\tfunction setFeesEnabled(bool e...\n      STOP \t\t\tfunction setFeesEnabled(bool e...\n    tag 24\t\t\tfunction transfer(address to, ...\n      JUMPDEST \t\t\tfunction transfer(address to, ...\n      PUSH [tag] 110\t\t\tfunction transfer(address to, ...\n      PUSH 4\t\t\tfunction transfer(address to, ...\n      DUP1 \t\t\tfunction transfer(address to, ...\n      CALLDATASIZE \t\t\tfunction transfer(address to, ...\n      SUB \t\t\tfunction transfer(address to, ...\n      DUP2 \t\t\tfunction transfer(address to, ...\n      ADD \t\t\tfunction transfer(address to, ...\n      SWAP1 \t\t\tfunction transfer(address to, ...\n      PUSH [tag] 111\t\t\tfunction transfer(address to, ...\n      SWAP2 \t\t\tfunction transfer(address to, ...\n      SWAP1 \t\t\tfunction transfer(address to, ...\n      PUSH [tag] 40\t\t\tfunction transfer(address to, ...\n      JUMP \t\t\tfunction transfer(address to, ...\n    tag 111\t\t\tfunction transfer(address to, ...\n      JUMPDEST \t\t\tfunction transfer(address to, ...\n      PUSH [tag] 112\t\t\tfunction transfer(address to, ...\n      JUMP \t\t\tfunction transfer(address to, ...\n    tag 110\t\t\tfunction transfer(address to, ...\n      JUMPDEST \t\t\tfunction transfer(address to, ...\n      PUSH 40\t\t\tfunction transfer(address to, ...\n      MLOAD \t\t\tfunction transfer(address to, ...\n      PUSH [tag] 113\t\t\tfunction transfer(address to, ...\n      SWAP2 \t\t\tfunction transfer(address to, ...\n      SWAP1 \t\t\tfunction transfer(address to, ...\n      PUSH [tag] 43\t\t\tfunction transfer(address to, ...\n      JUMP \t\t\tfunction transfer(address to, ...\n    tag 113\t\t\tfunction transfer(address to, ...\n      JUMPDEST \t\t\tfunction transfer(address to, ...\n      PUSH 40\t\t\tfunction transfer(address to, ...\n      MLOAD \t\t\tfunction transfer(address to, ...\n      DUP1 \t\t\tfunction transfer(address to, ...\n      SWAP2 \t\t\tfunction transfer(address to, ...\n      SUB \t\t\tfunction transfer(address to, ...\n      SWAP1 \t\t\tfunction transfer(address to, ...\n      RETURN \t\t\tfunction transfer(address to, ...\n    tag 25\t\t\tfunction allowance(address own...\n      JUMPDEST \t\t\tfunction allowance(address own...\n      PUSH [tag] 114\t\t\tfunction allowance(address own...\n      PUSH 4\t\t\tfunction allowance(address own...\n      DUP1 \t\t\tfunction allowance(address own...\n      CALLDATASIZE \t\t\tfunction allowance(address own...\n      SUB \t\t\tfunction allowance(address own...\n      DUP2 \t\t\tfunction allowance(address own...\n      ADD \t\t\tfunction allowance(address own...\n      SWAP1 \t\t\tfunction allowance(address own...\n      PUSH [tag] 115\t\t\tfunction allowance(address own...\n      SWAP2 \t\t\tfunction allowance(address own...\n      SWAP1 \t\t\tfunction allowance(address own...\n      PUSH [tag] 116\t\t\tfunction allowance(address own...\n      JUMP \t\t\tfunction allowance(address own...\n    tag 115\t\t\tfunction allowance(address own...\n      JUMPDEST \t\t\tfunction allowance(address own...\n      PUSH [tag] 117\t\t\tfunction allowance(address own...\n      JUMP \t\t\tfunction allowance(address own...\n    tag 114\t\t\tfunction allowance(address own...\n      JUMPDEST \t\t\tfunction allowance(address own...\n      PUSH 40\t\t\tfunction allowance(address own...\n      MLOAD \t\t\tfunction allowance(address own...\n      PUSH [tag] 118\t\t\tfunction allowance(address own...\n      SWAP2 \t\t\tfunction allowance(address own...\n      SWAP1 \t\t\tfunction allowance(address own...\n      PUSH [tag] 47\t\t\tfunction allowance(address own...\n      JUMP \t\t\tfunction allowance(address own...\n    tag 118\t\t\tfunction allowance(address own...\n      JUMPDEST \t\t\tfunction allowance(address own...\n      PUSH 40\t\t\tfunction allowance(address own...\n      MLOAD \t\t\tfunction allowance(address own...\n      DUP1 \t\t\tfunction allowance(address own...\n      SWAP2 \t\t\tfunction allowance(address own...\n      SUB \t\t\tfunction allowance(address own...\n      SWAP1 \t\t\tfunction allowance(address own...\n      RETURN \t\t\tfunction allowance(address own...\n    tag 26\t\t\tuint256 public rewardFeeBP = 1\n      JUMPDEST \t\t\tuint256 public rewardFeeBP = 1\n      PUSH [tag] 119\t\t\tuint256 public rewardFeeBP = 1\n      PUSH [tag] 120\t\t\tuint256 public rewardFeeBP = 1\n      JUMP \t\t\tuint256 public rewardFeeBP = 1\n    tag 119\t\t\tuint256 public rewardFeeBP = 1\n      JUMPDEST \t\t\tuint256 public rewardFeeBP = 1\n      PUSH 40\t\t\tuint256 public rewardFeeBP = 1\n      MLOAD \t\t\tuint256 public rewardFeeBP = 1\n      PUSH [tag] 121\t\t\tuint256 public rewardFeeBP = 1\n      SWAP2 \t\t\tuint256 public rewardFeeBP = 1\n      SWAP1 \t\t\tuint256 public rewardFeeBP = 1\n      PUSH [tag] 47\t\t\tuint256 public rewardFeeBP = 1\n      JUMP \t\t\tuint256 public rewardFeeBP = 1\n    tag 121\t\t\tuint256 public rewardFeeBP = 1\n      JUMPDEST \t\t\tuint256 public rewardFeeBP = 1\n      PUSH 40\t\t\tuint256 public rewardFeeBP = 1\n      MLOAD \t\t\tuint256 public rewardFeeBP = 1\n      DUP1 \t\t\tuint256 public rewardFeeBP = 1\n      SWAP2 \t\t\tuint256 public rewardFeeBP = 1\n      SUB \t\t\tuint256 public rewardFeeBP = 1\n      SWAP1 \t\t\tuint256 public rewardFeeBP = 1\n      RETURN \t\t\tuint256 public rewardFeeBP = 1\n    tag 27\t\t\tfunction transferOwnership(add...\n      JUMPDEST \t\t\tfunction transferOwnership(add...\n      PUSH [tag] 122\t\t\tfunction transferOwnership(add...\n      PUSH 4\t\t\tfunction transferOwnership(add...\n      DUP1 \t\t\tfunction transferOwnership(add...\n      CALLDATASIZE \t\t\tfunction transferOwnership(add...\n      SUB \t\t\tfunction transferOwnership(add...\n      DUP2 \t\t\tfunction transferOwnership(add...\n      ADD \t\t\tfunction transferOwnership(add...\n      SWAP1 \t\t\tfunction transferOwnership(add...\n      PUSH [tag] 123\t\t\tfunction transferOwnership(add...\n      SWAP2 \t\t\tfunction transferOwnership(add...\n      SWAP1 \t\t\tfunction transferOwnership(add...\n      PUSH [tag] 50\t\t\tfunction transferOwnership(add...\n      JUMP \t\t\tfunction transferOwnership(add...\n    tag 123\t\t\tfunction transferOwnership(add...\n      JUMPDEST \t\t\tfunction transferOwnership(add...\n      PUSH [tag] 124\t\t\tfunction transferOwnership(add...\n      JUMP \t\t\tfunction transferOwnership(add...\n    tag 122\t\t\tfunction transferOwnership(add...\n      JUMPDEST \t\t\tfunction transferOwnership(add...\n      STOP \t\t\tfunction transferOwnership(add...\n    tag 28\t\t\tDividendVault public vault\n      JUMPDEST \t\t\tDividendVault public vault\n      PUSH [tag] 125\t\t\tDividendVault public vault\n      PUSH [tag] 126\t\t\tDividendVault public vault\n      JUMP \t\t\tDividendVault public vault\n    tag 125\t\t\tDividendVault public vault\n      JUMPDEST \t\t\tDividendVault public vault\n      PUSH 40\t\t\tDividendVault public vault\n      MLOAD \t\t\tDividendVault public vault\n      PUSH [tag] 127\t\t\tDividendVault public vault\n      SWAP2 \t\t\tDividendVault public vault\n      SWAP1 \t\t\tDividendVault public vault\n      PUSH [tag] 128\t\t\tDividendVault public vault\n      JUMP \t\t\tDividendVault public vault\n    tag 127\t\t\tDividendVault public vault\n      JUMPDEST \t\t\tDividendVault public vault\n      PUSH 40\t\t\tDividendVault public vault\n      MLOAD \t\t\tDividendVault public vault\n      DUP1 \t\t\tDividendVault public vault\n      SWAP2 \t\t\tDividendVault public vault\n      SUB \t\t\tDividendVault public vault\n      SWAP1 \t\t\tDividendVault public vault\n      RETURN \t\t\tDividendVault public vault\n    tag 35\t\t\tfunction name() public view vi...\n      JUMPDEST \t\t\tfunction name() public view vi...\n      PUSH 60\t\t\tstring memory\n      PUSH 3\t\t\t_name\n      DUP1 \t\t\treturn _name\n      SLOAD \t\t\treturn _name\n      PUSH [tag] 130\t\t\treturn _name\n      SWAP1 \t\t\treturn _name\n      PUSH [tag] 131\t\t\treturn _name\n      JUMP \t\t\treturn _name\n    tag 130\t\t\treturn _name\n      JUMPDEST \t\t\treturn _name\n      DUP1 \t\t\treturn _name\n      PUSH 1F\t\t\treturn _name\n      ADD \t\t\treturn _name\n      PUSH 20\t\t\treturn _name\n      DUP1 \t\t\treturn _name\n      SWAP2 \t\t\treturn _name\n      DIV \t\t\treturn _name\n      MUL \t\t\treturn _name\n      PUSH 20\t\t\treturn _name\n      ADD \t\t\treturn _name\n      PUSH 40\t\t\treturn _name\n      MLOAD \t\t\treturn _name\n      SWAP1 \t\t\treturn _name\n      DUP2 \t\t\treturn _name\n      ADD \t\t\treturn _name\n      PUSH 40\t\t\treturn _name\n      MSTORE \t\t\treturn _name\n      DUP1 \t\t\treturn _name\n      SWAP3 \t\t\treturn _name\n      SWAP2 \t\t\treturn _name\n      SWAP1 \t\t\treturn _name\n      DUP2 \t\t\treturn _name\n      DUP2 \t\t\treturn _name\n      MSTORE \t\t\treturn _name\n      PUSH 20\t\t\treturn _name\n      ADD \t\t\treturn _name\n      DUP3 \t\t\treturn _name\n      DUP1 \t\t\treturn _name\n      SLOAD \t\t\treturn _name\n      PUSH [tag] 132\t\t\treturn _name\n      SWAP1 \t\t\treturn _name\n      PUSH [tag] 131\t\t\treturn _name\n      JUMP \t\t\treturn _name\n    tag 132\t\t\treturn _name\n      JUMPDEST \t\t\treturn _name\n      DUP1 \t\t\treturn _name\n      ISZERO \t\t\treturn _name\n      PUSH [tag] 133\t\t\treturn _name\n      JUMPI \t\t\treturn _name\n      DUP1 \t\t\treturn _name\n      PUSH 1F\t\t\treturn _name\n      LT \t\t\treturn _name\n      PUSH [tag] 134\t\t\treturn _name\n      JUMPI \t\t\treturn _name\n      PUSH 100\t\t\treturn _name\n      DUP1 \t\t\treturn _name\n      DUP4 \t\t\treturn _name\n      SLOAD \t\t\treturn _name\n      DIV \t\t\treturn _name\n      MUL \t\t\treturn _name\n      DUP4 \t\t\treturn _name\n      MSTORE \t\t\treturn _name\n      SWAP2 \t\t\treturn _name\n      PUSH 20\t\t\treturn _name\n      ADD \t\t\treturn _name\n      SWAP2 \t\t\treturn _name\n      PUSH [tag] 133\t\t\treturn _name\n      JUMP \t\t\treturn _name\n    tag 134\t\t\treturn _name\n      JUMPDEST \t\t\treturn _name\n      DUP3 \t\t\treturn _name\n      ADD \t\t\treturn _name\n      SWAP2 \t\t\treturn _name\n      SWAP1 \t\t\treturn _name\n      PUSH 0\t\t\treturn _name\n      MSTORE \t\t\treturn _name\n      PUSH 20\t\t\treturn _name\n      PUSH 0\t\t\treturn _name\n      KECCAK256 \t\t\treturn _name\n      SWAP1 \t\t\treturn _name\n    tag 135\t\t\treturn _name\n      JUMPDEST \t\t\treturn _name\n      DUP2 \t\t\treturn _name\n      SLOAD \t\t\treturn _name\n      DUP2 \t\t\treturn _name\n      MSTORE \t\t\treturn _name\n      SWAP1 \t\t\treturn _name\n      PUSH 1\t\t\treturn _name\n      ADD \t\t\treturn _name\n      SWAP1 \t\t\treturn _name\n      PUSH 20\t\t\treturn _name\n      ADD \t\t\treturn _name\n      DUP1 \t\t\treturn _name\n      DUP4 \t\t\treturn _name\n      GT \t\t\treturn _name\n      PUSH [tag] 135\t\t\treturn _name\n      JUMPI \t\t\treturn _name\n      DUP3 \t\t\treturn _name\n      SWAP1 \t\t\treturn _name\n      SUB \t\t\treturn _name\n      PUSH 1F\t\t\treturn _name\n      AND \t\t\treturn _name\n      DUP3 \t\t\treturn _name\n      ADD \t\t\treturn _name\n      SWAP2 \t\t\treturn _name\n    tag 133\t\t\treturn _name\n      JUMPDEST \t\t\treturn _name\n      POP \t\t\treturn _name\n      POP \t\t\treturn _name\n      POP \t\t\treturn _name\n      POP \t\t\treturn _name\n      POP \t\t\treturn _name\n      SWAP1 \t\t\treturn _name\n      POP \t\t\treturn _name\n      SWAP1 \t\t\tfunction name() public view vi...\n      JUMP \t\t\tfunction name() public view vi...\n    tag 41\t\t\tfunction approve(address spend...\n      JUMPDEST \t\t\tfunction approve(address spend...\n      PUSH 0\t\t\tbool\n      PUSH [tag] 137\t\t\t_approve(_msgSender(), spender...\n      PUSH [tag] 138\t\t\t_msgSender()\n      PUSH [tag] 139\t\t\t_msgSender\n      JUMP \t\t\t_msgSender()\n    tag 138\t\t\t_msgSender()\n      JUMPDEST \t\t\t_msgSender()\n      DUP5 \t\t\tspender\n      DUP5 \t\t\tamount\n      PUSH [tag] 140\t\t\t_approve\n      JUMP \t\t\t_approve(_msgSender(), spender...\n    tag 137\t\t\t_approve(_msgSender(), spender...\n      JUMPDEST \t\t\t_approve(_msgSender(), spender...\n      PUSH 1\t\t\ttrue\n      SWAP1 \t\t\treturn true\n      POP \t\t\treturn true\n      SWAP3 \t\t\tfunction approve(address spend...\n      SWAP2 \t\t\tfunction approve(address spend...\n      POP \t\t\tfunction approve(address spend...\n      POP \t\t\tfunction approve(address spend...\n      JUMP \t\t\tfunction approve(address spend...\n    tag 45\t\t\tuint256 public treasuryFeeBP =...\n      JUMPDEST \t\t\tuint256 public treasuryFeeBP =...\n      PUSH 8\t\t\tuint256 public treasuryFeeBP =...\n      SLOAD \t\t\tuint256 public treasuryFeeBP =...\n      DUP2 \t\t\tuint256 public treasuryFeeBP =...\n      JUMP \t\t\tuint256 public treasuryFeeBP =...\n    tag 51\t\t\tfunction setFoundingWallet(add...\n      JUMPDEST \t\t\tfunction setFoundingWallet(add...\n      PUSH [tag] 142\t\t\t_msgSender()\n      PUSH [tag] 139\t\t\t_msgSender\n      JUMP \t\t\t_msgSender()\n    tag 142\t\t\t_msgSender()\n      JUMPDEST \t\t\t_msgSender()\n      PUSH FFFFFFFFFFFFFFFFFFFFFFFFFFFFFFFFFFFFFFFF\t\t\towner() == _msgSender()\n      AND \t\t\towner() == _msgSender()\n      PUSH [tag] 143\t\t\towner()\n      PUSH [tag] 91\t\t\towner\n      JUMP \t\t\towner()\n    tag 143\t\t\towner()\n      JUMPDEST \t\t\towner()\n      PUSH FFFFFFFFFFFFFFFFFFFFFFFFFFFFFFFFFFFFFFFF\t\t\towner() == _msgSender()\n      AND \t\t\towner() == _msgSender()\n      EQ \t\t\towner() == _msgSender()\n      PUSH [tag] 144\t\t\trequire(owner() == _msgSender(...\n      JUMPI \t\t\trequire(owner() == _msgSender(...\n      PUSH 40\t\t\trequire(owner() == _msgSender(...\n      MLOAD \t\t\trequire(owner() == _msgSender(...\n      PUSH 8C379A000000000000000000000000000000000000000000000000000000000\t\t\trequire(owner() == _msgSender(...\n      DUP2 \t\t\trequire(owner() == _msgSender(...\n      MSTORE \t\t\trequire(owner() == _msgSender(...\n      PUSH 4\t\t\trequire(owner() == _msgSender(...\n      ADD \t\t\trequire(owner() == _msgSender(...\n      PUSH [tag] 145\t\t\trequire(owner() == _msgSender(...\n      SWAP1 \t\t\trequire(owner() == _msgSender(...\n      PUSH [tag] 146\t\t\trequire(owner() == _msgSender(...\n      JUMP \t\t\trequire(owner() == _msgSender(...\n    tag 145\t\t\trequire(owner() == _msgSender(...\n      JUMPDEST \t\t\trequire(owner() == _msgSender(...\n      PUSH 40\t\t\trequire(owner() == _msgSender(...\n      MLOAD \t\t\trequire(owner() == _msgSender(...\n      DUP1 \t\t\trequire(owner() == _msgSender(...\n      SWAP2 \t\t\trequire(owner() == _msgSender(...\n      SUB \t\t\trequire(owner() == _msgSender(...\n      SWAP1 \t\t\trequire(owner() == _msgSender(...\n      REVERT \t\t\trequire(owner() == _msgSender(...\n    tag 144\t\t\trequire(owner() == _msgSender(...\n      JUMPDEST \t\t\trequire(owner() == _msgSender(...\n      DUP1 \t\t\twallet\n      PUSH 9\t\t\tfoundingWallet\n      PUSH 1\t\t\tfoundingWallet\n      PUSH 100\t\t\tfoundingWallet = wallet\n      EXP \t\t\tfoundingWallet = wallet\n      DUP2 \t\t\tfoundingWallet = wallet\n      SLOAD \t\t\tfoundingWallet = wallet\n      DUP2 \t\t\tfoundingWallet = wallet\n      PUSH FFFFFFFFFFFFFFFFFFFFFFFFFFFFFFFFFFFFFFFF\t\t\tfoundingWallet = wallet\n      MUL \t\t\tfoundingWallet = wallet\n      NOT \t\t\tfoundingWallet = wallet\n      AND \t\t\tfoundingWallet = wallet\n      SWAP1 \t\t\tfoundingWallet = wallet\n      DUP4 \t\t\tfoundingWallet = wallet\n      PUSH FFFFFFFFFFFFFFFFFFFFFFFFFFFFFFFFFFFFFFFF\t\t\tfoundingWallet = wallet\n      AND \t\t\tfoundingWallet = wallet\n      MUL \t\t\tfoundingWallet = wallet\n      OR \t\t\tfoundingWallet = wallet\n      SWAP1 \t\t\tfoundingWallet = wallet\n      SSTORE \t\t\tfoundingWallet = wallet\n      POP \t\t\tfoundingWallet = wallet\n      POP \t\t\tfunction setFoundingWallet(add...\n      JUMP \t\t\tfunction setFoundingWallet(add...\n    tag 53\t\t\tfunction totalSupply() public ...\n      JUMPDEST \t\t\tfunction totalSupply() public ...\n      PUSH 0\t\t\tuint256\n      PUSH 2\t\t\t_totalSupply\n      SLOAD \t\t\t_totalSupply\n      SWAP1 \t\t\treturn _totalSupply\n      POP \t\t\treturn _totalSupply\n      SWAP1 \t\t\tfunction totalSupply() public ...\n      JUMP \t\t\tfunction totalSupply() public ...\n    tag 58\t\t\tfunction transferFrom(\\n      ...\n      JUMPDEST \t\t\tfunction transferFrom(\\n      ...\n      PUSH 0\t\t\tbool\n      PUSH [tag] 150\t\t\t_spendAllowance(from, _msgSend...\n      DUP5 \t\t\tfrom\n      PUSH [tag] 151\t\t\t_msgSender()\n      PUSH [tag] 139\t\t\t_msgSender\n      JUMP \t\t\t_msgSender()\n    tag 151\t\t\t_msgSender()\n      JUMPDEST \t\t\t_msgSender()\n      DUP5 \t\t\tamount\n      PUSH [tag] 152\t\t\t_spendAllowance\n      JUMP \t\t\t_spendAllowance(from, _msgSend...\n    tag 150\t\t\t_spendAllowance(from, _msgSend...\n      JUMPDEST \t\t\t_spendAllowance(from, _msgSend...\n      PUSH [tag] 153\t\t\t_transfer(from, to, amount)\n      DUP5 \t\t\tfrom\n      DUP5 \t\t\tto\n      DUP5 \t\t\tamount\n      PUSH [tag] 154\t\t\t_transfer\n      JUMP \t\t\t_transfer(from, to, amount)\n    tag 153\t\t\t_transfer(from, to, amount)\n      JUMPDEST \t\t\t_transfer(from, to, amount)\n      PUSH 1\t\t\ttrue\n      SWAP1 \t\t\treturn true\n      POP \t\t\treturn true\n      SWAP4 \t\t\tfunction transferFrom(\\n      ...\n      SWAP3 \t\t\tfunction transferFrom(\\n      ...\n      POP \t\t\tfunction transferFrom(\\n      ...\n      POP \t\t\tfunction transferFrom(\\n      ...\n      POP \t\t\tfunction transferFrom(\\n      ...\n      JUMP \t\t\tfunction transferFrom(\\n      ...\n    tag 61\t\t\tuint256 public foundingFeeBP =...\n      JUMPDEST \t\t\tuint256 public foundingFeeBP =...\n      PUSH 6\t\t\tuint256 public foundingFeeBP =...\n      SLOAD \t\t\tuint256 public foundingFeeBP =...\n      DUP2 \t\t\tuint256 public foundingFeeBP =...\n      JUMP \t\t\tuint256 public foundingFeeBP =...\n    tag 64\t\t\tfunction decimals() public vie...\n      JUMPDEST \t\t\tfunction decimals() public vie...\n      PUSH 0\t\t\tuint8\n      PUSH 12\t\t\t18\n      SWAP1 \t\t\treturn 18\n      POP \t\t\treturn 18\n      SWAP1 \t\t\tfunction decimals() public vie...\n      JUMP \t\t\tfunction decimals() public vie...\n    tag 68\t\t\tuint256 public constant MAX_SU...\n      JUMPDEST \t\t\tuint256 public constant MAX_SU...\n      PUSH 33B2E3C9FD0803CE8000000\t\t\t1_000_000_000 * 10**18\n      DUP2 \t\t\tuint256 public constant MAX_SU...\n      JUMP \t\t\tuint256 public constant MAX_SU...\n    tag 72\t\t\tmapping(address => bool) publi...\n      JUMPDEST \t\t\tmapping(address => bool) publi...\n      PUSH C\t\t\tmapping(address => bool) publi...\n      PUSH 20\t\t\tmapping(address => bool) publi...\n      MSTORE \t\t\tmapping(address => bool) publi...\n      DUP1 \t\t\tmapping(address => bool) publi...\n      PUSH 0\t\t\tmapping(address => bool) publi...\n      MSTORE \t\t\tmapping(address => bool) publi...\n      PUSH 40\t\t\tmapping(address => bool) publi...\n      PUSH 0\t\t\tmapping(address => bool) publi...\n      KECCAK256 \t\t\tmapping(address => bool) publi...\n      PUSH 0\t\t\tmapping(address => bool) publi...\n      SWAP2 \t\t\tmapping(address => bool) publi...\n      POP \t\t\tmapping(address => bool) publi...\n      SLOAD \t\t\tmapping(address => bool) publi...\n      SWAP1 \t\t\tmapping(address => bool) publi...\n      PUSH 100\t\t\tmapping(address => bool) publi...\n      EXP \t\t\tmapping(address => bool) publi...\n      SWAP1 \t\t\tmapping(address => bool) publi...\n      DIV \t\t\tmapping(address => bool) publi...\n      PUSH FF\t\t\tmapping(address => bool) publi...\n      AND \t\t\tmapping(address => bool) publi...\n      DUP2 \t\t\tmapping(address => bool) publi...\n      JUMP \t\t\tmapping(address => bool) publi...\n    tag 75\t\t\taddress public treasuryWallet\n      JUMPDEST \t\t\taddress public treasuryWallet\n      PUSH A\t\t\taddress public treasuryWallet\n      PUSH 0\t\t\taddress public treasuryWallet\n      SWAP1 \t\t\taddress public treasuryWallet\n      SLOAD \t\t\taddress public treasuryWallet\n      SWAP1 \t\t\taddress public treasuryWallet\n      PUSH 100\t\t\taddress public treasuryWallet\n      EXP \t\t\taddress public treasuryWallet\n      SWAP1 \t\t\taddress public treasuryWallet\n      DIV \t\t\taddress public treasuryWallet\n      PUSH FFFFFFFFFFFFFFFFFFFFFFFFFFFFFFFFFFFFFFFF\t\t\taddress public treasuryWallet\n      AND \t\t\taddress public treasuryWallet\n      DUP2 \t\t\taddress public treasuryWallet\n      JUMP \t\t\taddress public treasuryWallet\n    tag 79\t\t\tuint256 public constant MAX_FE...\n      JUMPDEST \t\t\tuint256 public constant MAX_FE...\n      PUSH FA\t\t\t250\n      DUP2 \t\t\tuint256 public constant MAX_FE...\n      JUMP \t\t\tuint256 public constant MAX_FE...\n    tag 83\t\t\tfunction balanceOf(address acc...\n      JUMPDEST \t\t\tfunction balanceOf(address acc...\n      PUSH 0\t\t\tuint256\n      DUP1 \t\t\t_balances\n      PUSH 0\t\t\t_balances[account]\n      DUP4 \t\t\taccount\n      PUSH FFFFFFFFFFFFFFFFFFFFFFFFFFFFFFFFFFFFFFFF\t\t\t_balances[account]\n      AND \t\t\t_balances[account]\n      PUSH FFFFFFFFFFFFFFFFFFFFFFFFFFFFFFFFFFFFFFFF\t\t\t_balances[account]\n      AND \t\t\t_balances[account]\n      DUP2 \t\t\t_balances[account]\n      MSTORE \t\t\t_balances[account]\n      PUSH 20\t\t\t_balances[account]\n      ADD \t\t\t_balances[account]\n      SWAP1 \t\t\t_balances[account]\n      DUP2 \t\t\t_balances[account]\n      MSTORE \t\t\t_balances[account]\n      PUSH 20\t\t\t_balances[account]\n      ADD \t\t\t_balances[account]\n      PUSH 0\t\t\t_balances[account]\n      KECCAK256 \t\t\t_balances[account]\n      SLOAD \t\t\t_balances[account]\n      SWAP1 \t\t\treturn _balances[account]\n      POP \t\t\treturn _balances[account]\n      SWAP2 \t\t\tfunction balanceOf(address acc...\n      SWAP1 \t\t\tfunction balanceOf(address acc...\n      POP \t\t\tfunction balanceOf(address acc...\n      JUMP \t\t\tfunction balanceOf(address acc...\n    tag 86\t\t\tfunction renounceOwnership() p...\n      JUMPDEST \t\t\tfunction renounceOwnership() p...\n      PUSH [tag] 158\t\t\t_msgSender()\n      PUSH [tag] 139\t\t\t_msgSender\n      JUMP \t\t\t_msgSender()\n    tag 158\t\t\t_msgSender()\n      JUMPDEST \t\t\t_msgSender()\n      PUSH FFFFFFFFFFFFFFFFFFFFFFFFFFFFFFFFFFFFFFFF\t\t\towner() == _msgSender()\n      AND \t\t\towner() == _msgSender()\n      PUSH [tag] 159\t\t\towner()\n      PUSH [tag] 91\t\t\towner\n      JUMP \t\t\towner()\n    tag 159\t\t\towner()\n      JUMPDEST \t\t\towner()\n      PUSH FFFFFFFFFFFFFFFFFFFFFFFFFFFFFFFFFFFFFFFF\t\t\towner() == _msgSender()\n      AND \t\t\towner() == _msgSender()\n      EQ \t\t\towner() == _msgSender()\n      PUSH [tag] 160\t\t\trequire(owner() == _msgSender(...\n      JUMPI \t\t\trequire(owner() == _msgSender(...\n      PUSH 40\t\t\trequire(owner() == _msgSender(...\n      MLOAD \t\t\trequire(owner() == _msgSender(...\n      PUSH 8C379A000000000000000000000000000000000000000000000000000000000\t\t\trequire(owner() == _msgSender(...\n      DUP2 \t\t\trequire(owner() == _msgSender(...\n      MSTORE \t\t\trequire(owner() == _msgSender(...\n      PUSH 4\t\t\trequire(owner() == _msgSender(...\n      ADD \t\t\trequire(owner() == _msgSender(...\n      PUSH [tag] 161\t\t\trequire(owner() == _msgSender(...\n      SWAP1 \t\t\trequire(owner() == _msgSender(...\n      PUSH [tag] 146\t\t\trequire(owner() == _msgSender(...\n      JUMP \t\t\trequire(owner() == _msgSender(...\n    tag 161\t\t\trequire(owner() == _msgSender(...\n      JUMPDEST \t\t\trequire(owner() == _msgSender(...\n      PUSH 40\t\t\trequire(owner() == _msgSender(...\n      MLOAD \t\t\trequire(owner() == _msgSender(...\n      DUP1 \t\t\trequire(owner() == _msgSender(...\n      SWAP2 \t\t\trequire(owner() == _msgSender(...\n      SUB \t\t\trequire(owner() == _msgSender(...\n      SWAP1 \t\t\trequire(owner() == _msgSender(...\n      REVERT \t\t\trequire(owner() == _msgSender(...\n    tag 160\t\t\trequire(owner() == _msgSender(...\n      JUMPDEST \t\t\trequire(owner() == _msgSender(...\n      PUSH [tag] 163\t\t\t_transferOwnership(address(0))\n      PUSH 0\t\t\t0\n      PUSH [tag] 164\t\t\t_transferOwnership\n      JUMP \t\t\t_transferOwnership(address(0))\n    tag 163\t\t\t_transferOwnership(address(0))\n      JUMPDEST \t\t\t_transferOwnership(address(0))\n      JUMP \t\t\tfunction renounceOwnership() p...\n    tag 88\t\t\taddress public foundingWallet\n      JUMPDEST \t\t\taddress public foundingWallet\n      PUSH 9\t\t\taddress public foundingWallet\n      PUSH 1\t\t\taddress public foundingWallet\n      SWAP1 \t\t\taddress public foundingWallet\n      SLOAD \t\t\taddress public foundingWallet\n      SWAP1 \t\t\taddress public foundingWallet\n      PUSH 100\t\t\taddress public foundingWallet\n      EXP \t\t\taddress public foundingWallet\n      SWAP1 \t\t\taddress public foundingWallet\n      DIV \t\t\taddress public foundingWallet\n      PUSH FFFFFFFFFFFFFFFFFFFFFFFFFFFFFFFFFFFFFFFF\t\t\taddress public foundingWallet\n      AND \t\t\taddress public foundingWallet\n      DUP2 \t\t\taddress public foundingWallet\n      JUMP \t\t\taddress public foundingWallet\n    tag 91\t\t\tfunction owner() public view v...\n      JUMPDEST \t\t\tfunction owner() public view v...\n      PUSH 0\t\t\taddress\n      PUSH 5\t\t\t_owner\n      PUSH 0\t\t\t_owner\n      SWAP1 \t\t\t_owner\n      SLOAD \t\t\t_owner\n      SWAP1 \t\t\t_owner\n      PUSH 100\t\t\t_owner\n      EXP \t\t\t_owner\n      SWAP1 \t\t\t_owner\n      DIV \t\t\t_owner\n      PUSH FFFFFFFFFFFFFFFFFFFFFFFFFFFFFFFFFFFFFFFF\t\t\t_owner\n      AND \t\t\t_owner\n      SWAP1 \t\t\treturn _owner\n      POP \t\t\treturn _owner\n      SWAP1 \t\t\tfunction owner() public view v...\n      JUMP \t\t\tfunction owner() public view v...\n    tag 96\t\t\tfunction setFeeExempt(address ...\n      JUMPDEST \t\t\tfunction setFeeExempt(address ...\n      PUSH [tag] 167\t\t\t_msgSender()\n      PUSH [tag] 139\t\t\t_msgSender\n      JUMP \t\t\t_msgSender()\n    tag 167\t\t\t_msgSender()\n      JUMPDEST \t\t\t_msgSender()\n      PUSH FFFFFFFFFFFFFFFFFFFFFFFFFFFFFFFFFFFFFFFF\t\t\towner() == _msgSender()\n      AND \t\t\towner() == _msgSender()\n      PUSH [tag] 168\t\t\towner()\n      PUSH [tag] 91\t\t\towner\n      JUMP \t\t\towner()\n    tag 168\t\t\towner()\n      JUMPDEST \t\t\towner()\n      PUSH FFFFFFFFFFFFFFFFFFFFFFFFFFFFFFFFFFFFFFFF\t\t\towner() == _msgSender()\n      AND \t\t\towner() == _msgSender()\n      EQ \t\t\towner() == _msgSender()\n      PUSH [tag] 169\t\t\trequire(owner() == _msgSender(...\n      JUMPI \t\t\trequire(owner() == _msgSender(...\n      PUSH 40\t\t\trequire(owner() == _msgSender(...\n      MLOAD \t\t\trequire(owner() == _msgSender(...\n      PUSH 8C379A000000000000000000000000000000000000000000000000000000000\t\t\trequire(owner() == _msgSender(...\n      DUP2 \t\t\trequire(owner() == _msgSender(...\n      MSTORE \t\t\trequire(owner() == _msgSender(...\n      PUSH 4\t\t\trequire(owner() == _msgSender(...\n      ADD \t\t\trequire(owner() == _msgSender(...\n      PUSH [tag] 170\t\t\trequire(owner() == _msgSender(...\n      SWAP1 \t\t\trequire(owner() == _msgSender(...\n      PUSH [tag] 146\t\t\trequire(owner() == _msgSender(...\n      JUMP \t\t\trequire(owner() == _msgSender(...\n    tag 170\t\t\trequire(owner() == _msgSender(...\n      JUMPDEST \t\t\trequire(owner() == _msgSender(...\n      PUSH 40\t\t\trequire(owner() == _msgSender(...\n      MLOAD \t\t\trequire(owner() == _msgSender(...\n      DUP1 \t\t\trequire(owner() == _msgSender(...\n      SWAP2 \t\t\trequire(owner() == _msgSender(...\n      SUB \t\t\trequire(owner() == _msgSender(...\n      SWAP1 \t\t\trequire(owner() == _msgSender(...\n      REVERT \t\t\trequire(owner() == _msgSender(...\n    tag 169\t\t\trequire(owner() == _msgSender(...\n      JUMPDEST \t\t\trequire(owner() == _msgSender(...\n      DUP1 \t\t\texempt\n      PUSH C\t\t\tisFeeExempt\n      PUSH 0\t\t\tisFeeExempt[account]\n      DUP5 \t\t\taccount\n      PUSH FFFFFFFFFFFFFFFFFFFFFFFFFFFFFFFFFFFFFFFF\t\t\tisFeeExempt[account]\n      AND \t\t\tisFeeExempt[account]\n      PUSH FFFFFFFFFFFFFFFFFFFFFFFFFFFFFFFFFFFFFFFF\t\t\tisFeeExempt[account]\n      AND \t\t\tisFeeExempt[account]\n      DUP2 \t\t\tisFeeExempt[account]\n      MSTORE \t\t\tisFeeExempt[account]\n      PUSH 20\t\t\tisFeeExempt[account]\n      ADD \t\t\tisFeeExempt[account]\n      SWAP1 \t\t\tisFeeExempt[account]\n      DUP2 \t\t\tisFeeExempt[account]\n      MSTORE \t\t\tisFeeExempt[account]\n      PUSH 20\t\t\tisFeeExempt[account]\n      ADD \t\t\tisFeeExempt[account]\n      PUSH 0\t\t\tisFeeExempt[account]\n      KECCAK256 \t\t\tisFeeExempt[account]\n      PUSH 0\t\t\tisFeeExempt[account]\n      PUSH 100\t\t\tisFeeExempt[account] = exempt\n      EXP \t\t\tisFeeExempt[account] = exempt\n      DUP2 \t\t\tisFeeExempt[account] = exempt\n      SLOAD \t\t\tisFeeExempt[account] = exempt\n      DUP2 \t\t\tisFeeExempt[account] = exempt\n      PUSH FF\t\t\tisFeeExempt[account] = exempt\n      MUL \t\t\tisFeeExempt[account] = exempt\n      NOT \t\t\tisFeeExempt[account] = exempt\n      AND \t\t\tisFeeExempt[account] = exempt\n      SWAP1 \t\t\tisFeeExempt[account] = exempt\n      DUP4 \t\t\tisFeeExempt[account] = exempt\n      ISZERO \t\t\tisFeeExempt[account] = exempt\n      ISZERO \t\t\tisFeeExempt[account] = exempt\n      MUL \t\t\tisFeeExempt[account] = exempt\n      OR \t\t\tisFeeExempt[account] = exempt\n      SWAP1 \t\t\tisFeeExempt[account] = exempt\n      SSTORE \t\t\tisFeeExempt[account] = exempt\n      POP \t\t\tisFeeExempt[account] = exempt\n      POP \t\t\tfunction setFeeExempt(address ...\n      POP \t\t\tfunction setFeeExempt(address ...\n      JUMP \t\t\tfunction setFeeExempt(address ...\n    tag 98\t\t\tfunction symbol() public view ...\n      JUMPDEST \t\t\tfunction symbol() public view ...\n      PUSH 60\t\t\tstring memory\n      PUSH 4\t\t\t_symbol\n      DUP1 \t\t\treturn _symbol\n      SLOAD \t\t\treturn _symbol\n      PUSH [tag] 173\t\t\treturn _symbol\n      SWAP1 \t\t\treturn _symbol\n      PUSH [tag] 131\t\t\treturn _symbol\n      JUMP \t\t\treturn _symbol\n    tag 173\t\t\treturn _symbol\n      JUMPDEST \t\t\treturn _symbol\n      DUP1 \t\t\treturn _symbol\n      PUSH 1F\t\t\treturn _symbol\n      ADD \t\t\treturn _symbol\n      PUSH 20\t\t\treturn _symbol\n      DUP1 \t\t\treturn _symbol\n      SWAP2 \t\t\treturn _symbol\n      DIV \t\t\treturn _symbol\n      MUL \t\t\treturn _symbol\n      PUSH 20\t\t\treturn _symbol\n      ADD \t\t\treturn _symbol\n      PUSH 40\t\t\treturn _symbol\n      MLOAD \t\t\treturn _symbol\n      SWAP1 \t\t\treturn _symbol\n      DUP2 \t\t\treturn _symbol\n      ADD \t\t\treturn _symbol\n      PUSH 40\t\t\treturn _symbol\n      MSTORE \t\t\treturn _symbol\n      DUP1 \t\t\treturn _symbol\n      SWAP3 \t\t\treturn _symbol\n      SWAP2 \t\t\treturn _symbol\n      SWAP1 \t\t\treturn _symbol\n      DUP2 \t\t\treturn _symbol\n      DUP2 \t\t\treturn _symbol\n      MSTORE \t\t\treturn _symbol\n      PUSH 20\t\t\treturn _symbol\n      ADD \t\t\treturn _symbol\n      DUP3 \t\t\treturn _symbol\n      DUP1 \t\t\treturn _symbol\n      SLOAD \t\t\treturn _symbol\n      PUSH [tag] 174\t\t\treturn _symbol\n      SWAP1 \t\t\treturn _symbol\n      PUSH [tag] 131\t\t\treturn _symbol\n      JUMP \t\t\treturn _symbol\n    tag 174\t\t\treturn _symbol\n      JUMPDEST \t\t\treturn _symbol\n      DUP1 \t\t\treturn _symbol\n      ISZERO \t\t\treturn _symbol\n      PUSH [tag] 175\t\t\treturn _symbol\n      JUMPI \t\t\treturn _symbol\n      DUP1 \t\t\treturn _symbol\n      PUSH 1F\t\t\treturn _symbol\n      LT \t\t\treturn _symbol\n      PUSH [tag] 176\t\t\treturn _symbol\n      JUMPI \t\t\treturn _symbol\n      PUSH 100\t\t\treturn _symbol\n      DUP1 \t\t\treturn _symbol\n      DUP4 \t\t\treturn _symbol\n      SLOAD \t\t\treturn _symbol\n      DIV \t\t\treturn _symbol\n      MUL \t\t\treturn _symbol\n      DUP4 \t\t\treturn _symbol\n      MSTORE \t\t\treturn _symbol\n      SWAP2 \t\t\treturn _symbol\n      PUSH 20\t\t\treturn _symbol\n      ADD \t\t\treturn _symbol\n      SWAP2 \t\t\treturn _symbol\n      PUSH [tag] 175\t\t\treturn _symbol\n      JUMP \t\t\treturn _symbol\n    tag 176\t\t\treturn _symbol\n      JUMPDEST \t\t\treturn _symbol\n      DUP3 \t\t\treturn _symbol\n      ADD \t\t\treturn _symbol\n      SWAP2 \t\t\treturn _symbol\n      SWAP1 \t\t\treturn _symbol\n      PUSH 0\t\t\treturn _symbol\n      MSTORE \t\t\treturn _symbol\n      PUSH 20\t\t\treturn _symbol\n      PUSH 0\t\t\treturn _symbol\n      KECCAK256 \t\t\treturn _symbol\n      SWAP1 \t\t\treturn _symbol\n    tag 177\t\t\treturn _symbol\n      JUMPDEST \t\t\treturn _symbol\n      DUP2 \t\t\treturn _symbol\n      SLOAD \t\t\treturn _symbol\n      DUP2 \t\t\treturn _symbol\n      MSTORE \t\t\treturn _symbol\n      SWAP1 \t\t\treturn _symbol\n      PUSH 1\t\t\treturn _symbol\n      ADD \t\t\treturn _symbol\n      SWAP1 \t\t\treturn _symbol\n      PUSH 20\t\t\treturn _symbol\n      ADD \t\t\treturn _symbol\n      DUP1 \t\t\treturn _symbol\n      DUP4 \t\t\treturn _symbol\n      GT \t\t\treturn _symbol\n      PUSH [tag] 177\t\t\treturn _symbol\n      JUMPI \t\t\treturn _symbol\n      DUP3 \t\t\treturn _symbol\n      SWAP1 \t\t\treturn _symbol\n      SUB \t\t\treturn _symbol\n      PUSH 1F\t\t\treturn _symbol\n      AND \t\t\treturn _symbol\n      DUP3 \t\t\treturn _symbol\n      ADD \t\t\treturn _symbol\n      SWAP2 \t\t\treturn _symbol\n    tag 175\t\t\treturn _symbol\n      JUMPDEST \t\t\treturn _symbol\n      POP \t\t\treturn _symbol\n      POP \t\t\treturn _symbol\n      POP \t\t\treturn _symbol\n      POP \t\t\treturn _symbol\n      POP \t\t\treturn _symbol\n      SWAP1 \t\t\treturn _symbol\n      POP \t\t\treturn _symbol\n      SWAP1 \t\t\tfunction symbol() public view ...\n      JUMP \t\t\tfunction symbol() public view ...\n    tag 101\t\t\tbool public feesEnabled = true\n      JUMPDEST \t\t\tbool public feesEnabled = true\n      PUSH 9\t\t\tbool public feesEnabled = true\n      PUSH 0\t\t\tbool public feesEnabled = true\n      SWAP1 \t\t\tbool public feesEnabled = true\n      SLOAD \t\t\tbool public feesEnabled = true\n      SWAP1 \t\t\tbool public feesEnabled = true\n      PUSH 100\t\t\tbool public feesEnabled = true\n      EXP \t\t\tbool public feesEnabled = true\n      SWAP1 \t\t\tbool public feesEnabled = true\n      DIV \t\t\tbool public feesEnabled = true\n      PUSH FF\t\t\tbool public feesEnabled = true\n      AND \t\t\tbool public feesEnabled = true\n      DUP2 \t\t\tbool public feesEnabled = true\n      JUMP \t\t\tbool public feesEnabled = true\n    tag 105\t\t\tfunction setTreasuryWallet(add...\n      JUMPDEST \t\t\tfunction setTreasuryWallet(add...\n      PUSH [tag] 179\t\t\t_msgSender()\n      PUSH [tag] 139\t\t\t_msgSender\n      JUMP \t\t\t_msgSender()\n    tag 179\t\t\t_msgSender()\n      JUMPDEST \t\t\t_msgSender()\n      PUSH FFFFFFFFFFFFFFFFFFFFFFFFFFFFFFFFFFFFFFFF\t\t\towner() == _msgSender()\n      AND \t\t\towner() == _msgSender()\n      PUSH [tag] 180\t\t\towner()\n      PUSH [tag] 91\t\t\towner\n      JUMP \t\t\towner()\n    tag 180\t\t\towner()\n      JUMPDEST \t\t\towner()\n      PUSH FFFFFFFFFFFFFFFFFFFFFFFFFFFFFFFFFFFFFFFF\t\t\towner() == _msgSender()\n      AND \t\t\towner() == _msgSender()\n      EQ \t\t\towner() == _msgSender()\n      PUSH [tag] 181\t\t\trequire(owner() == _msgSender(...\n      JUMPI \t\t\trequire(owner() == _msgSender(...\n      PUSH 40\t\t\trequire(owner() == _msgSender(...\n      MLOAD \t\t\trequire(owner() == _msgSender(...\n      PUSH 8C379A000000000000000000000000000000000000000000000000000000000\t\t\trequire(owner() == _msgSender(...\n      DUP2 \t\t\trequire(owner() == _msgSender(...\n      MSTORE \t\t\trequire(owner() == _msgSender(...\n      PUSH 4\t\t\trequire(owner() == _msgSender(...\n      ADD \t\t\trequire(owner() == _msgSender(...\n      PUSH [tag] 182\t\t\trequire(owner() == _msgSender(...\n      SWAP1 \t\t\trequire(owner() == _msgSender(...\n      PUSH [tag] 146\t\t\trequire(owner() == _msgSender(...\n      JUMP \t\t\trequire(owner() == _msgSender(...\n    tag 182\t\t\trequire(owner() == _msgSender(...\n      JUMPDEST \t\t\trequire(owner() == _msgSender(...\n      PUSH 40\t\t\trequire(owner() == _msgSender(...\n      MLOAD \t\t\trequire(owner() == _msgSender(...\n      DUP1 \t\t\trequire(owner() == _msgSender(...\n      SWAP2 \t\t\trequire(owner() == _msgSender(...\n      SUB \t\t\trequire(owner() == _msgSender(...\n      SWAP1 \t\t\trequire(owner() == _msgSender(...\n      REVERT \t\t\trequire(owner() == _msgSender(...\n    tag 181\t\t\trequire(owner() == _msgSender(...\n      JUMPDEST \t\t\trequire(owner() == _msgSender(...\n      DUP1 \t\t\twallet\n      PUSH A\t\t\ttreasuryWallet\n      PUSH 0\t\t\ttreasuryWallet\n      PUSH 100\t\t\ttreasuryWallet = wallet\n      EXP \t\t\ttreasuryWallet = wallet\n      DUP2 \t\t\ttreasuryWallet = wallet\n      SLOAD \t\t\ttreasuryWallet = wallet\n      DUP2 \t\t\ttreasuryWallet = wallet\n      PUSH FFFFFFFFFFFFFFFFFFFFFFFFFFFFFFFFFFFFFFFF\t\t\ttreasuryWallet = wallet\n      MUL \t\t\ttreasuryWallet = wallet\n      NOT \t\t\ttreasuryWallet = wallet\n      AND \t\t\ttreasuryWallet = wallet\n      SWAP1 \t\t\ttreasuryWallet = wallet\n      DUP4 \t\t\ttreasuryWallet = wallet\n      PUSH FFFFFFFFFFFFFFFFFFFFFFFFFFFFFFFFFFFFFFFF\t\t\ttreasuryWallet = wallet\n      AND \t\t\ttreasuryWallet = wallet\n      MUL \t\t\ttreasuryWallet = wallet\n      OR \t\t\ttreasuryWallet = wallet\n      SWAP1 \t\t\ttreasuryWallet = wallet\n      SSTORE \t\t\ttreasuryWallet = wallet\n      POP \t\t\ttreasuryWallet = wallet\n      POP \t\t\tfunction setTreasuryWallet(add...\n      JUMP \t\t\tfunction setTreasuryWallet(add...\n    tag 109\t\t\tfunction setFeesEnabled(bool e...\n      JUMPDEST \t\t\tfunction setFeesEnabled(bool e...\n      PUSH [tag] 185\t\t\t_msgSender()\n      PUSH [tag] 139\t\t\t_msgSender\n      JUMP \t\t\t_msgSender()\n    tag 185\t\t\t_msgSender()\n      JUMPDEST \t\t\t_msgSender()\n      PUSH FFFFFFFFFFFFFFFFFFFFFFFFFFFFFFFFFFFFFFFF\t\t\towner() == _msgSender()\n      AND \t\t\towner() == _msgSender()\n      PUSH [tag] 186\t\t\towner()\n      PUSH [tag] 91\t\t\towner\n      JUMP \t\t\towner()\n    tag 186\t\t\towner()\n      JUMPDEST \t\t\towner()\n      PUSH FFFFFFFFFFFFFFFFFFFFFFFFFFFFFFFFFFFFFFFF\t\t\towner() == _msgSender()\n      AND \t\t\towner() == _msgSender()\n      EQ \t\t\towner() == _msgSender()\n      PUSH [tag] 187\t\t\trequire(owner() == _msgSender(...\n      JUMPI \t\t\trequire(owner() == _msgSender(...\n      PUSH 40\t\t\trequire(owner() == _msgSender(...\n      MLOAD \t\t\trequire(owner() == _msgSender(...\n      PUSH 8C379A000000000000000000000000000000000000000000000000000000000\t\t\trequire(owner() == _msgSender(...\n      DUP2 \t\t\trequire(owner() == _msgSender(...\n      MSTORE \t\t\trequire(owner() == _msgSender(...\n      PUSH 4\t\t\trequire(owner() == _msgSender(...\n      ADD \t\t\trequire(owner() == _msgSender(...\n      PUSH [tag] 188\t\t\trequire(owner() == _msgSender(...\n      SWAP1 \t\t\trequire(owner() == _msgSender(...\n      PUSH [tag] 146\t\t\trequire(owner() == _msgSender(...\n      JUMP \t\t\trequire(owner() == _msgSender(...\n    tag 188\t\t\trequire(owner() == _msgSender(...\n      JUMPDEST \t\t\trequire(owner() == _msgSender(...\n      PUSH 40\t\t\trequire(owner() == _msgSender(...\n      MLOAD \t\t\trequire(owner() == _msgSender(...\n      DUP1 \t\t\trequire(owner() == _msgSender(...\n      SWAP2 \t\t\trequire(owner() == _msgSender(...\n      SUB \t\t\trequire(owner() == _msgSender(...\n      SWAP1 \t\t\trequire(owner() == _msgSender(...\n      REVERT \t\t\trequire(owner() == _msgSender(...\n    tag 187\t\t\trequire(owner() == _msgSender(...\n      JUMPDEST \t\t\trequire(owner() == _msgSender(...\n      DUP1 \t\t\tenabled\n      PUSH 9\t\t\tfeesEnabled\n      PUSH 0\t\t\tfeesEnabled\n      PUSH 100\t\t\tfeesEnabled = enabled\n      EXP \t\t\tfeesEnabled = enabled\n      DUP2 \t\t\tfeesEnabled = enabled\n      SLOAD \t\t\tfeesEnabled = enabled\n      DUP2 \t\t\tfeesEnabled = enabled\n      PUSH FF\t\t\tfeesEnabled = enabled\n      MUL \t\t\tfeesEnabled = enabled\n      NOT \t\t\tfeesEnabled = enabled\n      AND \t\t\tfeesEnabled = enabled\n      SWAP1 \t\t\tfeesEnabled = enabled\n      DUP4 \t\t\tfeesEnabled = enabled\n      ISZERO \t\t\tfeesEnabled = enabled\n      ISZERO \t\t\tfeesEnabled = enabled\n      MUL \t\t\tfeesEnabled = enabled\n      OR \t\t\tfeesEnabled = enabled\n      SWAP1 \t\t\tfeesEnabled = enabled\n      SSTORE \t\t\tfeesEnabled = enabled\n      POP \t\t\tfeesEnabled = enabled\n      POP \t\t\tfunction setFeesEnabled(bool e...\n      JUMP \t\t\tfunction setFeesEnabled(bool e...\n    tag 112\t\t\tfunction transfer(address to, ...\n      JUMPDEST \t\t\tfunction transfer(address to, ...\n      PUSH 0\t\t\tbool\n      PUSH [tag] 191\t\t\t_transfer(_msgSender(), to, am...\n      PUSH [tag] 192\t\t\t_msgSender()\n      PUSH [tag] 139\t\t\t_msgSender\n      JUMP \t\t\t_msgSender()\n    tag 192\t\t\t_msgSender()\n      JUMPDEST \t\t\t_msgSender()\n      DUP5 \t\t\tto\n      DUP5 \t\t\tamount\n      PUSH [tag] 154\t\t\t_transfer\n      JUMP \t\t\t_transfer(_msgSender(), to, am...\n    tag 191\t\t\t_transfer(_msgSender(), to, am...\n      JUMPDEST \t\t\t_transfer(_msgSender(), to, am...\n      PUSH 1\t\t\ttrue\n      SWAP1 \t\t\treturn true\n      POP \t\t\treturn true\n      SWAP3 \t\t\tfunction transfer(address to, ...\n      SWAP2 \t\t\tfunction transfer(address to, ...\n      POP \t\t\tfunction transfer(address to, ...\n      POP \t\t\tfunction transfer(address to, ...\n      JUMP \t\t\tfunction transfer(address to, ...\n    tag 117\t\t\tfunction allowance(address own...\n      JUMPDEST \t\t\tfunction allowance(address own...\n      PUSH 0\t\t\tuint256\n      PUSH 1\t\t\t_allowances\n      PUSH 0\t\t\t_allowances[owner]\n      DUP5 \t\t\towner\n      PUSH FFFFFFFFFFFFFFFFFFFFFFFFFFFFFFFFFFFFFFFF\t\t\t_allowances[owner]\n      AND \t\t\t_allowances[owner]\n      PUSH FFFFFFFFFFFFFFFFFFFFFFFFFFFFFFFFFFFFFFFF\t\t\t_allowances[owner]\n      AND \t\t\t_allowances[owner]\n      DUP2 \t\t\t_allowances[owner]\n      MSTORE \t\t\t_allowances[owner]\n      PUSH 20\t\t\t_allowances[owner]\n      ADD \t\t\t_allowances[owner]\n      SWAP1 \t\t\t_allowances[owner]\n      DUP2 \t\t\t_allowances[owner]\n      MSTORE \t\t\t_allowances[owner]\n      PUSH 20\t\t\t_allowances[owner]\n      ADD \t\t\t_allowances[owner]\n      PUSH 0\t\t\t_allowances[owner]\n      KECCAK256 \t\t\t_allowances[owner]\n      PUSH 0\t\t\t_allowances[owner][spender]\n      DUP4 \t\t\tspender\n      PUSH FFFFFFFFFFFFFFFFFFFFFFFFFFFFFFFFFFFFFFFF\t\t\t_allowances[owner][spender]\n      AND \t\t\t_allowances[owner][spender]\n      PUSH FFFFFFFFFFFFFFFFFFFFFFFFFFFFFFFFFFFFFFFF\t\t\t_allowances[owner][spender]\n      AND \t\t\t_allowances[owner][spender]\n      DUP2 \t\t\t_allowances[owner][spender]\n      MSTORE \t\t\t_allowances[owner][spender]\n      PUSH 20\t\t\t_allowances[owner][spender]\n      ADD \t\t\t_allowances[owner][spender]\n      SWAP1 \t\t\t_allowances[owner][spender]\n      DUP2 \t\t\t_allowances[owner][spender]\n      MSTORE \t\t\t_allowances[owner][spender]\n      PUSH 20\t\t\t_allowances[owner][spender]\n      ADD \t\t\t_allowances[owner][spender]\n      PUSH 0\t\t\t_allowances[owner][spender]\n      KECCAK256 \t\t\t_allowances[owner][spender]\n      SLOAD \t\t\t_allowances[owner][spender]\n      SWAP1 \t\t\treturn _allowances[owner][spen...\n      POP \t\t\treturn _allowances[owner][spen...\n      SWAP3 \t\t\tfunction allowance(address own...\n      SWAP2 \t\t\tfunction allowance(address own...\n      POP \t\t\tfunction allowance(address own...\n      POP \t\t\tfunction allowance(address own...\n      JUMP \t\t\tfunction allowance(address own...\n    tag 120\t\t\tuint256 public rewardFeeBP = 1\n      JUMPDEST \t\t\tuint256 public rewardFeeBP = 1\n      PUSH 7\t\t\tuint256 public rewardFeeBP = 1\n      SLOAD \t\t\tuint256 public rewardFeeBP = 1\n      DUP2 \t\t\tuint256 public rewardFeeBP = 1\n      JUMP \t\t\tuint256 public rewardFeeBP = 1\n    tag 124\t\t\tfunction transferOwnership(add...\n      JUMPDEST \t\t\tfunction transferOwnership(add...\n      PUSH [tag] 195\t\t\t_msgSender()\n      PUSH [tag] 139\t\t\t_msgSender\n      JUMP \t\t\t_msgSender()\n    tag 195\t\t\t_msgSender()\n      JUMPDEST \t\t\t_msgSender()\n      PUSH FFFFFFFFFFFFFFFFFFFFFFFFFFFFFFFFFFFFFFFF\t\t\towner() == _msgSender()\n      AND \t\t\towner() == _msgSender()\n      PUSH [tag] 196\t\t\towner()\n      PUSH [tag] 91\t\t\towner\n      JUMP \t\t\towner()\n    tag 196\t\t\towner()\n      JUMPDEST \t\t\towner()\n      PUSH FFFFFFFFFFFFFFFFFFFFFFFFFFFFFFFFFFFFFFFF\t\t\towner() == _msgSender()\n      AND \t\t\towner() == _msgSender()\n      EQ \t\t\towner() == _msgSender()\n      PUSH [tag] 197\t\t\trequire(owner() == _msgSender(...\n      JUMPI \t\t\trequire(owner() == _msgSender(...\n      PUSH 40\t\t\trequire(owner() == _msgSender(...\n      MLOAD \t\t\trequire(owner() == _msgSender(...\n      PUSH 8C379A000000000000000000000000000000000000000000000000000000000\t\t\trequire(owner() == _msgSender(...\n      DUP2 \t\t\trequire(owner() == _msgSender(...\n      MSTORE \t\t\trequire(owner() == _msgSender(...\n      PUSH 4\t\t\trequire(owner() == _msgSender(...\n      ADD \t\t\trequire(owner() == _msgSender(...\n      PUSH [tag] 198\t\t\trequire(owner() == _msgSender(...\n      SWAP1 \t\t\trequire(owner() == _msgSender(...\n      PUSH [tag] 146\t\t\trequire(owner() == _msgSender(...\n      JUMP \t\t\trequire(owner() == _msgSender(...\n    tag 198\t\t\trequire(owner() == _msgSender(...\n      JUMPDEST \t\t\trequire(owner() == _msgSender(...\n      PUSH 40\t\t\trequire(owner() == _msgSender(...\n      MLOAD \t\t\trequire(owner() == _msgSender(...\n      DUP1 \t\t\trequire(owner() == _msgSender(...\n      SWAP2 \t\t\trequire(owner() == _msgSender(...\n      SUB \t\t\trequire(owner() == _msgSender(...\n      SWAP1 \t\t\trequire(owner() == _msgSender(...\n      REVERT \t\t\trequire(owner() == _msgSender(...\n    tag 197\t\t\trequire(owner() == _msgSender(...\n      JUMPDEST \t\t\trequire(owner() == _msgSender(...\n      PUSH 0\t\t\t0\n      PUSH FFFFFFFFFFFFFFFFFFFFFFFFFFFFFFFFFFFFFFFF\t\t\tnewOwner != address(0)\n      AND \t\t\tnewOwner != address(0)\n      DUP2 \t\t\tnewOwner\n      PUSH FFFFFFFFFFFFFFFFFFFFFFFFFFFFFFFFFFFFFFFF\t\t\tnewOwner != address(0)\n      AND \t\t\tnewOwner != address(0)\n      SUB \t\t\tnewOwner != address(0)\n      PUSH [tag] 200\t\t\trequire(newOwner != address(0)...\n      JUMPI \t\t\trequire(newOwner != address(0)...\n      PUSH 40\t\t\trequire(newOwner != address(0)...\n      MLOAD \t\t\trequire(newOwner != address(0)...\n      PUSH 8C379A000000000000000000000000000000000000000000000000000000000\t\t\trequire(newOwner != address(0)...\n      DUP2 \t\t\trequire(newOwner != address(0)...\n      MSTORE \t\t\trequire(newOwner != address(0)...\n      PUSH 4\t\t\trequire(newOwner != address(0)...\n      ADD \t\t\trequire(newOwner != address(0)...\n      PUSH [tag] 201\t\t\trequire(newOwner != address(0)...\n      SWAP1 \t\t\trequire(newOwner != address(0)...\n      PUSH [tag] 202\t\t\trequire(newOwner != address(0)...\n      JUMP \t\t\trequire(newOwner != address(0)...\n    tag 201\t\t\trequire(newOwner != address(0)...\n      JUMPDEST \t\t\trequire(newOwner != address(0)...\n      PUSH 40\t\t\trequire(newOwner != address(0)...\n      MLOAD \t\t\trequire(newOwner != address(0)...\n      DUP1 \t\t\trequire(newOwner != address(0)...\n      SWAP2 \t\t\trequire(newOwner != address(0)...\n      SUB \t\t\trequire(newOwner != address(0)...\n      SWAP1 \t\t\trequire(newOwner != address(0)...\n      REVERT \t\t\trequire(newOwner != address(0)...\n    tag 200\t\t\trequire(newOwner != address(0)...\n      JUMPDEST \t\t\trequire(newOwner != address(0)...\n      PUSH [tag] 203\t\t\t_transferOwnership(newOwner)\n      DUP2 \t\t\tnewOwner\n      PUSH [tag] 164\t\t\t_transferOwnership\n      JUMP \t\t\t_transferOwnership(newOwner)\n    tag 203\t\t\t_transferOwnership(newOwner)\n      JUMPDEST \t\t\t_transferOwnership(newOwner)\n      POP \t\t\tfunction transferOwnership(add...\n      JUMP \t\t\tfunction transferOwnership(add...\n    tag 126\t\t\tDividendVault public vault\n      JUMPDEST \t\t\tDividendVault public vault\n      PUSH B\t\t\tDividendVault public vault\n      PUSH 0\t\t\tDividendVault public vault\n      SWAP1 \t\t\tDividendVault public vault\n      SLOAD \t\t\tDividendVault public vault\n      SWAP1 \t\t\tDividendVault public vault\n      PUSH 100\t\t\tDividendVault public vault\n      EXP \t\t\tDividendVault public vault\n      SWAP1 \t\t\tDividendVault public vault\n      DIV \t\t\tDividendVault public vault\n      PUSH FFFFFFFFFFFFFFFFFFFFFFFFFFFFFFFFFFFFFFFF\t\t\tDividendVault public vault\n      AND \t\t\tDividendVault public vault\n      DUP2 \t\t\tDividendVault public vault\n      JUMP \t\t\tDividendVault public vault\n    tag 139\t\t\tfunction _msgSender() internal...\n      JUMPDEST \t\t\tfunction _msgSender() internal...\n      PUSH 0\t\t\taddress\n      CALLER \t\t\tmsg.sender\n      SWAP1 \t\t\treturn msg.sender\n      POP \t\t\treturn msg.sender\n      SWAP1 \t\t\tfunction _msgSender() internal...\n      JUMP \t\t\tfunction _msgSender() internal...\n    tag 140\t\t\tfunction _approve(\\n        ad...\n      JUMPDEST \t\t\tfunction _approve(\\n        ad...\n      PUSH 0\t\t\t0\n      PUSH FFFFFFFFFFFFFFFFFFFFFFFFFFFFFFFFFFFFFFFF\t\t\towner != address(0)\n      AND \t\t\towner != address(0)\n      DUP4 \t\t\towner\n      PUSH FFFFFFFFFFFFFFFFFFFFFFFFFFFFFFFFFFFFFFFF\t\t\towner != address(0)\n      AND \t\t\towner != address(0)\n      SUB \t\t\towner != address(0)\n      PUSH [tag] 206\t\t\trequire(owner != address(0), \"...\n      JUMPI \t\t\trequire(owner != address(0), \"...\n      PUSH 40\t\t\trequire(owner != address(0), \"...\n      MLOAD \t\t\trequire(owner != address(0), \"...\n      PUSH 8C379A000000000000000000000000000000000000000000000000000000000\t\t\trequire(owner != address(0), \"...\n      DUP2 \t\t\trequire(owner != address(0), \"...\n      MSTORE \t\t\trequire(owner != address(0), \"...\n      PUSH 4\t\t\trequire(owner != address(0), \"...\n      ADD \t\t\trequire(owner != address(0), \"...\n      PUSH [tag] 207\t\t\trequire(owner != address(0), \"...\n      SWAP1 \t\t\trequire(owner != address(0), \"...\n      PUSH [tag] 208\t\t\trequire(owner != address(0), \"...\n      JUMP \t\t\trequire(owner != address(0), \"...\n    tag 207\t\t\trequire(owner != address(0), \"...\n      JUMPDEST \t\t\trequire(owner != address(0), \"...\n      PUSH 40\t\t\trequire(owner != address(0), \"...\n      MLOAD \t\t\trequire(owner != address(0), \"...\n      DUP1 \t\t\trequire(owner != address(0), \"...\n      SWAP2 \t\t\trequire(owner != address(0), \"...\n      SUB \t\t\trequire(owner != address(0), \"...\n      SWAP1 \t\t\trequire(owner != address(0), \"...\n      REVERT \t\t\trequire(owner != address(0), \"...\n    tag 206\t\t\trequire(owner != address(0), \"...\n      JUMPDEST \t\t\trequire(owner != address(0), \"...\n      PUSH 0\t\t\t0\n      PUSH FFFFFFFFFFFFFFFFFFFFFFFFFFFFFFFFFFFFFFFF\t\t\tspender != address(0)\n      AND \t\t\tspender != address(0)\n      DUP3 \t\t\tspender\n      PUSH FFFFFFFFFFFFFFFFFFFFFFFFFFFFFFFFFFFFFFFF\t\t\tspender != address(0)\n      AND \t\t\tspender != address(0)\n      SUB \t\t\tspender != address(0)\n      PUSH [tag] 209\t\t\trequire(spender != address(0),...\n      JUMPI \t\t\trequire(spender != address(0),...\n      PUSH 40\t\t\trequire(spender != address(0),...\n      MLOAD \t\t\trequire(spender != address(0),...\n      PUSH 8C379A000000000000000000000000000000000000000000000000000000000\t\t\trequire(spender != address(0),...\n      DUP2 \t\t\trequire(spender != address(0),...\n      MSTORE \t\t\trequire(spender != address(0),...\n      PUSH 4\t\t\trequire(spender != address(0),...\n      ADD \t\t\trequire(spender != address(0),...\n      PUSH [tag] 210\t\t\trequire(spender != address(0),...\n      SWAP1 \t\t\trequire(spender != address(0),...\n      PUSH [tag] 211\t\t\trequire(spender != address(0),...\n      JUMP \t\t\trequire(spender != address(0),...\n    tag 210\t\t\trequire(spender != address(0),...\n      JUMPDEST \t\t\trequire(spender != address(0),...\n      PUSH 40\t\t\trequire(spender != address(0),...\n      MLOAD \t\t\trequire(spender != address(0),...\n      DUP1 \t\t\trequire(spender != address(0),...\n      SWAP2 \t\t\trequire(spender != address(0),...\n      SUB \t\t\trequire(spender != address(0),...\n      SWAP1 \t\t\trequire(spender != address(0),...\n      REVERT \t\t\trequire(spender != address(0),...\n    tag 209\t\t\trequire(spender != address(0),...\n      JUMPDEST \t\t\trequire(spender != address(0),...\n      DUP1 \t\t\tamount\n      PUSH 1\t\t\t_allowances\n      PUSH 0\t\t\t_allowances[owner]\n      DUP6 \t\t\towner\n      PUSH FFFFFFFFFFFFFFFFFFFFFFFFFFFFFFFFFFFFFFFF\t\t\t_allowances[owner]\n      AND \t\t\t_allowances[owner]\n      PUSH FFFFFFFFFFFFFFFFFFFFFFFFFFFFFFFFFFFFFFFF\t\t\t_allowances[owner]\n      AND \t\t\t_allowances[owner]\n      DUP2 \t\t\t_allowances[owner]\n      MSTORE \t\t\t_allowances[owner]\n      PUSH 20\t\t\t_allowances[owner]\n      ADD \t\t\t_allowances[owner]\n      SWAP1 \t\t\t_allowances[owner]\n      DUP2 \t\t\t_allowances[owner]\n      MSTORE \t\t\t_allowances[owner]\n      PUSH 20\t\t\t_allowances[owner]\n      ADD \t\t\t_allowances[owner]\n      PUSH 0\t\t\t_allowances[owner]\n      KECCAK256 \t\t\t_allowances[owner]\n      PUSH 0\t\t\t_allowances[owner][spender]\n      DUP5 \t\t\tspender\n      PUSH FFFFFFFFFFFFFFFFFFFFFFFFFFFFFFFFFFFFFFFF\t\t\t_allowances[owner][spender]\n      AND \t\t\t_allowances[owner][spender]\n      PUSH FFFFFFFFFFFFFFFFFFFFFFFFFFFFFFFFFFFFFFFF\t\t\t_allowances[owner][spender]\n      AND \t\t\t_allowances[owner][spender]\n      DUP2 \t\t\t_allowances[owner][spender]\n      MSTORE \t\t\t_allowances[owner][spender]\n      PUSH 20\t\t\t_allowances[owner][spender]\n      ADD \t\t\t_allowances[owner][spender]\n      SWAP1 \t\t\t_allowances[owner][spender]\n      DUP2 \t\t\t_allowances[owner][spender]\n      MSTORE \t\t\t_allowances[owner][spender]\n      PUSH 20\t\t\t_allowances[owner][spender]\n      ADD \t\t\t_allowances[owner][spender]\n      PUSH 0\t\t\t_allowances[owner][spender]\n      KECCAK256 \t\t\t_allowances[owner][spender]\n      DUP2 \t\t\t_allowances[owner][spender] = ...\n      SWAP1 \t\t\t_allowances[owner][spender] = ...\n      SSTORE \t\t\t_allowances[owner][spender] = ...\n      POP \t\t\t_allowances[owner][spender] = ...\n      DUP2 \t\t\tspender\n      PUSH FFFFFFFFFFFFFFFFFFFFFFFFFFFFFFFFFFFFFFFF\t\t\tApproval(owner, spender, amoun...\n      AND \t\t\tApproval(owner, spender, amoun...\n      DUP4 \t\t\towner\n      PUSH FFFFFFFFFFFFFFFFFFFFFFFFFFFFFFFFFFFFFFFF\t\t\tApproval(owner, spender, amoun...\n      AND \t\t\tApproval(owner, spender, amoun...\n      PUSH 8C5BE1E5EBEC7D5BD14F71427D1E84F3DD0314C0F7B2291E5B200AC8C7C3B925\t\t\tApproval(owner, spender, amoun...\n      DUP4 \t\t\tamount\n      PUSH 40\t\t\tApproval(owner, spender, amoun...\n      MLOAD \t\t\tApproval(owner, spender, amoun...\n      PUSH [tag] 212\t\t\tApproval(owner, spender, amoun...\n      SWAP2 \t\t\tApproval(owner, spender, amoun...\n      SWAP1 \t\t\tApproval(owner, spender, amoun...\n      PUSH [tag] 47\t\t\tApproval(owner, spender, amoun...\n      JUMP \t\t\tApproval(owner, spender, amoun...\n    tag 212\t\t\tApproval(owner, spender, amoun...\n      JUMPDEST \t\t\tApproval(owner, spender, amoun...\n      PUSH 40\t\t\tApproval(owner, spender, amoun...\n      MLOAD \t\t\tApproval(owner, spender, amoun...\n      DUP1 \t\t\tApproval(owner, spender, amoun...\n      SWAP2 \t\t\tApproval(owner, spender, amoun...\n      SUB \t\t\tApproval(owner, spender, amoun...\n      SWAP1 \t\t\tApproval(owner, spender, amoun...\n      LOG3 \t\t\tApproval(owner, spender, amoun...\n      POP \t\t\tfunction _approve(\\n        ad...\n      POP \t\t\tfunction _approve(\\n        ad...\n      POP \t\t\tfunction _approve(\\n        ad...\n      JUMP \t\t\tfunction _approve(\\n        ad...\n    tag 152\t\t\tfunction _spendAllowance(\\n   ...\n      JUMPDEST \t\t\tfunction _spendAllowance(\\n   ...\n      PUSH 0\t\t\tuint256 currentAllowance\n      PUSH [tag] 214\t\t\tallowance(owner, spender)\n      DUP5 \t\t\towner\n      DUP5 \t\t\tspender\n      PUSH [tag] 117\t\t\tallowance\n      JUMP \t\t\tallowance(owner, spender)\n    tag 214\t\t\tallowance(owner, spender)\n      JUMPDEST \t\t\tallowance(owner, spender)\n      SWAP1 \t\t\tuint256 currentAllowance = all...\n      POP \t\t\tuint256 currentAllowance = all...\n      PUSH FFFFFFFFFFFFFFFFFFFFFFFFFFFFFFFFFFFFFFFFFFFFFFFFFFFFFFFFFFFFFFFF\t\t\ttype(uint256).max\n      DUP2 \t\t\tcurrentAllowance\n      EQ \t\t\tcurrentAllowance != type(uint2...\n      PUSH [tag] 215\t\t\tif (currentAllowance != type(u...\n      JUMPI \t\t\tif (currentAllowance != type(u...\n      DUP2 \t\t\tamount\n      DUP2 \t\t\tcurrentAllowance\n      LT \t\t\tcurrentAllowance >= amount\n      ISZERO \t\t\tcurrentAllowance >= amount\n      PUSH [tag] 216\t\t\trequire(currentAllowance >= am...\n      JUMPI \t\t\trequire(currentAllowance >= am...\n      PUSH 40\t\t\trequire(currentAllowance >= am...\n      MLOAD \t\t\trequire(currentAllowance >= am...\n      PUSH 8C379A000000000000000000000000000000000000000000000000000000000\t\t\trequire(currentAllowance >= am...\n      DUP2 \t\t\trequire(currentAllowance >= am...\n      MSTORE \t\t\trequire(currentAllowance >= am...\n      PUSH 4\t\t\trequire(currentAllowance >= am...\n      ADD \t\t\trequire(currentAllowance >= am...\n      PUSH [tag] 217\t\t\trequire(currentAllowance >= am...\n      SWAP1 \t\t\trequire(currentAllowance >= am...\n      PUSH [tag] 218\t\t\trequire(currentAllowance >= am...\n      JUMP \t\t\trequire(currentAllowance >= am...\n    tag 217\t\t\trequire(currentAllowance >= am...\n      JUMPDEST \t\t\trequire(currentAllowance >= am...\n      PUSH 40\t\t\trequire(currentAllowance >= am...\n      MLOAD \t\t\trequire(currentAllowance >= am...\n      DUP1 \t\t\trequire(currentAllowance >= am...\n      SWAP2 \t\t\trequire(currentAllowance >= am...\n      SUB \t\t\trequire(currentAllowance >= am...\n      SWAP1 \t\t\trequire(currentAllowance >= am...\n      REVERT \t\t\trequire(currentAllowance >= am...\n    tag 216\t\t\trequire(currentAllowance >= am...\n      JUMPDEST \t\t\trequire(currentAllowance >= am...\n      PUSH [tag] 219\t\t\t_approve(owner, spender, curre...\n      DUP5 \t\t\towner\n      DUP5 \t\t\tspender\n      DUP5 \t\t\tamount\n      DUP5 \t\t\tcurrentAllowance\n      SUB \t\t\tcurrentAllowance - amount\n      PUSH [tag] 140\t\t\t_approve\n      JUMP \t\t\t_approve(owner, spender, curre...\n    tag 219\t\t\t_approve(owner, spender, curre...\n      JUMPDEST \t\t\t_approve(owner, spender, curre...\n    tag 215\t\t\tif (currentAllowance != type(u...\n      JUMPDEST \t\t\tif (currentAllowance != type(u...\n      POP \t\t\t{\\n        uint256 currentAllo...\n      POP \t\t\tfunction _spendAllowance(\\n   ...\n      POP \t\t\tfunction _spendAllowance(\\n   ...\n      POP \t\t\tfunction _spendAllowance(\\n   ...\n      JUMP \t\t\tfunction _spendAllowance(\\n   ...\n    tag 154\t\t\tfunction _transfer(address fro...\n      JUMPDEST \t\t\tfunction _transfer(address fro...\n      PUSH [tag] 221\t\t\t_beforeTokenTransfer(from, to,...\n      DUP4 \t\t\tfrom\n      DUP4 \t\t\tto\n      DUP4 \t\t\tamount\n      PUSH [tag] 222\t\t\t_beforeTokenTransfer\n      JUMP \t\t\t_beforeTokenTransfer(from, to,...\n    tag 221\t\t\t_beforeTokenTransfer(from, to,...\n      JUMPDEST \t\t\t_beforeTokenTransfer(from, to,...\n      PUSH 0\t\t\tuint256 fromBalance\n      DUP1 \t\t\t_balances\n      PUSH 0\t\t\t_balances[from]\n      DUP6 \t\t\tfrom\n      PUSH FFFFFFFFFFFFFFFFFFFFFFFFFFFFFFFFFFFFFFFF\t\t\t_balances[from]\n      AND \t\t\t_balances[from]\n      PUSH FFFFFFFFFFFFFFFFFFFFFFFFFFFFFFFFFFFFFFFF\t\t\t_balances[from]\n      AND \t\t\t_balances[from]\n      DUP2 \t\t\t_balances[from]\n      MSTORE \t\t\t_balances[from]\n      PUSH 20\t\t\t_balances[from]\n      ADD \t\t\t_balances[from]\n      SWAP1 \t\t\t_balances[from]\n      DUP2 \t\t\t_balances[from]\n      MSTORE \t\t\t_balances[from]\n      PUSH 20\t\t\t_balances[from]\n      ADD \t\t\t_balances[from]\n      PUSH 0\t\t\t_balances[from]\n      KECCAK256 \t\t\t_balances[from]\n      SLOAD \t\t\t_balances[from]\n      SWAP1 \t\t\tuint256 fromBalance = _balance...\n      POP \t\t\tuint256 fromBalance = _balance...\n      DUP2 \t\t\tamount\n      DUP2 \t\t\tfromBalance\n      LT \t\t\tfromBalance >= amount\n      ISZERO \t\t\tfromBalance >= amount\n      PUSH [tag] 223\t\t\trequire(fromBalance >= amount,...\n      JUMPI \t\t\trequire(fromBalance >= amount,...\n      PUSH 40\t\t\trequire(fromBalance >= amount,...\n      MLOAD \t\t\trequire(fromBalance >= amount,...\n      PUSH 8C379A000000000000000000000000000000000000000000000000000000000\t\t\trequire(fromBalance >= amount,...\n      DUP2 \t\t\trequire(fromBalance >= amount,...\n      MSTORE \t\t\trequire(fromBalance >= amount,...\n      PUSH 4\t\t\trequire(fromBalance >= amount,...\n      ADD \t\t\trequire(fromBalance >= amount,...\n      PUSH [tag] 224\t\t\trequire(fromBalance >= amount,...\n      SWAP1 \t\t\trequire(fromBalance >= amount,...\n      PUSH [tag] 225\t\t\trequire(fromBalance >= amount,...\n      JUMP \t\t\trequire(fromBalance >= amount,...\n    tag 224\t\t\trequire(fromBalance >= amount,...\n      JUMPDEST \t\t\trequire(fromBalance >= amount,...\n      PUSH 40\t\t\trequire(fromBalance >= amount,...\n      MLOAD \t\t\trequire(fromBalance >= amount,...\n      DUP1 \t\t\trequire(fromBalance >= amount,...\n      SWAP2 \t\t\trequire(fromBalance >= amount,...\n      SUB \t\t\trequire(fromBalance >= amount,...\n      SWAP1 \t\t\trequire(fromBalance >= amount,...\n      REVERT \t\t\trequire(fromBalance >= amount,...\n    tag 223\t\t\trequire(fromBalance >= amount,...\n      JUMPDEST \t\t\trequire(fromBalance >= amount,...\n      DUP2 \t\t\tamount\n      DUP2 \t\t\tfromBalance\n      SUB \t\t\tfromBalance - amount\n      PUSH 0\t\t\t_balances\n      DUP1 \t\t\t_balances[from]\n      DUP7 \t\t\tfrom\n      PUSH FFFFFFFFFFFFFFFFFFFFFFFFFFFFFFFFFFFFFFFF\t\t\t_balances[from]\n      AND \t\t\t_balances[from]\n      PUSH FFFFFFFFFFFFFFFFFFFFFFFFFFFFFFFFFFFFFFFF\t\t\t_balances[from]\n      AND \t\t\t_balances[from]\n      DUP2 \t\t\t_balances[from]\n      MSTORE \t\t\t_balances[from]\n      PUSH 20\t\t\t_balances[from]\n      ADD \t\t\t_balances[from]\n      SWAP1 \t\t\t_balances[from]\n      DUP2 \t\t\t_balances[from]\n      MSTORE \t\t\t_balances[from]\n      PUSH 20\t\t\t_balances[from]\n      ADD \t\t\t_balances[from]\n      PUSH 0\t\t\t_balances[from]\n      KECCAK256 \t\t\t_balances[from]\n      DUP2 \t\t\t_balances[from] = fromBalance ...\n      SWAP1 \t\t\t_balances[from] = fromBalance ...\n      SSTORE \t\t\t_balances[from] = fromBalance ...\n      POP \t\t\t_balances[from] = fromBalance ...\n      DUP2 \t\t\tamount\n      PUSH 0\t\t\t_balances\n      DUP1 \t\t\t_balances[to]\n      DUP6 \t\t\tto\n      PUSH FFFFFFFFFFFFFFFFFFFFFFFFFFFFFFFFFFFFFFFF\t\t\t_balances[to]\n      AND \t\t\t_balances[to]\n      PUSH FFFFFFFFFFFFFFFFFFFFFFFFFFFFFFFFFFFFFFFF\t\t\t_balances[to]\n      AND \t\t\t_balances[to]\n      DUP2 \t\t\t_balances[to]\n      MSTORE \t\t\t_balances[to]\n      PUSH 20\t\t\t_balances[to]\n      ADD \t\t\t_balances[to]\n      SWAP1 \t\t\t_balances[to]\n      DUP2 \t\t\t_balances[to]\n      MSTORE \t\t\t_balances[to]\n      PUSH 20\t\t\t_balances[to]\n      ADD \t\t\t_balances[to]\n      PUSH 0\t\t\t_balances[to]\n      KECCAK256 \t\t\t_balances[to]\n      PUSH 0\t\t\t_balances[to]\n      DUP3 \t\t\t_balances[to] += amount\n      DUP3 \t\t\t_balances[to] += amount\n      SLOAD \t\t\t_balances[to] += amount\n      ADD \t\t\t_balances[to] += amount\n      SWAP3 \t\t\t_balances[to] += amount\n      POP \t\t\t_balances[to] += amount\n      POP \t\t\t_balances[to] += amount\n      DUP2 \t\t\t_balances[to] += amount\n      SWAP1 \t\t\t_balances[to] += amount\n      SSTORE \t\t\t_balances[to] += amount\n      POP \t\t\t_balances[to] += amount\n      DUP3 \t\t\tto\n      PUSH FFFFFFFFFFFFFFFFFFFFFFFFFFFFFFFFFFFFFFFF\t\t\tTransfer(from, to, amount)\n      AND \t\t\tTransfer(from, to, amount)\n      DUP5 \t\t\tfrom\n      PUSH FFFFFFFFFFFFFFFFFFFFFFFFFFFFFFFFFFFFFFFF\t\t\tTransfer(from, to, amount)\n      AND \t\t\tTransfer(from, to, amount)\n      PUSH DDF252AD1BE2C89B69C2B068FC378DAA952BA7F163C4A11628F55A4DF523B3EF\t\t\tTransfer(from, to, amount)\n      DUP5 \t\t\tamount\n      PUSH 40\t\t\tTransfer(from, to, amount)\n      MLOAD \t\t\tTransfer(from, to, amount)\n      PUSH [tag] 226\t\t\tTransfer(from, to, amount)\n      SWAP2 \t\t\tTransfer(from, to, amount)\n      SWAP1 \t\t\tTransfer(from, to, amount)\n      PUSH [tag] 47\t\t\tTransfer(from, to, amount)\n      JUMP \t\t\tTransfer(from, to, amount)\n    tag 226\t\t\tTransfer(from, to, amount)\n      JUMPDEST \t\t\tTransfer(from, to, amount)\n      PUSH 40\t\t\tTransfer(from, to, amount)\n      MLOAD \t\t\tTransfer(from, to, amount)\n      DUP1 \t\t\tTransfer(from, to, amount)\n      SWAP2 \t\t\tTransfer(from, to, amount)\n      SUB \t\t\tTransfer(from, to, amount)\n      SWAP1 \t\t\tTransfer(from, to, amount)\n      LOG3 \t\t\tTransfer(from, to, amount)\n      PUSH [tag] 227\t\t\t_afterTokenTransfer(from, to, ...\n      DUP5 \t\t\tfrom\n      DUP5 \t\t\tto\n      DUP5 \t\t\tamount\n      PUSH [tag] 228\t\t\t_afterTokenTransfer\n      JUMP \t\t\t_afterTokenTransfer(from, to, ...\n    tag 227\t\t\t_afterTokenTransfer(from, to, ...\n      JUMPDEST \t\t\t_afterTokenTransfer(from, to, ...\n      POP \t\t\t{\\n        _beforeTokenTransfe...\n      POP \t\t\tfunction _transfer(address fro...\n      POP \t\t\tfunction _transfer(address fro...\n      POP \t\t\tfunction _transfer(address fro...\n      JUMP \t\t\tfunction _transfer(address fro...\n    tag 164\t\t\tfunction _transferOwnership(ad...\n      JUMPDEST \t\t\tfunction _transferOwnership(ad...\n      PUSH 0\t\t\taddress oldOwner\n      PUSH 5\t\t\t_owner\n      PUSH 0\t\t\t_owner\n      SWAP1 \t\t\t_owner\n      SLOAD \t\t\t_owner\n      SWAP1 \t\t\t_owner\n      PUSH 100\t\t\t_owner\n      EXP \t\t\t_owner\n      SWAP1 \t\t\t_owner\n      DIV \t\t\t_owner\n      PUSH FFFFFFFFFFFFFFFFFFFFFFFFFFFFFFFFFFFFFFFF\t\t\t_owner\n      AND \t\t\t_owner\n      SWAP1 \t\t\taddress oldOwner = _owner\n      POP \t\t\taddress oldOwner = _owner\n      DUP2 \t\t\tnewOwner\n      PUSH 5\t\t\t_owner\n      PUSH 0\t\t\t_owner\n      PUSH 100\t\t\t_owner = newOwner\n      EXP \t\t\t_owner = newOwner\n      DUP2 \t\t\t_owner = newOwner\n      SLOAD \t\t\t_owner = newOwner\n      DUP2 \t\t\t_owner = newOwner\n      PUSH FFFFFFFFFFFFFFFFFFFFFFFFFFFFFFFFFFFFFFFF\t\t\t_owner = newOwner\n      MUL \t\t\t_owner = newOwner\n      NOT \t\t\t_owner = newOwner\n      AND \t\t\t_owner = newOwner\n      SWAP1 \t\t\t_owner = newOwner\n      DUP4 \t\t\t_owner = newOwner\n      PUSH FFFFFFFFFFFFFFFFFFFFFFFFFFFFFFFFFFFFFFFF\t\t\t_owner = newOwner\n      AND \t\t\t_owner = newOwner\n      MUL \t\t\t_owner = newOwner\n      OR \t\t\t_owner = newOwner\n      SWAP1 \t\t\t_owner = newOwner\n      SSTORE \t\t\t_owner = newOwner\n      POP \t\t\t_owner = newOwner\n      DUP2 \t\t\tnewOwner\n      PUSH FFFFFFFFFFFFFFFFFFFFFFFFFFFFFFFFFFFFFFFF\t\t\tOwnershipTransferred(oldOwner,...\n      AND \t\t\tOwnershipTransferred(oldOwner,...\n      DUP2 \t\t\toldOwner\n      PUSH FFFFFFFFFFFFFFFFFFFFFFFFFFFFFFFFFFFFFFFF\t\t\tOwnershipTransferred(oldOwner,...\n      AND \t\t\tOwnershipTransferred(oldOwner,...\n      PUSH 8BE0079C531659141344CD1FD0A4F28419497F9722A3DAAFE3B4186F6B6457E0\t\t\tOwnershipTransferred(oldOwner,...\n      PUSH 40\t\t\tOwnershipTransferred(oldOwner,...\n      MLOAD \t\t\tOwnershipTransferred(oldOwner,...\n      PUSH 40\t\t\tOwnershipTransferred(oldOwner,...\n      MLOAD \t\t\tOwnershipTransferred(oldOwner,...\n      DUP1 \t\t\tOwnershipTransferred(oldOwner,...\n      SWAP2 \t\t\tOwnershipTransferred(oldOwner,...\n      SUB \t\t\tOwnershipTransferred(oldOwner,...\n      SWAP1 \t\t\tOwnershipTransferred(oldOwner,...\n      LOG3 \t\t\tOwnershipTransferred(oldOwner,...\n      POP \t\t\t{\\n        address oldOwner = ...\n      POP \t\t\tfunction _transferOwnership(ad...\n      JUMP \t\t\tfunction _transferOwnership(ad...\n    tag 222\t\t\tfunction _beforeTokenTransfer(...\n      JUMPDEST \t\t\tfunction _beforeTokenTransfer(...\n      POP \t\t\tfunction _beforeTokenTransfer(...\n      POP \t\t\tfunction _beforeTokenTransfer(...\n      POP \t\t\tfunction _beforeTokenTransfer(...\n      JUMP \t\t\tfunction _beforeTokenTransfer(...\n    tag 228\t\t\tfunction _afterTokenTransfer(a...\n      JUMPDEST \t\t\tfunction _afterTokenTransfer(a...\n      POP \t\t\tfunction _afterTokenTransfer(a...\n      POP \t\t\tfunction _afterTokenTransfer(a...\n      POP \t\t\tfunction _afterTokenTransfer(a...\n      JUMP \t\t\tfunction _afterTokenTransfer(a...\n    tag 232\t\t\t-License-Identifier: MIT\\nprag...\n      JUMPDEST \t\t\t-License-Identifier: MIT\\nprag...\n      PUSH 0\t\t\t* ----\n      DUP2 \t\t\tPENDE\n      MLOAD \t\t\tLIN DEPENDEN\n      SWAP1 \t\t\t OPENZEPPELIN DEPENDEN\n      POP \t\t\t OPENZEPPELIN DEPENDEN\n      SWAP2 \t\t\t-License-Identifier: MIT\\nprag...\n      SWAP1 \t\t\t-License-Identifier: MIT\\nprag...\n      POP \t\t\t-License-Identifier: MIT\\nprag...\n      JUMP \t\t\t-License-Identifier: MIT\\nprag...\n    tag 233\t\t\t-------- */\\n\\n/**\\n * @dev In...\n      JUMPDEST \t\t\t-------- */\\n\\n/**\\n * @dev In...\n      PUSH 0\t\t\tinterface I\n      DUP3 \t\t\ttalSup\n      DUP3 \t\t\ton \n      MSTORE \t\t\t function totalSupp\n      PUSH 20\t\t\t56);\n      DUP3 \t\t\tuin\n      ADD \t\t\tns (uint256);\\n\n      SWAP1 \t\t\trnal view returns (uint256);\\n\n      POP \t\t\trnal view returns (uint256);\\n\n      SWAP3 \t\t\t-------- */\\n\\n/**\\n * @dev In...\n      SWAP2 \t\t\t-------- */\\n\\n/**\\n * @dev In...\n      POP \t\t\t-------- */\\n\\n/**\\n * @dev In...\n      POP \t\t\t-------- */\\n\\n/**\\n * @dev In...\n      JUMP \t\t\t-------- */\\n\\n/**\\n * @dev In...\n    tag 234\t\t\t balanceOf(address account) ex...\n      JUMPDEST \t\t\t balanceOf(address account) ex...\n      PUSH 0\t\t\tr\n    tag 277\t\t\tto, uint256 amount) external r...\n      JUMPDEST \t\t\tto, uint256 amount) external r...\n      DUP4 \t\t\tount) \n      DUP2 \t\t\t \n      LT \t\t\t256 amount) e\n      ISZERO \t\t\tto, uint256 amount) external r...\n      PUSH [tag] 279\t\t\tto, uint256 amount) external r...\n      JUMPI \t\t\tto, uint256 amount) external r...\n      DUP1 \t\t\t \n      DUP3 \t\t\tnde\n      ADD \t\t\t spender) e\n      MLOAD \t\t\tddress spender) ex\n      DUP2 \t\t\tr\n      DUP5 \t\t\t ow\n      ADD \t\t\tress owner,\n      MSTORE \t\t\tnce(address owner, address spe...\n      PUSH 20\t\t\t (\n      DUP2 \t\t\tr\n      ADD \t\t\treturns (b\n      SWAP1 \t\t\trnal returns (b\n      POP \t\t\trnal returns (b\n      PUSH [tag] 277\t\t\tto, uint256 amount) external r...\n      JUMP \t\t\tto, uint256 amount) external r...\n    tag 279\t\t\tto, uint256 amount) external r...\n      JUMPDEST \t\t\tto, uint256 amount) external r...\n      PUSH 0\t\t\tp\n      DUP5 \t\t\tunctio\n      DUP5 \t\t\t   \n      ADD \t\t\t6);\\n    function\n      MSTORE \t\t\t(uint256);\\n    function app\n      POP \t\t\t   function transfer(address t...\n      POP \t\t\t balanceOf(address account) ex...\n      POP \t\t\t balanceOf(address account) ex...\n      POP \t\t\t balanceOf(address account) ex...\n      JUMP \t\t\t balanceOf(address account) ex...\n    tag 235\t\t\t spender, uint256 amount) exte...\n      JUMPDEST \t\t\t spender, uint256 amount) exte...\n      PUSH 0\t\t\ts (boo\n      PUSH 1F\t\t\ts \n      NOT \t\t\tdress f\n      PUSH 1F\t\t\t  \n      DUP4 \t\t\t(\\n   \n      ADD \t\t\tFrom(\\n        \n      AND \t\t\tsferFrom(\\n        address fr\n      SWAP1 \t\t\tction transferFrom(\\n        a...\n      POP \t\t\tction transferFrom(\\n        a...\n      SWAP2 \t\t\t spender, uint256 amount) exte...\n      SWAP1 \t\t\t spender, uint256 amount) exte...\n      POP \t\t\t spender, uint256 amount) exte...\n      JUMP \t\t\t spender, uint256 amount) exte...\n    tag 236\t\t\taddress to,\\n        uint256 a...\n      JUMPDEST \t\t\taddress to,\\n        uint256 a...\n      PUSH 0\t\t\tres\n      PUSH [tag] 282\t\t\tndexed to, uint256 value);\\n  ...\n      DUP3 \t\t\tent A\n      PUSH [tag] 232\t\t\tndexed to, uint256 value);\\n  ...\n      JUMP \t\t\tndexed to, uint256 value);\\n  ...\n    tag 282\t\t\tndexed to, uint256 value);\\n  ...\n      JUMPDEST \t\t\tndexed to, uint256 value);\\n  ...\n      PUSH [tag] 283\t\t\tndexed owner, address indexed ...\n      DUP2 \t\t\t @dev \n      DUP6 \t\t\t**\\n\n      PUSH [tag] 233\t\t\tndexed owner, address indexed ...\n      JUMP \t\t\tndexed owner, address indexed ...\n    tag 283\t\t\tndexed owner, address indexed ...\n      JUMPDEST \t\t\tndexed owner, address indexed ...\n      SWAP4 \t\t\tdress indexed owner, address i...\n      POP \t\t\tdress indexed owner, address i...\n      PUSH [tag] 284\t\t\tnformation about the current e...\n      DUP2 \t\t\tct con\n      DUP6 \t\t\tbst\n      PUSH 20\t\t\t.\\n *\n      DUP7 \t\t\tconte\n      ADD \t\t\tion context.\\n */\n      PUSH [tag] 234\t\t\tnformation about the current e...\n      JUMP \t\t\tnformation about the current e...\n    tag 284\t\t\tnformation about the current e...\n      JUMPDEST \t\t\tnformation about the current e...\n      PUSH [tag] 285\t\t\ton _msgSender() internal view\n      DUP2 \t\t\tal vie\n      PUSH [tag] 235\t\t\ton _msgSender() internal view\n      JUMP \t\t\ton _msgSender() internal view\n    tag 285\t\t\ton _msgSender() internal view\n      JUMPDEST \t\t\ton _msgSender() internal view\n      DUP5 \t\t\tunc\n      ADD \t\t\t   function _msgSender() inter...\n      SWAP2 \t\t\text {\\n    function _msgSender...\n      POP \t\t\text {\\n    function _msgSender...\n      POP \t\t\t indexed from, address indexed...\n      SWAP3 \t\t\taddress to,\\n        uint256 a...\n      SWAP2 \t\t\taddress to,\\n        uint256 a...\n      POP \t\t\taddress to,\\n        uint256 a...\n      POP \t\t\taddress to,\\n        uint256 a...\n      JUMP \t\t\taddress to,\\n        uint256 a...\n    tag 37\t\t\trns (address) {\\n        retur...\n      JUMPDEST \t\t\trns (address) {\\n        retur...\n      PUSH 0\t\t\tldat\n      PUSH 20\t\t\t}\\n\n      DUP3 \t\t\t.data;\\n  \n      ADD \t\t\t msg.data;\\n    }\\n}\n      SWAP1 \t\t\t  return msg.data;\\n    }\\n}\n      POP \t\t\t  return msg.data;\\n    }\\n}\n      DUP2 \t\t\tnterface.\n      DUP2 \t\t\tC20}\n      SUB \t\t\t{IERC20} interface.\\n\n      PUSH 0\t\t\tt\n      DUP4 \t\t\tntation o\n      ADD \t\t\tlementation of th\n      MSTORE \t\t\tdev Implementation of the {IER...\n      PUSH [tag] 287\t\t\t is Context, IERC20 {\\n    map...\n      DUP2 \t\t\t    \n      DUP5 \t\t\talance\n      PUSH [tag] 236\t\t\t is Context, IERC20 {\\n    map...\n      JUMP \t\t\t is Context, IERC20 {\\n    map...\n    tag 287\t\t\t is Context, IERC20 {\\n    map...\n      JUMPDEST \t\t\t is Context, IERC20 {\\n    map...\n      SWAP1 \t\t\tct ERC20 is Context, IERC20 {\\...\n      POP \t\t\tct ERC20 is Context, IERC20 {\\...\n      SWAP3 \t\t\trns (address) {\\n        retur...\n      SWAP2 \t\t\trns (address) {\\n        retur...\n      POP \t\t\trns (address) {\\n        retur...\n      POP \t\t\trns (address) {\\n        retur...\n      JUMP \t\t\trns (address) {\\n        retur...\n    tag 238\t\t\tlSupply;\\n    string private _...\n      JUMPDEST \t\t\tlSupply;\\n    string private _...\n      PUSH 0\t\t\te\n      DUP1 \t\t\tg\n      REVERT \t\t\t, string mem\n    tag 240\t\t\t {\\n        return _name;\\n   ...\n      JUMPDEST \t\t\t {\\n        return _name;\\n   ...\n      PUSH 0\t\t\tunction\n      PUSH FFFFFFFFFFFFFFFFFFFFFFFFFFFFFFFFFFFFFFFF\t\t\turns (string memory) {\\n      ...\n      DUP3 \t\t\tual r\n      AND \t\t\tvirtual returns (string memory...\n      SWAP1 \t\t\tublic view virtual returns (st...\n      POP \t\t\tublic view virtual returns (st...\n      SWAP2 \t\t\t {\\n        return _name;\\n   ...\n      SWAP1 \t\t\t {\\n        return _name;\\n   ...\n      POP \t\t\t {\\n        return _name;\\n   ...\n      JUMP \t\t\t {\\n        return _name;\\n   ...\n    tag 241\t\t\t   function decimals() public ...\n      JUMPDEST \t\t\t   function decimals() public ...\n      PUSH 0\t\t\trtual r\n      PUSH [tag] 293\t\t\t   return 18;\\n    }\\n\\n   \n      DUP3 \t\t\t}\\n\\n  \n      PUSH [tag] 240\t\t\t   return 18;\\n    }\\n\\n   \n      JUMP \t\t\t   return 18;\\n    }\\n\\n   \n    tag 293\t\t\t   return 18;\\n    }\\n\\n   \n      JUMPDEST \t\t\t   return 18;\\n    }\\n\\n   \n      SWAP1 \t\t\tt8) {\\n        return 18;\\n   ...\n      POP \t\t\tt8) {\\n        return 18;\\n   ...\n      SWAP2 \t\t\t   function decimals() public ...\n      SWAP1 \t\t\t   function decimals() public ...\n      POP \t\t\t   function decimals() public ...\n      JUMP \t\t\t   function decimals() public ...\n    tag 242\t\t\ttalSupply() public view virtua...\n      JUMPDEST \t\t\ttalSupply() public view virtua...\n      PUSH [tag] 295\t\t\trn _totalSupply;\\n    }\\n\\n\n      DUP2 \t\t\t   }\\n\n      PUSH [tag] 241\t\t\trn _totalSupply;\\n    }\\n\\n\n      JUMP \t\t\trn _totalSupply;\\n    }\\n\\n\n    tag 295\t\t\trn _totalSupply;\\n    }\\n\\n\n      JUMPDEST \t\t\trn _totalSupply;\\n    }\\n\\n\n      DUP2 \t\t\t   re\n      EQ \t\t\t      return _totalSupply;\\n  ...\n      PUSH [tag] 296\t\t\tt256) {\\n        return _total...\n      JUMPI \t\t\tt256) {\\n        return _total...\n      PUSH 0\t\t\tl\n      DUP1 \t\t\t \n      REVERT \t\t\tunction bala\n    tag 296\t\t\tt256) {\\n        return _total...\n      JUMPDEST \t\t\tt256) {\\n        return _total...\n      POP \t\t\ttalSupply() public view virtua...\n      JUMP \t\t\ttalSupply() public view virtua...\n    tag 243\t\t\taccount) public view virtual o...\n      JUMPDEST \t\t\taccount) public view virtual o...\n      PUSH 0\t\t\t(uint\n      DUP2 \t\t\tccount\n      CALLDATALOAD \t\t\tn _balances[account]\n      SWAP1 \t\t\t    return _balances[account]\n      POP \t\t\t    return _balances[account]\n      PUSH [tag] 298\t\t\t    function transfer(address ...\n      DUP2 \t\t\tss to\n      PUSH [tag] 242\t\t\t    function transfer(address ...\n      JUMP \t\t\t    function transfer(address ...\n    tag 298\t\t\t    function transfer(address ...\n      JUMPDEST \t\t\t    function transfer(address ...\n      SWAP3 \t\t\taccount) public view virtual o...\n      SWAP2 \t\t\taccount) public view virtual o...\n      POP \t\t\taccount) public view virtual o...\n      POP \t\t\taccount) public view virtual o...\n      JUMP \t\t\taccount) public view virtual o...\n    tag 244\t\t\tunt) public virtual override r...\n      JUMPDEST \t\t\tunt) public virtual override r...\n      PUSH 0\t\t\t(bool) \n      DUP2 \t\t\tsgSen\n      SWAP1 \t\t\ttransfer(_msgSen\n      POP \t\t\ttransfer(_msgSen\n      SWAP2 \t\t\tunt) public virtual override r...\n      SWAP1 \t\t\tunt) public virtual override r...\n      POP \t\t\tunt) public virtual override r...\n      JUMP \t\t\tunt) public virtual override r...\n    tag 245\t\t\tmount);\\n        return true;\\...\n      JUMPDEST \t\t\tmount);\\n        return true;\\...\n      PUSH [tag] 301\t\t\t address spender) public\n      DUP2 \t\t\tpubli\n      PUSH [tag] 244\t\t\t address spender) public\n      JUMP \t\t\t address spender) public\n    tag 301\t\t\t address spender) public\n      JUMPDEST \t\t\t address spender) public\n      DUP2 \t\t\t owne\n      EQ \t\t\tess owner, address spender) pu...\n      PUSH [tag] 302\t\t\twance(address owner, address s...\n      JUMPI \t\t\twance(address owner, address s...\n      PUSH 0\t\t\tv\n      DUP1 \t\t\tl\n      REVERT \t\t\t virtual ove\n    tag 302\t\t\twance(address owner, address s...\n      JUMPDEST \t\t\twance(address owner, address s...\n      POP \t\t\tmount);\\n        return true;\\...\n      JUMP \t\t\tmount);\\n        return true;\\...\n    tag 246\t\t\t(uint256) {\\n        return _a...\n      JUMPDEST \t\t\t(uint256) {\\n        return _a...\n      PUSH 0\t\t\tspend\n      DUP2 \t\t\taddres\n      CALLDATALOAD \t\t\ttion approve(address\n      SWAP1 \t\t\t\\n    function approve(address\n      POP \t\t\t\\n    function approve(address\n      PUSH [tag] 304\t\t\t uint256 amount) public virtua...\n      DUP2 \t\t\ttual \n      PUSH [tag] 245\t\t\t uint256 amount) public virtua...\n      JUMP \t\t\t uint256 amount) public virtua...\n    tag 304\t\t\t uint256 amount) public virtua...\n      JUMPDEST \t\t\t uint256 amount) public virtua...\n      SWAP3 \t\t\t(uint256) {\\n        return _a...\n      SWAP2 \t\t\t(uint256) {\\n        return _a...\n      POP \t\t\t(uint256) {\\n        return _a...\n      POP \t\t\t(uint256) {\\n        return _a...\n      JUMP \t\t\t(uint256) {\\n        return _a...\n    tag 40\t\t\trns (bool) {\\n        _approve...\n      JUMPDEST \t\t\trns (bool) {\\n        _approve...\n      PUSH 0\t\t\t  retu\n      DUP1 \t\t\t true;\n      PUSH 40\t\t\tad\n      DUP4 \t\t\tom(\\n     \n      DUP6 \t\t\transfer\n      SUB \t\t\ton transferFrom(\\n      \n      SLT \t\t\tnction transferFrom(\\n        ...\n      ISZERO \t\t\t function transferFrom(\\n     ...\n      PUSH [tag] 306\t\t\t function transferFrom(\\n     ...\n      JUMPI \t\t\t function transferFrom(\\n     ...\n      PUSH [tag] 307\t\t\ts from,\\n        address to,\\n...\n      PUSH [tag] 238\t\t\ts from,\\n        address to,\\n...\n      JUMP \t\t\ts from,\\n        address to,\\n...\n    tag 307\t\t\ts from,\\n        address to,\\n...\n      JUMPDEST \t\t\ts from,\\n        address to,\\n...\n    tag 306\t\t\t function transferFrom(\\n     ...\n      JUMPDEST \t\t\t function transferFrom(\\n     ...\n      PUSH 0\t\t\te\n      PUSH [tag] 308\t\t\tunt);\\n        _transfer(from,...\n      DUP6 \t\t\t      r\n      DUP3 \t\t\tount);\n      DUP7 \t\t\trom, to, \n      ADD \t\t\ter(from, to, amount);\\n\n      PUSH [tag] 243\t\t\tunt);\\n        _transfer(from,...\n      JUMP \t\t\tunt);\\n        _transfer(from,...\n    tag 308\t\t\tunt);\\n        _transfer(from,...\n      JUMPDEST \t\t\tunt);\\n        _transfer(from,...\n      SWAP3 \t\t\tder(), amount);\\n        _tran...\n      POP \t\t\tder(), amount);\\n        _tran...\n      POP \t\t\tool) {\\n        _spendAllowanc...\n      PUSH 20\t\t\tfr\n      PUSH [tag] 309\t\t\tamount) internal virtual {\\n  ...\n      DUP6 \t\t\tenTrans\n      DUP3 \t\t\tbefore\n      DUP7 \t\t\t{\\n       \n      ADD \t\t\tual {\\n        _beforeT\n      PUSH [tag] 246\t\t\tamount) internal virtual {\\n  ...\n      JUMP \t\t\tamount) internal virtual {\\n  ...\n    tag 309\t\t\tamount) internal virtual {\\n  ...\n      JUMPDEST \t\t\tamount) internal virtual {\\n  ...\n      SWAP2 \t\t\t, uint256 amount) internal vir...\n      POP \t\t\t, uint256 amount) internal vir...\n      POP \t\t\t  function _transfer(address f...\n      SWAP3 \t\t\trns (bool) {\\n        _approve...\n      POP \t\t\trns (bool) {\\n        _approve...\n      SWAP3 \t\t\trns (bool) {\\n        _approve...\n      SWAP1 \t\t\trns (bool) {\\n        _approve...\n      POP \t\t\trns (bool) {\\n        _approve...\n      JUMP \t\t\trns (bool) {\\n        _approve...\n    tag 247\t\t\t        uint256 fromBalance = ...\n      JUMPDEST \t\t\t        uint256 fromBalance = ...\n      PUSH 0\t\t\tances[f\n      DUP2 \t\t\t amou\n      ISZERO \t\t\tance >= amoun\n      ISZERO \t\t\tfromBalance >= amount\n      SWAP1 \t\t\t   require(fromBalance >= amou...\n      POP \t\t\t   require(fromBalance >= amou...\n      SWAP2 \t\t\t        uint256 fromBalance = ...\n      SWAP1 \t\t\t        uint256 fromBalance = ...\n      POP \t\t\t        uint256 fromBalance = ...\n      JUMP \t\t\t        uint256 fromBalance = ...\n    tag 248\t\t\tansfer amount exceeds balance\"...\n      JUMPDEST \t\t\tansfer amount exceeds balance\"...\n      PUSH [tag] 312\t\t\t= fromBalance - amoun\n      DUP2 \t\t\t amou\n      PUSH [tag] 247\t\t\t= fromBalance - amoun\n      JUMP \t\t\t= fromBalance - amoun\n    tag 312\t\t\t= fromBalance - amoun\n      JUMPDEST \t\t\t= fromBalance - amoun\n      DUP3 \t\t\trom\n      MSTORE \t\t\tances[from] = fromBalance - am...\n      POP \t\t\tansfer amount exceeds balance\"...\n      POP \t\t\tansfer amount exceeds balance\"...\n      JUMP \t\t\tansfer amount exceeds balance\"...\n    tag 43\t\t\t  _balances[to] += amount;\\n  ...\n      JUMPDEST \t\t\t  _balances[to] += amount;\\n  ...\n      PUSH 0\t\t\t _af\n      PUSH 20\t\t\t;\\n\n      DUP3 \t\t\tto, amoun\n      ADD \t\t\tom, to, amount);\\n \n      SWAP1 \t\t\tnsfer(from, to, amount);\\n \n      POP \t\t\tnsfer(from, to, amount);\\n \n      PUSH [tag] 314\t\t\tfunction _mint(address account...\n      PUSH 0\t\t\ta\n      DUP4 \t\t\ternal vir\n      ADD \t\t\t internal virtual\n      DUP5 \t\t\t6 amou\n      PUSH [tag] 248\t\t\tfunction _mint(address account...\n      JUMP \t\t\tfunction _mint(address account...\n    tag 314\t\t\tfunction _mint(address account...\n      JUMPDEST \t\t\tfunction _mint(address account...\n      SWAP3 \t\t\t  _balances[to] += amount;\\n  ...\n      SWAP2 \t\t\t  _balances[to] += amount;\\n  ...\n      POP \t\t\t  _balances[to] += amount;\\n  ...\n      POP \t\t\t  _balances[to] += amount;\\n  ...\n      JUMP \t\t\t  _balances[to] += amount;\\n  ...\n    tag 249\t\t\tforeTokenTransfer(address(0), ...\n      JUMPDEST \t\t\tforeTokenTransfer(address(0), ...\n      PUSH [tag] 316\t\t\t  _balances[account] += \n      DUP2 \t\t\tt] +=\n      PUSH [tag] 244\t\t\t  _balances[account] += \n      JUMP \t\t\t  _balances[account] += \n    tag 316\t\t\t  _balances[account] += \n      JUMPDEST \t\t\t  _balances[account] += \n      DUP3 \t\t\t   \n      MSTORE \t\t\tount;\\n        _balances[accou...\n      POP \t\t\tforeTokenTransfer(address(0), ...\n      POP \t\t\tforeTokenTransfer(address(0), ...\n      JUMP \t\t\tforeTokenTransfer(address(0), ...\n    tag 47\t\t\t   emit Transfer(address(0), a...\n      JUMPDEST \t\t\t   emit Transfer(address(0), a...\n      PUSH 0\t\t\tnt, \n      PUSH 20\t\t\t(a\n      DUP3 \t\t\tction _bu\n      ADD \t\t\t function _burn(ad\n      SWAP1 \t\t\t  }\\n\\n    function _burn(ad\n      POP \t\t\t  }\\n\\n    function _burn(ad\n      PUSH [tag] 318\t\t\tunt, uint256 amount) internal ...\n      PUSH 0\t\t\t(\n      DUP4 \t\t\tkenTransf\n      ADD \t\t\treTokenTransfer(a\n      DUP5 \t\t\t    _b\n      PUSH [tag] 249\t\t\tunt, uint256 amount) internal ...\n      JUMP \t\t\tunt, uint256 amount) internal ...\n    tag 318\t\t\tunt, uint256 amount) internal ...\n      JUMPDEST \t\t\tunt, uint256 amount) internal ...\n      SWAP3 \t\t\t   emit Transfer(address(0), a...\n      SWAP2 \t\t\t   emit Transfer(address(0), a...\n      POP \t\t\t   emit Transfer(address(0), a...\n      POP \t\t\t   emit Transfer(address(0), a...\n      JUMP \t\t\t   emit Transfer(address(0), a...\n    tag 50\t\t\ts(0), amount);\\n\\n        uint...\n      JUMPDEST \t\t\ts(0), amount);\\n\\n        uint...\n      PUSH 0\t\t\taccoun\n      PUSH 20\t\t\tt,\n      DUP3 \t\t\tnce >= am\n      DUP5 \t\t\tcountBa\n      SUB \t\t\te(accountBalance >= amo\n      SLT \t\t\tquire(accountBalance >= amount...\n      ISZERO \t\t\t require(accountBalance >= amo...\n      PUSH [tag] 320\t\t\t require(accountBalance >= amo...\n      JUMPI \t\t\t require(accountBalance >= amo...\n      PUSH [tag] 321\t\t\tC20: burn amount exceeds balan...\n      PUSH [tag] 238\t\t\tC20: burn amount exceeds balan...\n      JUMP \t\t\tC20: burn amount exceeds balan...\n    tag 321\t\t\tC20: burn amount exceeds balan...\n      JUMPDEST \t\t\tC20: burn amount exceeds balan...\n    tag 320\t\t\t require(accountBalance >= amo...\n      JUMPDEST \t\t\t require(accountBalance >= amo...\n      PUSH 0\t\t\t \n      PUSH [tag] 322\t\t\tunt;\\n        }\\n\\n        emi...\n      DUP5 \t\t\t, addre\n      DUP3 \t\t\tr(acco\n      DUP6 \t\t\tmit Trans\n      ADD \t\t\t   emit Transfer(accou\n      PUSH [tag] 243\t\t\tunt;\\n        }\\n\\n        emi...\n      JUMP \t\t\tunt;\\n        }\\n\\n        emi...\n    tag 322\t\t\tunt;\\n        }\\n\\n        emi...\n      JUMPDEST \t\t\tunt;\\n        }\\n\\n        emi...\n      SWAP2 \t\t\tply -= amount;\\n        }\\n\\n ...\n      POP \t\t\tply -= amount;\\n        }\\n\\n ...\n      POP \t\t\tcountBalance - amount;\\n      ...\n      SWAP3 \t\t\ts(0), amount);\\n\\n        uint...\n      SWAP2 \t\t\ts(0), amount);\\n\\n        uint...\n      POP \t\t\ts(0), amount);\\n\\n        uint...\n      POP \t\t\ts(0), amount);\\n\\n        uint...\n      JUMP \t\t\ts(0), amount);\\n\\n        uint...\n    tag 57\t\t\t _afterTokenTransfer(account, ...\n      JUMPDEST \t\t\t _afterTokenTransfer(account, ...\n      PUSH 0\t\t\tve(\\n  \n      DUP1 \t\t\t    ad\n      PUSH 0\t\t\tess ow\n      PUSH 60\t\t\t56\n      DUP5 \t\t\t       ui\n      DUP7 \t\t\tpender,\n      SUB \t\t\tss spender,\\n        uin\n      SLT \t\t\tddress spender,\\n        uint2...\n      ISZERO \t\t\t  address spender,\\n        ui...\n      PUSH [tag] 324\t\t\t  address spender,\\n        ui...\n      JUMPI \t\t\t  address spender,\\n        ui...\n      PUSH [tag] 325\t\t\tunt\\n    ) internal virtual {\\...\n      PUSH [tag] 238\t\t\tunt\\n    ) internal virtual {\\...\n      JUMP \t\t\tunt\\n    ) internal virtual {\\...\n    tag 325\t\t\tunt\\n    ) internal virtual {\\...\n      JUMPDEST \t\t\tunt\\n    ) internal virtual {\\...\n    tag 324\t\t\t  address spender,\\n        ui...\n      JUMPDEST \t\t\t  address spender,\\n        ui...\n      PUSH 0\t\t\tp\n      PUSH [tag] 326\t\t\tC20: approve to zero address\")...\n      DUP7 \t\t\towances\n      DUP3 \t\t\t     _\n      DUP8 \t\t\tess\");\\n\\n \n      ADD \t\t\taddress\");\\n\\n        _a\n      PUSH [tag] 243\t\t\tC20: approve to zero address\")...\n      JUMP \t\t\tC20: approve to zero address\")...\n    tag 326\t\t\tC20: approve to zero address\")...\n      JUMPDEST \t\t\tC20: approve to zero address\")...\n      SWAP4 \t\t\tss(0), \"ERC20: approve to zero...\n      POP \t\t\tss(0), \"ERC20: approve to zero...\n      POP \t\t\t address\");\\n        require(s...\n      PUSH 20\t\t\twn\n      PUSH [tag] 327\t\t\t  }\\n\\n    function _spendAllo...\n      DUP7 \t\t\tdress o\n      DUP3 \t\t\t      \n      DUP8 \t\t\tllowance(\n      ADD \t\t\tendAllowance(\\n        \n      PUSH [tag] 243\t\t\t  }\\n\\n    function _spendAllo...\n      JUMP \t\t\t  }\\n\\n    function _spendAllo...\n    tag 327\t\t\t  }\\n\\n    function _spendAllo...\n      JUMPDEST \t\t\t  }\\n\\n    function _spendAllo...\n      SWAP3 \t\t\tmount);\\n    }\\n\\n    function...\n      POP \t\t\tmount);\\n    }\\n\\n    function...\n      POP \t\t\tount;\\n        emit Approval(o...\n      PUSH 40\t\t\tun\n      PUSH [tag] 328\t\t\t {\\n        uint256 currentAll...\n      DUP7 \t\t\tce(owne\n      DUP3 \t\t\t= allo\n      DUP8 \t\t\ttAllowanc\n      ADD \t\t\trrentAllowance = allow\n      PUSH [tag] 246\t\t\t {\\n        uint256 currentAll...\n      JUMP \t\t\t {\\n        uint256 currentAll...\n    tag 328\t\t\t {\\n        uint256 currentAll...\n      JUMPDEST \t\t\t {\\n        uint256 currentAll...\n      SWAP2 \t\t\tal virtual {\\n        uint256 ...\n      POP \t\t\tal virtual {\\n        uint256 ...\n      POP \t\t\t spender,\\n        uint256 amo...\n      SWAP3 \t\t\t _afterTokenTransfer(account, ...\n      POP \t\t\t _afterTokenTransfer(account, ...\n      SWAP3 \t\t\t _afterTokenTransfer(account, ...\n      POP \t\t\t _afterTokenTransfer(account, ...\n      SWAP3 \t\t\t _afterTokenTransfer(account, ...\n      JUMP \t\t\t _afterTokenTransfer(account, ...\n    tag 250\t\t\t(currentAllowance != type(uint...\n      JUMPDEST \t\t\t(currentAllowance != type(uint...\n      PUSH 0\t\t\tmax) {\\n\n      PUSH FF\t\t\tnce \n      DUP3 \t\t\ttAllo\n      AND \t\t\trrentAllowance >\n      SWAP1 \t\t\t require(currentAllowance >\n      POP \t\t\t require(currentAllowance >\n      SWAP2 \t\t\t(currentAllowance != type(uint...\n      SWAP1 \t\t\t(currentAllowance != type(uint...\n      POP \t\t\t(currentAllowance != type(uint...\n      JUMP \t\t\t(currentAllowance != type(uint...\n    tag 251\t\t\tRC20: insufficient allowance\")...\n      JUMPDEST \t\t\tRC20: insufficient allowance\")...\n      PUSH [tag] 331\t\t\tner, spender, currentA\n      DUP2 \t\t\trrent\n      PUSH [tag] 250\t\t\tner, spender, currentA\n      JUMP \t\t\tner, spender, currentA\n    tag 331\t\t\tner, spender, currentA\n      JUMPDEST \t\t\tner, spender, currentA\n      DUP3 \t\t\tve(\n      MSTORE \t\t\t _approve(owner, spender, curr...\n      POP \t\t\tRC20: insufficient allowance\")...\n      POP \t\t\tRC20: insufficient allowance\")...\n      JUMP \t\t\tRC20: insufficient allowance\")...\n    tag 66\t\t\tount);\\n            }\\n       ...\n      JUMPDEST \t\t\tount);\\n            }\\n       ...\n      PUSH 0\t\t\tress\n      PUSH 20\t\t\tua\n      DUP3 \t\t\tternal vi\n      ADD \t\t\t) internal virtual\n      SWAP1 \t\t\t6 amount) internal virtual\n      POP \t\t\t6 amount) internal virtual\n      PUSH [tag] 333\t\t\tnction _afterTokenTransfer(add...\n      PUSH 0\t\t\tu\n      DUP4 \t\t\tuint256 a\n      ADD \t\t\tto, uint256 amoun\n      DUP5 \t\t\t addre\n      PUSH [tag] 251\t\t\tnction _afterTokenTransfer(add...\n      JUMP \t\t\tnction _afterTokenTransfer(add...\n    tag 333\t\t\tnction _afterTokenTransfer(add...\n      JUMPDEST \t\t\tnction _afterTokenTransfer(add...\n      SWAP3 \t\t\tount);\\n            }\\n       ...\n      SWAP2 \t\t\tount);\\n            }\\n       ...\n      POP \t\t\tount);\\n            }\\n       ...\n      POP \t\t\tount);\\n            }\\n       ...\n      JUMP \t\t\tount);\\n            }\\n       ...\n    tag 252\t\t\trtual {}\\n}\\n\\n/**\\n * @dev Co...\n      JUMPDEST \t\t\trtual {}\\n}\\n\\n/**\\n * @dev Co...\n      PUSH [tag] 335\t\t\t, where\\n * there is an a\n      DUP2 \t\t\ts an \n      PUSH [tag] 241\t\t\t, where\\n * there is an a\n      JUMP \t\t\t, where\\n * there is an a\n    tag 335\t\t\t, where\\n * there is an a\n      JUMPDEST \t\t\t, where\\n * there is an a\n      DUP3 \t\t\tani\n      MSTORE \t\t\tol mechanism, where\\n * there ...\n      POP \t\t\trtual {}\\n}\\n\\n/**\\n * @dev Co...\n      POP \t\t\trtual {}\\n}\\n\\n/**\\n * @dev Co...\n      JUMP \t\t\trtual {}\\n}\\n\\n/**\\n * @dev Co...\n    tag 77\t\t\tner) that can be granted exclu...\n      JUMPDEST \t\t\tner) that can be granted exclu...\n      PUSH 0\t\t\table\n      PUSH 20\t\t\t_o\n      DUP3 \t\t\tss privat\n      ADD \t\t\tddress private _ow\n      SWAP1 \t\t\t {\\n    address private _ow\n      POP \t\t\t {\\n    address private _ow\n      PUSH [tag] 337\t\t\tevent OwnershipTransferred(add...\n      PUSH 0\t\t\td\n      DUP4 \t\t\t address \n      ADD \t\t\tner, address inde\n      DUP5 \t\t\treviou\n      PUSH [tag] 252\t\t\tevent OwnershipTransferred(add...\n      JUMP \t\t\tevent OwnershipTransferred(add...\n    tag 337\t\t\tevent OwnershipTransferred(add...\n      JUMPDEST \t\t\tevent OwnershipTransferred(add...\n      SWAP3 \t\t\tner) that can be granted exclu...\n      SWAP2 \t\t\tner) that can be granted exclu...\n      POP \t\t\tner) that can be granted exclu...\n      POP \t\t\tner) that can be granted exclu...\n      JUMP \t\t\tner) that can be granted exclu...\n    tag 253\t\t\t\\n\\n    constructor(address in...\n      JUMPDEST \t\t\t\\n\\n    constructor(address in...\n      PUSH [tag] 339\t\t\tnitialOwner);\\n    }\\n\\n\n      DUP2 \t\t\t   }\\n\n      PUSH [tag] 247\t\t\tnitialOwner);\\n    }\\n\\n\n      JUMP \t\t\tnitialOwner);\\n    }\\n\\n\n    tag 339\t\t\tnitialOwner);\\n    }\\n\\n\n      JUMPDEST \t\t\tnitialOwner);\\n    }\\n\\n\n      DUP2 \t\t\trship\n      EQ \t\t\twnership(initialOwner);\\n    }...\n      PUSH [tag] 340\t\t\t_transferOwnership(initialOwne...\n      JUMPI \t\t\t_transferOwnership(initialOwne...\n      PUSH 0\t\t\tn\n      DUP1 \t\t\t \n      REVERT \t\t\tunction owne\n    tag 340\t\t\t_transferOwnership(initialOwne...\n      JUMPDEST \t\t\t_transferOwnership(initialOwne...\n      POP \t\t\t\\n\\n    constructor(address in...\n      JUMP \t\t\t\\n\\n    constructor(address in...\n    tag 254\t\t\tw virtual returns (address) {\\...\n      JUMPDEST \t\t\tw virtual returns (address) {\\...\n      PUSH 0\t\t\tn _ow\n      DUP2 \t\t\tr() {\\n\n      CALLDATALOAD \t\t\tfier onlyOwner() {\\n \n      SWAP1 \t\t\t\\n    modifier onlyOwner() {\\n...\n      POP \t\t\t\\n    modifier onlyOwner() {\\n...\n      PUSH [tag] 342\t\t\tquire(owner() == _msgSender(),\n      DUP2 \t\t\tder()\n      PUSH [tag] 253\t\t\tquire(owner() == _msgSender(),\n      JUMP \t\t\tquire(owner() == _msgSender(),\n    tag 342\t\t\tquire(owner() == _msgSender(),\n      JUMPDEST \t\t\tquire(owner() == _msgSender(),\n      SWAP3 \t\t\tw virtual returns (address) {\\...\n      SWAP2 \t\t\tw virtual returns (address) {\\...\n      POP \t\t\tw virtual returns (address) {\\...\n      POP \t\t\tw virtual returns (address) {\\...\n      JUMP \t\t\tw virtual returns (address) {\\...\n    tag 95\t\t\taller is not the owner\");\\n   ...\n      JUMPDEST \t\t\taller is not the owner\");\\n   ...\n      PUSH 0\t\t\tOwners\n      DUP1 \t\t\tp() pu\n      PUSH 40\t\t\twn\n      DUP4 \t\t\t  _transf\n      DUP6 \t\t\t {\\n    \n      SUB \t\t\twner {\\n        _transfe\n      SLT \t\t\tnlyOwner {\\n        _transferO...\n      ISZERO \t\t\tl onlyOwner {\\n        _transf...\n      PUSH [tag] 344\t\t\tl onlyOwner {\\n        _transf...\n      JUMPI \t\t\tl onlyOwner {\\n        _transf...\n      PUSH [tag] 345\t\t\tip(address(0));\\n    }\\n\\n    ...\n      PUSH [tag] 238\t\t\tip(address(0));\\n    }\\n\\n    ...\n      JUMP \t\t\tip(address(0));\\n    }\\n\\n    ...\n    tag 345\t\t\tip(address(0));\\n    }\\n\\n    ...\n      JUMPDEST \t\t\tip(address(0));\\n    }\\n\\n    ...\n    tag 344\t\t\tl onlyOwner {\\n        _transf...\n      JUMPDEST \t\t\tl onlyOwner {\\n        _transf...\n      PUSH 0\t\t\tn\n      PUSH [tag] 346\t\t\tle: new owner is zero address\"...\n      DUP6 \t\t\tnsferOw\n      DUP3 \t\t\t     _\n      DUP7 \t\t\tress\");\\n \n      ADD \t\t\t address\");\\n        _t\n      PUSH [tag] 243\t\t\tle: new owner is zero address\"...\n      JUMP \t\t\tle: new owner is zero address\"...\n    tag 346\t\t\tle: new owner is zero address\"...\n      JUMPDEST \t\t\tle: new owner is zero address\"...\n      SWAP3 \t\t\t0), \"Ownable: new owner is zer...\n      POP \t\t\t0), \"Ownable: new owner is zer...\n      POP \t\t\tOwner {\\n        require(newOw...\n      PUSH 20\t\t\tne\n      PUSH [tag] 347\t\t\tinternal virtual {\\n        ad...\n      DUP6 \t\t\tr = _ow\n      DUP3 \t\t\ts oldO\n      DUP7 \t\t\t     addr\n      ADD \t\t\t\\n        address oldOw\n      PUSH [tag] 254\t\t\tinternal virtual {\\n        ad...\n      JUMP \t\t\tinternal virtual {\\n        ad...\n    tag 347\t\t\tinternal virtual {\\n        ad...\n      JUMPDEST \t\t\tinternal virtual {\\n        ad...\n      SWAP2 \t\t\tnewOwner) internal virtual {\\n...\n      POP \t\t\tnewOwner) internal virtual {\\n...\n      POP \t\t\t  }\\n\\n    function _transferO...\n      SWAP3 \t\t\taller is not the owner\");\\n   ...\n      POP \t\t\taller is not the owner\");\\n   ...\n      SWAP3 \t\t\taller is not the owner\");\\n   ...\n      SWAP1 \t\t\taller is not the owner\");\\n   ...\n      POP \t\t\taller is not the owner\");\\n   ...\n      JUMP \t\t\taller is not the owner\");\\n   ...\n    tag 108\t\t\twOwner;\\n        emit Ownershi...\n      JUMPDEST \t\t\twOwner;\\n        emit Ownershi...\n      PUSH 0\t\t\twner);\n      PUSH 20\t\t\t--\n      DUP3 \t\t\tNTERFACES\n      DUP5 \t\t\t-------\n      SUB \t\t\t----------- INTERFACES \n      SLT \t\t\t--------------- INTERFACES ---...\n      ISZERO \t\t\t* ---------------- INTERFACES ...\n      PUSH [tag] 349\t\t\t* ---------------- INTERFACES ...\n      JUMPI \t\t\t* ---------------- INTERFACES ...\n      PUSH [tag] 350\t\t\t------------ */\\ninterface IER...\n      PUSH [tag] 238\t\t\t------------ */\\ninterface IER...\n      JUMP \t\t\t------------ */\\ninterface IER...\n    tag 350\t\t\t------------ */\\ninterface IER...\n      JUMPDEST \t\t\t------------ */\\ninterface IER...\n    tag 349\t\t\t* ---------------- INTERFACES ...\n      JUMPDEST \t\t\t* ---------------- INTERFACES ...\n      PUSH 0\t\t\t \n      PUSH [tag] 351\t\t\tess account) external view ret...\n      DUP5 \t\t\t6);\\n}\\n\\n\n      DUP3 \t\t\ts (uin\n      DUP6 \t\t\tview retu\n      ADD \t\t\tnal view returns (uint\n      PUSH [tag] 254\t\t\tess account) external view ret...\n      JUMP \t\t\tess account) external view ret...\n    tag 351\t\t\tess account) external view ret...\n      JUMPDEST \t\t\tess account) external view ret...\n      SWAP2 \t\t\tnceOf(address account) externa...\n      POP \t\t\tnceOf(address account) externa...\n      POP \t\t\t) external returns (bool);\\n  ...\n      SWAP3 \t\t\twOwner;\\n        emit Ownershi...\n      SWAP2 \t\t\twOwner;\\n        emit Ownershi...\n      POP \t\t\twOwner;\\n        emit Ownershi...\n      POP \t\t\twOwner;\\n        emit Ownershi...\n      JUMP \t\t\twOwner;\\n        emit Ownershi...\n    tag 116\t\t\tWANZA --------------------- */...\n      JUMPDEST \t\t\tWANZA --------------------- */...\n      PUSH 0\t\t\t{\\n    \n      DUP1 \t\t\tnt256 \n      PUSH 40\t\t\t* \n      DUP4 \t\t\t000_000_0\n      DUP6 \t\t\tPPLY = \n      SUB \t\t\tX_SUPPLY = 1_000_000_00\n      SLT \t\t\tt MAX_SUPPLY = 1_000_000_000 *...\n      ISZERO \t\t\ttant MAX_SUPPLY = 1_000_000_00...\n      PUSH [tag] 353\t\t\ttant MAX_SUPPLY = 1_000_000_00...\n      JUMPI \t\t\ttant MAX_SUPPLY = 1_000_000_00...\n      PUSH [tag] 354\t\t\t18;\\n    uint256 public consta...\n      PUSH [tag] 238\t\t\t18;\\n    uint256 public consta...\n      JUMP \t\t\t18;\\n    uint256 public consta...\n    tag 354\t\t\t18;\\n    uint256 public consta...\n      JUMPDEST \t\t\t18;\\n    uint256 public consta...\n    tag 353\t\t\ttant MAX_SUPPLY = 1_000_000_00...\n      JUMPDEST \t\t\ttant MAX_SUPPLY = 1_000_000_00...\n      PUSH 0\t\t\tt\n      PUSH [tag] 355\t\t\t 1;          // 0.00005%\\n    ...\n      DUP6 \t\t\treasury\n      DUP3 \t\t\t publi\n      DUP7 \t\t\t    uint2\n      ADD \t\t\t05%\\n    uint256 public\n      PUSH [tag] 243\t\t\t 1;          // 0.00005%\\n    ...\n      JUMP \t\t\t 1;          // 0.00005%\\n    ...\n    tag 355\t\t\t 1;          // 0.00005%\\n    ...\n      JUMPDEST \t\t\t 1;          // 0.00005%\\n    ...\n      SWAP3 \t\t\tardFeeBP = 1;          // 0.00...\n      POP \t\t\tardFeeBP = 1;          // 0.00...\n      POP \t\t\t= 5;        // 0.005%\\n    uin...\n      PUSH 20\t\t\td \n      PUSH [tag] 356\t\t\tlic foundingWallet;\\n    addre...\n      DUP6 \t\t\tryWalle\n      DUP3 \t\t\tic tre\n      DUP7 \t\t\tddress pu\n      ADD \t\t\t   address public trea\n      PUSH [tag] 243\t\t\tlic foundingWallet;\\n    addre...\n      JUMP \t\t\tlic foundingWallet;\\n    addre...\n    tag 356\t\t\tlic foundingWallet;\\n    addre...\n      JUMPDEST \t\t\tlic foundingWallet;\\n    addre...\n      SWAP2 \t\t\tddress public foundingWallet;\\...\n      POP \t\t\tddress public foundingWallet;\\...\n      POP \t\t\t1%\\n    bool public feesEnable...\n      SWAP3 \t\t\tWANZA --------------------- */...\n      POP \t\t\tWANZA --------------------- */...\n      SWAP3 \t\t\tWANZA --------------------- */...\n      SWAP1 \t\t\tWANZA --------------------- */...\n      POP \t\t\tWANZA --------------------- */...\n      JUMP \t\t\tWANZA --------------------- */...\n    tag 255\t\t\tlic vault;\\n    mapping(addres...\n      JUMPDEST \t\t\tlic vault;\\n    mapping(addres...\n      PUSH 0\t\t\tss \n      DUP2 \t\t\tFeeEx\n      SWAP1 \t\t\tblic isFeeEx\n      POP \t\t\tblic isFeeEx\n      SWAP2 \t\t\tlic vault;\\n    mapping(addres...\n      SWAP1 \t\t\tlic vault;\\n    mapping(addres...\n      POP \t\t\tlic vault;\\n    mapping(addres...\n      JUMP \t\t\tlic vault;\\n    mapping(addres...\n    tag 256\t\t\tonstructor(\\n        address _...\n      JUMPDEST \t\t\tonstructor(\\n        address _...\n      PUSH 0\t\t\t   addres\n      PUSH [tag] 359\t\t\tERC20(\"BITKWANZA\", \"BKZ\") Owna...\n      PUSH [tag] 360\t\t\t \"BKZ\") Ownable(msg.sender) {\\...\n      PUSH [tag] 361\t\t\twnable(msg.sender) {\\n   \n      DUP5 \t\t\t {\\n  \n      PUSH [tag] 240\t\t\twnable(msg.sender) {\\n   \n      JUMP \t\t\twnable(msg.sender) {\\n   \n    tag 361\t\t\twnable(msg.sender) {\\n   \n      JUMPDEST \t\t\twnable(msg.sender) {\\n   \n      PUSH [tag] 255\t\t\t \"BKZ\") Ownable(msg.sender) {\\...\n      JUMP \t\t\t \"BKZ\") Ownable(msg.sender) {\\...\n    tag 360\t\t\t \"BKZ\") Ownable(msg.sender) {\\...\n      JUMPDEST \t\t\t \"BKZ\") Ownable(msg.sender) {\\...\n      PUSH [tag] 240\t\t\tERC20(\"BITKWANZA\", \"BKZ\") Owna...\n      JUMP \t\t\tERC20(\"BITKWANZA\", \"BKZ\") Owna...\n    tag 359\t\t\tERC20(\"BITKWANZA\", \"BKZ\") Owna...\n      JUMPDEST \t\t\tERC20(\"BITKWANZA\", \"BKZ\") Owna...\n      SWAP1 \t\t\tWallet\\n    ) ERC20(\"BITKWANZA...\n      POP \t\t\tWallet\\n    ) ERC20(\"BITKWANZA...\n      SWAP2 \t\t\tonstructor(\\n        address _...\n      SWAP1 \t\t\tonstructor(\\n        address _...\n      POP \t\t\tonstructor(\\n        address _...\n      JUMP \t\t\tonstructor(\\n        address _...\n    tag 257\t\t\tallet = _foundingWallet;\\n    ...\n      JUMPDEST \t\t\tallet = _foundingWallet;\\n    ...\n      PUSH 0\t\t\t_treasury\n      PUSH [tag] 363\t\t\tnew DividendVault(address(this...\n      DUP3 \t\t\t, _tr\n      PUSH [tag] 256\t\t\tnew DividendVault(address(this...\n      JUMP \t\t\tnew DividendVault(address(this...\n    tag 363\t\t\tnew DividendVault(address(this...\n      JUMPDEST \t\t\tnew DividendVault(address(this...\n      SWAP1 \t\t\t     vault = new DividendVault...\n      POP \t\t\t     vault = new DividendVault...\n      SWAP2 \t\t\tallet = _foundingWallet;\\n    ...\n      SWAP1 \t\t\tallet = _foundingWallet;\\n    ...\n      POP \t\t\tallet = _foundingWallet;\\n    ...\n      JUMP \t\t\tallet = _foundingWallet;\\n    ...\n    tag 258\t\t\t;\\n        _mint(msg.sender, M...\n      JUMPDEST \t\t\t;\\n        _mint(msg.sender, M...\n      PUSH 0\t\t\t = true;\\n\n      PUSH [tag] 365\t\t\tess(this)] = true;\\n    }\\n\\n ...\n      DUP3 \t\t\t* ---\n      PUSH [tag] 257\t\t\tess(this)] = true;\\n    }\\n\\n ...\n      JUMP \t\t\tess(this)] = true;\\n    }\\n\\n ...\n    tag 365\t\t\tess(this)] = true;\\n    }\\n\\n ...\n      JUMPDEST \t\t\tess(this)] = true;\\n    }\\n\\n ...\n      SWAP1 \t\t\teeExempt[address(this)] = true...\n      POP \t\t\teeExempt[address(this)] = true...\n      SWAP2 \t\t\t;\\n        _mint(msg.sender, M...\n      SWAP1 \t\t\t;\\n        _mint(msg.sender, M...\n      POP \t\t\t;\\n        _mint(msg.sender, M...\n      JUMP \t\t\t;\\n        _mint(msg.sender, M...\n    tag 259\t\t\t ADMIN ---------------- */\\n  ...\n      JUMPDEST \t\t\t ADMIN ---------------- */\\n  ...\n      PUSH [tag] 367\t\t\t = enabled;\\n    }\\n\\n    func...\n      DUP2 \t\t\taccou\n      PUSH [tag] 258\t\t\t = enabled;\\n    }\\n\\n    func...\n      JUMP \t\t\t = enabled;\\n    }\\n\\n    func...\n    tag 367\t\t\t = enabled;\\n    }\\n\\n    func...\n      JUMPDEST \t\t\t = enabled;\\n    }\\n\\n    func...\n      DUP3 \t\t\tabl\n      MSTORE \t\t\t feesEnabled = enabled;\\n    }...\n      POP \t\t\t ADMIN ---------------- */\\n  ...\n      POP \t\t\t ADMIN ---------------- */\\n  ...\n      JUMP \t\t\t ADMIN ---------------- */\\n  ...\n    tag 128\t\t\tt) external onlyOwner {\\n     ...\n      JUMPDEST \t\t\tt) external onlyOwner {\\n     ...\n      PUSH 0\t\t\t) ex\n      PUSH 20\t\t\tgW\n      DUP3 \t\t\t    found\n      ADD \t\t\t        foundingWa\n      SWAP1 \t\t\tOwner {\\n        foundingWa\n      POP \t\t\tOwner {\\n        foundingWa\n      PUSH [tag] 369\t\t\tlet;\\n    }\\n\\n    function se...\n      PUSH 0\t\t\te\n      DUP4 \t\t\t\\n        \n      ADD \t\t\ter {\\n        trea\n      DUP5 \t\t\tl only\n      PUSH [tag] 259\t\t\tlet;\\n    }\\n\\n    function se...\n      JUMP \t\t\tlet;\\n    }\\n\\n    function se...\n    tag 369\t\t\tlet;\\n    }\\n\\n    function se...\n      JUMPDEST \t\t\tlet;\\n    }\\n\\n    function se...\n      SWAP3 \t\t\tt) external onlyOwner {\\n     ...\n      SWAP2 \t\t\tt) external onlyOwner {\\n     ...\n      POP \t\t\tt) external onlyOwner {\\n     ...\n      POP \t\t\tt) external onlyOwner {\\n     ...\n      JUMP \t\t\tt) external onlyOwner {\\n     ...\n    tag 260\t\t\tallet;\\n    }\\n\\n    /* ------...\n      JUMPDEST \t\t\tallet;\\n    }\\n\\n    /* ------...\n      PUSH 4E487B7100000000000000000000000000000000000000000000000000000000\t\t\tOGIC ---------------- */\\n    ...\n      PUSH 0\t\t\tR\n      MSTORE \t\t\tTRANSFER LOGIC ---------------...\n      PUSH 22\t\t\tuint\n      PUSH 4\t\t\t \n      MSTORE \t\t\t,\\n        uint2\n      PUSH 24\t\t\terna\n      PUSH 0\t\t\ti\n      REVERT \t\t\t\\n    ) internal\n    tag 131\t\t\t       // mint / burn bypass\\n...\n      JUMPDEST \t\t\t       // mint / burn bypass\\n...\n      PUSH 0\t\t\tm == a\n      PUSH 2\t\t\t{\n      DUP3 \t\t\ts(0)\n      DIV \t\t\tdress(0)) {\\n\n      SWAP1 \t\t\t| to == address(0)) {\\n\n      POP \t\t\t| to == address(0)) {\\n\n      PUSH 1\t\t\t \n      DUP3 \t\t\t;\\n  \n      AND \t\t\tunt);\\n      \n      DUP1 \t\t\t   }\\n\\n        if (\n      PUSH [tag] 372\t\t\turn;\\n        }\\n\\n        if ...\n      JUMPI \t\t\turn;\\n        }\\n\\n        if ...\n      PUSH 7F\t\t\tsFee\n      DUP3 \t\t\tom] ||\n      AND \t\t\tt[from] || isFeeE\n      SWAP2 \t\t\tisFeeExempt[from] || isFeeE\n      POP \t\t\tisFeeExempt[from] || isFeeE\n    tag 372\t\t\turn;\\n        }\\n\\n        if ...\n      JUMPDEST \t\t\turn;\\n        }\\n\\n        if ...\n      PUSH 20\t\t\t  \n      DUP3 \t\t\tnt);\\n \n      LT \t\t\tmount);\\n      \n      DUP2 \t\t\ttransfer(from, to,\n      SUB \t\t\t  _transfer(from, to, amount);...\n      PUSH [tag] 373\t\t\t     _transfer(from, to, amoun...\n      JUMPI \t\t\t     _transfer(from, to, amoun...\n      PUSH [tag] 374\t\t\t      }\\n\\n        u\n      PUSH [tag] 260\t\t\t      }\\n\\n        u\n      JUMP \t\t\t      }\\n\\n        u\n    tag 374\t\t\t      }\\n\\n        u\n      JUMPDEST \t\t\t      }\\n\\n        u\n    tag 373\t\t\t     _transfer(from, to, amoun...\n      JUMPDEST \t\t\t     _transfer(from, to, amoun...\n      POP \t\t\tdress(0) || to == address(0)) ...\n      SWAP2 \t\t\t       // mint / burn bypass\\n...\n      SWAP1 \t\t\t       // mint / burn bypass\\n...\n      POP \t\t\t       // mint / burn bypass\\n...\n      JUMP \t\t\t       // mint / burn bypass\\n...\n    tag 261\t\t\tundingFeeBP + rewardFeeBP + tr...\n      JUMPDEST \t\t\tundingFeeBP + rewardFeeBP + tr...\n      PUSH 4F776E61626C653A2063616C6C6572206973206E6F7420746865206F776E6572\t\t\tount * foundingFeeBP) / 10_000...\n      PUSH 0\t\t\t \n      DUP3 \t\t\tunding\n      ADD \t\t\teeFounding = (\n      MSTORE \t\t\tnt256 feeFounding = (amount * ...\n      POP \t\t\tundingFeeBP + rewardFeeBP + tr...\n      JUMP \t\t\tundingFeeBP + rewardFeeBP + tr...\n    tag 262\t\t\tfeeReward = (amount * rewardFe...\n      JUMPDEST \t\t\tfeeReward = (amount * rewardFe...\n      PUSH 0\t\t\tnt \n      PUSH [tag] 377\t\t\teReward - feeTreasury;\\n\\n    ...\n      PUSH 20\t\t\t  \n      DUP4 \t\t\tnt)\n      PUSH [tag] 233\t\t\teReward - feeTreasury;\\n\\n    ...\n      JUMP \t\t\teReward - feeTreasury;\\n\\n    ...\n    tag 377\t\t\teReward - feeTreasury;\\n\\n    ...\n      JUMPDEST \t\t\teReward - feeTreasury;\\n\\n    ...\n      SWAP2 \t\t\tng - feeReward - feeTreasury;\\...\n      POP \t\t\tng - feeReward - feeTreasury;\\...\n      PUSH [tag] 378\t\t\tnsfer(from, foundingWallet, fe...\n      DUP3 \t\t\tsur\n      PUSH [tag] 261\t\t\tnsfer(from, foundingWallet, fe...\n      JUMP \t\t\tnsfer(from, foundingWallet, fe...\n    tag 378\t\t\tnsfer(from, foundingWallet, fe...\n      JUMPDEST \t\t\tnsfer(from, foundingWallet, fe...\n      PUSH 20\t\t\t, \n      DUP3 \t\t\t(fr\n      ADD \t\t\tsfer(from, a\n      SWAP1 \t\t\t  _transfer(from, a\n      POP \t\t\t  _transfer(from, a\n      SWAP2 \t\t\tfeeReward = (amount * rewardFe...\n      SWAP1 \t\t\tfeeReward = (amount * rewardFe...\n      POP \t\t\tfeeReward = (amount * rewardFe...\n      JUMP \t\t\tfeeReward = (amount * rewardFe...\n    tag 146\t\t\t), feeReward);\\n\\n        vaul...\n      JUMPDEST \t\t\t), feeReward);\\n\\n        vaul...\n      PUSH 0\t\t\t20 p\n      PUSH 20\t\t\t p\n      DUP3 \t\t\t    addre\n      ADD \t\t\ten;\\n    address pu\n      SWAP1 \t\t\table token;\\n    address pu\n      POP \t\t\table token;\\n    address pu\n      DUP2 \t\t\tnt256 las\n      DUP2 \t\t\t    \n      SUB \t\t\t        uint256 last\n      PUSH 0\t\t\tr\n      DUP4 \t\t\ttruct Hol\n      ADD \t\t\t   struct Holder \n      MSTORE \t\t\tury;\\n\\n    struct Holder {\\n ...\n      PUSH [tag] 380\t\t\tt256 totalClaimed;\\n    }\\n\\n ...\n      DUP2 \t\t\tewar\n      PUSH [tag] 262\t\t\tt256 totalClaimed;\\n    }\\n\\n ...\n      JUMP \t\t\tt256 totalClaimed;\\n    }\\n\\n ...\n    tag 380\t\t\tt256 totalClaimed;\\n    }\\n\\n ...\n      JUMPDEST \t\t\tt256 totalClaimed;\\n    }\\n\\n ...\n      SWAP1 \t\t\t     uint256 totalClaimed;\\n  ...\n      POP \t\t\t     uint256 totalClaimed;\\n  ...\n      SWAP2 \t\t\t), feeReward);\\n\\n        vaul...\n      SWAP1 \t\t\t), feeReward);\\n\\n        vaul...\n      POP \t\t\t), feeReward);\\n\\n        vaul...\n      JUMP \t\t\t), feeReward);\\n\\n        vaul...\n    tag 263\t\t\tC20Extended public payoutToken...\n      JUMPDEST \t\t\tC20Extended public payoutToken...\n      PUSH 4F776E61626C653A206E6577206F776E6572206973207A65726F206164647265\t\t\t    address treasuryAddress\\n ...\n      PUSH 0\t\t\t \n      DUP3 \t\t\tddress\n      ADD \t\t\tkenAddress,\\n  \n      MSTORE \t\t\tress tokenAddress,\\n        ad...\n      PUSH 7373000000000000000000000000000000000000000000000000000000000000\t\t\t = E\n      PUSH 20\t\t\tto\n      DUP3 \t\t\t      \n      ADD \t\t\t) {\\n        tok\n      MSTORE \t\t\t.sender) {\\n        token = ER\n      POP \t\t\tC20Extended public payoutToken...\n      JUMP \t\t\tC20Extended public payoutToken...\n    tag 264\t\t\tess);\\n        treasury = trea...\n      JUMPDEST \t\t\tess);\\n        treasury = trea...\n      PUSH 0\t\t\t---\n      PUSH [tag] 383\t\t\t  function updateHolderShare(a...\n      PUSH 22\t\t\t{\\n\n      DUP4 \t\t\trna\n      PUSH [tag] 233\t\t\t  function updateHolderShare(a...\n      JUMP \t\t\t  function updateHolderShare(a...\n    tag 383\t\t\t  function updateHolderShare(a...\n      JUMPDEST \t\t\t  function updateHolderShare(a...\n      SWAP2 \t\t\t- */\\n    function updateHolde...\n      POP \t\t\t- */\\n    function updateHolde...\n      PUSH [tag] 384\t\t\tquire(msg.sender == address(to...\n      DUP3 \t\t\tder\n      PUSH [tag] 263\t\t\tquire(msg.sender == address(to...\n      JUMP \t\t\tquire(msg.sender == address(to...\n    tag 384\t\t\tquire(msg.sender == address(to...\n      JUMPDEST \t\t\tquire(msg.sender == address(to...\n      PUSH 40\t\t\t  \n      DUP3 \t\t\t0) \n      ADD \t\t\t == 0) {\\n   \n      SWAP1 \t\t\tstClaim == 0) {\\n   \n      POP \t\t\tstClaim == 0) {\\n   \n      SWAP2 \t\t\tess);\\n        treasury = trea...\n      SWAP1 \t\t\tess);\\n        treasury = trea...\n      POP \t\t\tess);\\n        treasury = trea...\n      JUMP \t\t\tess);\\n        treasury = trea...\n    tag 202\t\t\tderList.push(from);\\n        }...\n      JUMPDEST \t\t\tderList.push(from);\\n        }...\n      PUSH 0\t\t\tance\n      PUSH 20\t\t\t--\n      DUP3 \t\t\t}\\n\\n    /*\n      ADD \t\t\t    }\\n\\n    /* ----\n      SWAP1 \t\t\tthis));\\n    }\\n\\n    /* ----\n      POP \t\t\tthis));\\n    }\\n\\n    /* ----\n      DUP2 \t\t\t   functi\n      DUP2 \t\t\t- */\n      SUB \t\t\t----- */\\n    functio\n      PUSH 0\t\t\t-\n      DUP4 \t\t\tGIC -----\n      ADD \t\t\tM LOGIC ---------\n      MSTORE \t\t\t-- CLAIM LOGIC ---------------...\n      PUSH [tag] 386\t\t\t {\\n        _claim(msg.sender)...\n      DUP2 \t\t\t.len\n      PUSH [tag] 264\t\t\t {\\n        _claim(msg.sender)...\n      JUMP \t\t\t {\\n        _claim(msg.sender)...\n    tag 386\t\t\t {\\n        _claim(msg.sender)...\n      JUMPDEST \t\t\t {\\n        _claim(msg.sender)...\n      SWAP1 \t\t\texternal {\\n        _claim(msg...\n      POP \t\t\texternal {\\n        _claim(msg...\n      SWAP2 \t\t\tderList.push(from);\\n        }...\n      SWAP1 \t\t\tderList.push(from);\\n        }...\n      POP \t\t\tderList.push(from);\\n        }...\n      JUMP \t\t\tderList.push(from);\\n        }...\n    tag 265\t\t\tint256 processed;\\n        for...\n      JUMPDEST \t\t\tint256 processed;\\n        for...\n      PUSH 45524332303A20617070726F76652066726F6D207A65726F2061646472657373\t\t\t+;\\n        }\\n    }\\n\\n    fu...\n      PUSH 0\t\t\ts\n      DUP3 \t\t\t  proc\n      ADD \t\t\t      processe\n      MSTORE \t\t\t\\n            processed++;\\n  ...\n      POP \t\t\tint256 processed;\\n        for...\n      JUMP \t\t\tint256 processed;\\n        for...\n    tag 266\t\t\tuser) internal {\\n        uint...\n      JUMPDEST \t\t\tuser) internal {\\n        uint...\n      PUSH 0\t\t\t= (\n      PUSH [tag] 389\t\t\tce) / token.totalSupply();\\n  ...\n      PUSH 20\t\t\t  \n      DUP4 \t\t\t\\n  \n      PUSH [tag] 233\t\t\tce) / token.totalSupply();\\n  ...\n      JUMP \t\t\tce) / token.totalSupply();\\n  ...\n    tag 389\t\t\tce) / token.totalSupply();\\n  ...\n      JUMPDEST \t\t\tce) / token.totalSupply();\\n  ...\n      SWAP2 \t\t\t* balance) / token.totalSupply...\n      POP \t\t\t* balance) / token.totalSupply...\n      PUSH [tag] 390\t\t\tuser].totalClaimed += share;\\n...\n      DUP3 \t\t\tewa\n      PUSH [tag] 265\t\t\tuser].totalClaimed += share;\\n...\n      JUMP \t\t\tuser].totalClaimed += share;\\n...\n    tag 390\t\t\tuser].totalClaimed += share;\\n...\n      JUMPDEST \t\t\tuser].totalClaimed += share;\\n...\n      PUSH 20\t\t\tpa\n      DUP3 \t\t\t   \n      ADD \t\t\t\\n        pay\n      SWAP1 \t\t\tshare;\\n\\n        pay\n      POP \t\t\tshare;\\n\\n        pay\n      SWAP2 \t\t\tuser) internal {\\n        uint...\n      SWAP1 \t\t\tuser) internal {\\n        uint...\n      POP \t\t\tuser) internal {\\n        uint...\n      JUMP \t\t\tuser) internal {\\n        uint...\n    tag 208\t\t\tnsfer(user, share);\\n        e...\n      JUMPDEST \t\t\tnsfer(user, share);\\n        e...\n      PUSH 0\t\t\texte\n      PUSH 20\t\t\tmo\n      DUP3 \t\t\t  require\n      ADD \t\t\t      require(amou\n      SWAP1 \t\t\tner {\\n        require(amou\n      POP \t\t\tner {\\n        require(amou\n      DUP2 \t\t\t treasury\n      DUP2 \t\t\ticie\n      SUB \t\t\tsufficient treasury\"\n      PUSH 0\t\t\t \n      DUP4 \t\t\t(treasury\n      ADD \t\t\tceOf(treasury), \"\n      MSTORE \t\t\tn.balanceOf(treasury), \"Insuff...\n      PUSH [tag] 392\t\t\transferFrom(treasury, address(...\n      DUP2 \t\t\ttTok\n      PUSH [tag] 266\t\t\transferFrom(treasury, address(...\n      JUMP \t\t\transferFrom(treasury, address(...\n    tag 392\t\t\transferFrom(treasury, address(...\n      JUMPDEST \t\t\transferFrom(treasury, address(...\n      SWAP1 \t\t\t token.transferFrom(treasury, ...\n      POP \t\t\t token.transferFrom(treasury, ...\n      SWAP2 \t\t\tnsfer(user, share);\\n        e...\n      SWAP1 \t\t\tnsfer(user, share);\\n        e...\n      POP \t\t\tnsfer(user, share);\\n        e...\n      JUMP \t\t\tnsfer(user, share);\\n        e...\n    tag 267\t\t\tenAddress) external onlyOwner ...\n      JUMPDEST \t\t\tenAddress) external onlyOwner ...\n      PUSH 45524332303A20617070726F766520746F207A65726F20616464726573730000\t\t\t    function holdersCount() ex...\n      PUSH 0\t\t\t \n      DUP3 \t\t\t------\n      ADD \t\t\t------------ *\n      MSTORE \t\t\tEW ---------------- */\\n    fu...\n      POP \t\t\tenAddress) external onlyOwner ...\n      JUMP \t\t\tenAddress) external onlyOwner ...\n    tag 268\t\t\trns (uint256) {\\n        retur...\n      JUMPDEST \t\t\trns (uint256) {\\n        retur...\n      PUSH 0\t\t\t\n      PUSH [tag] 395\t\t\t\n      PUSH 1E\t\t\t\n      DUP4 \t\t\t\n      PUSH [tag] 233\t\t\t\n      JUMP \t\t\t\n    tag 395\t\t\t\n      JUMPDEST \t\t\t\n      SWAP2 \t\t\t\n      POP \t\t\t\n      PUSH [tag] 396\t\t\t\n      DUP3 \t\t\t\n      PUSH [tag] 267\t\t\t\n      JUMP \t\t\t\n    tag 396\t\t\t\n      JUMPDEST \t\t\t\n      PUSH 20\t\t\t\n      DUP3 \t\t\t\n      ADD \t\t\t\n      SWAP1 \t\t\t\n      POP \t\t\t\n      SWAP2 \t\t\trns (uint256) {\\n        retur...\n      SWAP1 \t\t\trns (uint256) {\\n        retur...\n      POP \t\t\trns (uint256) {\\n        retur...\n      JUMP \t\t\trns (uint256) {\\n        retur...\n    tag 211\t\t\t\n      JUMPDEST \t\t\t\n      PUSH 0\t\t\t\n      PUSH 20\t\t\t\n      DUP3 \t\t\t\n      ADD \t\t\t\n      SWAP1 \t\t\t\n      POP \t\t\t\n      DUP2 \t\t\t\n      DUP2 \t\t\t\n      SUB \t\t\t\n      PUSH 0\t\t\t\n      DUP4 \t\t\t\n      ADD \t\t\t\n      MSTORE \t\t\t\n      PUSH [tag] 398\t\t\t\n      DUP2 \t\t\t\n      PUSH [tag] 268\t\t\t\n      JUMP \t\t\t\n    tag 398\t\t\t\n      JUMPDEST \t\t\t\n      SWAP1 \t\t\t\n      POP \t\t\t\n      SWAP2 \t\t\t\n      SWAP1 \t\t\t\n      POP \t\t\t\n      JUMP \t\t\t\n    tag 269\t\t\t\n      JUMPDEST \t\t\t\n      PUSH 45524332303A20696E73756666696369656E7420616C6C6F77616E6365000000\t\t\t\n      PUSH 0\t\t\t\n      DUP3 \t\t\t\n      ADD \t\t\t\n      MSTORE \t\t\t\n      POP \t\t\t\n      JUMP \t\t\t\n    tag 270\t\t\t\n      JUMPDEST \t\t\t\n      PUSH 0\t\t\t\n      PUSH [tag] 401\t\t\t\n      PUSH 1D\t\t\t\n      DUP4 \t\t\t\n      PUSH [tag] 233\t\t\t\n      JUMP \t\t\t\n    tag 401\t\t\t\n      JUMPDEST \t\t\t\n      SWAP2 \t\t\t\n      POP \t\t\t\n      PUSH [tag] 402\t\t\t\n      DUP3 \t\t\t\n      PUSH [tag] 269\t\t\t\n      JUMP \t\t\t\n    tag 402\t\t\t\n      JUMPDEST \t\t\t\n      PUSH 20\t\t\t\n      DUP3 \t\t\t\n      ADD \t\t\t\n      SWAP1 \t\t\t\n      POP \t\t\t\n      SWAP2 \t\t\t\n      SWAP1 \t\t\t\n      POP \t\t\t\n      JUMP \t\t\t\n    tag 218\t\t\t\n      JUMPDEST \t\t\t\n      PUSH 0\t\t\t\n      PUSH 20\t\t\t\n      DUP3 \t\t\t\n      ADD \t\t\t\n      SWAP1 \t\t\t\n      POP \t\t\t\n      DUP2 \t\t\t\n      DUP2 \t\t\t\n      SUB \t\t\t\n      PUSH 0\t\t\t\n      DUP4 \t\t\t\n      ADD \t\t\t\n      MSTORE \t\t\t\n      PUSH [tag] 404\t\t\t\n      DUP2 \t\t\t\n      PUSH [tag] 270\t\t\t\n      JUMP \t\t\t\n    tag 404\t\t\t\n      JUMPDEST \t\t\t\n      SWAP1 \t\t\t\n      POP \t\t\t\n      SWAP2 \t\t\t\n      SWAP1 \t\t\t\n      POP \t\t\t\n      JUMP \t\t\t\n    tag 271\t\t\t\n      JUMPDEST \t\t\t\n      PUSH 45524332303A207472616E7366657220616D6F756E7420657863656564732062\t\t\t\n      PUSH 0\t\t\t\n      DUP3 \t\t\t\n      ADD \t\t\t\n      MSTORE \t\t\t\n      PUSH 616C616E63650000000000000000000000000000000000000000000000000000\t\t\t\n      PUSH 20\t\t\t\n      DUP3 \t\t\t\n      ADD \t\t\t\n      MSTORE \t\t\t\n      POP \t\t\t\n      JUMP \t\t\t\n    tag 272\t\t\t\n      JUMPDEST \t\t\t\n      PUSH 0\t\t\t\n      PUSH [tag] 407\t\t\t\n      PUSH 26\t\t\t\n      DUP4 \t\t\t\n      PUSH [tag] 233\t\t\t\n      JUMP \t\t\t\n    tag 407\t\t\t\n      JUMPDEST \t\t\t\n      SWAP2 \t\t\t\n      POP \t\t\t\n      PUSH [tag] 408\t\t\t\n      DUP3 \t\t\t\n      PUSH [tag] 271\t\t\t\n      JUMP \t\t\t\n    tag 408\t\t\t\n      JUMPDEST \t\t\t\n      PUSH 40\t\t\t\n      DUP3 \t\t\t\n      ADD \t\t\t\n      SWAP1 \t\t\t\n      POP \t\t\t\n      SWAP2 \t\t\t\n      SWAP1 \t\t\t\n      POP \t\t\t\n      JUMP \t\t\t\n    tag 225\t\t\t\n      JUMPDEST \t\t\t\n      PUSH 0\t\t\t\n      PUSH 20\t\t\t\n      DUP3 \t\t\t\n      ADD \t\t\t\n      SWAP1 \t\t\t\n      POP \t\t\t\n      DUP2 \t\t\t\n      DUP2 \t\t\t\n      SUB \t\t\t\n      PUSH 0\t\t\t\n      DUP4 \t\t\t\n      ADD \t\t\t\n      MSTORE \t\t\t\n      PUSH [tag] 410\t\t\t\n      DUP2 \t\t\t\n      PUSH [tag] 272\t\t\t\n      JUMP \t\t\t\n    tag 410\t\t\t\n      JUMPDEST \t\t\t\n      SWAP1 \t\t\t\n      POP \t\t\t\n      SWAP2 \t\t\t\n      SWAP1 \t\t\t\n      POP \t\t\t\n      JUMP \t\t\t\n    .data\n  1:\n    .code\n      PUSH A0\t\t\tcontract DividendVault is Owna...\n      PUSH 40\t\t\tcontract DividendVault is Owna...\n      MSTORE \t\t\tcontract DividendVault is Owna...\n      CALLVALUE \t\t\tconstructor(\\n        address ...\n      DUP1 \t\t\tconstructor(\\n        address ...\n      ISZERO \t\t\tconstructor(\\n        address ...\n      PUSH [tag] 1\t\t\tconstructor(\\n        address ...\n      JUMPI \t\t\tconstructor(\\n        address ...\n      PUSH 0\t\t\tconstructor(\\n        address ...\n      DUP1 \t\t\tconstructor(\\n        address ...\n      REVERT \t\t\tconstructor(\\n        address ...\n    tag 1\t\t\tconstructor(\\n        address ...\n      JUMPDEST \t\t\tconstructor(\\n        address ...\n      POP \t\t\tconstructor(\\n        address ...\n      PUSH 40\t\t\tconstructor(\\n        address ...\n      MLOAD \t\t\tconstructor(\\n        address ...\n      PUSHSIZE \t\t\tconstructor(\\n        address ...\n      CODESIZE \t\t\tconstructor(\\n        address ...\n      SUB \t\t\tconstructor(\\n        address ...\n      DUP1 \t\t\tconstructor(\\n        address ...\n      PUSHSIZE \t\t\tconstructor(\\n        address ...\n      DUP4 \t\t\tconstructor(\\n        address ...\n      CODECOPY \t\t\tconstructor(\\n        address ...\n      DUP2 \t\t\tconstructor(\\n        address ...\n      DUP2 \t\t\tconstructor(\\n        address ...\n      ADD \t\t\tconstructor(\\n        address ...\n      PUSH 40\t\t\tconstructor(\\n        address ...\n      MSTORE \t\t\tconstructor(\\n        address ...\n      DUP2 \t\t\tconstructor(\\n        address ...\n      ADD \t\t\tconstructor(\\n        address ...\n      SWAP1 \t\t\tconstructor(\\n        address ...\n      PUSH [tag] 2\t\t\tconstructor(\\n        address ...\n      SWAP2 \t\t\tconstructor(\\n        address ...\n      SWAP1 \t\t\tconstructor(\\n        address ...\n      PUSH [tag] 3\t\t\tconstructor(\\n        address ...\n      JUMP \t\t\tconstructor(\\n        address ...\n    tag 2\t\t\tconstructor(\\n        address ...\n      JUMPDEST \t\t\tconstructor(\\n        address ...\n      CALLER \t\t\tmsg.sender\n      PUSH [tag] 7\t\t\t_transferOwnership(initialOwne...\n      DUP2 \t\t\tinitialOwner\n      PUSH [tag] 8\t\t\t_transferOwnership\n      PUSH 20\t\t\t_transferOwnership\n      SHL \t\t\t_transferOwnership\n      PUSH 20\t\t\t_transferOwnership(initialOwne...\n      SHR \t\t\t_transferOwnership(initialOwne...\n      JUMP \t\t\t_transferOwnership(initialOwne...\n    tag 7\t\t\t_transferOwnership(initialOwne...\n      JUMPDEST \t\t\t_transferOwnership(initialOwne...\n      POP \t\t\tconstructor(address initialOwn...\n      DUP2 \t\t\ttokenAddress\n      PUSH FFFFFFFFFFFFFFFFFFFFFFFFFFFFFFFFFFFFFFFF\t\t\ttoken = ERC20(tokenAddress)\n      AND \t\t\ttoken = ERC20(tokenAddress)\n      PUSH 80\t\t\ttoken = ERC20(tokenAddress)\n      DUP2 \t\t\ttoken = ERC20(tokenAddress)\n      PUSH FFFFFFFFFFFFFFFFFFFFFFFFFFFFFFFFFFFFFFFF\t\t\ttoken = ERC20(tokenAddress)\n      AND \t\t\ttoken = ERC20(tokenAddress)\n      DUP2 \t\t\ttoken = ERC20(tokenAddress)\n      MSTORE \t\t\ttoken = ERC20(tokenAddress)\n      POP \t\t\ttoken = ERC20(tokenAddress)\n      POP \t\t\ttoken = ERC20(tokenAddress)\n      DUP1 \t\t\ttreasuryAddress\n      PUSH 1\t\t\ttreasury\n      PUSH 0\t\t\ttreasury\n      PUSH 100\t\t\ttreasury = treasuryAddress\n      EXP \t\t\ttreasury = treasuryAddress\n      DUP2 \t\t\ttreasury = treasuryAddress\n      SLOAD \t\t\ttreasury = treasuryAddress\n      DUP2 \t\t\ttreasury = treasuryAddress\n      PUSH FFFFFFFFFFFFFFFFFFFFFFFFFFFFFFFFFFFFFFFF\t\t\ttreasury = treasuryAddress\n      MUL \t\t\ttreasury = treasuryAddress\n      NOT \t\t\ttreasury = treasuryAddress\n      AND \t\t\ttreasury = treasuryAddress\n      SWAP1 \t\t\ttreasury = treasuryAddress\n      DUP4 \t\t\ttreasury = treasuryAddress\n      PUSH FFFFFFFFFFFFFFFFFFFFFFFFFFFFFFFFFFFFFFFF\t\t\ttreasury = treasuryAddress\n      AND \t\t\ttreasury = treasuryAddress\n      MUL \t\t\ttreasury = treasuryAddress\n      OR \t\t\ttreasury = treasuryAddress\n      SWAP1 \t\t\ttreasury = treasuryAddress\n      SSTORE \t\t\ttreasury = treasuryAddress\n      POP \t\t\ttreasury = treasuryAddress\n      DUP2 \t\t\ttokenAddress\n      PUSH 5\t\t\tpayoutToken\n      PUSH 0\t\t\tpayoutToken\n      PUSH 100\t\t\tpayoutToken = IERC20Extended(t...\n      EXP \t\t\tpayoutToken = IERC20Extended(t...\n      DUP2 \t\t\tpayoutToken = IERC20Extended(t...\n      SLOAD \t\t\tpayoutToken = IERC20Extended(t...\n      DUP2 \t\t\tpayoutToken = IERC20Extended(t...\n      PUSH FFFFFFFFFFFFFFFFFFFFFFFFFFFFFFFFFFFFFFFF\t\t\tpayoutToken = IERC20Extended(t...\n      MUL \t\t\tpayoutToken = IERC20Extended(t...\n      NOT \t\t\tpayoutToken = IERC20Extended(t...\n      AND \t\t\tpayoutToken = IERC20Extended(t...\n      SWAP1 \t\t\tpayoutToken = IERC20Extended(t...\n      DUP4 \t\t\tpayoutToken = IERC20Extended(t...\n      PUSH FFFFFFFFFFFFFFFFFFFFFFFFFFFFFFFFFFFFFFFF\t\t\tpayoutToken = IERC20Extended(t...\n      AND \t\t\tpayoutToken = IERC20Extended(t...\n      MUL \t\t\tpayoutToken = IERC20Extended(t...\n      OR \t\t\tpayoutToken = IERC20Extended(t...\n      SWAP1 \t\t\tpayoutToken = IERC20Extended(t...\n      SSTORE \t\t\tpayoutToken = IERC20Extended(t...\n      POP \t\t\tpayoutToken = IERC20Extended(t...\n      POP \t\t\tconstructor(\\n        address ...\n      POP \t\t\tconstructor(\\n        address ...\n      PUSH [tag] 10\t\t\tcontract DividendVault is Owna...\n      JUMP \t\t\tcontract DividendVault is Owna...\n    tag 8\t\t\tfunction _transferOwnership(ad...\n      JUMPDEST \t\t\tfunction _transferOwnership(ad...\n      PUSH 0\t\t\taddress oldOwner\n      DUP1 \t\t\t_owner\n      PUSH 0\t\t\t_owner\n      SWAP1 \t\t\t_owner\n      SLOAD \t\t\t_owner\n      SWAP1 \t\t\t_owner\n      PUSH 100\t\t\t_owner\n      EXP \t\t\t_owner\n      SWAP1 \t\t\t_owner\n      DIV \t\t\t_owner\n      PUSH FFFFFFFFFFFFFFFFFFFFFFFFFFFFFFFFFFFFFFFF\t\t\t_owner\n      AND \t\t\t_owner\n      SWAP1 \t\t\taddress oldOwner = _owner\n      POP \t\t\taddress oldOwner = _owner\n      DUP2 \t\t\tnewOwner\n      PUSH 0\t\t\t_owner\n      DUP1 \t\t\t_owner\n      PUSH 100\t\t\t_owner = newOwner\n      EXP \t\t\t_owner = newOwner\n      DUP2 \t\t\t_owner = newOwner\n      SLOAD \t\t\t_owner = newOwner\n      DUP2 \t\t\t_owner = newOwner\n      PUSH FFFFFFFFFFFFFFFFFFFFFFFFFFFFFFFFFFFFFFFF\t\t\t_owner = newOwner\n      MUL \t\t\t_owner = newOwner\n      NOT \t\t\t_owner = newOwner\n      AND \t\t\t_owner = newOwner\n      SWAP1 \t\t\t_owner = newOwner\n      DUP4 \t\t\t_owner = newOwner\n      PUSH FFFFFFFFFFFFFFFFFFFFFFFFFFFFFFFFFFFFFFFF\t\t\t_owner = newOwner\n      AND \t\t\t_owner = newOwner\n      MUL \t\t\t_owner = newOwner\n      OR \t\t\t_owner = newOwner\n      SWAP1 \t\t\t_owner = newOwner\n      SSTORE \t\t\t_owner = newOwner\n      POP \t\t\t_owner = newOwner\n      DUP2 \t\t\tnewOwner\n      PUSH FFFFFFFFFFFFFFFFFFFFFFFFFFFFFFFFFFFFFFFF\t\t\tOwnershipTransferred(oldOwner,...\n      AND \t\t\tOwnershipTransferred(oldOwner,...\n      DUP2 \t\t\toldOwner\n      PUSH FFFFFFFFFFFFFFFFFFFFFFFFFFFFFFFFFFFFFFFF\t\t\tOwnershipTransferred(oldOwner,...\n      AND \t\t\tOwnershipTransferred(oldOwner,...\n      PUSH 8BE0079C531659141344CD1FD0A4F28419497F9722A3DAAFE3B4186F6B6457E0\t\t\tOwnershipTransferred(oldOwner,...\n      PUSH 40\t\t\tOwnershipTransferred(oldOwner,...\n      MLOAD \t\t\tOwnershipTransferred(oldOwner,...\n      PUSH 40\t\t\tOwnershipTransferred(oldOwner,...\n      MLOAD \t\t\tOwnershipTransferred(oldOwner,...\n      DUP1 \t\t\tOwnershipTransferred(oldOwner,...\n      SWAP2 \t\t\tOwnershipTransferred(oldOwner,...\n      SUB \t\t\tOwnershipTransferred(oldOwner,...\n      SWAP1 \t\t\tOwnershipTransferred(oldOwner,...\n      LOG3 \t\t\tOwnershipTransferred(oldOwner,...\n      POP \t\t\t{\\n        address oldOwner = ...\n      POP \t\t\tfunction _transferOwnership(ad...\n      JUMP \t\t\tfunction _transferOwnership(ad...\n    tag 13\t\t\tIN DEPENDENCIES --------------...\n      JUMPDEST \t\t\tIN DEPENDENCIES --------------...\n      PUSH 0\t\t\tn\n      DUP1 \t\t\t/\n      REVERT \t\t\tEIP.\\n */\\nint\n    tag 15\t\t\tns (uint256);\\n    function tr...\n      JUMPDEST \t\t\tns (uint256);\\n    function tr...\n      PUSH 0\t\t\tddress \n      PUSH FFFFFFFFFFFFFFFFFFFFFFFFFFFFFFFFFFFFFFFF\t\t\trns (bool);\\n    function allo...\n      DUP3 \t\t\tal re\n      AND \t\t\tternal returns (bool);\\n    fu...\n      SWAP1 \t\t\t amount) external returns (boo...\n      POP \t\t\t amount) external returns (boo...\n      SWAP2 \t\t\tns (uint256);\\n    function tr...\n      SWAP1 \t\t\tns (uint256);\\n    function tr...\n      POP \t\t\tns (uint256);\\n    function tr...\n      JUMP \t\t\tns (uint256);\\n    function tr...\n    tag 16\t\t\tss spender) external view retu...\n      JUMPDEST \t\t\tss spender) external view retu...\n      PUSH 0\t\t\tnt256);\n      PUSH [tag] 25\t\t\taddress spender, uint256\n      DUP3 \t\t\tint25\n      PUSH [tag] 15\t\t\taddress spender, uint256\n      JUMP \t\t\taddress spender, uint256\n    tag 25\t\t\taddress spender, uint256\n      JUMPDEST \t\t\taddress spender, uint256\n      SWAP1 \t\t\ton approve(address spender, ui...\n      POP \t\t\ton approve(address spender, ui...\n      SWAP2 \t\t\tss spender) external view retu...\n      SWAP1 \t\t\tss spender) external view retu...\n      POP \t\t\tss spender) external view retu...\n      JUMP \t\t\tss spender) external view retu...\n    tag 17\t\t\ternal returns (bool);\\n    fun...\n      JUMPDEST \t\t\ternal returns (bool);\\n    fun...\n      PUSH [tag] 27\t\t\t      address to,\\n      \n      DUP2 \t\t\t     \n      PUSH [tag] 16\t\t\t      address to,\\n      \n      JUMP \t\t\t      address to,\\n      \n    tag 27\t\t\t      address to,\\n      \n      JUMPDEST \t\t\t      address to,\\n      \n      DUP2 \t\t\trom,\\n\n      EQ \t\t\ts from,\\n        address to,\\n...\n      PUSH [tag] 28\t\t\t    address from,\\n        add...\n      JUMPI \t\t\t    address from,\\n        add...\n      PUSH 0\t\t\tt\n      DUP1 \t\t\to\n      REVERT \t\t\tt256 amount\\n\n    tag 28\t\t\t    address from,\\n        add...\n      JUMPDEST \t\t\t    address from,\\n        add...\n      POP \t\t\ternal returns (bool);\\n    fun...\n      JUMP \t\t\ternal returns (bool);\\n    fun...\n    tag 18\t\t\t returns (bool);\\n    event Tr...\n      JUMPDEST \t\t\t returns (bool);\\n    event Tr...\n      PUSH 0\t\t\t addr\n      DUP2 \t\t\tlue);\\n\n      MLOAD \t\t\t256 value);\\n \n      SWAP1 \t\t\t to, uint256 value);\\n \n      POP \t\t\t to, uint256 value);\\n \n      PUSH [tag] 30\t\t\tApproval(address indexed owner...\n      DUP2 \t\t\tner, \n      PUSH [tag] 17\t\t\tApproval(address indexed owner...\n      JUMP \t\t\tApproval(address indexed owner...\n    tag 30\t\t\tApproval(address indexed owner...\n      JUMPDEST \t\t\tApproval(address indexed owner...\n      SWAP3 \t\t\t returns (bool);\\n    event Tr...\n      SWAP2 \t\t\t returns (bool);\\n    event Tr...\n      POP \t\t\t returns (bool);\\n    event Tr...\n      POP \t\t\t returns (bool);\\n    event Tr...\n      JUMP \t\t\t returns (bool);\\n    event Tr...\n    tag 3\t\t\ted spender, uint256 value);\\n}...\n      JUMPDEST \t\t\ted spender, uint256 value);\\n}...\n      PUSH 0\t\t\tnt exe\n      DUP1 \t\t\ttion c\n      PUSH 40\t\t\t f\n      DUP4 \t\t\tontext {\\n\n      DUP6 \t\t\tontract\n      SUB \t\t\tct contract Context {\\n \n      SLT \t\t\tstract contract Context {\\n   ...\n      ISZERO \t\t\t\\nabstract contract Context {\\...\n      PUSH [tag] 32\t\t\t\\nabstract contract Context {\\...\n      JUMPI \t\t\t\\nabstract contract Context {\\...\n      PUSH [tag] 33\t\t\tion _msgSender() internal view...\n      PUSH [tag] 13\t\t\tion _msgSender() internal view...\n      JUMP \t\t\tion _msgSender() internal view...\n    tag 33\t\t\tion _msgSender() internal view...\n      JUMPDEST \t\t\tion _msgSender() internal view...\n    tag 32\t\t\t\\nabstract contract Context {\\...\n      JUMPDEST \t\t\t\\nabstract contract Context {\\...\n      PUSH 0\t\t\tr\n      PUSH [tag] 34\t\t\t (bytes calldata) {\\n        r...\n      DUP6 \t\t\t*\\n * @d\n      DUP3 \t\t\t  }\\n}\\n\n      DUP7 \t\t\tsg.data;\\n\n      ADD \t\t\trn msg.data;\\n    }\\n}\\n\\n\n      PUSH [tag] 18\t\t\t (bytes calldata) {\\n        r...\n      JUMP \t\t\t (bytes calldata) {\\n        r...\n    tag 34\t\t\t (bytes calldata) {\\n        r...\n      JUMPDEST \t\t\t (bytes calldata) {\\n        r...\n      SWAP3 \t\t\tal returns (bytes calldata) {\\...\n      POP \t\t\tal returns (bytes calldata) {\\...\n      POP \t\t\t\\n    function _msgData() inte...\n      PUSH 20\t\t\ton\n      PUSH [tag] 35\t\t\tIERC20 {\\n    mapping(address ...\n      DUP6 \t\t\tes;\\n   \n      DUP3 \t\t\te _bal\n      DUP7 \t\t\t256) priv\n      ADD \t\t\tuint256) private _bala\n      PUSH [tag] 18\t\t\tIERC20 {\\n    mapping(address ...\n      JUMP \t\t\tIERC20 {\\n    mapping(address ...\n    tag 35\t\t\tIERC20 {\\n    mapping(address ...\n      JUMPDEST \t\t\tIERC20 {\\n    mapping(address ...\n      SWAP2 \t\t\t Context, IERC20 {\\n    mappin...\n      POP \t\t\t Context, IERC20 {\\n    mappin...\n      POP \t\t\tthe {IERC20} interface.\\n */\\n...\n      SWAP3 \t\t\ted spender, uint256 value);\\n}...\n      POP \t\t\ted spender, uint256 value);\\n}...\n      SWAP3 \t\t\ted spender, uint256 value);\\n}...\n      SWAP1 \t\t\ted spender, uint256 value);\\n}...\n      POP \t\t\ted spender, uint256 value);\\n}...\n      JUMP \t\t\ted spender, uint256 value);\\n}...\n    tag 10\t\t\tcontract DividendVault is Owna...\n      JUMPDEST \t\t\tcontract DividendVault is Owna...\n      PUSH 80\t\t\tcontract DividendVault is Owna...\n      MLOAD \t\t\tcontract DividendVault is Owna...\n      PUSH #[$] 0000000000000000000000000000000000000000000000000000000000000000\t\t\tcontract DividendVault is Owna...\n      PUSH [$] 0000000000000000000000000000000000000000000000000000000000000000\t\t\tcontract DividendVault is Owna...\n      PUSH 0\t\t\tcontract DividendVault is Owna...\n      CODECOPY \t\t\tcontract DividendVault is Owna...\n      PUSH 0\t\t\tcontract DividendVault is Owna...\n      ASSIGNIMMUTABLE 930\t\t\tcontract DividendVault is Owna...\n      PUSH #[$] 0000000000000000000000000000000000000000000000000000000000000000\t\t\tcontract DividendVault is Owna...\n      PUSH 0\t\t\tcontract DividendVault is Owna...\n      RETURN \t\t\tcontract DividendVault is Owna...\n    .data\n      0:\n        .code\n          PUSH 80\t\t\tcontract DividendVault is Owna...\n          PUSH 40\t\t\tcontract DividendVault is Owna...\n          MSTORE \t\t\tcontract DividendVault is Owna...\n          CALLVALUE \t\t\tcontract DividendVault is Owna...\n          DUP1 \t\t\tcontract DividendVault is Owna...\n          ISZERO \t\t\tcontract DividendVault is Owna...\n          PUSH [tag] 1\t\t\tcontract DividendVault is Owna...\n          JUMPI \t\t\tcontract DividendVault is Owna...\n          PUSH 0\t\t\tcontract DividendVault is Owna...\n          DUP1 \t\t\tcontract DividendVault is Owna...\n          REVERT \t\t\tcontract DividendVault is Owna...\n        tag 1\t\t\tcontract DividendVault is Owna...\n          JUMPDEST \t\t\tcontract DividendVault is Owna...\n          POP \t\t\tcontract DividendVault is Owna...\n          PUSH 4\t\t\tcontract DividendVault is Owna...\n          CALLDATASIZE \t\t\tcontract DividendVault is Owna...\n          LT \t\t\tcontract DividendVault is Owna...\n          PUSH [tag] 2\t\t\tcontract DividendVault is Owna...\n          JUMPI \t\t\tcontract DividendVault is Owna...\n          PUSH 0\t\t\tcontract DividendVault is Owna...\n          CALLDATALOAD \t\t\tcontract DividendVault is Owna...\n          PUSH E0\t\t\tcontract DividendVault is Owna...\n          SHR \t\t\tcontract DividendVault is Owna...\n          DUP1 \t\t\tcontract DividendVault is Owna...\n          PUSH 6869C673\t\t\tcontract DividendVault is Owna...\n          GT \t\t\tcontract DividendVault is Owna...\n          PUSH [tag] 18\t\t\tcontract DividendVault is Owna...\n          JUMPI \t\t\tcontract DividendVault is Owna...\n          DUP1 \t\t\tcontract DividendVault is Owna...\n          PUSH A9AA22A0\t\t\tcontract DividendVault is Owna...\n          GT \t\t\tcontract DividendVault is Owna...\n          PUSH [tag] 19\t\t\tcontract DividendVault is Owna...\n          JUMPI \t\t\tcontract DividendVault is Owna...\n          DUP1 \t\t\tcontract DividendVault is Owna...\n          PUSH A9AA22A0\t\t\tcontract DividendVault is Owna...\n          EQ \t\t\tcontract DividendVault is Owna...\n          PUSH [tag] 14\t\t\tcontract DividendVault is Owna...\n          JUMPI \t\t\tcontract DividendVault is Owna...\n          DUP1 \t\t\tcontract DividendVault is Owna...\n          PUSH F02AE48F\t\t\tcontract DividendVault is Owna...\n          EQ \t\t\tcontract DividendVault is Owna...\n          PUSH [tag] 15\t\t\tcontract DividendVault is Owna...\n          JUMPI \t\t\tcontract DividendVault is Owna...\n          DUP1 \t\t\tcontract DividendVault is Owna...\n          PUSH F2FDE38B\t\t\tcontract DividendVault is Owna...\n          EQ \t\t\tcontract DividendVault is Owna...\n          PUSH [tag] 16\t\t\tcontract DividendVault is Owna...\n          JUMPI \t\t\tcontract DividendVault is Owna...\n          DUP1 \t\t\tcontract DividendVault is Owna...\n          PUSH FC0C546A\t\t\tcontract DividendVault is Owna...\n          EQ \t\t\tcontract DividendVault is Owna...\n          PUSH [tag] 17\t\t\tcontract DividendVault is Owna...\n          JUMPI \t\t\tcontract DividendVault is Owna...\n          PUSH [tag] 2\t\t\tcontract DividendVault is Owna...\n          JUMP \t\t\tcontract DividendVault is Owna...\n        tag 19\t\t\tcontract DividendVault is Owna...\n          JUMPDEST \t\t\tcontract DividendVault is Owna...\n          DUP1 \t\t\tcontract DividendVault is Owna...\n          PUSH 6869C673\t\t\tcontract DividendVault is Owna...\n          EQ \t\t\tcontract DividendVault is Owna...\n          PUSH [tag] 10\t\t\tcontract DividendVault is Owna...\n          JUMPI \t\t\tcontract DividendVault is Owna...\n          DUP1 \t\t\tcontract DividendVault is Owna...\n          PUSH 6B4ED21B\t\t\tcontract DividendVault is Owna...\n          EQ \t\t\tcontract DividendVault is Owna...\n          PUSH [tag] 11\t\t\tcontract DividendVault is Owna...\n          JUMPI \t\t\tcontract DividendVault is Owna...\n          DUP1 \t\t\tcontract DividendVault is Owna...\n          PUSH 715018A6\t\t\tcontract DividendVault is Owna...\n          EQ \t\t\tcontract DividendVault is Owna...\n          PUSH [tag] 12\t\t\tcontract DividendVault is Owna...\n          JUMPI \t\t\tcontract DividendVault is Owna...\n          DUP1 \t\t\tcontract DividendVault is Owna...\n          PUSH 8DA5CB5B\t\t\tcontract DividendVault is Owna...\n          EQ \t\t\tcontract DividendVault is Owna...\n          PUSH [tag] 13\t\t\tcontract DividendVault is Owna...\n          JUMPI \t\t\tcontract DividendVault is Owna...\n          PUSH [tag] 2\t\t\tcontract DividendVault is Owna...\n          JUMP \t\t\tcontract DividendVault is Owna...\n        tag 18\t\t\tcontract DividendVault is Owna...\n          JUMPDEST \t\t\tcontract DividendVault is Owna...\n          DUP1 \t\t\tcontract DividendVault is Owna...\n          PUSH 4E71D92D\t\t\tcontract DividendVault is Owna...\n          GT \t\t\tcontract DividendVault is Owna...\n          PUSH [tag] 20\t\t\tcontract DividendVault is Owna...\n          JUMPI \t\t\tcontract DividendVault is Owna...\n          DUP1 \t\t\tcontract DividendVault is Owna...\n          PUSH 4E71D92D\t\t\tcontract DividendVault is Owna...\n          EQ \t\t\tcontract DividendVault is Owna...\n          PUSH [tag] 6\t\t\tcontract DividendVault is Owna...\n          JUMPI \t\t\tcontract DividendVault is Owna...\n          DUP1 \t\t\tcontract DividendVault is Owna...\n          PUSH 4EFA82B6\t\t\tcontract DividendVault is Owna...\n          EQ \t\t\tcontract DividendVault is Owna...\n          PUSH [tag] 7\t\t\tcontract DividendVault is Owna...\n          JUMPI \t\t\tcontract DividendVault is Owna...\n          DUP1 \t\t\tcontract DividendVault is Owna...\n          PUSH 61D027B3\t\t\tcontract DividendVault is Owna...\n          EQ \t\t\tcontract DividendVault is Owna...\n          PUSH [tag] 8\t\t\tcontract DividendVault is Owna...\n          JUMPI \t\t\tcontract DividendVault is Owna...\n          DUP1 \t\t\tcontract DividendVault is Owna...\n          PUSH 66666AA9\t\t\tcontract DividendVault is Owna...\n          EQ \t\t\tcontract DividendVault is Owna...\n          PUSH [tag] 9\t\t\tcontract DividendVault is Owna...\n          JUMPI \t\t\tcontract DividendVault is Owna...\n          PUSH [tag] 2\t\t\tcontract DividendVault is Owna...\n          JUMP \t\t\tcontract DividendVault is Owna...\n        tag 20\t\t\tcontract DividendVault is Owna...\n          JUMPDEST \t\t\tcontract DividendVault is Owna...\n          DUP1 \t\t\tcontract DividendVault is Owna...\n          PUSH 16AD42AD\t\t\tcontract DividendVault is Owna...\n          EQ \t\t\tcontract DividendVault is Owna...\n          PUSH [tag] 3\t\t\tcontract DividendVault is Owna...\n          JUMPI \t\t\tcontract DividendVault is Owna...\n          DUP1 \t\t\tcontract DividendVault is Owna...\n          PUSH 18A5BBDC\t\t\tcontract DividendVault is Owna...\n          EQ \t\t\tcontract DividendVault is Owna...\n          PUSH [tag] 4\t\t\tcontract DividendVault is Owna...\n          JUMPI \t\t\tcontract DividendVault is Owna...\n          DUP1 \t\t\tcontract DividendVault is Owna...\n          PUSH 19C2DFEC\t\t\tcontract DividendVault is Owna...\n          EQ \t\t\tcontract DividendVault is Owna...\n          PUSH [tag] 5\t\t\tcontract DividendVault is Owna...\n          JUMPI \t\t\tcontract DividendVault is Owna...\n        tag 2\t\t\tcontract DividendVault is Owna...\n          JUMPDEST \t\t\tcontract DividendVault is Owna...\n          PUSH 0\t\t\tcontract DividendVault is Owna...\n          DUP1 \t\t\tcontract DividendVault is Owna...\n          REVERT \t\t\tcontract DividendVault is Owna...\n        tag 3\t\t\taddress[] public holderList\n          JUMPDEST \t\t\taddress[] public holderList\n          PUSH [tag] 21\t\t\taddress[] public holderList\n          PUSH 4\t\t\taddress[] public holderList\n          DUP1 \t\t\taddress[] public holderList\n          CALLDATASIZE \t\t\taddress[] public holderList\n          SUB \t\t\taddress[] public holderList\n          DUP2 \t\t\taddress[] public holderList\n          ADD \t\t\taddress[] public holderList\n          SWAP1 \t\t\taddress[] public holderList\n          PUSH [tag] 22\t\t\taddress[] public holderList\n          SWAP2 \t\t\taddress[] public holderList\n          SWAP1 \t\t\taddress[] public holderList\n          PUSH [tag] 23\t\t\taddress[] public holderList\n          JUMP \t\t\taddress[] public holderList\n        tag 22\t\t\taddress[] public holderList\n          JUMPDEST \t\t\taddress[] public holderList\n          PUSH [tag] 24\t\t\taddress[] public holderList\n          JUMP \t\t\taddress[] public holderList\n        tag 21\t\t\taddress[] public holderList\n          JUMPDEST \t\t\taddress[] public holderList\n          PUSH 40\t\t\taddress[] public holderList\n          MLOAD \t\t\taddress[] public holderList\n          PUSH [tag] 25\t\t\taddress[] public holderList\n          SWAP2 \t\t\taddress[] public holderList\n          SWAP1 \t\t\taddress[] public holderList\n          PUSH [tag] 26\t\t\taddress[] public holderList\n          JUMP \t\t\taddress[] public holderList\n        tag 25\t\t\taddress[] public holderList\n          JUMPDEST \t\t\taddress[] public holderList\n          PUSH 40\t\t\taddress[] public holderList\n          MLOAD \t\t\taddress[] public holderList\n          DUP1 \t\t\taddress[] public holderList\n          SWAP2 \t\t\taddress[] public holderList\n          SUB \t\t\taddress[] public holderList\n          SWAP1 \t\t\taddress[] public holderList\n          RETURN \t\t\taddress[] public holderList\n        tag 4\t\t\tmapping(address => Holder) pub...\n          JUMPDEST \t\t\tmapping(address => Holder) pub...\n          PUSH [tag] 27\t\t\tmapping(address => Holder) pub...\n          PUSH 4\t\t\tmapping(address => Holder) pub...\n          DUP1 \t\t\tmapping(address => Holder) pub...\n          CALLDATASIZE \t\t\tmapping(address => Holder) pub...\n          SUB \t\t\tmapping(address => Holder) pub...\n          DUP2 \t\t\tmapping(address => Holder) pub...\n          ADD \t\t\tmapping(address => Holder) pub...\n          SWAP1 \t\t\tmapping(address => Holder) pub...\n          PUSH [tag] 28\t\t\tmapping(address => Holder) pub...\n          SWAP2 \t\t\tmapping(address => Holder) pub...\n          SWAP1 \t\t\tmapping(address => Holder) pub...\n          PUSH [tag] 29\t\t\tmapping(address => Holder) pub...\n          JUMP \t\t\tmapping(address => Holder) pub...\n        tag 28\t\t\tmapping(address => Holder) pub...\n          JUMPDEST \t\t\tmapping(address => Holder) pub...\n          PUSH [tag] 30\t\t\tmapping(address => Holder) pub...\n          JUMP \t\t\tmapping(address => Holder) pub...\n        tag 27\t\t\tmapping(address => Holder) pub...\n          JUMPDEST \t\t\tmapping(address => Holder) pub...\n          PUSH 40\t\t\tmapping(address => Holder) pub...\n          MLOAD \t\t\tmapping(address => Holder) pub...\n          PUSH [tag] 31\t\t\tmapping(address => Holder) pub...\n          SWAP3 \t\t\tmapping(address => Holder) pub...\n          SWAP2 \t\t\tmapping(address => Holder) pub...\n          SWAP1 \t\t\tmapping(address => Holder) pub...\n          PUSH [tag] 32\t\t\tmapping(address => Holder) pub...\n          JUMP \t\t\tmapping(address => Holder) pub...\n        tag 31\t\t\tmapping(address => Holder) pub...\n          JUMPDEST \t\t\tmapping(address => Holder) pub...\n          PUSH 40\t\t\tmapping(address => Holder) pub...\n          MLOAD \t\t\tmapping(address => Holder) pub...\n          DUP1 \t\t\tmapping(address => Holder) pub...\n          SWAP2 \t\t\tmapping(address => Holder) pub...\n          SUB \t\t\tmapping(address => Holder) pub...\n          SWAP1 \t\t\tmapping(address => Holder) pub...\n          RETURN \t\t\tmapping(address => Holder) pub...\n        tag 5\t\t\tfunction autoClaimAll(uint256 ...\n          JUMPDEST \t\t\tfunction autoClaimAll(uint256 ...\n          PUSH [tag] 33\t\t\tfunction autoClaimAll(uint256 ...\n          PUSH 4\t\t\tfunction autoClaimAll(uint256 ...\n          DUP1 \t\t\tfunction autoClaimAll(uint256 ...\n          CALLDATASIZE \t\t\tfunction autoClaimAll(uint256 ...\n          SUB \t\t\tfunction autoClaimAll(uint256 ...\n          DUP2 \t\t\tfunction autoClaimAll(uint256 ...\n          ADD \t\t\tfunction autoClaimAll(uint256 ...\n          SWAP1 \t\t\tfunction autoClaimAll(uint256 ...\n          PUSH [tag] 34\t\t\tfunction autoClaimAll(uint256 ...\n          SWAP2 \t\t\tfunction autoClaimAll(uint256 ...\n          SWAP1 \t\t\tfunction autoClaimAll(uint256 ...\n          PUSH [tag] 23\t\t\tfunction autoClaimAll(uint256 ...\n          JUMP \t\t\tfunction autoClaimAll(uint256 ...\n        tag 34\t\t\tfunction autoClaimAll(uint256 ...\n          JUMPDEST \t\t\tfunction autoClaimAll(uint256 ...\n          PUSH [tag] 35\t\t\tfunction autoClaimAll(uint256 ...\n          JUMP \t\t\tfunction autoClaimAll(uint256 ...\n        tag 33\t\t\tfunction autoClaimAll(uint256 ...\n          JUMPDEST \t\t\tfunction autoClaimAll(uint256 ...\n          STOP \t\t\tfunction autoClaimAll(uint256 ...\n        tag 6\t\t\tfunction claim() external {\\n ...\n          JUMPDEST \t\t\tfunction claim() external {\\n ...\n          PUSH [tag] 36\t\t\tfunction claim() external {\\n ...\n          PUSH [tag] 37\t\t\tfunction claim() external {\\n ...\n          JUMP \t\t\tfunction claim() external {\\n ...\n        tag 36\t\t\tfunction claim() external {\\n ...\n          JUMPDEST \t\t\tfunction claim() external {\\n ...\n          STOP \t\t\tfunction claim() external {\\n ...\n        tag 7\t\t\tIERC20Extended public payoutTo...\n          JUMPDEST \t\t\tIERC20Extended public payoutTo...\n          PUSH [tag] 38\t\t\tIERC20Extended public payoutTo...\n          PUSH [tag] 39\t\t\tIERC20Extended public payoutTo...\n          JUMP \t\t\tIERC20Extended public payoutTo...\n        tag 38\t\t\tIERC20Extended public payoutTo...\n          JUMPDEST \t\t\tIERC20Extended public payoutTo...\n          PUSH 40\t\t\tIERC20Extended public payoutTo...\n          MLOAD \t\t\tIERC20Extended public payoutTo...\n          PUSH [tag] 40\t\t\tIERC20Extended public payoutTo...\n          SWAP2 \t\t\tIERC20Extended public payoutTo...\n          SWAP1 \t\t\tIERC20Extended public payoutTo...\n          PUSH [tag] 41\t\t\tIERC20Extended public payoutTo...\n          JUMP \t\t\tIERC20Extended public payoutTo...\n        tag 40\t\t\tIERC20Extended public payoutTo...\n          JUMPDEST \t\t\tIERC20Extended public payoutTo...\n          PUSH 40\t\t\tIERC20Extended public payoutTo...\n          MLOAD \t\t\tIERC20Extended public payoutTo...\n          DUP1 \t\t\tIERC20Extended public payoutTo...\n          SWAP2 \t\t\tIERC20Extended public payoutTo...\n          SUB \t\t\tIERC20Extended public payoutTo...\n          SWAP1 \t\t\tIERC20Extended public payoutTo...\n          RETURN \t\t\tIERC20Extended public payoutTo...\n        tag 8\t\t\taddress public treasury\n          JUMPDEST \t\t\taddress public treasury\n          PUSH [tag] 42\t\t\taddress public treasury\n          PUSH [tag] 43\t\t\taddress public treasury\n          JUMP \t\t\taddress public treasury\n        tag 42\t\t\taddress public treasury\n          JUMPDEST \t\t\taddress public treasury\n          PUSH 40\t\t\taddress public treasury\n          MLOAD \t\t\taddress public treasury\n          PUSH [tag] 44\t\t\taddress public treasury\n          SWAP2 \t\t\taddress public treasury\n          SWAP1 \t\t\taddress public treasury\n          PUSH [tag] 26\t\t\taddress public treasury\n          JUMP \t\t\taddress public treasury\n        tag 44\t\t\taddress public treasury\n          JUMPDEST \t\t\taddress public treasury\n          PUSH 40\t\t\taddress public treasury\n          MLOAD \t\t\taddress public treasury\n          DUP1 \t\t\taddress public treasury\n          SWAP2 \t\t\taddress public treasury\n          SUB \t\t\taddress public treasury\n          SWAP1 \t\t\taddress public treasury\n          RETURN \t\t\taddress public treasury\n        tag 9\t\t\tuint256 public rewardPool\n          JUMPDEST \t\t\tuint256 public rewardPool\n          PUSH [tag] 45\t\t\tuint256 public rewardPool\n          PUSH [tag] 46\t\t\tuint256 public rewardPool\n          JUMP \t\t\tuint256 public rewardPool\n        tag 45\t\t\tuint256 public rewardPool\n          JUMPDEST \t\t\tuint256 public rewardPool\n          PUSH 40\t\t\tuint256 public rewardPool\n          MLOAD \t\t\tuint256 public rewardPool\n          PUSH [tag] 47\t\t\tuint256 public rewardPool\n          SWAP2 \t\t\tuint256 public rewardPool\n          SWAP1 \t\t\tuint256 public rewardPool\n          PUSH [tag] 48\t\t\tuint256 public rewardPool\n          JUMP \t\t\tuint256 public rewardPool\n        tag 47\t\t\tuint256 public rewardPool\n          JUMPDEST \t\t\tuint256 public rewardPool\n          PUSH 40\t\t\tuint256 public rewardPool\n          MLOAD \t\t\tuint256 public rewardPool\n          DUP1 \t\t\tuint256 public rewardPool\n          SWAP2 \t\t\tuint256 public rewardPool\n          SUB \t\t\tuint256 public rewardPool\n          SWAP1 \t\t\tuint256 public rewardPool\n          RETURN \t\t\tuint256 public rewardPool\n        tag 10\t\t\tfunction executeBuyback(uint25...\n          JUMPDEST \t\t\tfunction executeBuyback(uint25...\n          PUSH [tag] 49\t\t\tfunction executeBuyback(uint25...\n          PUSH 4\t\t\tfunction executeBuyback(uint25...\n          DUP1 \t\t\tfunction executeBuyback(uint25...\n          CALLDATASIZE \t\t\tfunction executeBuyback(uint25...\n          SUB \t\t\tfunction executeBuyback(uint25...\n          DUP2 \t\t\tfunction executeBuyback(uint25...\n          ADD \t\t\tfunction executeBuyback(uint25...\n          SWAP1 \t\t\tfunction executeBuyback(uint25...\n          PUSH [tag] 50\t\t\tfunction executeBuyback(uint25...\n          SWAP2 \t\t\tfunction executeBuyback(uint25...\n          SWAP1 \t\t\tfunction executeBuyback(uint25...\n          PUSH [tag] 23\t\t\tfunction executeBuyback(uint25...\n          JUMP \t\t\tfunction executeBuyback(uint25...\n        tag 50\t\t\tfunction executeBuyback(uint25...\n          JUMPDEST \t\t\tfunction executeBuyback(uint25...\n          PUSH [tag] 51\t\t\tfunction executeBuyback(uint25...\n          JUMP \t\t\tfunction executeBuyback(uint25...\n        tag 49\t\t\tfunction executeBuyback(uint25...\n          JUMPDEST \t\t\tfunction executeBuyback(uint25...\n          STOP \t\t\tfunction executeBuyback(uint25...\n        tag 11\t\t\tfunction holdersCount() extern...\n          JUMPDEST \t\t\tfunction holdersCount() extern...\n          PUSH [tag] 52\t\t\tfunction holdersCount() extern...\n          PUSH [tag] 53\t\t\tfunction holdersCount() extern...\n          JUMP \t\t\tfunction holdersCount() extern...\n        tag 52\t\t\tfunction holdersCount() extern...\n          JUMPDEST \t\t\tfunction holdersCount() extern...\n          PUSH 40\t\t\tfunction holdersCount() extern...\n          MLOAD \t\t\tfunction holdersCount() extern...\n          PUSH [tag] 54\t\t\tfunction holdersCount() extern...\n          SWAP2 \t\t\tfunction holdersCount() extern...\n          SWAP1 \t\t\tfunction holdersCount() extern...\n          PUSH [tag] 48\t\t\tfunction holdersCount() extern...\n          JUMP \t\t\tfunction holdersCount() extern...\n        tag 54\t\t\tfunction holdersCount() extern...\n          JUMPDEST \t\t\tfunction holdersCount() extern...\n          PUSH 40\t\t\tfunction holdersCount() extern...\n          MLOAD \t\t\tfunction holdersCount() extern...\n          DUP1 \t\t\tfunction holdersCount() extern...\n          SWAP2 \t\t\tfunction holdersCount() extern...\n          SUB \t\t\tfunction holdersCount() extern...\n          SWAP1 \t\t\tfunction holdersCount() extern...\n          RETURN \t\t\tfunction holdersCount() extern...\n        tag 12\t\t\tfunction renounceOwnership() p...\n          JUMPDEST \t\t\tfunction renounceOwnership() p...\n          PUSH [tag] 55\t\t\tfunction renounceOwnership() p...\n          PUSH [tag] 56\t\t\tfunction renounceOwnership() p...\n          JUMP \t\t\tfunction renounceOwnership() p...\n        tag 55\t\t\tfunction renounceOwnership() p...\n          JUMPDEST \t\t\tfunction renounceOwnership() p...\n          STOP \t\t\tfunction renounceOwnership() p...\n        tag 13\t\t\tfunction owner() public view v...\n          JUMPDEST \t\t\tfunction owner() public view v...\n          PUSH [tag] 57\t\t\tfunction owner() public view v...\n          PUSH [tag] 58\t\t\tfunction owner() public view v...\n          JUMP \t\t\tfunction owner() public view v...\n        tag 57\t\t\tfunction owner() public view v...\n          JUMPDEST \t\t\tfunction owner() public view v...\n          PUSH 40\t\t\tfunction owner() public view v...\n          MLOAD \t\t\tfunction owner() public view v...\n          PUSH [tag] 59\t\t\tfunction owner() public view v...\n          SWAP2 \t\t\tfunction owner() public view v...\n          SWAP1 \t\t\tfunction owner() public view v...\n          PUSH [tag] 26\t\t\tfunction owner() public view v...\n          JUMP \t\t\tfunction owner() public view v...\n        tag 59\t\t\tfunction owner() public view v...\n          JUMPDEST \t\t\tfunction owner() public view v...\n          PUSH 40\t\t\tfunction owner() public view v...\n          MLOAD \t\t\tfunction owner() public view v...\n          DUP1 \t\t\tfunction owner() public view v...\n          SWAP2 \t\t\tfunction owner() public view v...\n          SUB \t\t\tfunction owner() public view v...\n          SWAP1 \t\t\tfunction owner() public view v...\n          RETURN \t\t\tfunction owner() public view v...\n        tag 14\t\t\tfunction updateHolderShare(add...\n          JUMPDEST \t\t\tfunction updateHolderShare(add...\n          PUSH [tag] 60\t\t\tfunction updateHolderShare(add...\n          PUSH 4\t\t\tfunction updateHolderShare(add...\n          DUP1 \t\t\tfunction updateHolderShare(add...\n          CALLDATASIZE \t\t\tfunction updateHolderShare(add...\n          SUB \t\t\tfunction updateHolderShare(add...\n          DUP2 \t\t\tfunction updateHolderShare(add...\n          ADD \t\t\tfunction updateHolderShare(add...\n          SWAP1 \t\t\tfunction updateHolderShare(add...\n          PUSH [tag] 61\t\t\tfunction updateHolderShare(add...\n          SWAP2 \t\t\tfunction updateHolderShare(add...\n          SWAP1 \t\t\tfunction updateHolderShare(add...\n          PUSH [tag] 62\t\t\tfunction updateHolderShare(add...\n          JUMP \t\t\tfunction updateHolderShare(add...\n        tag 61\t\t\tfunction updateHolderShare(add...\n          JUMPDEST \t\t\tfunction updateHolderShare(add...\n          PUSH [tag] 63\t\t\tfunction updateHolderShare(add...\n          JUMP \t\t\tfunction updateHolderShare(add...\n        tag 60\t\t\tfunction updateHolderShare(add...\n          JUMPDEST \t\t\tfunction updateHolderShare(add...\n          STOP \t\t\tfunction updateHolderShare(add...\n        tag 15\t\t\tfunction setPayoutToken(addres...\n          JUMPDEST \t\t\tfunction setPayoutToken(addres...\n          PUSH [tag] 64\t\t\tfunction setPayoutToken(addres...\n          PUSH 4\t\t\tfunction setPayoutToken(addres...\n          DUP1 \t\t\tfunction setPayoutToken(addres...\n          CALLDATASIZE \t\t\tfunction setPayoutToken(addres...\n          SUB \t\t\tfunction setPayoutToken(addres...\n          DUP2 \t\t\tfunction setPayoutToken(addres...\n          ADD \t\t\tfunction setPayoutToken(addres...\n          SWAP1 \t\t\tfunction setPayoutToken(addres...\n          PUSH [tag] 65\t\t\tfunction setPayoutToken(addres...\n          SWAP2 \t\t\tfunction setPayoutToken(addres...\n          SWAP1 \t\t\tfunction setPayoutToken(addres...\n          PUSH [tag] 29\t\t\tfunction setPayoutToken(addres...\n          JUMP \t\t\tfunction setPayoutToken(addres...\n        tag 65\t\t\tfunction setPayoutToken(addres...\n          JUMPDEST \t\t\tfunction setPayoutToken(addres...\n          PUSH [tag] 66\t\t\tfunction setPayoutToken(addres...\n          JUMP \t\t\tfunction setPayoutToken(addres...\n        tag 64\t\t\tfunction setPayoutToken(addres...\n          JUMPDEST \t\t\tfunction setPayoutToken(addres...\n          STOP \t\t\tfunction setPayoutToken(addres...\n        tag 16\t\t\tfunction transferOwnership(add...\n          JUMPDEST \t\t\tfunction transferOwnership(add...\n          PUSH [tag] 67\t\t\tfunction transferOwnership(add...\n          PUSH 4\t\t\tfunction transferOwnership(add...\n          DUP1 \t\t\tfunction transferOwnership(add...\n          CALLDATASIZE \t\t\tfunction transferOwnership(add...\n          SUB \t\t\tfunction transferOwnership(add...\n          DUP2 \t\t\tfunction transferOwnership(add...\n          ADD \t\t\tfunction transferOwnership(add...\n          SWAP1 \t\t\tfunction transferOwnership(add...\n          PUSH [tag] 68\t\t\tfunction transferOwnership(add...\n          SWAP2 \t\t\tfunction transferOwnership(add...\n          SWAP1 \t\t\tfunction transferOwnership(add...\n          PUSH [tag] 29\t\t\tfunction transferOwnership(add...\n          JUMP \t\t\tfunction transferOwnership(add...\n        tag 68\t\t\tfunction transferOwnership(add...\n          JUMPDEST \t\t\tfunction transferOwnership(add...\n          PUSH [tag] 69\t\t\tfunction transferOwnership(add...\n          JUMP \t\t\tfunction transferOwnership(add...\n        tag 67\t\t\tfunction transferOwnership(add...\n          JUMPDEST \t\t\tfunction transferOwnership(add...\n          STOP \t\t\tfunction transferOwnership(add...\n        tag 17\t\t\tERC20 public immutable token\n          JUMPDEST \t\t\tERC20 public immutable token\n          PUSH [tag] 70\t\t\tERC20 public immutable token\n          PUSH [tag] 71\t\t\tERC20 public immutable token\n          JUMP \t\t\tERC20 public immutable token\n        tag 70\t\t\tERC20 public immutable token\n          JUMPDEST \t\t\tERC20 public immutable token\n          PUSH 40\t\t\tERC20 public immutable token\n          MLOAD \t\t\tERC20 public immutable token\n          PUSH [tag] 72\t\t\tERC20 public immutable token\n          SWAP2 \t\t\tERC20 public immutable token\n          SWAP1 \t\t\tERC20 public immutable token\n          PUSH [tag] 73\t\t\tERC20 public immutable token\n          JUMP \t\t\tERC20 public immutable token\n        tag 72\t\t\tERC20 public immutable token\n          JUMPDEST \t\t\tERC20 public immutable token\n          PUSH 40\t\t\tERC20 public immutable token\n          MLOAD \t\t\tERC20 public immutable token\n          DUP1 \t\t\tERC20 public immutable token\n          SWAP2 \t\t\tERC20 public immutable token\n          SUB \t\t\tERC20 public immutable token\n          SWAP1 \t\t\tERC20 public immutable token\n          RETURN \t\t\tERC20 public immutable token\n        tag 24\t\t\taddress[] public holderList\n          JUMPDEST \t\t\taddress[] public holderList\n          PUSH 3\t\t\taddress[] public holderList\n          DUP2 \t\t\taddress[] public holderList\n          DUP2 \t\t\taddress[] public holderList\n          SLOAD \t\t\taddress[] public holderList\n          DUP2 \t\t\taddress[] public holderList\n          LT \t\t\taddress[] public holderList\n          PUSH [tag] 74\t\t\taddress[] public holderList\n          JUMPI \t\t\taddress[] public holderList\n          PUSH 0\t\t\taddress[] public holderList\n          DUP1 \t\t\taddress[] public holderList\n          REVERT \t\t\taddress[] public holderList\n        tag 74\t\t\taddress[] public holderList\n          JUMPDEST \t\t\taddress[] public holderList\n          SWAP1 \t\t\taddress[] public holderList\n          PUSH 0\t\t\taddress[] public holderList\n          MSTORE \t\t\taddress[] public holderList\n          PUSH 20\t\t\taddress[] public holderList\n          PUSH 0\t\t\taddress[] public holderList\n          KECCAK256 \t\t\taddress[] public holderList\n          ADD \t\t\taddress[] public holderList\n          PUSH 0\t\t\taddress[] public holderList\n          SWAP2 \t\t\taddress[] public holderList\n          POP \t\t\taddress[] public holderList\n          SLOAD \t\t\taddress[] public holderList\n          SWAP1 \t\t\taddress[] public holderList\n          PUSH 100\t\t\taddress[] public holderList\n          EXP \t\t\taddress[] public holderList\n          SWAP1 \t\t\taddress[] public holderList\n          DIV \t\t\taddress[] public holderList\n          PUSH FFFFFFFFFFFFFFFFFFFFFFFFFFFFFFFFFFFFFFFF\t\t\taddress[] public holderList\n          AND \t\t\taddress[] public holderList\n          DUP2 \t\t\taddress[] public holderList\n          JUMP \t\t\taddress[] public holderList\n        tag 30\t\t\tmapping(address => Holder) pub...\n          JUMPDEST \t\t\tmapping(address => Holder) pub...\n          PUSH 2\t\t\tmapping(address => Holder) pub...\n          PUSH 20\t\t\tmapping(address => Holder) pub...\n          MSTORE \t\t\tmapping(address => Holder) pub...\n          DUP1 \t\t\tmapping(address => Holder) pub...\n          PUSH 0\t\t\tmapping(address => Holder) pub...\n          MSTORE \t\t\tmapping(address => Holder) pub...\n          PUSH 40\t\t\tmapping(address => Holder) pub...\n          PUSH 0\t\t\tmapping(address => Holder) pub...\n          KECCAK256 \t\t\tmapping(address => Holder) pub...\n          PUSH 0\t\t\tmapping(address => Holder) pub...\n          SWAP2 \t\t\tmapping(address => Holder) pub...\n          POP \t\t\tmapping(address => Holder) pub...\n          SWAP1 \t\t\tmapping(address => Holder) pub...\n          POP \t\t\tmapping(address => Holder) pub...\n          DUP1 \t\t\tmapping(address => Holder) pub...\n          PUSH 0\t\t\tmapping(address => Holder) pub...\n          ADD \t\t\tmapping(address => Holder) pub...\n          SLOAD \t\t\tmapping(address => Holder) pub...\n          SWAP1 \t\t\tmapping(address => Holder) pub...\n          DUP1 \t\t\tmapping(address => Holder) pub...\n          PUSH 1\t\t\tmapping(address => Holder) pub...\n          ADD \t\t\tmapping(address => Holder) pub...\n          SLOAD \t\t\tmapping(address => Holder) pub...\n          SWAP1 \t\t\tmapping(address => Holder) pub...\n          POP \t\t\tmapping(address => Holder) pub...\n          DUP3 \t\t\tmapping(address => Holder) pub...\n          JUMP \t\t\tmapping(address => Holder) pub...\n        tag 35\t\t\tfunction autoClaimAll(uint256 ...\n          JUMPDEST \t\t\tfunction autoClaimAll(uint256 ...\n          PUSH 0\t\t\tuint256 len\n          PUSH 3\t\t\tholderList\n          DUP1 \t\t\tholderList.length\n          SLOAD \t\t\tholderList.length\n          SWAP1 \t\t\tholderList.length\n          POP \t\t\tholderList.length\n          SWAP1 \t\t\tuint256 len = holderList.lengt...\n          POP \t\t\tuint256 len = holderList.lengt...\n          PUSH 0\t\t\tuint256 processed\n          DUP1 \t\t\tuint256 i\n        tag 77\t\t\tfor (uint256 i; i < len && pro...\n          JUMPDEST \t\t\tfor (uint256 i; i < len && pro...\n          DUP3 \t\t\tlen\n          DUP2 \t\t\ti\n          LT \t\t\ti < len\n          DUP1 \t\t\ti < len && processed < batchSi...\n          ISZERO \t\t\ti < len && processed < batchSi...\n          PUSH [tag] 80\t\t\ti < len && processed < batchSi...\n          JUMPI \t\t\ti < len && processed < batchSi...\n          POP \t\t\ti < len && processed < batchSi...\n          DUP4 \t\t\tbatchSize\n          DUP3 \t\t\tprocessed\n          LT \t\t\tprocessed < batchSize\n        tag 80\t\t\ti < len && processed < batchSi...\n          JUMPDEST \t\t\ti < len && processed < batchSi...\n          ISZERO \t\t\tfor (uint256 i; i < len && pro...\n          PUSH [tag] 78\t\t\tfor (uint256 i; i < len && pro...\n          JUMPI \t\t\tfor (uint256 i; i < len && pro...\n          PUSH [tag] 81\t\t\t_claim(holderList[i])\n          PUSH 3\t\t\tholderList\n          DUP3 \t\t\ti\n          DUP2 \t\t\tholderList[i]\n          SLOAD \t\t\tholderList[i]\n          DUP2 \t\t\tholderList[i]\n          LT \t\t\tholderList[i]\n          PUSH [tag] 82\t\t\tholderList[i]\n          JUMPI \t\t\tholderList[i]\n          PUSH [tag] 83\t\t\tholderList[i]\n          PUSH [tag] 84\t\t\tholderList[i]\n          JUMP \t\t\tholderList[i]\n        tag 83\t\t\tholderList[i]\n          JUMPDEST \t\t\tholderList[i]\n        tag 82\t\t\tholderList[i]\n          JUMPDEST \t\t\tholderList[i]\n          SWAP1 \t\t\tholderList[i]\n          PUSH 0\t\t\tholderList[i]\n          MSTORE \t\t\tholderList[i]\n          PUSH 20\t\t\tholderList[i]\n          PUSH 0\t\t\tholderList[i]\n          KECCAK256 \t\t\tholderList[i]\n          ADD \t\t\tholderList[i]\n          PUSH 0\t\t\tholderList[i]\n          SWAP1 \t\t\tholderList[i]\n          SLOAD \t\t\tholderList[i]\n          SWAP1 \t\t\tholderList[i]\n          PUSH 100\t\t\tholderList[i]\n          EXP \t\t\tholderList[i]\n          SWAP1 \t\t\tholderList[i]\n          DIV \t\t\tholderList[i]\n          PUSH FFFFFFFFFFFFFFFFFFFFFFFFFFFFFFFFFFFFFFFF\t\t\tholderList[i]\n          AND \t\t\tholderList[i]\n          PUSH [tag] 86\t\t\t_claim\n          JUMP \t\t\t_claim(holderList[i])\n        tag 81\t\t\t_claim(holderList[i])\n          JUMPDEST \t\t\t_claim(holderList[i])\n          DUP2 \t\t\tprocessed++\n          DUP1 \t\t\tprocessed++\n          PUSH [tag] 87\t\t\tprocessed++\n          SWAP1 \t\t\tprocessed++\n          PUSH [tag] 88\t\t\tprocessed++\n          JUMP \t\t\tprocessed++\n        tag 87\t\t\tprocessed++\n          JUMPDEST \t\t\tprocessed++\n          SWAP3 \t\t\tprocessed++\n          POP \t\t\tprocessed++\n          POP \t\t\tprocessed++\n          DUP1 \t\t\ti++\n          DUP1 \t\t\ti++\n          PUSH [tag] 89\t\t\ti++\n          SWAP1 \t\t\ti++\n          PUSH [tag] 88\t\t\ti++\n          JUMP \t\t\ti++\n        tag 89\t\t\ti++\n          JUMPDEST \t\t\ti++\n          SWAP2 \t\t\ti++\n          POP \t\t\ti++\n          POP \t\t\ti++\n          PUSH [tag] 77\t\t\tfor (uint256 i; i < len && pro...\n          JUMP \t\t\tfor (uint256 i; i < len && pro...\n        tag 78\t\t\tfor (uint256 i; i < len && pro...\n          JUMPDEST \t\t\tfor (uint256 i; i < len && pro...\n          POP \t\t\tfor (uint256 i; i < len && pro...\n          POP \t\t\t{\\n        uint256 len = holde...\n          POP \t\t\t{\\n        uint256 len = holde...\n          POP \t\t\tfunction autoClaimAll(uint256 ...\n          JUMP \t\t\tfunction autoClaimAll(uint256 ...\n        tag 37\t\t\tfunction claim() external {\\n ...\n          JUMPDEST \t\t\tfunction claim() external {\\n ...\n          PUSH [tag] 91\t\t\t_claim(msg.sender)\n          CALLER \t\t\tmsg.sender\n          PUSH [tag] 86\t\t\t_claim\n          JUMP \t\t\t_claim(msg.sender)\n        tag 91\t\t\t_claim(msg.sender)\n          JUMPDEST \t\t\t_claim(msg.sender)\n          JUMP \t\t\tfunction claim() external {\\n ...\n        tag 39\t\t\tIERC20Extended public payoutTo...\n          JUMPDEST \t\t\tIERC20Extended public payoutTo...\n          PUSH 5\t\t\tIERC20Extended public payoutTo...\n          PUSH 0\t\t\tIERC20Extended public payoutTo...\n          SWAP1 \t\t\tIERC20Extended public payoutTo...\n          SLOAD \t\t\tIERC20Extended public payoutTo...\n          SWAP1 \t\t\tIERC20Extended public payoutTo...\n          PUSH 100\t\t\tIERC20Extended public payoutTo...\n          EXP \t\t\tIERC20Extended public payoutTo...\n          SWAP1 \t\t\tIERC20Extended public payoutTo...\n          DIV \t\t\tIERC20Extended public payoutTo...\n          PUSH FFFFFFFFFFFFFFFFFFFFFFFFFFFFFFFFFFFFFFFF\t\t\tIERC20Extended public payoutTo...\n          AND \t\t\tIERC20Extended public payoutTo...\n          DUP2 \t\t\tIERC20Extended public payoutTo...\n          JUMP \t\t\tIERC20Extended public payoutTo...\n        tag 43\t\t\taddress public treasury\n          JUMPDEST \t\t\taddress public treasury\n          PUSH 1\t\t\taddress public treasury\n          PUSH 0\t\t\taddress public treasury\n          SWAP1 \t\t\taddress public treasury\n          SLOAD \t\t\taddress public treasury\n          SWAP1 \t\t\taddress public treasury\n          PUSH 100\t\t\taddress public treasury\n          EXP \t\t\taddress public treasury\n          SWAP1 \t\t\taddress public treasury\n          DIV \t\t\taddress public treasury\n          PUSH FFFFFFFFFFFFFFFFFFFFFFFFFFFFFFFFFFFFFFFF\t\t\taddress public treasury\n          AND \t\t\taddress public treasury\n          DUP2 \t\t\taddress public treasury\n          JUMP \t\t\taddress public treasury\n        tag 46\t\t\tuint256 public rewardPool\n          JUMPDEST \t\t\tuint256 public rewardPool\n          PUSH 4\t\t\tuint256 public rewardPool\n          SLOAD \t\t\tuint256 public rewardPool\n          DUP2 \t\t\tuint256 public rewardPool\n          JUMP \t\t\tuint256 public rewardPool\n        tag 51\t\t\tfunction executeBuyback(uint25...\n          JUMPDEST \t\t\tfunction executeBuyback(uint25...\n          PUSH [tag] 93\t\t\t_msgSender()\n          PUSH [tag] 94\t\t\t_msgSender\n          JUMP \t\t\t_msgSender()\n        tag 93\t\t\t_msgSender()\n          JUMPDEST \t\t\t_msgSender()\n          PUSH FFFFFFFFFFFFFFFFFFFFFFFFFFFFFFFFFFFFFFFF\t\t\towner() == _msgSender()\n          AND \t\t\towner() == _msgSender()\n          PUSH [tag] 95\t\t\towner()\n          PUSH [tag] 58\t\t\towner\n          JUMP \t\t\towner()\n        tag 95\t\t\towner()\n          JUMPDEST \t\t\towner()\n          PUSH FFFFFFFFFFFFFFFFFFFFFFFFFFFFFFFFFFFFFFFF\t\t\towner() == _msgSender()\n          AND \t\t\towner() == _msgSender()\n          EQ \t\t\towner() == _msgSender()\n          PUSH [tag] 96\t\t\trequire(owner() == _msgSender(...\n          JUMPI \t\t\trequire(owner() == _msgSender(...\n          PUSH 40\t\t\trequire(owner() == _msgSender(...\n          MLOAD \t\t\trequire(owner() == _msgSender(...\n          PUSH 8C379A000000000000000000000000000000000000000000000000000000000\t\t\trequire(owner() == _msgSender(...\n          DUP2 \t\t\trequire(owner() == _msgSender(...\n          MSTORE \t\t\trequire(owner() == _msgSender(...\n          PUSH 4\t\t\trequire(owner() == _msgSender(...\n          ADD \t\t\trequire(owner() == _msgSender(...\n          PUSH [tag] 97\t\t\trequire(owner() == _msgSender(...\n          SWAP1 \t\t\trequire(owner() == _msgSender(...\n          PUSH [tag] 98\t\t\trequire(owner() == _msgSender(...\n          JUMP \t\t\trequire(owner() == _msgSender(...\n        tag 97\t\t\trequire(owner() == _msgSender(...\n          JUMPDEST \t\t\trequire(owner() == _msgSender(...\n          PUSH 40\t\t\trequire(owner() == _msgSender(...\n          MLOAD \t\t\trequire(owner() == _msgSender(...\n          DUP1 \t\t\trequire(owner() == _msgSender(...\n          SWAP2 \t\t\trequire(owner() == _msgSender(...\n          SUB \t\t\trequire(owner() == _msgSender(...\n          SWAP1 \t\t\trequire(owner() == _msgSender(...\n          REVERT \t\t\trequire(owner() == _msgSender(...\n        tag 96\t\t\trequire(owner() == _msgSender(...\n          JUMPDEST \t\t\trequire(owner() == _msgSender(...\n          PUSHIMMUTABLE 930\t\t\ttoken\n          PUSH FFFFFFFFFFFFFFFFFFFFFFFFFFFFFFFFFFFFFFFF\t\t\ttoken.balanceOf\n          AND \t\t\ttoken.balanceOf\n          PUSH 70A08231\t\t\ttoken.balanceOf\n          PUSH 1\t\t\ttreasury\n          PUSH 0\t\t\ttreasury\n          SWAP1 \t\t\ttreasury\n          SLOAD \t\t\ttreasury\n          SWAP1 \t\t\ttreasury\n          PUSH 100\t\t\ttreasury\n          EXP \t\t\ttreasury\n          SWAP1 \t\t\ttreasury\n          DIV \t\t\ttreasury\n          PUSH FFFFFFFFFFFFFFFFFFFFFFFFFFFFFFFFFFFFFFFF\t\t\ttreasury\n          AND \t\t\ttreasury\n          PUSH 40\t\t\ttoken.balanceOf(treasury)\n          MLOAD \t\t\ttoken.balanceOf(treasury)\n          DUP3 \t\t\ttoken.balanceOf(treasury)\n          PUSH FFFFFFFF\t\t\ttoken.balanceOf(treasury)\n          AND \t\t\ttoken.balanceOf(treasury)\n          PUSH E0\t\t\ttoken.balanceOf(treasury)\n          SHL \t\t\ttoken.balanceOf(treasury)\n          DUP2 \t\t\ttoken.balanceOf(treasury)\n          MSTORE \t\t\ttoken.balanceOf(treasury)\n          PUSH 4\t\t\ttoken.balanceOf(treasury)\n          ADD \t\t\ttoken.balanceOf(treasury)\n          PUSH [tag] 100\t\t\ttoken.balanceOf(treasury)\n          SWAP2 \t\t\ttoken.balanceOf(treasury)\n          SWAP1 \t\t\ttoken.balanceOf(treasury)\n          PUSH [tag] 26\t\t\ttoken.balanceOf(treasury)\n          JUMP \t\t\ttoken.balanceOf(treasury)\n        tag 100\t\t\ttoken.balanceOf(treasury)\n          JUMPDEST \t\t\ttoken.balanceOf(treasury)\n          PUSH 20\t\t\ttoken.balanceOf(treasury)\n          PUSH 40\t\t\ttoken.balanceOf(treasury)\n          MLOAD \t\t\ttoken.balanceOf(treasury)\n          DUP1 \t\t\ttoken.balanceOf(treasury)\n          DUP4 \t\t\ttoken.balanceOf(treasury)\n          SUB \t\t\ttoken.balanceOf(treasury)\n          DUP2 \t\t\ttoken.balanceOf(treasury)\n          DUP7 \t\t\ttoken.balanceOf(treasury)\n          GAS \t\t\ttoken.balanceOf(treasury)\n          STATICCALL \t\t\ttoken.balanceOf(treasury)\n          ISZERO \t\t\ttoken.balanceOf(treasury)\n          DUP1 \t\t\ttoken.balanceOf(treasury)\n          ISZERO \t\t\ttoken.balanceOf(treasury)\n          PUSH [tag] 102\t\t\ttoken.balanceOf(treasury)\n          JUMPI \t\t\ttoken.balanceOf(treasury)\n          RETURNDATASIZE \t\t\ttoken.balanceOf(treasury)\n          PUSH 0\t\t\ttoken.balanceOf(treasury)\n          DUP1 \t\t\ttoken.balanceOf(treasury)\n          RETURNDATACOPY \t\t\ttoken.balanceOf(treasury)\n          RETURNDATASIZE \t\t\ttoken.balanceOf(treasury)\n          PUSH 0\t\t\ttoken.balanceOf(treasury)\n          REVERT \t\t\ttoken.balanceOf(treasury)\n        tag 102\t\t\ttoken.balanceOf(treasury)\n          JUMPDEST \t\t\ttoken.balanceOf(treasury)\n          POP \t\t\ttoken.balanceOf(treasury)\n          POP \t\t\ttoken.balanceOf(treasury)\n          POP \t\t\ttoken.balanceOf(treasury)\n          POP \t\t\ttoken.balanceOf(treasury)\n          PUSH 40\t\t\ttoken.balanceOf(treasury)\n          MLOAD \t\t\ttoken.balanceOf(treasury)\n          RETURNDATASIZE \t\t\ttoken.balanceOf(treasury)\n          PUSH 1F\t\t\ttoken.balanceOf(treasury)\n          NOT \t\t\ttoken.balanceOf(treasury)\n          PUSH 1F\t\t\ttoken.balanceOf(treasury)\n          DUP3 \t\t\ttoken.balanceOf(treasury)\n          ADD \t\t\ttoken.balanceOf(treasury)\n          AND \t\t\ttoken.balanceOf(treasury)\n          DUP3 \t\t\ttoken.balanceOf(treasury)\n          ADD \t\t\ttoken.balanceOf(treasury)\n          DUP1 \t\t\ttoken.balanceOf(treasury)\n          PUSH 40\t\t\ttoken.balanceOf(treasury)\n          MSTORE \t\t\ttoken.balanceOf(treasury)\n          POP \t\t\ttoken.balanceOf(treasury)\n          DUP2 \t\t\ttoken.balanceOf(treasury)\n          ADD \t\t\ttoken.balanceOf(treasury)\n          SWAP1 \t\t\ttoken.balanceOf(treasury)\n          PUSH [tag] 103\t\t\ttoken.balanceOf(treasury)\n          SWAP2 \t\t\ttoken.balanceOf(treasury)\n          SWAP1 \t\t\ttoken.balanceOf(treasury)\n          PUSH [tag] 104\t\t\ttoken.balanceOf(treasury)\n          JUMP \t\t\ttoken.balanceOf(treasury)\n        tag 103\t\t\ttoken.balanceOf(treasury)\n          JUMPDEST \t\t\ttoken.balanceOf(treasury)\n          DUP2 \t\t\tamount\n          GT \t\t\tamount <= token.balanceOf(trea...\n          ISZERO \t\t\tamount <= token.balanceOf(trea...\n          PUSH [tag] 105\t\t\trequire(amount <= token.balanc...\n          JUMPI \t\t\trequire(amount <= token.balanc...\n          PUSH 40\t\t\trequire(amount <= token.balanc...\n          MLOAD \t\t\trequire(amount <= token.balanc...\n          PUSH 8C379A000000000000000000000000000000000000000000000000000000000\t\t\trequire(amount <= token.balanc...\n          DUP2 \t\t\trequire(amount <= token.balanc...\n          MSTORE \t\t\trequire(amount <= token.balanc...\n          PUSH 4\t\t\trequire(amount <= token.balanc...\n          ADD \t\t\trequire(amount <= token.balanc...\n          PUSH [tag] 106\t\t\trequire(amount <= token.balanc...\n          SWAP1 \t\t\trequire(amount <= token.balanc...\n          PUSH [tag] 107\t\t\trequire(amount <= token.balanc...\n          JUMP \t\t\trequire(amount <= token.balanc...\n        tag 106\t\t\trequire(amount <= token.balanc...\n          JUMPDEST \t\t\trequire(amount <= token.balanc...\n          PUSH 40\t\t\trequire(amount <= token.balanc...\n          MLOAD \t\t\trequire(amount <= token.balanc...\n          DUP1 \t\t\trequire(amount <= token.balanc...\n          SWAP2 \t\t\trequire(amount <= token.balanc...\n          SUB \t\t\trequire(amount <= token.balanc...\n          SWAP1 \t\t\trequire(amount <= token.balanc...\n          REVERT \t\t\trequire(amount <= token.balanc...\n        tag 105\t\t\trequire(amount <= token.balanc...\n          JUMPDEST \t\t\trequire(amount <= token.balanc...\n          PUSHIMMUTABLE 930\t\t\ttoken\n          PUSH FFFFFFFFFFFFFFFFFFFFFFFFFFFFFFFFFFFFFFFF\t\t\ttoken.transferFrom\n          AND \t\t\ttoken.transferFrom\n          PUSH 23B872DD\t\t\ttoken.transferFrom\n          PUSH 1\t\t\ttreasury\n          PUSH 0\t\t\ttreasury\n          SWAP1 \t\t\ttreasury\n          SLOAD \t\t\ttreasury\n          SWAP1 \t\t\ttreasury\n          PUSH 100\t\t\ttreasury\n          EXP \t\t\ttreasury\n          SWAP1 \t\t\ttreasury\n          DIV \t\t\ttreasury\n          PUSH FFFFFFFFFFFFFFFFFFFFFFFFFFFFFFFFFFFFFFFF\t\t\ttreasury\n          AND \t\t\ttreasury\n          ADDRESS \t\t\tthis\n          DUP5 \t\t\tamount\n          PUSH 40\t\t\ttoken.transferFrom(treasury, a...\n          MLOAD \t\t\ttoken.transferFrom(treasury, a...\n          DUP5 \t\t\ttoken.transferFrom(treasury, a...\n          PUSH FFFFFFFF\t\t\ttoken.transferFrom(treasury, a...\n          AND \t\t\ttoken.transferFrom(treasury, a...\n          PUSH E0\t\t\ttoken.transferFrom(treasury, a...\n          SHL \t\t\ttoken.transferFrom(treasury, a...\n          DUP2 \t\t\ttoken.transferFrom(treasury, a...\n          MSTORE \t\t\ttoken.transferFrom(treasury, a...\n          PUSH 4\t\t\ttoken.transferFrom(treasury, a...\n          ADD \t\t\ttoken.transferFrom(treasury, a...\n          PUSH [tag] 108\t\t\ttoken.transferFrom(treasury, a...\n          SWAP4 \t\t\ttoken.transferFrom(treasury, a...\n          SWAP3 \t\t\ttoken.transferFrom(treasury, a...\n          SWAP2 \t\t\ttoken.transferFrom(treasury, a...\n          SWAP1 \t\t\ttoken.transferFrom(treasury, a...\n          PUSH [tag] 109\t\t\ttoken.transferFrom(treasury, a...\n          JUMP \t\t\ttoken.transferFrom(treasury, a...\n        tag 108\t\t\ttoken.transferFrom(treasury, a...\n          JUMPDEST \t\t\ttoken.transferFrom(treasury, a...\n          PUSH 20\t\t\ttoken.transferFrom(treasury, a...\n          PUSH 40\t\t\ttoken.transferFrom(treasury, a...\n          MLOAD \t\t\ttoken.transferFrom(treasury, a...\n          DUP1 \t\t\ttoken.transferFrom(treasury, a...\n          DUP4 \t\t\ttoken.transferFrom(treasury, a...\n          SUB \t\t\ttoken.transferFrom(treasury, a...\n          DUP2 \t\t\ttoken.transferFrom(treasury, a...\n          PUSH 0\t\t\ttoken.transferFrom(treasury, a...\n          DUP8 \t\t\ttoken.transferFrom(treasury, a...\n          GAS \t\t\ttoken.transferFrom(treasury, a...\n          CALL \t\t\ttoken.transferFrom(treasury, a...\n          ISZERO \t\t\ttoken.transferFrom(treasury, a...\n          DUP1 \t\t\ttoken.transferFrom(treasury, a...\n          ISZERO \t\t\ttoken.transferFrom(treasury, a...\n          PUSH [tag] 111\t\t\ttoken.transferFrom(treasury, a...\n          JUMPI \t\t\ttoken.transferFrom(treasury, a...\n          RETURNDATASIZE \t\t\ttoken.transferFrom(treasury, a...\n          PUSH 0\t\t\ttoken.transferFrom(treasury, a...\n          DUP1 \t\t\ttoken.transferFrom(treasury, a...\n          RETURNDATACOPY \t\t\ttoken.transferFrom(treasury, a...\n          RETURNDATASIZE \t\t\ttoken.transferFrom(treasury, a...\n          PUSH 0\t\t\ttoken.transferFrom(treasury, a...\n          REVERT \t\t\ttoken.transferFrom(treasury, a...\n        tag 111\t\t\ttoken.transferFrom(treasury, a...\n          JUMPDEST \t\t\ttoken.transferFrom(treasury, a...\n          POP \t\t\ttoken.transferFrom(treasury, a...\n          POP \t\t\ttoken.transferFrom(treasury, a...\n          POP \t\t\ttoken.transferFrom(treasury, a...\n          POP \t\t\ttoken.transferFrom(treasury, a...\n          PUSH 40\t\t\ttoken.transferFrom(treasury, a...\n          MLOAD \t\t\ttoken.transferFrom(treasury, a...\n          RETURNDATASIZE \t\t\ttoken.transferFrom(treasury, a...\n          PUSH 1F\t\t\ttoken.transferFrom(treasury, a...\n          NOT \t\t\ttoken.transferFrom(treasury, a...\n          PUSH 1F\t\t\ttoken.transferFrom(treasury, a...\n          DUP3 \t\t\ttoken.transferFrom(treasury, a...\n          ADD \t\t\ttoken.transferFrom(treasury, a...\n          AND \t\t\ttoken.transferFrom(treasury, a...\n          DUP3 \t\t\ttoken.transferFrom(treasury, a...\n          ADD \t\t\ttoken.transferFrom(treasury, a...\n          DUP1 \t\t\ttoken.transferFrom(treasury, a...\n          PUSH 40\t\t\ttoken.transferFrom(treasury, a...\n          MSTORE \t\t\ttoken.transferFrom(treasury, a...\n          POP \t\t\ttoken.transferFrom(treasury, a...\n          DUP2 \t\t\ttoken.transferFrom(treasury, a...\n          ADD \t\t\ttoken.transferFrom(treasury, a...\n          SWAP1 \t\t\ttoken.transferFrom(treasury, a...\n          PUSH [tag] 112\t\t\ttoken.transferFrom(treasury, a...\n          SWAP2 \t\t\ttoken.transferFrom(treasury, a...\n          SWAP1 \t\t\ttoken.transferFrom(treasury, a...\n          PUSH [tag] 113\t\t\ttoken.transferFrom(treasury, a...\n          JUMP \t\t\ttoken.transferFrom(treasury, a...\n        tag 112\t\t\ttoken.transferFrom(treasury, a...\n          JUMPDEST \t\t\ttoken.transferFrom(treasury, a...\n          POP \t\t\ttoken.transferFrom(treasury, a...\n          PUSHIMMUTABLE 930\t\t\ttoken\n          PUSH FFFFFFFFFFFFFFFFFFFFFFFFFFFFFFFFFFFFFFFF\t\t\ttoken.transfer\n          AND \t\t\ttoken.transfer\n          PUSH A9059CBB\t\t\ttoken.transfer\n          PUSH 0\t\t\t0\n          DUP4 \t\t\tamount\n          PUSH 40\t\t\ttoken.transfer(address(0), amo...\n          MLOAD \t\t\ttoken.transfer(address(0), amo...\n          DUP4 \t\t\ttoken.transfer(address(0), amo...\n          PUSH FFFFFFFF\t\t\ttoken.transfer(address(0), amo...\n          AND \t\t\ttoken.transfer(address(0), amo...\n          PUSH E0\t\t\ttoken.transfer(address(0), amo...\n          SHL \t\t\ttoken.transfer(address(0), amo...\n          DUP2 \t\t\ttoken.transfer(address(0), amo...\n          MSTORE \t\t\ttoken.transfer(address(0), amo...\n          PUSH 4\t\t\ttoken.transfer(address(0), amo...\n          ADD \t\t\ttoken.transfer(address(0), amo...\n          PUSH [tag] 114\t\t\ttoken.transfer(address(0), amo...\n          SWAP3 \t\t\ttoken.transfer(address(0), amo...\n          SWAP2 \t\t\ttoken.transfer(address(0), amo...\n          SWAP1 \t\t\ttoken.transfer(address(0), amo...\n          PUSH [tag] 115\t\t\ttoken.transfer(address(0), amo...\n          JUMP \t\t\ttoken.transfer(address(0), amo...\n        tag 114\t\t\ttoken.transfer(address(0), amo...\n          JUMPDEST \t\t\ttoken.transfer(address(0), amo...\n          PUSH 20\t\t\ttoken.transfer(address(0), amo...\n          PUSH 40\t\t\ttoken.transfer(address(0), amo...\n          MLOAD \t\t\ttoken.transfer(address(0), amo...\n          DUP1 \t\t\ttoken.transfer(address(0), amo...\n          DUP4 \t\t\ttoken.transfer(address(0), amo...\n          SUB \t\t\ttoken.transfer(address(0), amo...\n          DUP2 \t\t\ttoken.transfer(address(0), amo...\n          PUSH 0\t\t\ttoken.transfer(address(0), amo...\n          DUP8 \t\t\ttoken.transfer(address(0), amo...\n          GAS \t\t\ttoken.transfer(address(0), amo...\n          CALL \t\t\ttoken.transfer(address(0), amo...\n          ISZERO \t\t\ttoken.transfer(address(0), amo...\n          DUP1 \t\t\ttoken.transfer(address(0), amo...\n          ISZERO \t\t\ttoken.transfer(address(0), amo...\n          PUSH [tag] 117\t\t\ttoken.transfer(address(0), amo...\n          JUMPI \t\t\ttoken.transfer(address(0), amo...\n          RETURNDATASIZE \t\t\ttoken.transfer(address(0), amo...\n          PUSH 0\t\t\ttoken.transfer(address(0), amo...\n          DUP1 \t\t\ttoken.transfer(address(0), amo...\n          RETURNDATACOPY \t\t\ttoken.transfer(address(0), amo...\n          RETURNDATASIZE \t\t\ttoken.transfer(address(0), amo...\n          PUSH 0\t\t\ttoken.transfer(address(0), amo...\n          REVERT \t\t\ttoken.transfer(address(0), amo...\n        tag 117\t\t\ttoken.transfer(address(0), amo...\n          JUMPDEST \t\t\ttoken.transfer(address(0), amo...\n          POP \t\t\ttoken.transfer(address(0), amo...\n          POP \t\t\ttoken.transfer(address(0), amo...\n          POP \t\t\ttoken.transfer(address(0), amo...\n          POP \t\t\ttoken.transfer(address(0), amo...\n          PUSH 40\t\t\ttoken.transfer(address(0), amo...\n          MLOAD \t\t\ttoken.transfer(address(0), amo...\n          RETURNDATASIZE \t\t\ttoken.transfer(address(0), amo...\n          PUSH 1F\t\t\ttoken.transfer(address(0), amo...\n          NOT \t\t\ttoken.transfer(address(0), amo...\n          PUSH 1F\t\t\ttoken.transfer(address(0), amo...\n          DUP3 \t\t\ttoken.transfer(address(0), amo...\n          ADD \t\t\ttoken.transfer(address(0), amo...\n          AND \t\t\ttoken.transfer(address(0), amo...\n          DUP3 \t\t\ttoken.transfer(address(0), amo...\n          ADD \t\t\ttoken.transfer(address(0), amo...\n          DUP1 \t\t\ttoken.transfer(address(0), amo...\n          PUSH 40\t\t\ttoken.transfer(address(0), amo...\n          MSTORE \t\t\ttoken.transfer(address(0), amo...\n          POP \t\t\ttoken.transfer(address(0), amo...\n          DUP2 \t\t\ttoken.transfer(address(0), amo...\n          ADD \t\t\ttoken.transfer(address(0), amo...\n          SWAP1 \t\t\ttoken.transfer(address(0), amo...\n          PUSH [tag] 118\t\t\ttoken.transfer(address(0), amo...\n          SWAP2 \t\t\ttoken.transfer(address(0), amo...\n          SWAP1 \t\t\ttoken.transfer(address(0), amo...\n          PUSH [tag] 113\t\t\ttoken.transfer(address(0), amo...\n          JUMP \t\t\ttoken.transfer(address(0), amo...\n        tag 118\t\t\ttoken.transfer(address(0), amo...\n          JUMPDEST \t\t\ttoken.transfer(address(0), amo...\n          POP \t\t\ttoken.transfer(address(0), amo...\n          POP \t\t\tfunction executeBuyback(uint25...\n          JUMP \t\t\tfunction executeBuyback(uint25...\n        tag 53\t\t\tfunction holdersCount() extern...\n          JUMPDEST \t\t\tfunction holdersCount() extern...\n          PUSH 0\t\t\tuint256\n          PUSH 3\t\t\tholderList\n          DUP1 \t\t\tholderList.length\n          SLOAD \t\t\tholderList.length\n          SWAP1 \t\t\tholderList.length\n          POP \t\t\tholderList.length\n          SWAP1 \t\t\treturn holderList.length\n          POP \t\t\treturn holderList.length\n          SWAP1 \t\t\tfunction holdersCount() extern...\n          JUMP \t\t\tfunction holdersCount() extern...\n        tag 56\t\t\tfunction renounceOwnership() p...\n          JUMPDEST \t\t\tfunction renounceOwnership() p...\n          PUSH [tag] 121\t\t\t_msgSender()\n          PUSH [tag] 94\t\t\t_msgSender\n          JUMP \t\t\t_msgSender()\n        tag 121\t\t\t_msgSender()\n          JUMPDEST \t\t\t_msgSender()\n          PUSH FFFFFFFFFFFFFFFFFFFFFFFFFFFFFFFFFFFFFFFF\t\t\towner() == _msgSender()\n          AND \t\t\towner() == _msgSender()\n          PUSH [tag] 122\t\t\towner()\n          PUSH [tag] 58\t\t\towner\n          JUMP \t\t\towner()\n        tag 122\t\t\towner()\n          JUMPDEST \t\t\towner()\n          PUSH FFFFFFFFFFFFFFFFFFFFFFFFFFFFFFFFFFFFFFFF\t\t\towner() == _msgSender()\n          AND \t\t\towner() == _msgSender()\n          EQ \t\t\towner() == _msgSender()\n          PUSH [tag] 123\t\t\trequire(owner() == _msgSender(...\n          JUMPI \t\t\trequire(owner() == _msgSender(...\n          PUSH 40\t\t\trequire(owner() == _msgSender(...\n          MLOAD \t\t\trequire(owner() == _msgSender(...\n          PUSH 8C379A000000000000000000000000000000000000000000000000000000000\t\t\trequire(owner() == _msgSender(...\n          DUP2 \t\t\trequire(owner() == _msgSender(...\n          MSTORE \t\t\trequire(owner() == _msgSender(...\n          PUSH 4\t\t\trequire(owner() == _msgSender(...\n          ADD \t\t\trequire(owner() == _msgSender(...\n          PUSH [tag] 124\t\t\trequire(owner() == _msgSender(...\n          SWAP1 \t\t\trequire(owner() == _msgSender(...\n          PUSH [tag] 98\t\t\trequire(owner() == _msgSender(...\n          JUMP \t\t\trequire(owner() == _msgSender(...\n        tag 124\t\t\trequire(owner() == _msgSender(...\n          JUMPDEST \t\t\trequire(owner() == _msgSender(...\n          PUSH 40\t\t\trequire(owner() == _msgSender(...\n          MLOAD \t\t\trequire(owner() == _msgSender(...\n          DUP1 \t\t\trequire(owner() == _msgSender(...\n          SWAP2 \t\t\trequire(owner() == _msgSender(...\n          SUB \t\t\trequire(owner() == _msgSender(...\n          SWAP1 \t\t\trequire(owner() == _msgSender(...\n          REVERT \t\t\trequire(owner() == _msgSender(...\n        tag 123\t\t\trequire(owner() == _msgSender(...\n          JUMPDEST \t\t\trequire(owner() == _msgSender(...\n          PUSH [tag] 126\t\t\t_transferOwnership(address(0))\n          PUSH 0\t\t\t0\n          PUSH [tag] 127\t\t\t_transferOwnership\n          JUMP \t\t\t_transferOwnership(address(0))\n        tag 126\t\t\t_transferOwnership(address(0))\n          JUMPDEST \t\t\t_transferOwnership(address(0))\n          JUMP \t\t\tfunction renounceOwnership() p...\n        tag 58\t\t\tfunction owner() public view v...\n          JUMPDEST \t\t\tfunction owner() public view v...\n          PUSH 0\t\t\taddress\n          DUP1 \t\t\t_owner\n          PUSH 0\t\t\t_owner\n          SWAP1 \t\t\t_owner\n          SLOAD \t\t\t_owner\n          SWAP1 \t\t\t_owner\n          PUSH 100\t\t\t_owner\n          EXP \t\t\t_owner\n          SWAP1 \t\t\t_owner\n          DIV \t\t\t_owner\n          PUSH FFFFFFFFFFFFFFFFFFFFFFFFFFFFFFFFFFFFFFFF\t\t\t_owner\n          AND \t\t\t_owner\n          SWAP1 \t\t\treturn _owner\n          POP \t\t\treturn _owner\n          SWAP1 \t\t\tfunction owner() public view v...\n          JUMP \t\t\tfunction owner() public view v...\n        tag 63\t\t\tfunction updateHolderShare(add...\n          JUMPDEST \t\t\tfunction updateHolderShare(add...\n          PUSHIMMUTABLE 930\t\t\ttoken\n          PUSH FFFFFFFFFFFFFFFFFFFFFFFFFFFFFFFFFFFFFFFF\t\t\tmsg.sender == address(token)\n          AND \t\t\tmsg.sender == address(token)\n          CALLER \t\t\tmsg.sender\n          PUSH FFFFFFFFFFFFFFFFFFFFFFFFFFFFFFFFFFFFFFFF\t\t\tmsg.sender == address(token)\n          AND \t\t\tmsg.sender == address(token)\n          EQ \t\t\tmsg.sender == address(token)\n          PUSH [tag] 130\t\t\trequire(msg.sender == address(...\n          JUMPI \t\t\trequire(msg.sender == address(...\n          PUSH 40\t\t\trequire(msg.sender == address(...\n          MLOAD \t\t\trequire(msg.sender == address(...\n          PUSH 8C379A000000000000000000000000000000000000000000000000000000000\t\t\trequire(msg.sender == address(...\n          DUP2 \t\t\trequire(msg.sender == address(...\n          MSTORE \t\t\trequire(msg.sender == address(...\n          PUSH 4\t\t\trequire(msg.sender == address(...\n          ADD \t\t\trequire(msg.sender == address(...\n          PUSH [tag] 131\t\t\trequire(msg.sender == address(...\n          SWAP1 \t\t\trequire(msg.sender == address(...\n          PUSH [tag] 132\t\t\trequire(msg.sender == address(...\n          JUMP \t\t\trequire(msg.sender == address(...\n        tag 131\t\t\trequire(msg.sender == address(...\n          JUMPDEST \t\t\trequire(msg.sender == address(...\n          PUSH 40\t\t\trequire(msg.sender == address(...\n          MLOAD \t\t\trequire(msg.sender == address(...\n          DUP1 \t\t\trequire(msg.sender == address(...\n          SWAP2 \t\t\trequire(msg.sender == address(...\n          SUB \t\t\trequire(msg.sender == address(...\n          SWAP1 \t\t\trequire(msg.sender == address(...\n          REVERT \t\t\trequire(msg.sender == address(...\n        tag 130\t\t\trequire(msg.sender == address(...\n          JUMPDEST \t\t\trequire(msg.sender == address(...\n          PUSH 0\t\t\t0\n          PUSH FFFFFFFFFFFFFFFFFFFFFFFFFFFFFFFFFFFFFFFF\t\t\tfrom != address(0)\n          AND \t\t\tfrom != address(0)\n          DUP3 \t\t\tfrom\n          PUSH FFFFFFFFFFFFFFFFFFFFFFFFFFFFFFFFFFFFFFFF\t\t\tfrom != address(0)\n          AND \t\t\tfrom != address(0)\n          EQ \t\t\tfrom != address(0)\n          ISZERO \t\t\tfrom != address(0)\n          DUP1 \t\t\tfrom != address(0) && holders[...\n          ISZERO \t\t\tfrom != address(0) && holders[...\n          PUSH [tag] 133\t\t\tfrom != address(0) && holders[...\n          JUMPI \t\t\tfrom != address(0) && holders[...\n          POP \t\t\tfrom != address(0) && holders[...\n          PUSH 0\t\t\t0\n          PUSH 2\t\t\tholders\n          PUSH 0\t\t\tholders[from]\n          DUP5 \t\t\tfrom\n          PUSH FFFFFFFFFFFFFFFFFFFFFFFFFFFFFFFFFFFFFFFF\t\t\tholders[from]\n          AND \t\t\tholders[from]\n          PUSH FFFFFFFFFFFFFFFFFFFFFFFFFFFFFFFFFFFFFFFF\t\t\tholders[from]\n          AND \t\t\tholders[from]\n          DUP2 \t\t\tholders[from]\n          MSTORE \t\t\tholders[from]\n          PUSH 20\t\t\tholders[from]\n          ADD \t\t\tholders[from]\n          SWAP1 \t\t\tholders[from]\n          DUP2 \t\t\tholders[from]\n          MSTORE \t\t\tholders[from]\n          PUSH 20\t\t\tholders[from]\n          ADD \t\t\tholders[from]\n          PUSH 0\t\t\tholders[from]\n          KECCAK256 \t\t\tholders[from]\n          PUSH 0\t\t\tholders[from].lastClaim\n          ADD \t\t\tholders[from].lastClaim\n          SLOAD \t\t\tholders[from].lastClaim\n          EQ \t\t\tholders[from].lastClaim == 0\n        tag 133\t\t\tfrom != address(0) && holders[...\n          JUMPDEST \t\t\tfrom != address(0) && holders[...\n          ISZERO \t\t\tif (from != address(0) && hold...\n          PUSH [tag] 134\t\t\tif (from != address(0) && hold...\n          JUMPI \t\t\tif (from != address(0) && hold...\n          PUSH 3\t\t\tholderList\n          DUP3 \t\t\tfrom\n          SWAP1 \t\t\tholderList.push(from)\n          DUP1 \t\t\tholderList.push(from)\n          PUSH 1\t\t\tholderList.push(from)\n          DUP2 \t\t\tholderList.push(from)\n          SLOAD \t\t\tholderList.push(from)\n          ADD \t\t\tholderList.push(from)\n          DUP1 \t\t\tholderList.push(from)\n          DUP3 \t\t\tholderList.push(from)\n          SSTORE \t\t\tholderList.push(from)\n          DUP1 \t\t\tholderList.push(from)\n          SWAP2 \t\t\tholderList.push(from)\n          POP \t\t\tholderList.push(from)\n          POP \t\t\tholderList.push(from)\n          PUSH 1\t\t\tholderList.push(from)\n          SWAP1 \t\t\tholderList.push(from)\n          SUB \t\t\tholderList.push(from)\n          SWAP1 \t\t\tholderList.push(from)\n          PUSH 0\t\t\tholderList.push(from)\n          MSTORE \t\t\tholderList.push(from)\n          PUSH 20\t\t\tholderList.push(from)\n          PUSH 0\t\t\tholderList.push(from)\n          KECCAK256 \t\t\tholderList.push(from)\n          ADD \t\t\tholderList.push(from)\n          PUSH 0\t\t\tholderList.push(from)\n          SWAP1 \t\t\tholderList.push(from)\n          SWAP2 \t\t\tholderList.push(from)\n          SWAP1 \t\t\tholderList.push(from)\n          SWAP2 \t\t\tholderList.push(from)\n          SWAP1 \t\t\tholderList.push(from)\n          SWAP2 \t\t\tholderList.push(from)\n          PUSH 100\t\t\tholderList.push(from)\n          EXP \t\t\tholderList.push(from)\n          DUP2 \t\t\tholderList.push(from)\n          SLOAD \t\t\tholderList.push(from)\n          DUP2 \t\t\tholderList.push(from)\n          PUSH FFFFFFFFFFFFFFFFFFFFFFFFFFFFFFFFFFFFFFFF\t\t\tholderList.push(from)\n          MUL \t\t\tholderList.push(from)\n          NOT \t\t\tholderList.push(from)\n          AND \t\t\tholderList.push(from)\n          SWAP1 \t\t\tholderList.push(from)\n          DUP4 \t\t\tholderList.push(from)\n          PUSH FFFFFFFFFFFFFFFFFFFFFFFFFFFFFFFFFFFFFFFF\t\t\tholderList.push(from)\n          AND \t\t\tholderList.push(from)\n          MUL \t\t\tholderList.push(from)\n          OR \t\t\tholderList.push(from)\n          SWAP1 \t\t\tholderList.push(from)\n          SSTORE \t\t\tholderList.push(from)\n          POP \t\t\tholderList.push(from)\n        tag 134\t\t\tif (from != address(0) && hold...\n          JUMPDEST \t\t\tif (from != address(0) && hold...\n          PUSH 0\t\t\t0\n          PUSH FFFFFFFFFFFFFFFFFFFFFFFFFFFFFFFFFFFFFFFF\t\t\tto != address(0)\n          AND \t\t\tto != address(0)\n          DUP2 \t\t\tto\n          PUSH FFFFFFFFFFFFFFFFFFFFFFFFFFFFFFFFFFFFFFFF\t\t\tto != address(0)\n          AND \t\t\tto != address(0)\n          EQ \t\t\tto != address(0)\n          ISZERO \t\t\tto != address(0)\n          DUP1 \t\t\tto != address(0) && holders[to...\n          ISZERO \t\t\tto != address(0) && holders[to...\n          PUSH [tag] 136\t\t\tto != address(0) && holders[to...\n          JUMPI \t\t\tto != address(0) && holders[to...\n          POP \t\t\tto != address(0) && holders[to...\n          PUSH 0\t\t\t0\n          PUSH 2\t\t\tholders\n          PUSH 0\t\t\tholders[to]\n          DUP4 \t\t\tto\n          PUSH FFFFFFFFFFFFFFFFFFFFFFFFFFFFFFFFFFFFFFFF\t\t\tholders[to]\n          AND \t\t\tholders[to]\n          PUSH FFFFFFFFFFFFFFFFFFFFFFFFFFFFFFFFFFFFFFFF\t\t\tholders[to]\n          AND \t\t\tholders[to]\n          DUP2 \t\t\tholders[to]\n          MSTORE \t\t\tholders[to]\n          PUSH 20\t\t\tholders[to]\n          ADD \t\t\tholders[to]\n          SWAP1 \t\t\tholders[to]\n          DUP2 \t\t\tholders[to]\n          MSTORE \t\t\tholders[to]\n          PUSH 20\t\t\tholders[to]\n          ADD \t\t\tholders[to]\n          PUSH 0\t\t\tholders[to]\n          KECCAK256 \t\t\tholders[to]\n          PUSH 0\t\t\tholders[to].lastClaim\n          ADD \t\t\tholders[to].lastClaim\n          SLOAD \t\t\tholders[to].lastClaim\n          EQ \t\t\tholders[to].lastClaim == 0\n        tag 136\t\t\tto != address(0) && holders[to...\n          JUMPDEST \t\t\tto != address(0) && holders[to...\n          ISZERO \t\t\tif (to != address(0) && holder...\n          PUSH [tag] 137\t\t\tif (to != address(0) && holder...\n          JUMPI \t\t\tif (to != address(0) && holder...\n          PUSH 3\t\t\tholderList\n          DUP2 \t\t\tto\n          SWAP1 \t\t\tholderList.push(to)\n          DUP1 \t\t\tholderList.push(to)\n          PUSH 1\t\t\tholderList.push(to)\n          DUP2 \t\t\tholderList.push(to)\n          SLOAD \t\t\tholderList.push(to)\n          ADD \t\t\tholderList.push(to)\n          DUP1 \t\t\tholderList.push(to)\n          DUP3 \t\t\tholderList.push(to)\n          SSTORE \t\t\tholderList.push(to)\n          DUP1 \t\t\tholderList.push(to)\n          SWAP2 \t\t\tholderList.push(to)\n          POP \t\t\tholderList.push(to)\n          POP \t\t\tholderList.push(to)\n          PUSH 1\t\t\tholderList.push(to)\n          SWAP1 \t\t\tholderList.push(to)\n          SUB \t\t\tholderList.push(to)\n          SWAP1 \t\t\tholderList.push(to)\n          PUSH 0\t\t\tholderList.push(to)\n          MSTORE \t\t\tholderList.push(to)\n          PUSH 20\t\t\tholderList.push(to)\n          PUSH 0\t\t\tholderList.push(to)\n          KECCAK256 \t\t\tholderList.push(to)\n          ADD \t\t\tholderList.push(to)\n          PUSH 0\t\t\tholderList.push(to)\n          SWAP1 \t\t\tholderList.push(to)\n          SWAP2 \t\t\tholderList.push(to)\n          SWAP1 \t\t\tholderList.push(to)\n          SWAP2 \t\t\tholderList.push(to)\n          SWAP1 \t\t\tholderList.push(to)\n          SWAP2 \t\t\tholderList.push(to)\n          PUSH 100\t\t\tholderList.push(to)\n          EXP \t\t\tholderList.push(to)\n          DUP2 \t\t\tholderList.push(to)\n          SLOAD \t\t\tholderList.push(to)\n          DUP2 \t\t\tholderList.push(to)\n          PUSH FFFFFFFFFFFFFFFFFFFFFFFFFFFFFFFFFFFFFFFF\t\t\tholderList.push(to)\n          MUL \t\t\tholderList.push(to)\n          NOT \t\t\tholderList.push(to)\n          AND \t\t\tholderList.push(to)\n          SWAP1 \t\t\tholderList.push(to)\n          DUP4 \t\t\tholderList.push(to)\n          PUSH FFFFFFFFFFFFFFFFFFFFFFFFFFFFFFFFFFFFFFFF\t\t\tholderList.push(to)\n          AND \t\t\tholderList.push(to)\n          MUL \t\t\tholderList.push(to)\n          OR \t\t\tholderList.push(to)\n          SWAP1 \t\t\tholderList.push(to)\n          SSTORE \t\t\tholderList.push(to)\n          POP \t\t\tholderList.push(to)\n        tag 137\t\t\tif (to != address(0) && holder...\n          JUMPDEST \t\t\tif (to != address(0) && holder...\n          PUSHIMMUTABLE 930\t\t\ttoken\n          PUSH FFFFFFFFFFFFFFFFFFFFFFFFFFFFFFFFFFFFFFFF\t\t\ttoken.balanceOf\n          AND \t\t\ttoken.balanceOf\n          PUSH 70A08231\t\t\ttoken.balanceOf\n          ADDRESS \t\t\tthis\n          PUSH 40\t\t\ttoken.balanceOf(address(this))\n          MLOAD \t\t\ttoken.balanceOf(address(this))\n          DUP3 \t\t\ttoken.balanceOf(address(this))\n          PUSH FFFFFFFF\t\t\ttoken.balanceOf(address(this))\n          AND \t\t\ttoken.balanceOf(address(this))\n          PUSH E0\t\t\ttoken.balanceOf(address(this))\n          SHL \t\t\ttoken.balanceOf(address(this))\n          DUP2 \t\t\ttoken.balanceOf(address(this))\n          MSTORE \t\t\ttoken.balanceOf(address(this))\n          PUSH 4\t\t\ttoken.balanceOf(address(this))\n          ADD \t\t\ttoken.balanceOf(address(this))\n          PUSH [tag] 139\t\t\ttoken.balanceOf(address(this))\n          SWAP2 \t\t\ttoken.balanceOf(address(this))\n          SWAP1 \t\t\ttoken.balanceOf(address(this))\n          PUSH [tag] 26\t\t\ttoken.balanceOf(address(this))\n          JUMP \t\t\ttoken.balanceOf(address(this))\n        tag 139\t\t\ttoken.balanceOf(address(this))\n          JUMPDEST \t\t\ttoken.balanceOf(address(this))\n          PUSH 20\t\t\ttoken.balanceOf(address(this))\n          PUSH 40\t\t\ttoken.balanceOf(address(this))\n          MLOAD \t\t\ttoken.balanceOf(address(this))\n          DUP1 \t\t\ttoken.balanceOf(address(this))\n          DUP4 \t\t\ttoken.balanceOf(address(this))\n          SUB \t\t\ttoken.balanceOf(address(this))\n          DUP2 \t\t\ttoken.balanceOf(address(this))\n          DUP7 \t\t\ttoken.balanceOf(address(this))\n          GAS \t\t\ttoken.balanceOf(address(this))\n          STATICCALL \t\t\ttoken.balanceOf(address(this))\n          ISZERO \t\t\ttoken.balanceOf(address(this))\n          DUP1 \t\t\ttoken.balanceOf(address(this))\n          ISZERO \t\t\ttoken.balanceOf(address(this))\n          PUSH [tag] 141\t\t\ttoken.balanceOf(address(this))\n          JUMPI \t\t\ttoken.balanceOf(address(this))\n          RETURNDATASIZE \t\t\ttoken.balanceOf(address(this))\n          PUSH 0\t\t\ttoken.balanceOf(address(this))\n          DUP1 \t\t\ttoken.balanceOf(address(this))\n          RETURNDATACOPY \t\t\ttoken.balanceOf(address(this))\n          RETURNDATASIZE \t\t\ttoken.balanceOf(address(this))\n          PUSH 0\t\t\ttoken.balanceOf(address(this))\n          REVERT \t\t\ttoken.balanceOf(address(this))\n        tag 141\t\t\ttoken.balanceOf(address(this))\n          JUMPDEST \t\t\ttoken.balanceOf(address(this))\n          POP \t\t\ttoken.balanceOf(address(this))\n          POP \t\t\ttoken.balanceOf(address(this))\n          POP \t\t\ttoken.balanceOf(address(this))\n          POP \t\t\ttoken.balanceOf(address(this))\n          PUSH 40\t\t\ttoken.balanceOf(address(this))\n          MLOAD \t\t\ttoken.balanceOf(address(this))\n          RETURNDATASIZE \t\t\ttoken.balanceOf(address(this))\n          PUSH 1F\t\t\ttoken.balanceOf(address(this))\n          NOT \t\t\ttoken.balanceOf(address(this))\n          PUSH 1F\t\t\ttoken.balanceOf(address(this))\n          DUP3 \t\t\ttoken.balanceOf(address(this))\n          ADD \t\t\ttoken.balanceOf(address(this))\n          AND \t\t\ttoken.balanceOf(address(this))\n          DUP3 \t\t\ttoken.balanceOf(address(this))\n          ADD \t\t\ttoken.balanceOf(address(this))\n          DUP1 \t\t\ttoken.balanceOf(address(this))\n          PUSH 40\t\t\ttoken.balanceOf(address(this))\n          MSTORE \t\t\ttoken.balanceOf(address(this))\n          POP \t\t\ttoken.balanceOf(address(this))\n          DUP2 \t\t\ttoken.balanceOf(address(this))\n          ADD \t\t\ttoken.balanceOf(address(this))\n          SWAP1 \t\t\ttoken.balanceOf(address(this))\n          PUSH [tag] 142\t\t\ttoken.balanceOf(address(this))\n          SWAP2 \t\t\ttoken.balanceOf(address(this))\n          SWAP1 \t\t\ttoken.balanceOf(address(this))\n          PUSH [tag] 104\t\t\ttoken.balanceOf(address(this))\n          JUMP \t\t\ttoken.balanceOf(address(this))\n        tag 142\t\t\ttoken.balanceOf(address(this))\n          JUMPDEST \t\t\ttoken.balanceOf(address(this))\n          PUSH 4\t\t\trewardPool\n          DUP2 \t\t\trewardPool = token.balanceOf(a...\n          SWAP1 \t\t\trewardPool = token.balanceOf(a...\n          SSTORE \t\t\trewardPool = token.balanceOf(a...\n          POP \t\t\trewardPool = token.balanceOf(a...\n          POP \t\t\tfunction updateHolderShare(add...\n          POP \t\t\tfunction updateHolderShare(add...\n          JUMP \t\t\tfunction updateHolderShare(add...\n        tag 66\t\t\tfunction setPayoutToken(addres...\n          JUMPDEST \t\t\tfunction setPayoutToken(addres...\n          PUSH [tag] 144\t\t\t_msgSender()\n          PUSH [tag] 94\t\t\t_msgSender\n          JUMP \t\t\t_msgSender()\n        tag 144\t\t\t_msgSender()\n          JUMPDEST \t\t\t_msgSender()\n          PUSH FFFFFFFFFFFFFFFFFFFFFFFFFFFFFFFFFFFFFFFF\t\t\towner() == _msgSender()\n          AND \t\t\towner() == _msgSender()\n          PUSH [tag] 145\t\t\towner()\n          PUSH [tag] 58\t\t\towner\n          JUMP \t\t\towner()\n        tag 145\t\t\towner()\n          JUMPDEST \t\t\towner()\n          PUSH FFFFFFFFFFFFFFFFFFFFFFFFFFFFFFFFFFFFFFFF\t\t\towner() == _msgSender()\n          AND \t\t\towner() == _msgSender()\n          EQ \t\t\towner() == _msgSender()\n          PUSH [tag] 146\t\t\trequire(owner() == _msgSender(...\n          JUMPI \t\t\trequire(owner() == _msgSender(...\n          PUSH 40\t\t\trequire(owner() == _msgSender(...\n          MLOAD \t\t\trequire(owner() == _msgSender(...\n          PUSH 8C379A000000000000000000000000000000000000000000000000000000000\t\t\trequire(owner() == _msgSender(...\n          DUP2 \t\t\trequire(owner() == _msgSender(...\n          MSTORE \t\t\trequire(owner() == _msgSender(...\n          PUSH 4\t\t\trequire(owner() == _msgSender(...\n          ADD \t\t\trequire(owner() == _msgSender(...\n          PUSH [tag] 147\t\t\trequire(owner() == _msgSender(...\n          SWAP1 \t\t\trequire(owner() == _msgSender(...\n          PUSH [tag] 98\t\t\trequire(owner() == _msgSender(...\n          JUMP \t\t\trequire(owner() == _msgSender(...\n        tag 147\t\t\trequire(owner() == _msgSender(...\n          JUMPDEST \t\t\trequire(owner() == _msgSender(...\n          PUSH 40\t\t\trequire(owner() == _msgSender(...\n          MLOAD \t\t\trequire(owner() == _msgSender(...\n          DUP1 \t\t\trequire(owner() == _msgSender(...\n          SWAP2 \t\t\trequire(owner() == _msgSender(...\n          SUB \t\t\trequire(owner() == _msgSender(...\n          SWAP1 \t\t\trequire(owner() == _msgSender(...\n          REVERT \t\t\trequire(owner() == _msgSender(...\n        tag 146\t\t\trequire(owner() == _msgSender(...\n          JUMPDEST \t\t\trequire(owner() == _msgSender(...\n          DUP1 \t\t\ttokenAddress\n          PUSH 5\t\t\tpayoutToken\n          PUSH 0\t\t\tpayoutToken\n          PUSH 100\t\t\tpayoutToken = IERC20Extended(t...\n          EXP \t\t\tpayoutToken = IERC20Extended(t...\n          DUP2 \t\t\tpayoutToken = IERC20Extended(t...\n          SLOAD \t\t\tpayoutToken = IERC20Extended(t...\n          DUP2 \t\t\tpayoutToken = IERC20Extended(t...\n          PUSH FFFFFFFFFFFFFFFFFFFFFFFFFFFFFFFFFFFFFFFF\t\t\tpayoutToken = IERC20Extended(t...\n          MUL \t\t\tpayoutToken = IERC20Extended(t...\n          NOT \t\t\tpayoutToken = IERC20Extended(t...\n          AND \t\t\tpayoutToken = IERC20Extended(t...\n          SWAP1 \t\t\tpayoutToken = IERC20Extended(t...\n          DUP4 \t\t\tpayoutToken = IERC20Extended(t...\n          PUSH FFFFFFFFFFFFFFFFFFFFFFFFFFFFFFFFFFFFFFFF\t\t\tpayoutToken = IERC20Extended(t...\n          AND \t\t\tpayoutToken = IERC20Extended(t...\n          MUL \t\t\tpayoutToken = IERC20Extended(t...\n          OR \t\t\tpayoutToken = IERC20Extended(t...\n          SWAP1 \t\t\tpayoutToken = IERC20Extended(t...\n          SSTORE \t\t\tpayoutToken = IERC20Extended(t...\n          POP \t\t\tpayoutToken = IERC20Extended(t...\n          POP \t\t\tfunction setPayoutToken(addres...\n          JUMP \t\t\tfunction setPayoutToken(addres...\n        tag 69\t\t\tfunction transferOwnership(add...\n          JUMPDEST \t\t\tfunction transferOwnership(add...\n          PUSH [tag] 150\t\t\t_msgSender()\n          PUSH [tag] 94\t\t\t_msgSender\n          JUMP \t\t\t_msgSender()\n        tag 150\t\t\t_msgSender()\n          JUMPDEST \t\t\t_msgSender()\n          PUSH FFFFFFFFFFFFFFFFFFFFFFFFFFFFFFFFFFFFFFFF\t\t\towner() == _msgSender()\n          AND \t\t\towner() == _msgSender()\n          PUSH [tag] 151\t\t\towner()\n          PUSH [tag] 58\t\t\towner\n          JUMP \t\t\towner()\n        tag 151\t\t\towner()\n          JUMPDEST \t\t\towner()\n          PUSH FFFFFFFFFFFFFFFFFFFFFFFFFFFFFFFFFFFFFFFF\t\t\towner() == _msgSender()\n          AND \t\t\towner() == _msgSender()\n          EQ \t\t\towner() == _msgSender()\n          PUSH [tag] 152\t\t\trequire(owner() == _msgSender(...\n          JUMPI \t\t\trequire(owner() == _msgSender(...\n          PUSH 40\t\t\trequire(owner() == _msgSender(...\n          MLOAD \t\t\trequire(owner() == _msgSender(...\n          PUSH 8C379A000000000000000000000000000000000000000000000000000000000\t\t\trequire(owner() == _msgSender(...\n          DUP2 \t\t\trequire(owner() == _msgSender(...\n          MSTORE \t\t\trequire(owner() == _msgSender(...\n          PUSH 4\t\t\trequire(owner() == _msgSender(...\n          ADD \t\t\trequire(owner() == _msgSender(...\n          PUSH [tag] 153\t\t\trequire(owner() == _msgSender(...\n          SWAP1 \t\t\trequire(owner() == _msgSender(...\n          PUSH [tag] 98\t\t\trequire(owner() == _msgSender(...\n          JUMP \t\t\trequire(owner() == _msgSender(...\n        tag 153\t\t\trequire(owner() == _msgSender(...\n          JUMPDEST \t\t\trequire(owner() == _msgSender(...\n          PUSH 40\t\t\trequire(owner() == _msgSender(...\n          MLOAD \t\t\trequire(owner() == _msgSender(...\n          DUP1 \t\t\trequire(owner() == _msgSender(...\n          SWAP2 \t\t\trequire(owner() == _msgSender(...\n          SUB \t\t\trequire(owner() == _msgSender(...\n          SWAP1 \t\t\trequire(owner() == _msgSender(...\n          REVERT \t\t\trequire(owner() == _msgSender(...\n        tag 152\t\t\trequire(owner() == _msgSender(...\n          JUMPDEST \t\t\trequire(owner() == _msgSender(...\n          PUSH 0\t\t\t0\n          PUSH FFFFFFFFFFFFFFFFFFFFFFFFFFFFFFFFFFFFFFFF\t\t\tnewOwner != address(0)\n          AND \t\t\tnewOwner != address(0)\n          DUP2 \t\t\tnewOwner\n          PUSH FFFFFFFFFFFFFFFFFFFFFFFFFFFFFFFFFFFFFFFF\t\t\tnewOwner != address(0)\n          AND \t\t\tnewOwner != address(0)\n          SUB \t\t\tnewOwner != address(0)\n          PUSH [tag] 155\t\t\trequire(newOwner != address(0)...\n          JUMPI \t\t\trequire(newOwner != address(0)...\n          PUSH 40\t\t\trequire(newOwner != address(0)...\n          MLOAD \t\t\trequire(newOwner != address(0)...\n          PUSH 8C379A000000000000000000000000000000000000000000000000000000000\t\t\trequire(newOwner != address(0)...\n          DUP2 \t\t\trequire(newOwner != address(0)...\n          MSTORE \t\t\trequire(newOwner != address(0)...\n          PUSH 4\t\t\trequire(newOwner != address(0)...\n          ADD \t\t\trequire(newOwner != address(0)...\n          PUSH [tag] 156\t\t\trequire(newOwner != address(0)...\n          SWAP1 \t\t\trequire(newOwner != address(0)...\n          PUSH [tag] 157\t\t\trequire(newOwner != address(0)...\n          JUMP \t\t\trequire(newOwner != address(0)...\n        tag 156\t\t\trequire(newOwner != address(0)...\n          JUMPDEST \t\t\trequire(newOwner != address(0)...\n          PUSH 40\t\t\trequire(newOwner != address(0)...\n          MLOAD \t\t\trequire(newOwner != address(0)...\n          DUP1 \t\t\trequire(newOwner != address(0)...\n          SWAP2 \t\t\trequire(newOwner != address(0)...\n          SUB \t\t\trequire(newOwner != address(0)...\n          SWAP1 \t\t\trequire(newOwner != address(0)...\n          REVERT \t\t\trequire(newOwner != address(0)...\n        tag 155\t\t\trequire(newOwner != address(0)...\n          JUMPDEST \t\t\trequire(newOwner != address(0)...\n          PUSH [tag] 158\t\t\t_transferOwnership(newOwner)\n          DUP2 \t\t\tnewOwner\n          PUSH [tag] 127\t\t\t_transferOwnership\n          JUMP \t\t\t_transferOwnership(newOwner)\n        tag 158\t\t\t_transferOwnership(newOwner)\n          JUMPDEST \t\t\t_transferOwnership(newOwner)\n          POP \t\t\tfunction transferOwnership(add...\n          JUMP \t\t\tfunction transferOwnership(add...\n        tag 71\t\t\tERC20 public immutable token\n          JUMPDEST \t\t\tERC20 public immutable token\n          PUSHIMMUTABLE 930\t\t\tERC20 public immutable token\n          DUP2 \t\t\tERC20 public immutable token\n          JUMP \t\t\tERC20 public immutable token\n        tag 86\t\t\tfunction _claim(address user) ...\n          JUMPDEST \t\t\tfunction _claim(address user) ...\n          PUSH 0\t\t\tuint256 balance\n          PUSHIMMUTABLE 930\t\t\ttoken\n          PUSH FFFFFFFFFFFFFFFFFFFFFFFFFFFFFFFFFFFFFFFF\t\t\ttoken.balanceOf\n          AND \t\t\ttoken.balanceOf\n          PUSH 70A08231\t\t\ttoken.balanceOf\n          DUP4 \t\t\tuser\n          PUSH 40\t\t\ttoken.balanceOf(user)\n          MLOAD \t\t\ttoken.balanceOf(user)\n          DUP3 \t\t\ttoken.balanceOf(user)\n          PUSH FFFFFFFF\t\t\ttoken.balanceOf(user)\n          AND \t\t\ttoken.balanceOf(user)\n          PUSH E0\t\t\ttoken.balanceOf(user)\n          SHL \t\t\ttoken.balanceOf(user)\n          DUP2 \t\t\ttoken.balanceOf(user)\n          MSTORE \t\t\ttoken.balanceOf(user)\n          PUSH 4\t\t\ttoken.balanceOf(user)\n          ADD \t\t\ttoken.balanceOf(user)\n          PUSH [tag] 160\t\t\ttoken.balanceOf(user)\n          SWAP2 \t\t\ttoken.balanceOf(user)\n          SWAP1 \t\t\ttoken.balanceOf(user)\n          PUSH [tag] 26\t\t\ttoken.balanceOf(user)\n          JUMP \t\t\ttoken.balanceOf(user)\n        tag 160\t\t\ttoken.balanceOf(user)\n          JUMPDEST \t\t\ttoken.balanceOf(user)\n          PUSH 20\t\t\ttoken.balanceOf(user)\n          PUSH 40\t\t\ttoken.balanceOf(user)\n          MLOAD \t\t\ttoken.balanceOf(user)\n          DUP1 \t\t\ttoken.balanceOf(user)\n          DUP4 \t\t\ttoken.balanceOf(user)\n          SUB \t\t\ttoken.balanceOf(user)\n          DUP2 \t\t\ttoken.balanceOf(user)\n          DUP7 \t\t\ttoken.balanceOf(user)\n          GAS \t\t\ttoken.balanceOf(user)\n          STATICCALL \t\t\ttoken.balanceOf(user)\n          ISZERO \t\t\ttoken.balanceOf(user)\n          DUP1 \t\t\ttoken.balanceOf(user)\n          ISZERO \t\t\ttoken.balanceOf(user)\n          PUSH [tag] 162\t\t\ttoken.balanceOf(user)\n          JUMPI \t\t\ttoken.balanceOf(user)\n          RETURNDATASIZE \t\t\ttoken.balanceOf(user)\n          PUSH 0\t\t\ttoken.balanceOf(user)\n          DUP1 \t\t\ttoken.balanceOf(user)\n          RETURNDATACOPY \t\t\ttoken.balanceOf(user)\n          RETURNDATASIZE \t\t\ttoken.balanceOf(user)\n          PUSH 0\t\t\ttoken.balanceOf(user)\n          REVERT \t\t\ttoken.balanceOf(user)\n        tag 162\t\t\ttoken.balanceOf(user)\n          JUMPDEST \t\t\ttoken.balanceOf(user)\n          POP \t\t\ttoken.balanceOf(user)\n          POP \t\t\ttoken.balanceOf(user)\n          POP \t\t\ttoken.balanceOf(user)\n          POP \t\t\ttoken.balanceOf(user)\n          PUSH 40\t\t\ttoken.balanceOf(user)\n          MLOAD \t\t\ttoken.balanceOf(user)\n          RETURNDATASIZE \t\t\ttoken.balanceOf(user)\n          PUSH 1F\t\t\ttoken.balanceOf(user)\n          NOT \t\t\ttoken.balanceOf(user)\n          PUSH 1F\t\t\ttoken.balanceOf(user)\n          DUP3 \t\t\ttoken.balanceOf(user)\n          ADD \t\t\ttoken.balanceOf(user)\n          AND \t\t\ttoken.balanceOf(user)\n          DUP3 \t\t\ttoken.balanceOf(user)\n          ADD \t\t\ttoken.balanceOf(user)\n          DUP1 \t\t\ttoken.balanceOf(user)\n          PUSH 40\t\t\ttoken.balanceOf(user)\n          MSTORE \t\t\ttoken.balanceOf(user)\n          POP \t\t\ttoken.balanceOf(user)\n          DUP2 \t\t\ttoken.balanceOf(user)\n          ADD \t\t\ttoken.balanceOf(user)\n          SWAP1 \t\t\ttoken.balanceOf(user)\n          PUSH [tag] 163\t\t\ttoken.balanceOf(user)\n          SWAP2 \t\t\ttoken.balanceOf(user)\n          SWAP1 \t\t\ttoken.balanceOf(user)\n          PUSH [tag] 104\t\t\ttoken.balanceOf(user)\n          JUMP \t\t\ttoken.balanceOf(user)\n        tag 163\t\t\ttoken.balanceOf(user)\n          JUMPDEST \t\t\ttoken.balanceOf(user)\n          SWAP1 \t\t\tuint256 balance = token.balanc...\n          POP \t\t\tuint256 balance = token.balanc...\n          PUSH 0\t\t\t0\n          DUP2 \t\t\tbalance\n          EQ \t\t\tbalance == 0\n          DUP1 \t\t\tbalance == 0 || rewardPool == ...\n          PUSH [tag] 164\t\t\tbalance == 0 || rewardPool == ...\n          JUMPI \t\t\tbalance == 0 || rewardPool == ...\n          POP \t\t\tbalance == 0 || rewardPool == ...\n          PUSH 0\t\t\t0\n          PUSH 4\t\t\trewardPool\n          SLOAD \t\t\trewardPool\n          EQ \t\t\trewardPool == 0\n        tag 164\t\t\tbalance == 0 || rewardPool == ...\n          JUMPDEST \t\t\tbalance == 0 || rewardPool == ...\n          ISZERO \t\t\tif (balance == 0 || rewardPool...\n          PUSH [tag] 165\t\t\tif (balance == 0 || rewardPool...\n          JUMPI \t\t\tif (balance == 0 || rewardPool...\n          POP \t\t\treturn;\n          PUSH [tag] 159\t\t\treturn;\n          JUMP \t\t\treturn;\n        tag 165\t\t\tif (balance == 0 || rewardPool...\n          JUMPDEST \t\t\tif (balance == 0 || rewardPool...\n          PUSH 0\t\t\tuint256 share\n          PUSHIMMUTABLE 930\t\t\ttoken\n          PUSH FFFFFFFFFFFFFFFFFFFFFFFFFFFFFFFFFFFFFFFF\t\t\ttoken.totalSupply\n          AND \t\t\ttoken.totalSupply\n          PUSH 18160DDD\t\t\ttoken.totalSupply\n          PUSH 40\t\t\ttoken.totalSupply()\n          MLOAD \t\t\ttoken.totalSupply()\n          DUP2 \t\t\ttoken.totalSupply()\n          PUSH FFFFFFFF\t\t\ttoken.totalSupply()\n          AND \t\t\ttoken.totalSupply()\n          PUSH E0\t\t\ttoken.totalSupply()\n          SHL \t\t\ttoken.totalSupply()\n          DUP2 \t\t\ttoken.totalSupply()\n          MSTORE \t\t\ttoken.totalSupply()\n          PUSH 4\t\t\ttoken.totalSupply()\n          ADD \t\t\ttoken.totalSupply()\n          PUSH 20\t\t\ttoken.totalSupply()\n          PUSH 40\t\t\ttoken.totalSupply()\n          MLOAD \t\t\ttoken.totalSupply()\n          DUP1 \t\t\ttoken.totalSupply()\n          DUP4 \t\t\ttoken.totalSupply()\n          SUB \t\t\ttoken.totalSupply()\n          DUP2 \t\t\ttoken.totalSupply()\n          DUP7 \t\t\ttoken.totalSupply()\n          GAS \t\t\ttoken.totalSupply()\n          STATICCALL \t\t\ttoken.totalSupply()\n          ISZERO \t\t\ttoken.totalSupply()\n          DUP1 \t\t\ttoken.totalSupply()\n          ISZERO \t\t\ttoken.totalSupply()\n          PUSH [tag] 167\t\t\ttoken.totalSupply()\n          JUMPI \t\t\ttoken.totalSupply()\n          RETURNDATASIZE \t\t\ttoken.totalSupply()\n          PUSH 0\t\t\ttoken.totalSupply()\n          DUP1 \t\t\ttoken.totalSupply()\n          RETURNDATACOPY \t\t\ttoken.totalSupply()\n          RETURNDATASIZE \t\t\ttoken.totalSupply()\n          PUSH 0\t\t\ttoken.totalSupply()\n          REVERT \t\t\ttoken.totalSupply()\n        tag 167\t\t\ttoken.totalSupply()\n          JUMPDEST \t\t\ttoken.totalSupply()\n          POP \t\t\ttoken.totalSupply()\n          POP \t\t\ttoken.totalSupply()\n          POP \t\t\ttoken.totalSupply()\n          POP \t\t\ttoken.totalSupply()\n          PUSH 40\t\t\ttoken.totalSupply()\n          MLOAD \t\t\ttoken.totalSupply()\n          RETURNDATASIZE \t\t\ttoken.totalSupply()\n          PUSH 1F\t\t\ttoken.totalSupply()\n          NOT \t\t\ttoken.totalSupply()\n          PUSH 1F\t\t\ttoken.totalSupply()\n          DUP3 \t\t\ttoken.totalSupply()\n          ADD \t\t\ttoken.totalSupply()\n          AND \t\t\ttoken.totalSupply()\n          DUP3 \t\t\ttoken.totalSupply()\n          ADD \t\t\ttoken.totalSupply()\n          DUP1 \t\t\ttoken.totalSupply()\n          PUSH 40\t\t\ttoken.totalSupply()\n          MSTORE \t\t\ttoken.totalSupply()\n          POP \t\t\ttoken.totalSupply()\n          DUP2 \t\t\ttoken.totalSupply()\n          ADD \t\t\ttoken.totalSupply()\n          SWAP1 \t\t\ttoken.totalSupply()\n          PUSH [tag] 168\t\t\ttoken.totalSupply()\n          SWAP2 \t\t\ttoken.totalSupply()\n          SWAP1 \t\t\ttoken.totalSupply()\n          PUSH [tag] 104\t\t\ttoken.totalSupply()\n          JUMP \t\t\ttoken.totalSupply()\n        tag 168\t\t\ttoken.totalSupply()\n          JUMPDEST \t\t\ttoken.totalSupply()\n          DUP3 \t\t\tbalance\n          PUSH 4\t\t\trewardPool\n          SLOAD \t\t\trewardPool\n          PUSH [tag] 169\t\t\trewardPool * balance\n          SWAP2 \t\t\trewardPool * balance\n          SWAP1 \t\t\trewardPool * balance\n          PUSH [tag] 170\t\t\trewardPool * balance\n          JUMP \t\t\trewardPool * balance\n        tag 169\t\t\trewardPool * balance\n          JUMPDEST \t\t\trewardPool * balance\n          PUSH [tag] 171\t\t\t(rewardPool * balance) / token...\n          SWAP2 \t\t\t(rewardPool * balance) / token...\n          SWAP1 \t\t\t(rewardPool * balance) / token...\n          PUSH [tag] 172\t\t\t(rewardPool * balance) / token...\n          JUMP \t\t\t(rewardPool * balance) / token...\n        tag 171\t\t\t(rewardPool * balance) / token...\n          JUMPDEST \t\t\t(rewardPool * balance) / token...\n          SWAP1 \t\t\tuint256 share = (rewardPool * ...\n          POP \t\t\tuint256 share = (rewardPool * ...\n          PUSH 0\t\t\t0\n          DUP2 \t\t\tshare\n          SUB \t\t\tshare == 0\n          PUSH [tag] 173\t\t\tif (share == 0) return;\n          JUMPI \t\t\tif (share == 0) return;\n          POP \t\t\treturn;\n          POP \t\t\treturn;\n          PUSH [tag] 159\t\t\treturn;\n          JUMP \t\t\treturn;\n        tag 173\t\t\tif (share == 0) return;\n          JUMPDEST \t\t\tif (share == 0) return;\n          DUP1 \t\t\tshare\n          PUSH 2\t\t\tholders\n          PUSH 0\t\t\tholders[user]\n          DUP6 \t\t\tuser\n          PUSH FFFFFFFFFFFFFFFFFFFFFFFFFFFFFFFFFFFFFFFF\t\t\tholders[user]\n          AND \t\t\tholders[user]\n          PUSH FFFFFFFFFFFFFFFFFFFFFFFFFFFFFFFFFFFFFFFF\t\t\tholders[user]\n          AND \t\t\tholders[user]\n          DUP2 \t\t\tholders[user]\n          MSTORE \t\t\tholders[user]\n          PUSH 20\t\t\tholders[user]\n          ADD \t\t\tholders[user]\n          SWAP1 \t\t\tholders[user]\n          DUP2 \t\t\tholders[user]\n          MSTORE \t\t\tholders[user]\n          PUSH 20\t\t\tholders[user]\n          ADD \t\t\tholders[user]\n          PUSH 0\t\t\tholders[user]\n          KECCAK256 \t\t\tholders[user]\n          PUSH 1\t\t\tholders[user].totalClaimed\n          ADD \t\t\tholders[user].totalClaimed\n          PUSH 0\t\t\tholders[user].totalClaimed\n          DUP3 \t\t\tholders[user].totalClaimed += ...\n          DUP3 \t\t\tholders[user].totalClaimed += ...\n          SLOAD \t\t\tholders[user].totalClaimed += ...\n          PUSH [tag] 174\t\t\tholders[user].totalClaimed += ...\n          SWAP2 \t\t\tholders[user].totalClaimed += ...\n          SWAP1 \t\t\tholders[user].totalClaimed += ...\n          PUSH [tag] 175\t\t\tholders[user].totalClaimed += ...\n          JUMP \t\t\tholders[user].totalClaimed += ...\n        tag 174\t\t\tholders[user].totalClaimed += ...\n          JUMPDEST \t\t\tholders[user].totalClaimed += ...\n          SWAP3 \t\t\tholders[user].totalClaimed += ...\n          POP \t\t\tholders[user].totalClaimed += ...\n          POP \t\t\tholders[user].totalClaimed += ...\n          DUP2 \t\t\tholders[user].totalClaimed += ...\n          SWAP1 \t\t\tholders[user].totalClaimed += ...\n          SSTORE \t\t\tholders[user].totalClaimed += ...\n          POP \t\t\tholders[user].totalClaimed += ...\n          TIMESTAMP \t\t\tblock.timestamp\n          PUSH 2\t\t\tholders\n          PUSH 0\t\t\tholders[user]\n          DUP6 \t\t\tuser\n          PUSH FFFFFFFFFFFFFFFFFFFFFFFFFFFFFFFFFFFFFFFF\t\t\tholders[user]\n          AND \t\t\tholders[user]\n          PUSH FFFFFFFFFFFFFFFFFFFFFFFFFFFFFFFFFFFFFFFF\t\t\tholders[user]\n          AND \t\t\tholders[user]\n          DUP2 \t\t\tholders[user]\n          MSTORE \t\t\tholders[user]\n          PUSH 20\t\t\tholders[user]\n          ADD \t\t\tholders[user]\n          SWAP1 \t\t\tholders[user]\n          DUP2 \t\t\tholders[user]\n          MSTORE \t\t\tholders[user]\n          PUSH 20\t\t\tholders[user]\n          ADD \t\t\tholders[user]\n          PUSH 0\t\t\tholders[user]\n          KECCAK256 \t\t\tholders[user]\n          PUSH 0\t\t\tholders[user].lastClaim\n          ADD \t\t\tholders[user].lastClaim\n          DUP2 \t\t\tholders[user].lastClaim = bloc...\n          SWAP1 \t\t\tholders[user].lastClaim = bloc...\n          SSTORE \t\t\tholders[user].lastClaim = bloc...\n          POP \t\t\tholders[user].lastClaim = bloc...\n          DUP1 \t\t\tshare\n          PUSH 4\t\t\trewardPool\n          PUSH 0\t\t\trewardPool\n          DUP3 \t\t\trewardPool -= share\n          DUP3 \t\t\trewardPool -= share\n          SLOAD \t\t\trewardPool -= share\n          PUSH [tag] 176\t\t\trewardPool -= share\n          SWAP2 \t\t\trewardPool -= share\n          SWAP1 \t\t\trewardPool -= share\n          PUSH [tag] 177\t\t\trewardPool -= share\n          JUMP \t\t\trewardPool -= share\n        tag 176\t\t\trewardPool -= share\n          JUMPDEST \t\t\trewardPool -= share\n          SWAP3 \t\t\trewardPool -= share\n          POP \t\t\trewardPool -= share\n          POP \t\t\trewardPool -= share\n          DUP2 \t\t\trewardPool -= share\n          SWAP1 \t\t\trewardPool -= share\n          SSTORE \t\t\trewardPool -= share\n          POP \t\t\trewardPool -= share\n          PUSH 5\t\t\tpayoutToken\n          PUSH 0\t\t\tpayoutToken\n          SWAP1 \t\t\tpayoutToken\n          SLOAD \t\t\tpayoutToken\n          SWAP1 \t\t\tpayoutToken\n          PUSH 100\t\t\tpayoutToken\n          EXP \t\t\tpayoutToken\n          SWAP1 \t\t\tpayoutToken\n          DIV \t\t\tpayoutToken\n          PUSH FFFFFFFFFFFFFFFFFFFFFFFFFFFFFFFFFFFFFFFF\t\t\tpayoutToken\n          AND \t\t\tpayoutToken\n          PUSH FFFFFFFFFFFFFFFFFFFFFFFFFFFFFFFFFFFFFFFF\t\t\tpayoutToken.transfer\n          AND \t\t\tpayoutToken.transfer\n          PUSH A9059CBB\t\t\tpayoutToken.transfer\n          DUP5 \t\t\tuser\n          DUP4 \t\t\tshare\n          PUSH 40\t\t\tpayoutToken.transfer(user, sha...\n          MLOAD \t\t\tpayoutToken.transfer(user, sha...\n          DUP4 \t\t\tpayoutToken.transfer(user, sha...\n          PUSH FFFFFFFF\t\t\tpayoutToken.transfer(user, sha...\n          AND \t\t\tpayoutToken.transfer(user, sha...\n          PUSH E0\t\t\tpayoutToken.transfer(user, sha...\n          SHL \t\t\tpayoutToken.transfer(user, sha...\n          DUP2 \t\t\tpayoutToken.transfer(user, sha...\n          MSTORE \t\t\tpayoutToken.transfer(user, sha...\n          PUSH 4\t\t\tpayoutToken.transfer(user, sha...\n          ADD \t\t\tpayoutToken.transfer(user, sha...\n          PUSH [tag] 178\t\t\tpayoutToken.transfer(user, sha...\n          SWAP3 \t\t\tpayoutToken.transfer(user, sha...\n          SWAP2 \t\t\tpayoutToken.transfer(user, sha...\n          SWAP1 \t\t\tpayoutToken.transfer(user, sha...\n          PUSH [tag] 115\t\t\tpayoutToken.transfer(user, sha...\n          JUMP \t\t\tpayoutToken.transfer(user, sha...\n        tag 178\t\t\tpayoutToken.transfer(user, sha...\n          JUMPDEST \t\t\tpayoutToken.transfer(user, sha...\n          PUSH 20\t\t\tpayoutToken.transfer(user, sha...\n          PUSH 40\t\t\tpayoutToken.transfer(user, sha...\n          MLOAD \t\t\tpayoutToken.transfer(user, sha...\n          DUP1 \t\t\tpayoutToken.transfer(user, sha...\n          DUP4 \t\t\tpayoutToken.transfer(user, sha...\n          SUB \t\t\tpayoutToken.transfer(user, sha...\n          DUP2 \t\t\tpayoutToken.transfer(user, sha...\n          PUSH 0\t\t\tpayoutToken.transfer(user, sha...\n          DUP8 \t\t\tpayoutToken.transfer(user, sha...\n          GAS \t\t\tpayoutToken.transfer(user, sha...\n          CALL \t\t\tpayoutToken.transfer(user, sha...\n          ISZERO \t\t\tpayoutToken.transfer(user, sha...\n          DUP1 \t\t\tpayoutToken.transfer(user, sha...\n          ISZERO \t\t\tpayoutToken.transfer(user, sha...\n          PUSH [tag] 180\t\t\tpayoutToken.transfer(user, sha...\n          JUMPI \t\t\tpayoutToken.transfer(user, sha...\n          RETURNDATASIZE \t\t\tpayoutToken.transfer(user, sha...\n          PUSH 0\t\t\tpayoutToken.transfer(user, sha...\n          DUP1 \t\t\tpayoutToken.transfer(user, sha...\n          RETURNDATACOPY \t\t\tpayoutToken.transfer(user, sha...\n          RETURNDATASIZE \t\t\tpayoutToken.transfer(user, sha...\n          PUSH 0\t\t\tpayoutToken.transfer(user, sha...\n          REVERT \t\t\tpayoutToken.transfer(user, sha...\n        tag 180\t\t\tpayoutToken.transfer(user, sha...\n          JUMPDEST \t\t\tpayoutToken.transfer(user, sha...\n          POP \t\t\tpayoutToken.transfer(user, sha...\n          POP \t\t\tpayoutToken.transfer(user, sha...\n          POP \t\t\tpayoutToken.transfer(user, sha...\n          POP \t\t\tpayoutToken.transfer(user, sha...\n          PUSH 40\t\t\tpayoutToken.transfer(user, sha...\n          MLOAD \t\t\tpayoutToken.transfer(user, sha...\n          RETURNDATASIZE \t\t\tpayoutToken.transfer(user, sha...\n          PUSH 1F\t\t\tpayoutToken.transfer(user, sha...\n          NOT \t\t\tpayoutToken.transfer(user, sha...\n          PUSH 1F\t\t\tpayoutToken.transfer(user, sha...\n          DUP3 \t\t\tpayoutToken.transfer(user, sha...\n          ADD \t\t\tpayoutToken.transfer(user, sha...\n          AND \t\t\tpayoutToken.transfer(user, sha...\n          DUP3 \t\t\tpayoutToken.transfer(user, sha...\n          ADD \t\t\tpayoutToken.transfer(user, sha...\n          DUP1 \t\t\tpayoutToken.transfer(user, sha...\n          PUSH 40\t\t\tpayoutToken.transfer(user, sha...\n          MSTORE \t\t\tpayoutToken.transfer(user, sha...\n          POP \t\t\tpayoutToken.transfer(user, sha...\n          DUP2 \t\t\tpayoutToken.transfer(user, sha...\n          ADD \t\t\tpayoutToken.transfer(user, sha...\n          SWAP1 \t\t\tpayoutToken.transfer(user, sha...\n          PUSH [tag] 181\t\t\tpayoutToken.transfer(user, sha...\n          SWAP2 \t\t\tpayoutToken.transfer(user, sha...\n          SWAP1 \t\t\tpayoutToken.transfer(user, sha...\n          PUSH [tag] 113\t\t\tpayoutToken.transfer(user, sha...\n          JUMP \t\t\tpayoutToken.transfer(user, sha...\n        tag 181\t\t\tpayoutToken.transfer(user, sha...\n          JUMPDEST \t\t\tpayoutToken.transfer(user, sha...\n          POP \t\t\tpayoutToken.transfer(user, sha...\n          DUP3 \t\t\tuser\n          PUSH FFFFFFFFFFFFFFFFFFFFFFFFFFFFFFFFFFFFFFFF\t\t\tClaim(user, share)\n          AND \t\t\tClaim(user, share)\n          PUSH 47CEE97CB7ACD717B3C0AA1435D004CD5B3C8C57D70DBCEB4E4458BBD60E39D4\t\t\tClaim(user, share)\n          DUP3 \t\t\tshare\n          PUSH 40\t\t\tClaim(user, share)\n          MLOAD \t\t\tClaim(user, share)\n          PUSH [tag] 182\t\t\tClaim(user, share)\n          SWAP2 \t\t\tClaim(user, share)\n          SWAP1 \t\t\tClaim(user, share)\n          PUSH [tag] 48\t\t\tClaim(user, share)\n          JUMP \t\t\tClaim(user, share)\n        tag 182\t\t\tClaim(user, share)\n          JUMPDEST \t\t\tClaim(user, share)\n          PUSH 40\t\t\tClaim(user, share)\n          MLOAD \t\t\tClaim(user, share)\n          DUP1 \t\t\tClaim(user, share)\n          SWAP2 \t\t\tClaim(user, share)\n          SUB \t\t\tClaim(user, share)\n          SWAP1 \t\t\tClaim(user, share)\n          LOG2 \t\t\tClaim(user, share)\n          POP \t\t\t{\\n        uint256 balance = t...\n          POP \t\t\t{\\n        uint256 balance = t...\n        tag 159\t\t\tfunction _claim(address user) ...\n          JUMPDEST \t\t\tfunction _claim(address user) ...\n          POP \t\t\tfunction _claim(address user) ...\n          JUMP \t\t\tfunction _claim(address user) ...\n        tag 94\t\t\tfunction _msgSender() internal...\n          JUMPDEST \t\t\tfunction _msgSender() internal...\n          PUSH 0\t\t\taddress\n          CALLER \t\t\tmsg.sender\n          SWAP1 \t\t\treturn msg.sender\n          POP \t\t\treturn msg.sender\n          SWAP1 \t\t\tfunction _msgSender() internal...\n          JUMP \t\t\tfunction _msgSender() internal...\n        tag 127\t\t\tfunction _transferOwnership(ad...\n          JUMPDEST \t\t\tfunction _transferOwnership(ad...\n          PUSH 0\t\t\taddress oldOwner\n          DUP1 \t\t\t_owner\n          PUSH 0\t\t\t_owner\n          SWAP1 \t\t\t_owner\n          SLOAD \t\t\t_owner\n          SWAP1 \t\t\t_owner\n          PUSH 100\t\t\t_owner\n          EXP \t\t\t_owner\n          SWAP1 \t\t\t_owner\n          DIV \t\t\t_owner\n          PUSH FFFFFFFFFFFFFFFFFFFFFFFFFFFFFFFFFFFFFFFF\t\t\t_owner\n          AND \t\t\t_owner\n          SWAP1 \t\t\taddress oldOwner = _owner\n          POP \t\t\taddress oldOwner = _owner\n          DUP2 \t\t\tnewOwner\n          PUSH 0\t\t\t_owner\n          DUP1 \t\t\t_owner\n          PUSH 100\t\t\t_owner = newOwner\n          EXP \t\t\t_owner = newOwner\n          DUP2 \t\t\t_owner = newOwner\n          SLOAD \t\t\t_owner = newOwner\n          DUP2 \t\t\t_owner = newOwner\n          PUSH FFFFFFFFFFFFFFFFFFFFFFFFFFFFFFFFFFFFFFFF\t\t\t_owner = newOwner\n          MUL \t\t\t_owner = newOwner\n          NOT \t\t\t_owner = newOwner\n          AND \t\t\t_owner = newOwner\n          SWAP1 \t\t\t_owner = newOwner\n          DUP4 \t\t\t_owner = newOwner\n          PUSH FFFFFFFFFFFFFFFFFFFFFFFFFFFFFFFFFFFFFFFF\t\t\t_owner = newOwner\n          AND \t\t\t_owner = newOwner\n          MUL \t\t\t_owner = newOwner\n          OR \t\t\t_owner = newOwner\n          SWAP1 \t\t\t_owner = newOwner\n          SSTORE \t\t\t_owner = newOwner\n          POP \t\t\t_owner = newOwner\n          DUP2 \t\t\tnewOwner\n          PUSH FFFFFFFFFFFFFFFFFFFFFFFFFFFFFFFFFFFFFFFF\t\t\tOwnershipTransferred(oldOwner,...\n          AND \t\t\tOwnershipTransferred(oldOwner,...\n          DUP2 \t\t\toldOwner\n          PUSH FFFFFFFFFFFFFFFFFFFFFFFFFFFFFFFFFFFFFFFF\t\t\tOwnershipTransferred(oldOwner,...\n          AND \t\t\tOwnershipTransferred(oldOwner,...\n          PUSH 8BE0079C531659141344CD1FD0A4F28419497F9722A3DAAFE3B4186F6B6457E0\t\t\tOwnershipTransferred(oldOwner,...\n          PUSH 40\t\t\tOwnershipTransferred(oldOwner,...\n          MLOAD \t\t\tOwnershipTransferred(oldOwner,...\n          PUSH 40\t\t\tOwnershipTransferred(oldOwner,...\n          MLOAD \t\t\tOwnershipTransferred(oldOwner,...\n          DUP1 \t\t\tOwnershipTransferred(oldOwner,...\n          SWAP2 \t\t\tOwnershipTransferred(oldOwner,...\n          SUB \t\t\tOwnershipTransferred(oldOwner,...\n          SWAP1 \t\t\tOwnershipTransferred(oldOwner,...\n          LOG3 \t\t\tOwnershipTransferred(oldOwner,...\n          POP \t\t\t{\\n        address oldOwner = ...\n          POP \t\t\tfunction _transferOwnership(ad...\n          JUMP \t\t\tfunction _transferOwnership(ad...\n        tag 186\t\t\tIN DEPENDENCIES --------------...\n          JUMPDEST \t\t\tIN DEPENDENCIES --------------...\n          PUSH 0\t\t\tn\n          DUP1 \t\t\t/\n          REVERT \t\t\tEIP.\\n */\\nint\n        tag 188\t\t\tns (uint256);\\n    function tr...\n          JUMPDEST \t\t\tns (uint256);\\n    function tr...\n          PUSH 0\t\t\tddress \n          DUP2 \t\t\tterna\n          SWAP1 \t\t\t amount) externa\n          POP \t\t\t amount) externa\n          SWAP2 \t\t\tns (uint256);\\n    function tr...\n          SWAP1 \t\t\tns (uint256);\\n    function tr...\n          POP \t\t\tns (uint256);\\n    function tr...\n          JUMP \t\t\tns (uint256);\\n    function tr...\n        tag 189\t\t\tool);\\n    function allowance(...\n          JUMPDEST \t\t\tool);\\n    function allowance(...\n          PUSH [tag] 225\t\t\tw returns (uint256);\\n   \n          DUP2 \t\t\t);\\n  \n          PUSH [tag] 188\t\t\tw returns (uint256);\\n   \n          JUMP \t\t\tw returns (uint256);\\n   \n        tag 225\t\t\tw returns (uint256);\\n   \n          JUMPDEST \t\t\tw returns (uint256);\\n   \n          DUP2 \t\t\tnal v\n          EQ \t\t\tternal view returns (uint256);...\n          PUSH [tag] 226\t\t\tpender) external view returns ...\n          JUMPI \t\t\tpender) external view returns ...\n          PUSH 0\t\t\tv\n          DUP1 \t\t\tp\n          REVERT \t\t\ttion approve\n        tag 226\t\t\tpender) external view returns ...\n          JUMPDEST \t\t\tpender) external view returns ...\n          POP \t\t\tool);\\n    function allowance(...\n          JUMP \t\t\tool);\\n    function allowance(...\n        tag 190\t\t\ter, uint256 amount) external r...\n          JUMPDEST \t\t\ter, uint256 amount) external r...\n          PUSH 0\t\t\t   fu\n          DUP2 \t\t\tess fr\n          CALLDATALOAD \t\t\t\\n        address fro\n          SWAP1 \t\t\tsferFrom(\\n        address fro\n          POP \t\t\tsferFrom(\\n        address fro\n          PUSH [tag] 228\t\t\t  address to,\\n        uint256...\n          DUP2 \t\t\t56 am\n          PUSH [tag] 189\t\t\t  address to,\\n        uint256...\n          JUMP \t\t\t  address to,\\n        uint256...\n        tag 228\t\t\t  address to,\\n        uint256...\n          JUMPDEST \t\t\t  address to,\\n        uint256...\n          SWAP3 \t\t\ter, uint256 amount) external r...\n          SWAP2 \t\t\ter, uint256 amount) external r...\n          POP \t\t\ter, uint256 amount) external r...\n          POP \t\t\ter, uint256 amount) external r...\n          JUMP \t\t\ter, uint256 amount) external r...\n        tag 23\t\t\tternal returns (bool);\\n    ev...\n          JUMPDEST \t\t\tternal returns (bool);\\n    ev...\n          PUSH 0\t\t\trom, a\n          PUSH 20\t\t\tt \n          DUP3 \t\t\te);\\n    e\n          DUP5 \t\t\tt256 va\n          SUB \t\t\t uint256 value);\\n    ev\n          SLT \t\t\t to, uint256 value);\\n    even...\n          ISZERO \t\t\txed to, uint256 value);\\n    e...\n          PUSH [tag] 230\t\t\txed to, uint256 value);\\n    e...\n          JUMPI \t\t\txed to, uint256 value);\\n    e...\n          PUSH [tag] 231\t\t\toval(address indexed owner, ad...\n          PUSH [tag] 186\t\t\toval(address indexed owner, ad...\n          JUMP \t\t\toval(address indexed owner, ad...\n        tag 231\t\t\toval(address indexed owner, ad...\n          JUMPDEST \t\t\toval(address indexed owner, ad...\n        tag 230\t\t\txed to, uint256 value);\\n    e...\n          JUMPDEST \t\t\txed to, uint256 value);\\n    e...\n          PUSH 0\t\t\tn\n          PUSH [tag] 232\t\t\t\\nabstract contract Context {\\...\n          DUP5 \t\t\tgSender\n          DUP3 \t\t\tction \n          DUP6 \t\t\tt {\\n    f\n          ADD \t\t\tntext {\\n    function _\n          PUSH [tag] 190\t\t\t\\nabstract contract Context {\\...\n          JUMP \t\t\t\\nabstract contract Context {\\...\n        tag 232\t\t\t\\nabstract contract Context {\\...\n          JUMPDEST \t\t\t\\nabstract contract Context {\\...\n          SWAP2 \t\t\tntext.\\n */\\nabstract contract...\n          POP \t\t\tntext.\\n */\\nabstract contract...\n          POP \t\t\ts information about the curren...\n          SWAP3 \t\t\tternal returns (bool);\\n    ev...\n          SWAP2 \t\t\tternal returns (bool);\\n    ev...\n          POP \t\t\tternal returns (bool);\\n    ev...\n          POP \t\t\tternal returns (bool);\\n    ev...\n          JUMP \t\t\tternal returns (bool);\\n    ev...\n        tag 191\t\t\t returns (address) {\\n        ...\n          JUMPDEST \t\t\t returns (address) {\\n        ...\n          PUSH 0\t\t\tsg.send\n          PUSH FFFFFFFFFFFFFFFFFFFFFFFFFFFFFFFFFFFFFFFF\t\t\t internal view virtual returns...\n          DUP3 \t\t\tgData\n          AND \t\t\t _msgData() internal view virt...\n          SWAP1 \t\t\t   function _msgData() interna...\n          POP \t\t\t   function _msgData() interna...\n          SWAP2 \t\t\t returns (address) {\\n        ...\n          SWAP1 \t\t\t returns (address) {\\n        ...\n          POP \t\t\t returns (address) {\\n        ...\n          JUMP \t\t\t returns (address) {\\n        ...\n        tag 192\t\t\t   return msg.data;\\n    }\\n}\\...\n          JUMPDEST \t\t\t   return msg.data;\\n    }\\n}\\...\n          PUSH 0\t\t\tdev Imp\n          PUSH [tag] 235\t\t\tRC20} interface.\\n */\\ncon\n          DUP3 \t\t\t*/\\nco\n          PUSH [tag] 191\t\t\tRC20} interface.\\n */\\ncon\n          JUMP \t\t\tRC20} interface.\\n */\\ncon\n        tag 235\t\t\tRC20} interface.\\n */\\ncon\n          JUMPDEST \t\t\tRC20} interface.\\n */\\ncon\n          SWAP1 \t\t\t of the {IERC20} interface.\\n ...\n          POP \t\t\t of the {IERC20} interface.\\n ...\n          SWAP2 \t\t\t   return msg.data;\\n    }\\n}\\...\n          SWAP1 \t\t\t   return msg.data;\\n    }\\n}\\...\n          POP \t\t\t   return msg.data;\\n    }\\n}\\...\n          JUMP \t\t\t   return msg.data;\\n    }\\n}\\...\n        tag 193\t\t\tis Context, IERC20 {\\n    mapp...\n          JUMPDEST \t\t\tis Context, IERC20 {\\n    mapp...\n          PUSH [tag] 237\t\t\tress => mapping(address \n          DUP2 \t\t\tdress\n          PUSH [tag] 192\t\t\tress => mapping(address \n          JUMP \t\t\tress => mapping(address \n        tag 237\t\t\tress => mapping(address \n          JUMPDEST \t\t\tress => mapping(address \n          DUP3 \t\t\tg(a\n          MSTORE \t\t\t mapping(address => mapping(ad...\n          POP \t\t\tis Context, IERC20 {\\n    mapp...\n          POP \t\t\tis Context, IERC20 {\\n    mapp...\n          JUMP \t\t\tis Context, IERC20 {\\n    mapp...\n        tag 26\t\t\tprivate _allowances;\\n\\n    ui...\n          JUMPDEST \t\t\tprivate _allowances;\\n\\n    ui...\n          PUSH 0\t\t\tpriv\n          PUSH 20\t\t\tng\n          DUP3 \t\t\tructor(st\n          ADD \t\t\tonstructor(string \n          SWAP1 \t\t\t;\\n\\n    constructor(string \n          POP \t\t\t;\\n\\n    constructor(string \n          PUSH [tag] 239\t\t\te_, string memory symbol_) {\\n...\n          PUSH 0\t\t\t=\n          DUP4 \t\t\t   _symbo\n          ADD \t\t\t       _symbol = \n          DUP5 \t\t\t name_\n          PUSH [tag] 193\t\t\te_, string memory symbol_) {\\n...\n          JUMP \t\t\te_, string memory symbol_) {\\n...\n        tag 239\t\t\te_, string memory symbol_) {\\n...\n          JUMPDEST \t\t\te_, string memory symbol_) {\\n...\n          SWAP3 \t\t\tprivate _allowances;\\n\\n    ui...\n          SWAP2 \t\t\tprivate _allowances;\\n\\n    ui...\n          POP \t\t\tprivate _allowances;\\n\\n    ui...\n          POP \t\t\tprivate _allowances;\\n\\n    ui...\n          JUMP \t\t\tprivate _allowances;\\n\\n    ui...\n        tag 194\t\t\t\\n\\n    function name() public...\n          JUMPDEST \t\t\t\\n\\n    function name() public...\n          PUSH [tag] 241\t\t\t   return _name;\\n    }\\n\\n\n          DUP2 \t\t\t   }\\n\n          PUSH [tag] 192\t\t\t   return _name;\\n    }\\n\\n\n          JUMP \t\t\t   return _name;\\n    }\\n\\n\n        tag 241\t\t\t   return _name;\\n    }\\n\\n\n          JUMPDEST \t\t\t   return _name;\\n    }\\n\\n\n          DUP2 \t\t\t{\\n   \n          EQ \t\t\ty) {\\n        return _name;\\n ...\n          PUSH [tag] 242\t\t\tring memory) {\\n        return...\n          JUMPI \t\t\tring memory) {\\n        return...\n          PUSH 0\t\t\tm\n          DUP1 \t\t\t \n          REVERT \t\t\tunction symb\n        tag 242\t\t\tring memory) {\\n        return...\n          JUMPDEST \t\t\tring memory) {\\n        return...\n          POP \t\t\t\\n\\n    function name() public...\n          JUMP \t\t\t\\n\\n    function name() public...\n        tag 195\t\t\tew virtual returns (string mem...\n          JUMPDEST \t\t\tew virtual returns (string mem...\n          PUSH 0\t\t\teturn\n          DUP2 \t\t\timals(\n          CALLDATALOAD \t\t\t function decimals()\n          SWAP1 \t\t\t   }\\n\\n    function decimals(...\n          POP \t\t\t   }\\n\\n    function decimals(...\n          PUSH [tag] 244\t\t\tiew virtual returns (uint8) {\\...\n          DUP2 \t\t\t {\\n  \n          PUSH [tag] 194\t\t\tiew virtual returns (uint8) {\\...\n          JUMP \t\t\tiew virtual returns (uint8) {\\...\n        tag 244\t\t\tiew virtual returns (uint8) {\\...\n          JUMPDEST \t\t\tiew virtual returns (uint8) {\\...\n          SWAP3 \t\t\tew virtual returns (string mem...\n          SWAP2 \t\t\tew virtual returns (string mem...\n          POP \t\t\tew virtual returns (string mem...\n          POP \t\t\tew virtual returns (string mem...\n          JUMP \t\t\tew virtual returns (string mem...\n        tag 29\t\t\t18;\\n    }\\n\\n    function tot...\n          JUMPDEST \t\t\t18;\\n    }\\n\\n    function tot...\n          PUSH 0\t\t\tverrid\n          PUSH 20\t\t\tSu\n          DUP3 \t\t\teturn _to\n          DUP5 \t\t\t       \n          SUB \t\t\t) {\\n        return _tot\n          SLT \t\t\tt256) {\\n        return _total...\n          ISZERO \t\t\tuint256) {\\n        return _to...\n          PUSH [tag] 246\t\t\tuint256) {\\n        return _to...\n          JUMPI \t\t\tuint256) {\\n        return _to...\n          PUSH [tag] 247\t\t\t;\\n    }\\n\\n    function balan...\n          PUSH [tag] 186\t\t\t;\\n    }\\n\\n    function balan...\n          JUMP \t\t\t;\\n    }\\n\\n    function balan...\n        tag 247\t\t\t;\\n    }\\n\\n    function balan...\n          JUMPDEST \t\t\t;\\n    }\\n\\n    function balan...\n        tag 246\t\t\tuint256) {\\n        return _to...\n          JUMPDEST \t\t\tuint256) {\\n        return _to...\n          PUSH 0\t\t\te\n          PUSH [tag] 248\t\t\tunction transfer(address to, u...\n          DUP5 \t\t\tpublic \n          DUP3 \t\t\t amoun\n          DUP6 \t\t\tto, uint2\n          ADD \t\t\tess to, uint256 amount\n          PUSH [tag] 195\t\t\tunction transfer(address to, u...\n          JUMP \t\t\tunction transfer(address to, u...\n        tag 248\t\t\tunction transfer(address to, u...\n          JUMPDEST \t\t\tunction transfer(address to, u...\n          SWAP2 \t\t\t  }\\n\\n    function transfer(a...\n          POP \t\t\t  }\\n\\n    function transfer(a...\n          POP \t\t\t256) {\\n        return _balanc...\n          SWAP3 \t\t\t18;\\n    }\\n\\n    function tot...\n          SWAP2 \t\t\t18;\\n    }\\n\\n    function tot...\n          POP \t\t\t18;\\n    }\\n\\n    function tot...\n          POP \t\t\t18;\\n    }\\n\\n    function tot...\n          JUMP \t\t\t18;\\n    }\\n\\n    function tot...\n        tag 196\t\t\t (bool) {\\n        _transfer(_...\n          JUMPDEST \t\t\t (bool) {\\n        _transfer(_...\n          PUSH [tag] 250\t\t\tfunction allowance(addre\n          DUP2 \t\t\t(addr\n          PUSH [tag] 188\t\t\tfunction allowance(addre\n          JUMP \t\t\tfunction allowance(addre\n        tag 250\t\t\tfunction allowance(addre\n          JUMPDEST \t\t\tfunction allowance(addre\n          DUP3 \t\t\t\\n  \n          MSTORE \t\t\t\\n    }\\n\\n    function allowa...\n          POP \t\t\t (bool) {\\n        _transfer(_...\n          POP \t\t\t (bool) {\\n        _transfer(_...\n          JUMP \t\t\t (bool) {\\n        _transfer(_...\n        tag 32\t\t\tress spender) public view virt...\n          JUMPDEST \t\t\tress spender) public view virt...\n          PUSH 0\t\t\tctio\n          PUSH 40\t\t\t a\n          DUP3 \t\t\ter, uint2\n          ADD \t\t\tpender, uint256 am\n          SWAP1 \t\t\tddress spender, uint256 am\n          POP \t\t\tddress spender, uint256 am\n          PUSH [tag] 252\t\t\tic virtual override returns (b...\n          PUSH 0\t\t\ts\n          DUP4 \t\t\tgSender()\n          ADD \t\t\t(_msgSender(), sp\n          DUP6 \t\t\t _appr\n          PUSH [tag] 196\t\t\tic virtual override returns (b...\n          JUMP \t\t\tic virtual override returns (b...\n        tag 252\t\t\tic virtual override returns (b...\n          JUMPDEST \t\t\tic virtual override returns (b...\n          PUSH [tag] 253\t\t\tnt);\\n        return true;\\n  ...\n          PUSH 20\t\t\tad\n          DUP4 \t\t\tm(\\n      \n          ADD \t\t\trFrom(\\n        add\n          DUP5 \t\t\tn tran\n          PUSH [tag] 196\t\t\tnt);\\n        return true;\\n  ...\n          JUMP \t\t\tnt);\\n        return true;\\n  ...\n        tag 253\t\t\tnt);\\n        return true;\\n  ...\n          JUMPDEST \t\t\tnt);\\n        return true;\\n  ...\n          SWAP4 \t\t\tress spender) public view virt...\n          SWAP3 \t\t\tress spender) public view virt...\n          POP \t\t\tress spender) public view virt...\n          POP \t\t\tress spender) public view virt...\n          POP \t\t\tress spender) public view virt...\n          JUMP \t\t\tress spender) public view virt...\n        tag 197\t\t\t     address to,\\n        uint...\n          JUMPDEST \t\t\t     address to,\\n        uint...\n          PUSH 0\t\t\tt25\n          DUP2 \t\t\tlic v\n          SWAP1 \t\t\t  ) public v\n          POP \t\t\t  ) public v\n          SWAP2 \t\t\t     address to,\\n        uint...\n          SWAP1 \t\t\t     address to,\\n        uint...\n          POP \t\t\t     address to,\\n        uint...\n          JUMP \t\t\t     address to,\\n        uint...\n        tag 198\t\t\tide returns (bool) {\\n        ...\n          JUMPDEST \t\t\tide returns (bool) {\\n        ...\n          PUSH 0\t\t\t _msgSend\n          PUSH [tag] 256\t\t\ttransfer(from, to, amount);\\n ...\n          PUSH [tag] 257\t\t\t amount);\\n        return true...\n          PUSH [tag] 258\t\t\t\\n        return true;\\n  \n          DUP5 \t\t\tue;\\n \n          PUSH [tag] 191\t\t\t\\n        return true;\\n  \n          JUMP \t\t\t\\n        return true;\\n  \n        tag 258\t\t\t\\n        return true;\\n  \n          JUMPDEST \t\t\t\\n        return true;\\n  \n          PUSH [tag] 197\t\t\t amount);\\n        return true...\n          JUMP \t\t\t amount);\\n        return true...\n        tag 257\t\t\t amount);\\n        return true...\n          JUMPDEST \t\t\t amount);\\n        return true...\n          PUSH [tag] 191\t\t\ttransfer(from, to, amount);\\n ...\n          JUMP \t\t\ttransfer(from, to, amount);\\n ...\n        tag 256\t\t\ttransfer(from, to, amount);\\n ...\n          JUMPDEST \t\t\ttransfer(from, to, amount);\\n ...\n          SWAP1 \t\t\tt);\\n        _transfer(from, t...\n          POP \t\t\tt);\\n        _transfer(from, t...\n          SWAP2 \t\t\tide returns (bool) {\\n        ...\n          SWAP1 \t\t\tide returns (bool) {\\n        ...\n          POP \t\t\tide returns (bool) {\\n        ...\n          JUMP \t\t\tide returns (bool) {\\n        ...\n        tag 199\t\t\tion _transfer(address from, ad...\n          JUMPDEST \t\t\tion _transfer(address from, ad...\n          PUSH 0\t\t\tount) int\n          PUSH [tag] 260\t\t\t_beforeTokenTransfer(from, to,...\n          DUP3 \t\t\tamoun\n          PUSH [tag] 198\t\t\t_beforeTokenTransfer(from, to,...\n          JUMP \t\t\t_beforeTokenTransfer(from, to,...\n        tag 260\t\t\t_beforeTokenTransfer(from, to,...\n          JUMPDEST \t\t\t_beforeTokenTransfer(from, to,...\n          SWAP1 \t\t\tal {\\n        _beforeTokenTran...\n          POP \t\t\tal {\\n        _beforeTokenTran...\n          SWAP2 \t\t\tion _transfer(address from, ad...\n          SWAP1 \t\t\tion _transfer(address from, ad...\n          POP \t\t\tion _transfer(address from, ad...\n          JUMP \t\t\tion _transfer(address from, ad...\n        tag 200\t\t\tuint256 fromBalance = _balance...\n          JUMPDEST \t\t\tuint256 fromBalance = _balance...\n          PUSH 0\t\t\tount, \"ER\n          PUSH [tag] 262\t\t\teeds balance\");\\n        unche...\n          DUP3 \t\t\ted {\\n\n          PUSH [tag] 199\t\t\teeds balance\");\\n        unche...\n          JUMP \t\t\teeds balance\");\\n        unche...\n        tag 262\t\t\teeds balance\");\\n        unche...\n          JUMPDEST \t\t\teeds balance\");\\n        unche...\n          SWAP1 \t\t\ter amount exceeds balance\");\\n...\n          POP \t\t\ter amount exceeds balance\");\\n...\n          SWAP2 \t\t\tuint256 fromBalance = _balance...\n          SWAP1 \t\t\tuint256 fromBalance = _balance...\n          POP \t\t\tuint256 fromBalance = _balance...\n          JUMP \t\t\tuint256 fromBalance = _balance...\n        tag 201\t\t\tbalances[from] = fromBalance -...\n          JUMPDEST \t\t\tbalances[from] = fromBalance -...\n          PUSH [tag] 264\t\t\tfrom, to, amount);\\n\\n        ...\n          DUP2 \t\t\t to, \n          PUSH [tag] 200\t\t\tfrom, to, amount);\\n\\n        ...\n          JUMP \t\t\tfrom, to, amount);\\n\\n        ...\n        tag 264\t\t\tfrom, to, amount);\\n\\n        ...\n          JUMPDEST \t\t\tfrom, to, amount);\\n\\n        ...\n          DUP3 \t\t\tsfe\n          MSTORE \t\t\tit Transfer(from, to, amount);...\n          POP \t\t\tbalances[from] = fromBalance -...\n          POP \t\t\tbalances[from] = fromBalance -...\n          JUMP \t\t\tbalances[from] = fromBalance -...\n        tag 41\t\t\t\\n\\n    function _mint(address...\n          JUMPDEST \t\t\t\\n\\n    function _mint(address...\n          PUSH 0\t\t\tccou\n          PUSH 20\t\t\t +\n          DUP3 \t\t\ttotalSupp\n          ADD \t\t\t   _totalSupply +=\n          SWAP1 \t\t\t;\\n\\n        _totalSupply +=\n          POP \t\t\t;\\n\\n        _totalSupply +=\n          PUSH [tag] 266\t\t\t       _balances[account] += a...\n          PUSH 0\t\t\t \n          DUP4 \t\t\t amount);\n          ADD \t\t\tunt, amount);\\n\\n  \n          DUP5 \t\t\t(0), a\n          PUSH [tag] 201\t\t\t       _balances[account] += a...\n          JUMP \t\t\t       _balances[account] += a...\n        tag 266\t\t\t       _balances[account] += a...\n          JUMPDEST \t\t\t       _balances[account] += a...\n          SWAP3 \t\t\t\\n\\n    function _mint(address...\n          SWAP2 \t\t\t\\n\\n    function _mint(address...\n          POP \t\t\t\\n\\n    function _mint(address...\n          POP \t\t\t\\n\\n    function _mint(address...\n          JUMP \t\t\t\\n\\n    function _mint(address...\n        tag 48\t\t\tkenTransfer(address(0), accoun...\n          JUMPDEST \t\t\tkenTransfer(address(0), accoun...\n          PUSH 0\t\t\tamou\n          PUSH 20\t\t\tfo\n          DUP3 \t\t\t        _\n          ADD \t\t\tl {\\n        _befor\n          SWAP1 \t\t\tl virtual {\\n        _befor\n          POP \t\t\tl virtual {\\n        _befor\n          PUSH [tag] 268\t\t\tsfer(account, address(0), amou...\n          PUSH 0\t\t\t \n          DUP4 \t\t\tntBalance\n          ADD \t\t\tccountBalance = _\n          DUP5 \t\t\tuint25\n          PUSH [tag] 196\t\t\tsfer(account, address(0), amou...\n          JUMP \t\t\tsfer(account, address(0), amou...\n        tag 268\t\t\tsfer(account, address(0), amou...\n          JUMPDEST \t\t\tsfer(account, address(0), amou...\n          SWAP3 \t\t\tkenTransfer(address(0), accoun...\n          SWAP2 \t\t\tkenTransfer(address(0), accoun...\n          POP \t\t\tkenTransfer(address(0), accoun...\n          POP \t\t\tkenTransfer(address(0), accoun...\n          JUMP \t\t\tkenTransfer(address(0), accoun...\n        tag 62\t\t\tnt];\\n        require(accountB...\n          JUMPDEST \t\t\tnt];\\n        require(accountB...\n          PUSH 0\t\t\txceeds\n          DUP1 \t\t\talance\n          PUSH 40\t\t\tes\n          DUP4 \t\t\t     _bal\n          DUP6 \t\t\t{\\n     \n          SUB \t\t\tked {\\n            _bala\n          SLT \t\t\tchecked {\\n            _balanc...\n          ISZERO \t\t\t unchecked {\\n            _bal...\n          PUSH [tag] 270\t\t\t unchecked {\\n            _bal...\n          JUMPI \t\t\t unchecked {\\n            _bal...\n          PUSH [tag] 271\t\t\tount] = accountBalance - amoun...\n          PUSH [tag] 186\t\t\tount] = accountBalance - amoun...\n          JUMP \t\t\tount] = accountBalance - amoun...\n        tag 271\t\t\tount] = accountBalance - amoun...\n          JUMPDEST \t\t\tount] = accountBalance - amoun...\n        tag 270\t\t\t unchecked {\\n            _bal...\n          JUMPDEST \t\t\t unchecked {\\n            _bal...\n          PUSH 0\t\t\t)\n          PUSH [tag] 272\t\t\terTokenTransfer(account, addre...\n          DUP6 \t\t\t\\n    }\\n\n          DUP3 \t\t\t amoun\n          DUP7 \t\t\taddress(0\n          ADD \t\t\tnt, address(0), amount\n          PUSH [tag] 195\t\t\terTokenTransfer(account, addre...\n          JUMP \t\t\terTokenTransfer(account, addre...\n        tag 272\t\t\terTokenTransfer(account, addre...\n          JUMPDEST \t\t\terTokenTransfer(account, addre...\n          SWAP3 \t\t\t      _afterTokenTransfer(acco...\n          POP \t\t\t      _afterTokenTransfer(acco...\n          POP \t\t\tt Transfer(account, address(0)...\n          PUSH 20\t\t\t  \n          PUSH [tag] 273\t\t\t    uint256 amount\\n    ) inte...\n          DUP6 \t\t\t       \n          DUP3 \t\t\trtual \n          DUP7 \t\t\tinternal \n          ADD \t\t\t  ) internal virtual {\n          PUSH [tag] 195\t\t\t    uint256 amount\\n    ) inte...\n          JUMP \t\t\t    uint256 amount\\n    ) inte...\n        tag 273\t\t\t    uint256 amount\\n    ) inte...\n          JUMPDEST \t\t\t    uint256 amount\\n    ) inte...\n          SWAP2 \t\t\tnder,\\n        uint256 amount\\...\n          POP \t\t\tnder,\\n        uint256 amount\\...\n          POP \t\t\te(\\n        address owner,\\n  ...\n          SWAP3 \t\t\tnt];\\n        require(accountB...\n          POP \t\t\tnt];\\n        require(accountB...\n          SWAP3 \t\t\tnt];\\n        require(accountB...\n          SWAP1 \t\t\tnt];\\n        require(accountB...\n          POP \t\t\tnt];\\n        require(accountB...\n          JUMP \t\t\tnt];\\n        require(accountB...\n        tag 202\t\t\t(0), \"ERC20: approve from zero...\n          JUMPDEST \t\t\t(0), \"ERC20: approve from zero...\n          PUSH 0\t\t\ter != add\n          PUSH [tag] 275\t\t\t to zero address\");\\n\\n       ...\n          DUP3 \t\t\tllowa\n          PUSH [tag] 199\t\t\t to zero address\");\\n\\n       ...\n          JUMP \t\t\t to zero address\");\\n\\n       ...\n        tag 275\t\t\t to zero address\");\\n\\n       ...\n          JUMPDEST \t\t\t to zero address\");\\n\\n       ...\n          SWAP1 \t\t\tRC20: approve to zero address\"...\n          POP \t\t\tRC20: approve to zero address\"...\n          SWAP2 \t\t\t(0), \"ERC20: approve from zero...\n          SWAP1 \t\t\t(0), \"ERC20: approve from zero...\n          POP \t\t\t(0), \"ERC20: approve from zero...\n          JUMP \t\t\t(0), \"ERC20: approve from zero...\n        tag 203\t\t\tpender] = amount;\\n        emi...\n          JUMPDEST \t\t\tpender] = amount;\\n        emi...\n          PUSH [tag] 277\t\t\t(\\n        address owner,\\n   ...\n          DUP2 \t\t\tnder,\n          PUSH [tag] 202\t\t\t(\\n        address owner,\\n   ...\n          JUMP \t\t\t(\\n        address owner,\\n   ...\n        tag 277\t\t\t(\\n        address owner,\\n   ...\n          JUMPDEST \t\t\t(\\n        address owner,\\n   ...\n          DUP3 \t\t\twan\n          MSTORE \t\t\tendAllowance(\\n        address...\n          POP \t\t\tpender] = amount;\\n        emi...\n          POP \t\t\tpender] = amount;\\n        emi...\n          JUMP \t\t\tpender] = amount;\\n        emi...\n        tag 73\t\t\t56 amount\\n    ) internal virt...\n          JUMPDEST \t\t\t56 amount\\n    ) internal virt...\n          PUSH 0\t\t\tf (c\n          PUSH 20\t\t\tax\n          DUP3 \t\t\t(uint256)\n          ADD \t\t\ttype(uint256).max)\n          SWAP1 \t\t\tance != type(uint256).max)\n          POP \t\t\tance != type(uint256).max)\n          PUSH [tag] 279\t\t\t     require(currentAllowance ...\n          PUSH 0\t\t\t \n          DUP4 \t\t\te\");\\n    \n          ADD \t\t\twance\");\\n        \n          DUP5 \t\t\tient a\n          PUSH [tag] 203\t\t\t     require(currentAllowance ...\n          JUMP \t\t\t     require(currentAllowance ...\n        tag 279\t\t\t     require(currentAllowance ...\n          JUMPDEST \t\t\t     require(currentAllowance ...\n          SWAP3 \t\t\t56 amount\\n    ) internal virt...\n          SWAP2 \t\t\t56 amount\\n    ) internal virt...\n          POP \t\t\t56 amount\\n    ) internal virt...\n          POP \t\t\t56 amount\\n    ) internal virt...\n          JUMP \t\t\t56 amount\\n    ) internal virt...\n        tag 84\t\t\t{\\n                _approve(ow...\n          JUMPDEST \t\t\t{\\n                _approve(ow...\n          PUSH 4E487B7100000000000000000000000000000000000000000000000000000000\t\t\tntAllowance - amount);\\n      ...\n          PUSH 0\t\t\tr\n          MSTORE \t\t\tder, currentAllowance - amount...\n          PUSH 32\t\t\trom,\n          PUSH 4\t\t\ts\n          MSTORE \t\t\t(address from, \n          PUSH 24\t\t\t amo\n          PUSH 0\t\t\t2\n          REVERT \t\t\to, uint256 amou\n        tag 204\t\t\t virtual {}\\n    function _aft...\n          JUMPDEST \t\t\t virtual {}\\n    function _aft...\n          PUSH 4E487B7100000000000000000000000000000000000000000000000000000000\t\t\tress from, address to, uint256...\n          PUSH 0\t\t\ta\n          MSTORE \t\t\tansfer(address from, address t...\n          PUSH 11\t\t\trovi\n          PUSH 4\t\t\th\n          MSTORE \t\t\tle which provid\n          PUSH 24\t\t\tontr\n          PUSH 0\t\t\ts\n          REVERT \t\t\tc access contro\n        tag 88\t\t\t where\\n * there is an account...\n          JUMPDEST \t\t\t where\\n * there is an account...\n          PUSH 0\t\t\t) t\n          PUSH [tag] 283\t\t\txclusive access to\\n * sp\n          DUP3 \t\t\t\\n * s\n          PUSH [tag] 188\t\t\txclusive access to\\n * sp\n          JUMP \t\t\txclusive access to\\n * sp\n        tag 283\t\t\txclusive access to\\n * sp\n          JUMPDEST \t\t\txclusive access to\\n * sp\n          SWAP2 \t\t\tgranted exclusive access to\\n ...\n          POP \t\t\tgranted exclusive access to\\n ...\n          PUSH FFFFFFFFFFFFFFFFFFFFFFFFFFFFFFFFFFFFFFFFFFFFFFFFFFFFFFFFFFFFFFFF\t\t\tabstract contract Ownable is C...\n          DUP3 \t\t\ts.\\n *\n          SUB \t\t\tions.\\n */\\nabstract contract ...\n          PUSH [tag] 284\t\t\tnctions.\\n */\\nabstract contra...\n          JUMPI \t\t\tnctions.\\n */\\nabstract contra...\n          PUSH [tag] 285\t\t\t  event OwnershipT\n          PUSH [tag] 204\t\t\t  event OwnershipT\n          JUMP \t\t\t  event OwnershipT\n        tag 285\t\t\t  event OwnershipT\n          JUMPDEST \t\t\t  event OwnershipT\n        tag 284\t\t\tnctions.\\n */\\nabstract contra...\n          JUMPDEST \t\t\tnctions.\\n */\\nabstract contra...\n          PUSH 1\t\t\te\n          DUP3 \t\t\texed \n          ADD \t\t\t indexed prev\n          SWAP1 \t\t\taddress indexed prev\n          POP \t\t\taddress indexed prev\n          SWAP2 \t\t\t where\\n * there is an account...\n          SWAP1 \t\t\t where\\n * there is an account...\n          POP \t\t\t where\\n * there is an account...\n          JUMP \t\t\t where\\n * there is an account...\n        tag 205\t\t\tddress indexed newOwner);\\n\\n ...\n          JUMPDEST \t\t\tddress indexed newOwner);\\n\\n ...\n          PUSH 0\t\t\tOwnership(i\n          DUP3 \t\t\t  func\n          DUP3 \t\t\t}\\n\\n\n          MSTORE \t\t\t);\\n    }\\n\\n    funct\n          PUSH 20\t\t\tetur\n          DUP3 \t\t\tual\n          ADD \t\t\tvirtual return\n          SWAP1 \t\t\t() public view virtual return\n          POP \t\t\t() public view virtual return\n          SWAP3 \t\t\tddress indexed newOwner);\\n\\n ...\n          SWAP2 \t\t\tddress indexed newOwner);\\n\\n ...\n          POP \t\t\tddress indexed newOwner);\\n\\n ...\n          POP \t\t\tddress indexed newOwner);\\n\\n ...\n          JUMP \t\t\tddress indexed newOwner);\\n\\n ...\n        tag 206\t\t\t{\\n        return _owner;\\n   ...\n          JUMPDEST \t\t\t{\\n        return _owner;\\n   ...\n          PUSH 4F776E61626C653A2063616C6C6572206973206E6F7420746865206F776E6572\t\t\t     _;\\n    }\\n\\n    function...\n          PUSH 0\t\t\t\\n\n          DUP3 \t\t\towner\"\n          ADD \t\t\tthe owner\");\\n \n          MSTORE \t\t\tis not the owner\");\\n        _...\n          POP \t\t\t{\\n        return _owner;\\n   ...\n          JUMP \t\t\t{\\n        return _owner;\\n   ...\n        tag 207\t\t\tpublic virtual onlyOwner {\\n  ...\n          JUMPDEST \t\t\tpublic virtual onlyOwner {\\n  ...\n          PUSH 0\t\t\tOwn\n          PUSH [tag] 289\t\t\tre(newOwner != address(0), \"Ow...\n          PUSH 20\t\t\t;\\n\n          DUP4 \t\t\tess\n          PUSH [tag] 205\t\t\tre(newOwner != address(0), \"Ow...\n          JUMP \t\t\tre(newOwner != address(0), \"Ow...\n        tag 289\t\t\tre(newOwner != address(0), \"Ow...\n          JUMPDEST \t\t\tre(newOwner != address(0), \"Ow...\n          SWAP2 \t\t\t  require(newOwner != address(...\n          POP \t\t\t  require(newOwner != address(...\n          PUSH [tag] 290\t\t\transferOwnership(newOwner);\\n ...\n          DUP3 \t\t\trna\n          PUSH [tag] 206\t\t\transferOwnership(newOwner);\\n ...\n          JUMP \t\t\transferOwnership(newOwner);\\n ...\n        tag 290\t\t\transferOwnership(newOwner);\\n ...\n          JUMPDEST \t\t\transferOwnership(newOwner);\\n ...\n          PUSH 20\t\t\ts \n          DUP3 \t\t\tddr\n          ADD \t\t\t   address o\n          SWAP1 \t\t\t{\\n        address o\n          POP \t\t\t{\\n        address o\n          SWAP2 \t\t\tpublic virtual onlyOwner {\\n  ...\n          SWAP1 \t\t\tpublic virtual onlyOwner {\\n  ...\n          POP \t\t\tpublic virtual onlyOwner {\\n  ...\n          JUMP \t\t\tpublic virtual onlyOwner {\\n  ...\n        tag 98\t\t\twner;\\n        _owner = newOwn...\n          JUMPDEST \t\t\twner;\\n        _owner = newOwn...\n          PUSH 0\t\t\t20Ex\n          PUSH 20\t\t\tre\n          DUP3 \t\t\transfer(a\n          ADD \t\t\ton transfer(addres\n          SWAP1 \t\t\t  function transfer(addres\n          POP \t\t\t  function transfer(addres\n          DUP2 \t\t\t\\n    func\n          DUP2 \t\t\tbool\n          SUB \t\t\tns (bool);\\n    funct\n          PUSH 0\t\t\te\n          DUP4 \t\t\t external\n          ADD \t\t\tunt) external ret\n          MSTORE \t\t\t256 amount) external returns (...\n          PUSH [tag] 292\t\t\tess account) external view ret...\n          DUP2 \t\t\tERC2\n          PUSH [tag] 207\t\t\tess account) external view ret...\n          JUMP \t\t\tess account) external view ret...\n        tag 292\t\t\tess account) external view ret...\n          JUMPDEST \t\t\tess account) external view ret...\n          SWAP1 \t\t\teOf(address account) external ...\n          POP \t\t\teOf(address account) external ...\n          SWAP2 \t\t\twner;\\n        _owner = newOwn...\n          SWAP1 \t\t\twner;\\n        _owner = newOwn...\n          POP \t\t\twner;\\n        _owner = newOwn...\n          JUMP \t\t\twner;\\n        _owner = newOwn...\n        tag 208\t\t\t   uint256 public constant MAX...\n          JUMPDEST \t\t\t   uint256 public constant MAX...\n          PUSH 0\t\t\t0**18\n          DUP2 \t\t\tant MA\n          MLOAD \t\t\t constant MAX\n          SWAP1 \t\t\t56 public constant MAX\n          POP \t\t\t56 public constant MAX\n          PUSH [tag] 294\t\t\t 250; // 2.5%\\n    uint256 pub...\n          DUP2 \t\t\tublic\n          PUSH [tag] 189\t\t\t 250; // 2.5%\\n    uint256 pub...\n          JUMP \t\t\t 250; // 2.5%\\n    uint256 pub...\n        tag 294\t\t\t 250; // 2.5%\\n    uint256 pub...\n          JUMPDEST \t\t\t 250; // 2.5%\\n    uint256 pub...\n          SWAP3 \t\t\t   uint256 public constant MAX...\n          SWAP2 \t\t\t   uint256 public constant MAX...\n          POP \t\t\t   uint256 public constant MAX...\n          POP \t\t\t   uint256 public constant MAX...\n          JUMP \t\t\t   uint256 public constant MAX...\n        tag 104\t\t\tP = 5;        // 0.005%\\n    u...\n          JUMPDEST \t\t\tP = 5;        // 0.005%\\n    u...\n          PUSH 0\t\t\t/ 0.00\n          PUSH 20\t\t\t; \n          DUP3 \t\t\tyFeeBP = \n          DUP5 \t\t\tc treas\n          SUB \t\t\tublic treasuryFeeBP = 1\n          SLT \t\t\t56 public treasuryFeeBP = 100;...\n          ISZERO \t\t\tnt256 public treasuryFeeBP = 1...\n          PUSH [tag] 296\t\t\tnt256 public treasuryFeeBP = 1...\n          JUMPI \t\t\tnt256 public treasuryFeeBP = 1...\n          PUSH [tag] 297\t\t\t // 1%\\n    bool public feesEn...\n          PUSH [tag] 186\t\t\t // 1%\\n    bool public feesEn...\n          JUMP \t\t\t // 1%\\n    bool public feesEn...\n        tag 297\t\t\t // 1%\\n    bool public feesEn...\n          JUMPDEST \t\t\t // 1%\\n    bool public feesEn...\n        tag 296\t\t\tnt256 public treasuryFeeBP = 1...\n          JUMPDEST \t\t\tnt256 public treasuryFeeBP = 1...\n          PUSH 0\t\t\tv\n          PUSH [tag] 298\t\t\t\\n    mapping(address => bool)...\n          DUP5 \t\t\tonstruc\n          DUP3 \t\t\tt;\\n\\n  \n          DUP6 \t\t\t isFeeExe\n          ADD \t\t\tblic isFeeExempt;\\n\\n   \n          PUSH [tag] 208\t\t\t\\n    mapping(address => bool)...\n          JUMP \t\t\t\\n    mapping(address => bool)...\n        tag 298\t\t\t\\n    mapping(address => bool)...\n          JUMPDEST \t\t\t\\n    mapping(address => bool)...\n          SWAP2 \t\t\tlic vault;\\n    mapping(addres...\n          POP \t\t\tlic vault;\\n    mapping(addres...\n          POP \t\t\tpublic treasuryWallet;\\n    Di...\n          SWAP3 \t\t\tP = 5;        // 0.005%\\n    u...\n          SWAP2 \t\t\tP = 5;        // 0.005%\\n    u...\n          POP \t\t\tP = 5;        // 0.005%\\n    u...\n          POP \t\t\tP = 5;        // 0.005%\\n    u...\n          JUMP \t\t\tP = 5;        // 0.005%\\n    u...\n        tag 209\t\t\tundingWallet,\\n        address...\n          JUMPDEST \t\t\tundingWallet,\\n        address...\n          PUSH 496E73756666696369656E742074726561737572790000000000000000000000\t\t\t;\\n        treasuryWalle\n          PUSH 0\t\t\tl\n          DUP3 \t\t\tunding\n          ADD \t\t\t _foundingWall\n          MSTORE \t\t\tallet = _foundingWallet;\\n    ...\n          POP \t\t\tundingWallet,\\n        address...\n          JUMP \t\t\tundingWallet,\\n        address...\n        tag 210\t\t\tallet;\\n        vault = new Di...\n          JUMPDEST \t\t\tallet;\\n        vault = new Di...\n          PUSH 0\t\t\tr] \n          PUSH [tag] 301\t\t\tFeeExempt[address(this)] = tru...\n          PUSH 15\t\t\tAD\n          DUP4 \t\t\t---\n          PUSH [tag] 205\t\t\tFeeExempt[address(this)] = tru...\n          JUMP \t\t\tFeeExempt[address(this)] = tru...\n        tag 301\t\t\tFeeExempt[address(this)] = tru...\n          JUMPDEST \t\t\tFeeExempt[address(this)] = tru...\n          SWAP2 \t\t\t     isFeeExempt[address(this)...\n          POP \t\t\t     isFeeExempt[address(this)...\n          PUSH [tag] 302\t\t\t---------- */\\n    function se...\n          DUP3 \t\t\tEna\n          PUSH [tag] 209\t\t\t---------- */\\n    function se...\n          JUMP \t\t\t---------- */\\n    function se...\n        tag 302\t\t\t---------- */\\n    function se...\n          JUMPDEST \t\t\t---------- */\\n    function se...\n          PUSH 20\t\t\t f\n          DUP3 \t\t\t\\n\\n \n          ADD \t\t\t   }\\n\\n    fu\n          SWAP1 \t\t\tbled;\\n    }\\n\\n    fu\n          POP \t\t\tbled;\\n    }\\n\\n    fu\n          SWAP2 \t\t\tallet;\\n        vault = new Di...\n          SWAP1 \t\t\tallet;\\n        vault = new Di...\n          POP \t\t\tallet;\\n        vault = new Di...\n          JUMP \t\t\tallet;\\n        vault = new Di...\n        tag 107\t\t\teExempt(address account, bool ...\n          JUMPDEST \t\t\teExempt(address account, bool ...\n          PUSH 0\t\t\twner\n          PUSH 20\t\t\t;\\n\n          DUP3 \t\t\tet = wall\n          ADD \t\t\tWallet = wallet;\\n \n          SWAP1 \t\t\tfoundingWallet = wallet;\\n \n          POP \t\t\tfoundingWallet = wallet;\\n \n          DUP2 \t\t\tallet) ex\n          DUP2 \t\t\tress\n          SUB \t\t\t(address wallet) ext\n          PUSH 0\t\t\tl\n          DUP4 \t\t\ttTreasury\n          ADD \t\t\tn setTreasuryWall\n          MSTORE \t\t\tfunction setTreasuryWallet(add...\n          PUSH [tag] 304\t\t\t        treasuryWallet = walle...\n          DUP2 \t\t\t   a\n          PUSH [tag] 210\t\t\t        treasuryWallet = walle...\n          JUMP \t\t\t        treasuryWallet = walle...\n        tag 304\t\t\t        treasuryWallet = walle...\n          JUMPDEST \t\t\t        treasuryWallet = walle...\n          SWAP1 \t\t\tOwner {\\n        treasuryWalle...\n          POP \t\t\tOwner {\\n        treasuryWalle...\n          SWAP2 \t\t\teExempt(address account, bool ...\n          SWAP1 \t\t\teExempt(address account, bool ...\n          POP \t\t\teExempt(address account, bool ...\n          JUMP \t\t\teExempt(address account, bool ...\n        tag 109\t\t\t       address to,\\n        ui...\n          JUMPDEST \t\t\t       address to,\\n        ui...\n          PUSH 0\t\t\t{\\n  \n          PUSH 60\t\t\tnt\n          DUP3 \t\t\tm, to, am\n          ADD \t\t\t(from, to, amount)\n          SWAP1 \t\t\ttransfer(from, to, amount)\n          POP \t\t\ttransfer(from, to, amount)\n          PUSH [tag] 306\t\t\t    return;\\n        }\\n\\n    ...\n          PUSH 0\t\t\t \n          DUP4 \t\t\txempt[fro\n          ADD \t\t\tFeeExempt[from] |\n          DUP7 \t\t\tled ||\n          PUSH [tag] 193\t\t\t    return;\\n        }\\n\\n    ...\n          JUMP \t\t\t    return;\\n        }\\n\\n    ...\n        tag 306\t\t\t    return;\\n        }\\n\\n    ...\n          JUMPDEST \t\t\t    return;\\n        }\\n\\n    ...\n          PUSH [tag] 307\t\t\tpt[to]) {\\n            _transf...\n          PUSH 20\t\t\tn;\n          DUP4 \t\t\t      ret\n          ADD \t\t\t          return;\\n\n          DUP6 \t\t\tount);\n          PUSH [tag] 193\t\t\tpt[to]) {\\n            _transf...\n          JUMP \t\t\tpt[to]) {\\n            _transf...\n        tag 307\t\t\tpt[to]) {\\n            _transf...\n          JUMPDEST \t\t\tpt[to]) {\\n            _transf...\n          PUSH [tag] 308\t\t\t        uint256 totalFeeBP = f...\n          PUSH 40\t\t\tee\n          DUP4 \t\t\t+ treasur\n          ADD \t\t\teBP + treasuryFeeB\n          DUP5 \t\t\t rewar\n          PUSH [tag] 196\t\t\t        uint256 totalFeeBP = f...\n          JUMP \t\t\t        uint256 totalFeeBP = f...\n        tag 308\t\t\t        uint256 totalFeeBP = f...\n          JUMPDEST \t\t\t        uint256 totalFeeBP = f...\n          SWAP5 \t\t\t       address to,\\n        ui...\n          SWAP4 \t\t\t       address to,\\n        ui...\n          POP \t\t\t       address to,\\n        ui...\n          POP \t\t\t       address to,\\n        ui...\n          POP \t\t\t       address to,\\n        ui...\n          POP \t\t\t       address to,\\n        ui...\n          JUMP \t\t\t       address to,\\n        ui...\n        tag 211\t\t\tuire(totalFeeBP <= MAX_FEE_BP,...\n          JUMPDEST \t\t\tuire(totalFeeBP <= MAX_FEE_BP,...\n          PUSH 0\t\t\te cap e\n          DUP2 \t\t\ting =\n          ISZERO \t\t\teeFounding = \n          ISZERO \t\t\tnt256 feeFounding = (\n          SWAP1 \t\t\t\\n        uint256 feeFounding ...\n          POP \t\t\t\\n        uint256 feeFounding ...\n          SWAP2 \t\t\tuire(totalFeeBP <= MAX_FEE_BP,...\n          SWAP1 \t\t\tuire(totalFeeBP <= MAX_FEE_BP,...\n          POP \t\t\tuire(totalFeeBP <= MAX_FEE_BP,...\n          JUMP \t\t\tuire(totalFeeBP <= MAX_FEE_BP,...\n        tag 212\t\t\tndingFeeBP) / 10_000;\\n       ...\n          JUMPDEST \t\t\tndingFeeBP) / 10_000;\\n       ...\n          PUSH [tag] 311\t\t\tP) / 10_000;\\n        \n          DUP2 \t\t\t     \n          PUSH [tag] 211\t\t\tP) / 10_000;\\n        \n          JUMP \t\t\tP) / 10_000;\\n        \n        tag 311\t\t\tP) / 10_000;\\n        \n          JUMPDEST \t\t\tP) / 10_000;\\n        \n          DUP2 \t\t\tardFe\n          EQ \t\t\trewardFeeBP) / 10_000;\\n      ...\n          PUSH [tag] 312\t\t\t(amount * rewardFeeBP) / 10_00...\n          JUMPI \t\t\t(amount * rewardFeeBP) / 10_00...\n          PUSH 0\t\t\ts\n          DUP1 \t\t\tr\n          REVERT \t\t\t56 feeTreasu\n        tag 312\t\t\t(amount * rewardFeeBP) / 10_00...\n          JUMPDEST \t\t\t(amount * rewardFeeBP) / 10_00...\n          POP \t\t\tndingFeeBP) / 10_000;\\n       ...\n          JUMP \t\t\tndingFeeBP) / 10_000;\\n       ...\n        tag 213\t\t\t treasuryFeeBP) / 10_000;\\n   ...\n          JUMPDEST \t\t\t treasuryFeeBP) / 10_000;\\n   ...\n          PUSH 0\t\t\tamoun\n          DUP2 \t\t\td - fe\n          MLOAD \t\t\teReward - fee\n          SWAP1 \t\t\tding - feeReward - fee\n          POP \t\t\tding - feeReward - fee\n          PUSH [tag] 314\t\t\t\\n\\n        _transfer(from, to...\n          DUP2 \t\t\t, to,\n          PUSH [tag] 212\t\t\t\\n\\n        _transfer(from, to...\n          JUMP \t\t\t\\n\\n        _transfer(from, to...\n        tag 314\t\t\t\\n\\n        _transfer(from, to...\n          JUMPDEST \t\t\t\\n\\n        _transfer(from, to...\n          SWAP3 \t\t\t treasuryFeeBP) / 10_000;\\n   ...\n          SWAP2 \t\t\t treasuryFeeBP) / 10_000;\\n   ...\n          POP \t\t\t treasuryFeeBP) / 10_000;\\n   ...\n          POP \t\t\t treasuryFeeBP) / 10_000;\\n   ...\n          JUMP \t\t\t treasuryFeeBP) / 10_000;\\n   ...\n        tag 113\t\t\t        _transfer(from, foundi...\n          JUMPDEST \t\t\t        _transfer(from, foundi...\n          PUSH 0\t\t\tsfer(f\n          PUSH 20\t\t\t_t\n          DUP3 \t\t\ty);\\n     \n          DUP5 \t\t\teeTreas\n          SUB \t\t\tt, feeTreasury);\\n      \n          SLT \t\t\tallet, feeTreasury);\\n        ...\n          ISZERO \t\t\tryWallet, feeTreasury);\\n     ...\n          PUSH [tag] 316\t\t\tryWallet, feeTreasury);\\n     ...\n          JUMPI \t\t\tryWallet, feeTreasury);\\n     ...\n          PUSH [tag] 317\t\t\tfer(from, address(vault), feeR...\n          PUSH [tag] 186\t\t\tfer(from, address(vault), feeR...\n          JUMP \t\t\tfer(from, address(vault), feeR...\n        tag 317\t\t\tfer(from, address(vault), feeR...\n          JUMPDEST \t\t\tfer(from, address(vault), feeR...\n        tag 316\t\t\tryWallet, feeTreasury);\\n     ...\n          JUMPDEST \t\t\tryWallet, feeTreasury);\\n     ...\n          PUSH 0\t\t\tV\n          PUSH [tag] 318\t\t\t\\ncontract DividendVault is Ow...\n          DUP5 \t\t\t immuta\n          DUP3 \t\t\t20 pub\n          DUP6 \t\t\te {\\n    E\n          ADD \t\t\tnable {\\n    ERC20 publ\n          PUSH [tag] 213\t\t\t\\ncontract DividendVault is Ow...\n          JUMP \t\t\t\\ncontract DividendVault is Ow...\n        tag 318\t\t\t\\ncontract DividendVault is Ow...\n          JUMPDEST \t\t\t\\ncontract DividendVault is Ow...\n          SWAP2 \t\t\t------- */\\ncontract DividendV...\n          POP \t\t\t------- */\\ncontract DividendV...\n          POP \t\t\t/* ---------------- DIVIDEND V...\n          SWAP3 \t\t\t        _transfer(from, foundi...\n          SWAP2 \t\t\t        _transfer(from, foundi...\n          POP \t\t\t        _transfer(from, foundi...\n          POP \t\t\t        _transfer(from, foundi...\n          JUMP \t\t\t        _transfer(from, foundi...\n        tag 115\t\t\tublic treasury;\\n\\n    struct ...\n          JUMPDEST \t\t\tublic treasury;\\n\\n    struct ...\n          PUSH 0\t\t\t=> H\n          PUSH 40\t\t\t[]\n          DUP3 \t\t\t    addre\n          ADD \t\t\trs;\\n    address[] \n          SWAP1 \t\t\tic holders;\\n    address[] \n          POP \t\t\tic holders;\\n    address[] \n          PUSH [tag] 320\t\t\tderList;\\n    uint256 public r...\n          PUSH 0\t\t\ty\n          DUP4 \t\t\td public \n          ADD \t\t\tended public payo\n          DUP6 \t\t\tIERC20\n          PUSH [tag] 193\t\t\tderList;\\n    uint256 public r...\n          JUMP \t\t\tderList;\\n    uint256 public r...\n        tag 320\t\t\tderList;\\n    uint256 public r...\n          JUMPDEST \t\t\tderList;\\n    uint256 public r...\n          PUSH [tag] 321\t\t\t   event Claim(address indexed...\n          PUSH 20\t\t\tor\n          DUP4 \t\t\t  constru\n          ADD \t\t\t\\n\\n    constructor(\n          DUP5 \t\t\t amoun\n          PUSH [tag] 196\t\t\t   event Claim(address indexed...\n          JUMP \t\t\t   event Claim(address indexed...\n        tag 321\t\t\t   event Claim(address indexed...\n          JUMPDEST \t\t\t   event Claim(address indexed...\n          SWAP4 \t\t\tublic treasury;\\n\\n    struct ...\n          SWAP3 \t\t\tublic treasury;\\n\\n    struct ...\n          POP \t\t\tublic treasury;\\n\\n    struct ...\n          POP \t\t\tublic treasury;\\n\\n    struct ...\n          POP \t\t\tublic treasury;\\n\\n    struct ...\n          JUMP \t\t\tublic treasury;\\n\\n    struct ...\n        tag 214\t\t\tss tokenAddress,\\n        addr...\n          JUMPDEST \t\t\tss tokenAddress,\\n        addr...\n          PUSH 4F6E6C7920746F6B656E00000000000000000000000000000000000000000000\t\t\tyAddress;\\n  \n          PUSH 0\t\t\ta\n          DUP3 \t\t\try = t\n          ADD \t\t\teasury = treas\n          MSTORE \t\t\t     treasury = treasuryAddres...\n          POP \t\t\tss tokenAddress,\\n        addr...\n          JUMP \t\t\tss tokenAddress,\\n        addr...\n        tag 215\t\t\tken = IERC20Extended(tokenAddr...\n          JUMPDEST \t\t\tken = IERC20Extended(tokenAddr...\n          PUSH 0\t\t\tfro\n          PUSH [tag] 324\t\t\ternal {\\n        require(msg.s...\n          PUSH A\t\t\tn\"\n          DUP4 \t\t\t to\n          PUSH [tag] 205\t\t\ternal {\\n        require(msg.s...\n          JUMP \t\t\ternal {\\n        require(msg.s...\n        tag 324\t\t\ternal {\\n        require(msg.s...\n          JUMPDEST \t\t\ternal {\\n        require(msg.s...\n          SWAP2 \t\t\tto) external {\\n        requir...\n          POP \t\t\tto) external {\\n        requir...\n          PUSH [tag] 325\t\t\t  if (from != address(0) && ho...\n          DUP3 \t\t\trom\n          PUSH [tag] 214\t\t\t  if (from != address(0) && ho...\n          JUMP \t\t\t  if (from != address(0) && ho...\n        tag 325\t\t\t  if (from != address(0) && ho...\n          JUMPDEST \t\t\t  if (from != address(0) && ho...\n          PUSH 20\t\t\to \n          DUP3 \t\t\tif \n          ADD \t\t\t    if (to !\n          SWAP1 \t\t\t }\\n        if (to !\n          POP \t\t\t }\\n        if (to !\n          SWAP2 \t\t\tken = IERC20Extended(tokenAddr...\n          SWAP1 \t\t\tken = IERC20Extended(tokenAddr...\n          POP \t\t\tken = IERC20Extended(tokenAddr...\n          JUMP \t\t\tken = IERC20Extended(tokenAddr...\n        tag 132\t\t\t && holders[to].lastClaim == 0...\n          JUMPDEST \t\t\t && holders[to].lastClaim == 0...\n          PUSH 0\t\t\tM LO\n          PUSH 20\t\t\ton\n          DUP3 \t\t\t\\n    func\n          ADD \t\t\t- */\\n    function \n          SWAP1 \t\t\t--------- */\\n    function \n          POP \t\t\t--------- */\\n    function \n          DUP2 \t\t\t\\n    }\\n\\n \n          DUP2 \t\t\tnder\n          SUB \t\t\tg.sender);\\n    }\\n\\n  \n          PUSH 0\t\t\tm\n          DUP4 \t\t\t      _cl\n          ADD \t\t\t{\\n        _claim(\n          MSTORE \t\t\tternal {\\n        _claim(msg.s...\n          PUSH [tag] 327\t\t\timAll(uint256 batchSize) exter...\n          DUP2 \t\t\t; i \n          PUSH [tag] 215\t\t\timAll(uint256 batchSize) exter...\n          JUMP \t\t\timAll(uint256 batchSize) exter...\n        tag 327\t\t\timAll(uint256 batchSize) exter...\n          JUMPDEST \t\t\timAll(uint256 batchSize) exter...\n          SWAP1 \t\t\t autoClaimAll(uint256 batchSiz...\n          POP \t\t\t autoClaimAll(uint256 batchSiz...\n          SWAP2 \t\t\t && holders[to].lastClaim == 0...\n          SWAP1 \t\t\t && holders[to].lastClaim == 0...\n          POP \t\t\t && holders[to].lastClaim == 0...\n          JUMP \t\t\t && holders[to].lastClaim == 0...\n        tag 216\t\t\tssed < batchSize; i++) {\\n    ...\n          JUMPDEST \t\t\tssed < batchSize; i++) {\\n    ...\n          PUSH 4F776E61626C653A206E6577206F776E6572206973207A65726F206164647265\t\t\trnal {\\n        uint256 balanc...\n          PUSH 0\t\t\ti\n          DUP3 \t\t\ts user\n          ADD \t\t\tdress user) in\n          MSTORE \t\t\tlaim(address user) internal {\\...\n          PUSH 7373000000000000000000000000000000000000000000000000000000000000\t\t\talan\n          PUSH 20\t\t\tif\n          DUP3 \t\t\t      \n          ADD \t\t\tr);\\n        if \n          MSTORE \t\t\teOf(user);\\n        if (balanc\n          POP \t\t\tssed < batchSize; i++) {\\n    ...\n          JUMP \t\t\tssed < batchSize; i++) {\\n    ...\n        tag 217\t\t\tardPool == 0) return;\\n\\n     ...\n          JUMPDEST \t\t\tardPool == 0) return;\\n\\n     ...\n          PUSH 0\t\t\tuse\n          PUSH [tag] 330\t\t\t share;\\n        holders[user]...\n          PUSH 22\t\t\t  \n          DUP4 \t\t\t   \n          PUSH [tag] 205\t\t\t share;\\n        holders[user]...\n          JUMP \t\t\t share;\\n        holders[user]...\n        tag 330\t\t\t share;\\n        holders[user]...\n          JUMPDEST \t\t\t share;\\n        holders[user]...\n          SWAP2 \t\t\timed += share;\\n        holder...\n          POP \t\t\timed += share;\\n        holder...\n          PUSH [tag] 331\t\t\tl -= share;\\n\\n        payoutT...\n          DUP3 \t\t\t   \n          PUSH [tag] 216\t\t\tl -= share;\\n\\n        payoutT...\n          JUMP \t\t\tl -= share;\\n\\n        payoutT...\n        tag 331\t\t\tl -= share;\\n\\n        payoutT...\n          JUMPDEST \t\t\tl -= share;\\n\\n        payoutT...\n          PUSH 40\t\t\t- \n          DUP3 \t\t\t---\n          ADD \t\t\t---------- T\n          SWAP1 \t\t\t ---------------- T\n          POP \t\t\t ---------------- T\n          SWAP2 \t\t\tardPool == 0) return;\\n\\n     ...\n          SWAP1 \t\t\tardPool == 0) return;\\n\\n     ...\n          POP \t\t\tardPool == 0) return;\\n\\n     ...\n          JUMP \t\t\tardPool == 0) return;\\n\\n     ...\n        tag 157\t\t\tTEGY ---------------- */\\n    ...\n          JUMPDEST \t\t\tTEGY ---------------- */\\n    ...\n          PUSH 0\t\t\t);\\n \n          PUSH 20\t\t\t, \n          DUP3 \t\t\tom(treasu\n          ADD \t\t\terFrom(treasury, a\n          SWAP1 \t\t\tn.transferFrom(treasury, a\n          POP \t\t\tn.transferFrom(treasury, a\n          DUP2 \t\t\taddress(0\n          DUP2 \t\t\tnsfe\n          SUB \t\t\t.transfer(address(0)\n          PUSH 0\t\t\to\n          DUP4 \t\t\t;\\n       \n          ADD \t\t\tunt);\\n        tok\n          MSTORE \t\t\ts), amount);\\n        token.tr...\n          PUSH [tag] 333\t\t\t\\n    }\\n\\n    function setPay...\n          DUP2 \t\t\tss);\n          PUSH [tag] 217\t\t\t\\n    }\\n\\n    function setPay...\n          JUMP \t\t\t\\n    }\\n\\n    function setPay...\n        tag 333\t\t\t\\n    }\\n\\n    function setPay...\n          JUMPDEST \t\t\t\\n    }\\n\\n    function setPay...\n          SWAP1 \t\t\t // burn\\n    }\\n\\n    functio...\n          POP \t\t\t // burn\\n    }\\n\\n    functio...\n          SWAP2 \t\t\tTEGY ---------------- */\\n    ...\n          SWAP1 \t\t\tTEGY ---------------- */\\n    ...\n          POP \t\t\tTEGY ---------------- */\\n    ...\n          JUMP \t\t\tTEGY ---------------- */\\n    ...\n        tag 170\t\t\t ---------------- VIEW -------...\n          JUMPDEST \t\t\t ---------------- VIEW -------...\n          PUSH 0\t\t\t*/\\n    \n          PUSH [tag] 335\t\t\tCount() external vie\n          DUP3 \t\t\ti\n          PUSH [tag] 188\t\t\tCount() external vie\n          JUMP \t\t\tCount() external vie\n        tag 335\t\t\tCount() external vie\n          JUMPDEST \t\t\tCount() external vie\n          SWAP2 \t\t\tldersCount() external vie\n          POP \t\t\tldersCount() external vie\n          PUSH [tag] 336\t\t\tt256) {\\n        retu\n          DUP4 \t\t\tt\n          PUSH [tag] 188\t\t\tt256) {\\n        retu\n          JUMP \t\t\tt256) {\\n        retu\n        tag 336\t\t\tt256) {\\n        retu\n          JUMPDEST \t\t\tt256) {\\n        retu\n          SWAP3 \t\t\t (uint256) {\\n        retu\n          POP \t\t\t (uint256) {\\n        retu\n          DUP3 \t\t\t\n          DUP3 \t\t\t\n          MUL \t\t\t}\\n\n          PUSH [tag] 337\t\t\t\n          DUP2 \t\t\t\n          PUSH [tag] 188\t\t\t\n          JUMP \t\t\t\n        tag 337\t\t\t\n          JUMPDEST \t\t\t\n          SWAP2 \t\t\t\n          POP \t\t\t\n          DUP3 \t\t\t\n          DUP3 \t\t\t\n          DIV \t\t\t\n          DUP5 \t\t\t\n          EQ \t\t\t\n          DUP4 \t\t\t\n          ISZERO \t\t\t\n          OR \t\t\t\n          PUSH [tag] 338\t\t\t\n          JUMPI \t\t\t\n          PUSH [tag] 339\t\t\t\n          PUSH [tag] 204\t\t\t\n          JUMP \t\t\t\n        tag 339\t\t\t\n          JUMPDEST \t\t\t\n        tag 338\t\t\t\n          JUMPDEST \t\t\t\n          POP \t\t\tunction holdersCount() externa...\n          SWAP3 \t\t\t ---------------- VIEW -------...\n          SWAP2 \t\t\t ---------------- VIEW -------...\n          POP \t\t\t ---------------- VIEW -------...\n          POP \t\t\t ---------------- VIEW -------...\n          JUMP \t\t\t ---------------- VIEW -------...\n        tag 218\t\t\t\n          JUMPDEST \t\t\t\n          PUSH 4E487B7100000000000000000000000000000000000000000000000000000000\t\t\t\n          PUSH 0\t\t\t\n          MSTORE \t\t\t\n          PUSH 12\t\t\t\n          PUSH 4\t\t\t\n          MSTORE \t\t\t\n          PUSH 24\t\t\t\n          PUSH 0\t\t\t\n          REVERT \t\t\t\n        tag 172\t\t\t\n          JUMPDEST \t\t\t\n          PUSH 0\t\t\t\n          PUSH [tag] 342\t\t\t\n          DUP3 \t\t\t\n          PUSH [tag] 188\t\t\t\n          JUMP \t\t\t\n        tag 342\t\t\t\n          JUMPDEST \t\t\t\n          SWAP2 \t\t\t\n          POP \t\t\t\n          PUSH [tag] 343\t\t\t\n          DUP4 \t\t\t\n          PUSH [tag] 188\t\t\t\n          JUMP \t\t\t\n        tag 343\t\t\t\n          JUMPDEST \t\t\t\n          SWAP3 \t\t\t\n          POP \t\t\t\n          DUP3 \t\t\t\n          PUSH [tag] 344\t\t\t\n          JUMPI \t\t\t\n          PUSH [tag] 345\t\t\t\n          PUSH [tag] 218\t\t\t\n          JUMP \t\t\t\n        tag 345\t\t\t\n          JUMPDEST \t\t\t\n        tag 344\t\t\t\n          JUMPDEST \t\t\t\n          DUP3 \t\t\t\n          DUP3 \t\t\t\n          DIV \t\t\t\n          SWAP1 \t\t\t\n          POP \t\t\t\n          SWAP3 \t\t\t\n          SWAP2 \t\t\t\n          POP \t\t\t\n          POP \t\t\t\n          JUMP \t\t\t\n        tag 175\t\t\t\n          JUMPDEST \t\t\t\n          PUSH 0\t\t\t\n          PUSH [tag] 347\t\t\t\n          DUP3 \t\t\t\n          PUSH [tag] 188\t\t\t\n          JUMP \t\t\t\n        tag 347\t\t\t\n          JUMPDEST \t\t\t\n          SWAP2 \t\t\t\n          POP \t\t\t\n          PUSH [tag] 348\t\t\t\n          DUP4 \t\t\t\n          PUSH [tag] 188\t\t\t\n          JUMP \t\t\t\n        tag 348\t\t\t\n          JUMPDEST \t\t\t\n          SWAP3 \t\t\t\n          POP \t\t\t\n          DUP3 \t\t\t\n          DUP3 \t\t\t\n          ADD \t\t\t\n          SWAP1 \t\t\t\n          POP \t\t\t\n          DUP1 \t\t\t\n          DUP3 \t\t\t\n          GT \t\t\t\n          ISZERO \t\t\t\n          PUSH [tag] 349\t\t\t\n          JUMPI \t\t\t\n          PUSH [tag] 350\t\t\t\n          PUSH [tag] 204\t\t\t\n          JUMP \t\t\t\n        tag 350\t\t\t\n          JUMPDEST \t\t\t\n        tag 349\t\t\t\n          JUMPDEST \t\t\t\n          SWAP3 \t\t\t\n          SWAP2 \t\t\t\n          POP \t\t\t\n          POP \t\t\t\n          JUMP \t\t\t\n        tag 177\t\t\t\n          JUMPDEST \t\t\t\n          PUSH 0\t\t\t\n          PUSH [tag] 352\t\t\t\n          DUP3 \t\t\t\n          PUSH [tag] 188\t\t\t\n          JUMP \t\t\t\n        tag 352\t\t\t\n          JUMPDEST \t\t\t\n          SWAP2 \t\t\t\n          POP \t\t\t\n          PUSH [tag] 353\t\t\t\n          DUP4 \t\t\t\n          PUSH [tag] 188\t\t\t\n          JUMP \t\t\t\n        tag 353\t\t\t\n          JUMPDEST \t\t\t\n          SWAP3 \t\t\t\n          POP \t\t\t\n          DUP3 \t\t\t\n          DUP3 \t\t\t\n          SUB \t\t\t\n          SWAP1 \t\t\t\n          POP \t\t\t\n          DUP2 \t\t\t\n          DUP2 \t\t\t\n          GT \t\t\t\n          ISZERO \t\t\t\n          PUSH [tag] 354\t\t\t\n          JUMPI \t\t\t\n          PUSH [tag] 355\t\t\t\n          PUSH [tag] 204\t\t\t\n          JUMP \t\t\t\n        tag 355\t\t\t\n          JUMPDEST \t\t\t\n        tag 354\t\t\t\n          JUMPDEST \t\t\t\n          SWAP3 \t\t\t\n          SWAP2 \t\t\t\n          POP \t\t\t\n          POP \t\t\t\n          JUMP \t\t\t\n        .data\n"
}